:020000040800F2
:10000000C05200205902000835400008D3360008CD
:10001000093D0008150C0008C95000080000000048
:100020000000000000000000000000009D0100082A
:100030008D13000800000000F1010008A14900082C
:1000400073020008730200087302000873020008BC
:10005000730200087302000873020008BB13000853
:10006000C11300087302000873020008A1120008FF
:10007000AD120008B91200087302000873020008EC
:10008000C51200087302000873020008730200081A
:10009000190C00087302000873020008C713000857
:1000A00073020008E94A000873020008730200089E
:1000B000F54A000873020008730200087302000882
:1000C000730200087302000873020008730200083C
:1000D00073020008730200087302000865500008EC
:1000E000730200087302000873020008730200081C
:1000F000730200087302000873020008730200080C
:1001000073020008730200087302000873020008FB
:10011000394C000873020008014B00087302000804
:10012000D112000873020008DD12000873020008F3
:1001300073020008730200087302000873020008CB
:10014000250C0008730200087302000873020008FF
:1001500073020008730200087302000873020008AB
:10016000730200087302000873020008730200089B
:100170007302000873020008730200080000000008
:100180007302000873020008DFF80CD000F088FB4F
:1001900000480047115B0008C05200202B4B196833
:1001A0000868B0E8F04F80F30988BFF36F8F4FF015
:1001B000000080F3118870470000000006480068C6
:1001C000006880F3088862B661B6BFF34F8FBFF353
:1001D0006F8F00DF00BF00BF08ED00E0DFF80C000C
:1001E000016841F470010160704700BF88ED00E0D4
:1001F000EFF30980BFF36F8F144B1A681EF0100FD6
:1002000008BF20ED108A20E9F04F106008B44FF0CD
:10021000500080F31188BFF34F8FBFF36F8F06F04C
:100220002FFA4FF0000080F3118808BC19680868A5
:10023000B0E8F04F1EF0100F08BFB0EC108A80F34A
:100240000988BFF36F8F704700BF00BF1001002007
:10025000EFF30580704700000648804706480047D6
:10026000FEE7FEE7FEE7FEE7FEE7FEE7FEE7FEE766
:10027000FEE7FEE7454A0008890100082DE9F05F26
:100280000546002092469B46884606468146402405
:100290001BE0284641464746224600F086F9534671
:1002A0005A46C01A914110D311461846224600F012
:1002B0006DF92D1A67EB01084F46224601200021F7
:1002C00000F064F917EB00094E41201EA4F101046F
:1002D000DFDC484631462A464346BDE8F09F40EA07
:1002E00001039B0703D009E008C9121F08C0042AB4
:1002F000FAD203E011F8013B00F8013B521EF9D29B
:100300007047D2B201E000F8012B491EFBD27047C2
:100310000022F6E710B513460A4604461946FFF7D1
:10032000F0FF204610BD2DE9FE4F81EA030404F0E2
:10033000004421F0004100944FF0000B23F00043F3
:1003400050EA01045ED052EA03045BD0C3F30A54BE
:10035000C1F30A552C44A4F2F3340194A0FB0254D7
:10036000C1F3130141F48011C3F3130343F4801369
:1003700001FB024400FB034E840A970A44EA8154BD
:1003800047EA8357A4FB076802958D0A05FB07859A
:100390004FEA932C04FB0C542705029D4FEA0658A4
:1003A00047EA1637B5EB08056EEB070C870E920E81
:1003B00047EA811742EA8312A7FB0201B6EB0B0161
:1003C00064EB00042B0D43EA0C335E1844EB1C5025
:1003D000DA465146E7FB0201C5F313044FEA0B333B
:1003E00043EA14534FEA0432019C43EA0603A4F1A2
:1003F0000C040294009CCDE900B400F02CF903B089
:10040000BDE8F08F00200146F9E72DE9F04D81EAC3
:10041000030404F0004B21F0004514464FF0000A9D
:1004200023F0004150EA050220D054EA01021DD019
:10043000C5F30A570246C5F31303C1F31300C1F312
:100440000A5640F4801543F48013A7EB0608101BEE
:10045000D64608F2FD3873EB050002D308F1010817
:1004600001E092185B41B8F1000F03DA0020014669
:10047000BDE8F08D00204FF48011064684460EE062
:10048000171B73EB050705D3121B63EB050306432C
:100490004CEA010C49084FEA300092185B4150EADF
:1004A0000107EDD152EA030012D082EA040083EA88
:1004B0000501084305D0101BAB4106D201220023E1
:1004C00006E000224FF0004302E06FF001025310FB
:1004D0001AEB06004CEB085110EB0A0041EB0B0144
:1004E000BDE8F04D00F0A8B80EB540F233410291DE
:1004F0000021CDE900110A460B4600F0ACF803B02C
:1005000000BD00F0004230F000400AD0C10D01F5FE
:100510006071C0F3160042EA0151C208400711435E
:10052000704700200146704701F0004330B421F0CD
:10053000004150EA010206D00A0DA2F56072C1F333
:100540001301002A02DC30BC00207047440F44EA4B
:10055000C104C100E01830BC00EBC25000F035B857
:1005600030B50B46014600202022012409E021FA83
:1005700002F59D4205D303FA02F5491B04FA02F580
:100580002844151EA2F10102F1DC30BD202A04DB53
:10059000203A00FA02F1002070479140C2F1200396
:1005A00020FA03F3194390407047202A04DB203AD5
:1005B00021FA02F00021704721FA02F3D040C2F183
:1005C000200291400843194670470029A8BF704790
:1005D000401C490008BF20F00100704710B4B0FA79
:1005E00080FC00FA0CF050EA010404BF10BC704714
:1005F00049B1CCF1200421FA04F411FA0CF118BF2E
:10060000012121430843A3EB0C01CB1D4FEA0061FC
:100610004FEA102042BF002010BC704700EBC350CF
:1006200010440029A4BF10BC7047401C490008BFFB
:1006300020F0010010BC704710B5141E73F10004C7
:1006400008DA401C41F1000192185B411A4301D1C4
:1006500020F0010010BD2DE9F04D92469B4611B1EE
:10066000B1FA81F202E0B0FA80F220329046FFF750
:100670008DFF04460F4640EA0A0041EA0B0153464B
:100680005A46084313D0114653EA010019D0C8F165
:1006900040025046FFF789FF05460E465046594630
:1006A0004246FFF773FF084305D0012004E02046CF
:1006B0003946BDE8F08D0020054346EAE0762C433C
:1006C00037430A986305E40AA0EB08000022FD0AFC
:1006D00044EA47540A3002D500200146E9E7010503
:1006E00010196941DDE9084500196941BDE8F04D7F
:1006F000A2E72DE9FE4F804681EA0300C00F0C46B9
:10070000009021F0004123F00045B8EB0200A94120
:1007100005D24046214690461C460B46024623F031
:100720000040104347D0270DC7F30A00C3F30A5116
:100730000290401A019040286BDAC3F3130040F492
:10074000801B0098924620B10023D2EB030A63EB92
:100750000B0B01985946C0F140025046FFF716FFB7
:1007600006460D4650465946019A00F0ABF810EB8C
:1007700008006141002487EA115284EAE7731A43B2
:1007800040D0009A62B3019A012A4FEA075215DC61
:10079000001B61EB02014FF0004202EA0752CDE973
:1007A0000042001C41F5801132462B46FFF753FFF3
:1007B00003B0BDE8F08F40462146F9E7001B61EB2E
:1007C0000201001C41F5801300185B412018A2F5BE
:1007D000001747EB030140EAD570B6196D4111E0EF
:1007E0006D084FEA360645EAC0754FEA0752001B0E
:1007F00061EB0201001C41F5801149084FEA30000D
:100800000019514132462B4603B0BDE8F04FFFF7C7
:1008100013BF0098012240000023D0EB020263EBDB
:10082000E073009821464FEAE074B8EB000061EBFA
:100830000401E9E783F000435BE781F0004158E7FA
:10084000C1F30A52C1F3130140F2FF3341F48011A6
:100850009A4202DA00200146704740F233439A423E
:10086000A2F2334202DC5242FFF79FBEFFF78EBE78
:1008700030B5041E71F1000404DB4FF00044404227
:1008800064EB0101141E73F1000405DB1C464FF0FC
:100890000043524263EB0403994208BF904230BDCB
:1008A000064C074D06E0E06840F0010394E80700BD
:1008B00098471034AC42F6D3FFF76AFC746E000818
:1008C000946E0008202A06DBCB17203A41FA02F08A
:1008D00043EAE07306E041FA02F3D040C2F120029D
:1008E000914008431946704770B58C1810F8015BA9
:1008F00015F0070301D110F8013B2A1106D110F8B9
:10090000012B03E010F8016B01F8016B5B1EF9D1BC
:100910002B0705D40023521E0DD401F8013BFAE742
:1009200010F8013BCB1A921C03E013F8015B01F8AD
:10093000015B521EF9D5A142D8D3002070BD10B57D
:100940000146806B026C12F0500F05D0806BC26CB8
:10095000BDE8104008461047016C41F40071016485
:1009600001688A6812F0405F17D18269AAB9CA6A21
:1009700012F4700F02D08A6852050ED44A6822F031
:1009800020024A60016C21F480710164016CC90489
:1009900003D4016C41F00101016400F0A9FE10BD17
:1009A00010B5806B40210164416C41F00401416449
:1009B00000F0A0FE10BD10B5806B00F09AFE10BDD7
:1009C000454910B54A6822F440324A604A68436893
:1009D0001A434A6001684A6822F480724A600168DA
:1009E0004A68036942EA03224A6001684A6822F0C1
:1009F00040724A6001684A6883681A434A60016825
:100A00008A6822F400628A6001688A68C3681A43AF
:100A10008A60816A6FF07062D14201688A6822F050
:100A200070628A6001688A680CD0836A1A438A609F
:100A300001688A6822F040528A6001688A68C36A45
:100A40001A4301E022F040528A6001688A6822F06D
:100A500002028A6001688A68836942EA43028A6006
:100A6000016A002901684A680FD042F400624A60B6
:100A700001684A6822F460424A6001684A68174C7B
:100A8000436A04EB43331A4301E022F400624A60F4
:100A90000168CA6A22F47002CA620168CA6A838B5A
:100AA0000F4C04EB03531A43CA6201688A6822F4AC
:100AB00000728A6001688A68036B42EA43228A6096
:100AC00001688A6822F480628A6001688A684069E5
:100AD00042EA8020886010BD0023014000E0FFFF53
:100AE0000000F0FF10B502F095FF02F0F7FE02F0F3
:100AF000C7FE02F097FE03F0BBF803F0DFF803F047
:100B000091F802F0E7FD02F01DFE02F053FE03F043
:100B100051F803F017F82E4801F036FB2D4801F08C
:100B200033FB0A222C492D4800F0C4FE0A222C492E
:100B30002C4800F0BFFE0A222B492C4800F0BAFED8
:100B40002B480068016821F09E0101602948006877
:100B5000016821F09E01016027480068016821F0CA
:100B60009E010160C8222549254802F007FD0722A1
:100B70002449254802F002FD21480068C16841F07F
:100B80001001C16020480068C16841F01001C160D7
:100B90001E480068016821F0080101601C480068D7
:100BA000016821F008010160094800F02BF90948AB
:100BB00000F028F90221064800F0FCFE0221054859
:100BC00000F0F8FEBDE810404FF47A7001F086BCEA
:100BD000100B0020380B002010110020600B0020AB
:100BE00038110020A80B002060110020F00B00201D
:100BF000380C0020980C0020F80C0020AD0F0020CD
:100C00009C0700206E0000209C0600207C0800202D
:100C10003C090020FEE70000014801F047B8000051
:100C2000100B0020014801F041B80000380B0020F3
:100C3000044801884ABA04498A80408840BAC8807A
:100C4000704700001E0000203C000020074801887B
:100C50004ABA07494A82428852BA0A80828852BAFE
:100C60004A8082790A72C079487270471E0000205B
:100C7000761000200748084A094B018849BA09B292
:100C8000516141884ABA05494A8002791A7040790F
:100C9000087070471E000020C00E00203C0000209D
:100CA000280000200F4930B408220A6100228A601F
:100CB00012230B600C4BCA600C495C88250A0D702E
:100CC0004C709C88250A8D70CC709B790B71084BF9
:100CD0005B784B718A71CA710A4630BC01230149A5
:100CE00000F07CBE2C0F0020780000205400002073
:100CF0008C100020104930B408220A6100228A605A
:100D000014230B600D4BCA600D495C88250A0D70D9
:100D10004C709C88250A8D70CC709B790B714A7140
:100D2000084A9289130A8B71CA710A4630BC0123A2
:100D3000014900F053BE00005C0F0020800000203D
:100D4000640000208C100020134930B408220A618E
:100D500000228A60CA6011220A60104A90315388CA
:100D60001C0A0C704B7092ED070ABCEEC00A10EE24
:100D7000103A1B0A8B7010EE103ACB70538A1C0A83
:100D80000C714B71D289130A8B71CA7101230A4607
:100D900030BC903900F022BE140F00208C100020CF
:100DA000144930B408220A6100228A60CA60132202
:100DB0000A60114A114953780B7053881C0A4C7011
:100DC0008B7092ED060ABCEEC00A10EE103A1B0AB8
:100DD000CB7010EE103A0B71128A130A4B718A71A4
:100DE000074A01231278CA710A4630BC014900F053
:100DF000F5BD0000440F00208C1000205C00002096
:100E00002900002000B58BB000210122CDE9061297
:100E100003910892094A0091019102910491904234
:100E200000D1059105492831884201D10E21059153
:100E3000694600F037FE0BB000BD0000100B00202B
:100E4000074800B5F0EE401AB0EE601A90ED040AC3
:100E5000F0EE610A00F09BFA80ED040A00BD00008C
:100E600088110020184B10B419881548A1F580612D
:100E700001EB810259880478A1F5806101EB8101C1
:100E800010484942012C11D000EE102AB8EEC00AD9
:100E900080ED020A00EE101AB8EEC00A80ED000ADA
:100EA000187A01280AD110BC04F024BE524200EE88
:100EB000102AB8EEC00A80ED010AEBE710BC7047BB
:100EC000280000206C010020761000201CB5C820EE
:100ED00004F048FE05F0F6FCDFF86C81002101907B
:100EE00088F8001000F00CF9DFF864A1DFF85C91DD
:100EF0000AF59076574F06F19005012003F016FA97
:100F000099F8000010B101282FD103E050469AED66
:100F1000021A23E050484069404200EE100AB8EE41
:100F2000C00ADFED4E0A4A48103004F04FFE484830
:100F30001030D0ED140A4A48B0F90000404200EEEB
:100F4000100A4348B8EEC00A903004F03FFE404813
:100F5000903090ED140A5046B1EE401AD0ED000AE0
:100F60009AED010A3F4804F0E8FD002406EB8400F6
:100F7000D0ED000AC4EB041037F9200000EE100A8F
:100F800005EBC410B8EEC00A04F020FE641C042C6B
:100F9000ECDB344C286D103C206095ED340A84ED78
:100FA000010A95ED540A84ED020A95ED740A84ED68
:100FB000030AFFF7A6FA41EC100B2BA053EC102B01
:100FC00004F084F8204603F009FC2068FFF799FA42
:100FD00041EC100B28A053EC102B04F077F8D4ED63
:100FE000001AC5ED141A94ED011A85ED341AD4EDEA
:100FF000020AC5ED540A94ED030A85ED740A98F8C7
:10100000000001281CD0BDEEC00A10EE100ABDEE93
:10101000E00A00B2009010EE100ABDEEC10A03B261
:1010200010EE100ABDEEE10A02B210EE100A01B293
:10103000144800F029F8052101A804F09AFD5CE7A6
:10104000104800F043F8F6E72600002028000020B2
:101050006C010020940D0020C00E00200000000054
:101060003E0000208C020020626566656F723A25A2
:1010700066200A202000000061667465723A2566C9
:101080000A000000380B0020F0B40E4C0826049D26
:1010900026610026A660E6604FF4007626600A4CC2
:1010A0000E0A26706170110AA170E270190A21718E
:1010B0006371290AA171E5712246F0BC012301493F
:1010C00000F08CBC740F0020440000200A4A082164
:1010D0004FF400731161002191601360D160074AE1
:1010E0000123117051709170D17011715171917112
:1010F000D171014900F072BC740F0020440000203F
:101100002DE9F04141F288352DED028BB3EE041A42
:101110009FED248AB7EE080A2B46F0EE480A6A00D3
:101120000321214802F0C0FF1F489FED200A4FF421
:101130007A7480ED1A0A40F6B836B3EE041ADFED81
:101140001C0AB1EE000A234632460321A0F5907036
:1011500002F0AAFF1448B0EE481AF0EE480A9FEDDC
:10116000150A234632460321A03802F09DFF0E4E99
:1011700000249FED118A803643F69827F0EE480A46
:1011800006EBC410B0EE601AB7EE080A2B463A46DA
:10119000032102F089FF641C042CEFDBBDEC028B01
:1011A000BDE8F081000000009C0200200000164312
:1011B0000AD7233CCDCC4C3FCDCCCC3D08B56420E8
:1011C00004F0D0FC05F07EFB334D344C0090688A6F
:1011D000C10719D000220121204601F07BFA6421C9
:1011E000684604F0C6FC01221146204601F072FA5E
:1011F000C821684604F0BDFC01221146204601F0DA
:1012000069FA4FF4FA6143E0810712D50022012107
:10121000204601F05FFA6421684604F0AAFC01222E
:101220001146204601F056FAC821684604F0A1FC98
:10123000D0E7410712D500220121204601F04AFAE9
:101240006421684604F095FC01221146204601F015
:1012500041FAC821684604F08CFCD7E7000712D594
:1012600000220121204601F035FA6421684604F08D
:1012700080FC01221146204601F02CFAC821684664
:1012800004F077FCD7E70121204601F01FFA102176
:10129000684604F06EFC9AE7C81000200004024083
:1012A000014800F0A5BF00009C090020014800F0A3
:1012B0009FBF00007C080020014800F099BF00009B
:1012C0003C090020014800F093BF0000DC0800202A
:1012D000014800F08DBF0000380C0020014800F0EC
:1012E00087BF00001C08002001681823CAB2103A0A
:1012F000B2FBF3F2054B6FF30901032A9B5CC36554
:1013000000D9091D8165084670470000046E000879
:1013100010B5014600208B698A6A4FF0C07453B142
:10132000B3F5005F15D072B1012A0CD0022A0AD0A1
:10133000032A09D104E01AB1012A06D0022A03D1F6
:10134000C96AC90100D5012010BDC96AA142FAD0FD
:1013500010BD002AF7D0012AF2D0022AF3D0032AC6
:10136000F3D010BD30B50468256825F480252560CC
:10137000046863608368402B036803D09960006849
:10138000C26030BD9A600068C16030BD704770EEC9
:10139000601AF5EEC01AF1EE10FA01DCF1EE611AF6
:1013A000F4EEC11AF1EE10FA06D2B4EEE00AF1EE54
:1013B00010FA01DA30EEC10A7047022001F0A2B83B
:1013C000042001F09FB810B5202001F09BF8BDE883
:1013D0001040402001F096B82DE9F0412DED028B30
:1013E0009FED520A524D0020D5F8081051F82020E8
:1013F000401C00EE902AC0B20A28F8EE600A30EED7
:10140000800AF3D3B2EE041A4A4CC0EE010AB4F9D2
:101410000C009FED491A2146B0EE040A91ED018AB5
:10142000F3EE091AC82806DD10EE810A10EE218AB3
:1014300084ED008A28E010EE810A401C06B2A681E5
:10144000322E60EE218AC4ED008A1DDD3B48408EBD
:10145000FFF74AF89FED3A1B53EC112BFEF763FFA1
:10146000FFF762F800EE100AC82E84ED020A38EE8B
:10147000C00A30EE080A84ED010A05DDDFED320A0C
:1014800080EE201A84ED011AD5E90512D5E903632F
:10149000002000BF56F82070394453F82070401CDB
:1014A000C0B23A440A28F5D30A23B1FBF3F0B2FBE9
:1014B000F3F100EE100AC5E905011E48F8EE400AF6
:1014C00000EE101A3030B8EE400A90ED011A80EDAF
:1014D000001A30EEC00ADFED1D0AD0ED021A20EE30
:1014E000200AC0ED011A31EE211ADFED190A90ED44
:1014F000032A20EE200A80ED022A31EE021AD0EDF6
:10150000040AC0ED030A71EE200A80ED040A30EEF1
:10151000800AF1EE040A80ED050A80EE201A84EDBF
:10152000041ABDEC028BBDE8F08100000000000051
:101530009000002088110020ED32533A8C100020DA
:10154000FCA9F1D24D62503F00001643E72E533AFA
:1015500053D6244110B5114C2178207AFD2911D0A1
:10156000FF290ED1FE280CD1082002F0C7FE34F866
:10157000010F41BA0A484180618849BA81802179C6
:10158000817110BDFC28FCD1072002F0B7FE34F8B1
:10159000010F41BA02480838EDE700006E00002054
:1015A0008000002078B50024009490F83C20012AA7
:1015B00019D0012280F83C200A6807230568092A0F
:1015C00013D9EE680A3A02EB420293409E43EE6062
:1015D0000B788A680A3B03EB43039A400368DD6893
:1015E0002A43DA6010E0022078BD2E6902EB420245
:1015F00093409E432E610B788A6803EB43039A4025
:1016000003681D692A431A614A681F23072A13D2F7
:1016100005686E6B521E02EB820293409E436E631E
:101620000B790A885B1E92B203EB83039A4003682E
:101630005D6B2A435A6327E005680D2A12D22E6B90
:10164000D21F02EB820293409E432E630B790A88DD
:10165000DB1F92B203EB83039A4003681D6B2A439E
:101660001A6311E0EE6A0D3A02EB820293409E4348
:10167000EE620B790A880D3B92B203EB83039A402A
:101680000368DD6A2A43DA62164B0568144A9D42F4
:1016900006D10D68122D03D1556845F480055560BB
:1016A00005689D4218D10B68102B01D0112B13D166
:1016B000536843F400035360096810290CD10A49A8
:1016C0000A4A0968B1FBF2F101EB8101490000E02F
:1016D000491E00910029FBD180F83C40002078BDD4
:1016E0000023014000200140E800002040420F009C
:1016F00070477047704770B504004FF0000503D085
:10170000206C002610B107E0012070BD666484F8EB
:101710003C60204600F01AF8206CC00610D4206C03
:1017200020F4885040F0020020642046FFF748F97A
:101730006664206C20F0020040F00100206400E0AC
:10174000012584F83C60284670BD00002DE9F04773
:10175000054603684D48DFF830C1002403214C4A98
:101760000615871486B04FF480484FF4807963459E
:101770002AD1036843F480730360006800F480702A
:10178000059002208DE813006946104600F0C6FE61
:10179000DFF804A13F4950460AF10C03C0E90014E8
:1017A000CAF8084083E8D003CAF82040CAF82440A9
:1017B00000F0EEFD08B1CF2162E0C5F838A0CAF80C
:1017C000385006B0BDE8F087DFF8D0C0634529D1B6
:1017D000036843F400730360006800F40070059030
:1017E00004208DE813006946104600F097FEDFF8EC
:1017F000A8A028490AF1600A30315046CAF8001002
:101800004FF00071C0E901140AF10C0383E8D00322
:10181000CAF82040CAF8244000F0BAFD0028CCD015
:10182000F6212DE0DFF878C06345CAD1036843F4A0
:1018300080630360006800F48060059008208DE8F4
:1018400013006946104600F069FEDFF84CA011490C
:101850000AF1C00A18315046CAF800104FF08061F2
:10186000C0E901140AF10C0383E8D003CAF8204050
:10187000CAF8244000F08CFD00289ED040F21D11D3
:1018800008A003F022FC98E7002001404438024001
:101890000000024010640240380C0020002101408A
:1018A000002201402E2E2F5372632F6164632E633A
:1018B00000000000F8B50E4600210446009190F8A3
:1018C0003C00012807D0012084F83C002068836890
:1018D000DB0702D011E00220F8BD836843F001036A
:1018E00083602D482D4B0068B0FBF3F000EB400007
:1018F00000E0401E00900028FBD120688368DB07D1
:1019000048D0236C40F20165AB4343F480732364F9
:101910004068400505D5206C20F4005040F480500C
:101920002064206CC00404D5606C20F00600606464
:1019300000E0616484F83C10A16B1A48184DC8633C
:10194000A16B19480864A16B1848C86421686FF03E
:10195000220008602068416841F080614160206891
:10196000816841F4807181602168134632464C31B0
:10197000A06B00F077FD6868C006206802D00C49B3
:10198000884207D1816811F0405F03D1816841F03E
:10199000804181600020F8BDE800002040420F0037
:1019A000002301403F090008B7090008A109000809
:1019B0000020014090F82020012A09D090F8202032
:1019C000022A05D0416A41F480214162012070471A
:1019D000006842690A43426100207047F0B590F800
:1019E0002040012C07D090F82040022C03D0416AFF
:1019F00041F4802153E00468A5686D0105D4A56811
:101A00002D0102D4A568ED0046D5A4680125C4F3D4
:101A10000164A5401D608D684FF4C0739DB1CE6810
:101A200035434E6845EAC605066803EB0417F551D1
:101A30004FF4C275076805EB04150E697E51097DE8
:101A4000012905D009E00E88CD6845EA4655EBE747
:101A500001684E5946F480764E511179D2F80550FE
:101A60004FF4C67641EA0521056806EB0416A95134
:101A70001178D2F801204FF4C47541EA02210268BE
:101A800005EB04155151006803EB0411425842F074
:101A9000010242500020F0BD416A41F40011416250
:101AA0000120F0BD10B590F82020012A09D090F84F
:101AB0002020022A05D0416A41F4802141620120A0
:101AC00010BD3A48D0F8002242F00102C0F80022CE
:101AD000D0F8002222F47C52C0F80022D0F8002274
:101AE0004B6A42EA0322C0F800220B7D01229A4091
:101AF000D0F81C329343C0F81C32CB69B3B9D0F88C
:101B00000C329343C0F80C328C894B6864F31F434A
:101B10004C6900EBC404C4F840320C890B6864F3D0
:101B20001F434C6900EBC404C4F84432CB69012B59
:101B300016D1D0F80C321343C0F80C320C884B6825
:101B400064F31F434C6900EBC404C4F840320C89B1
:101B5000CB6864F31F434C6900EBC404C4F84432FF
:101B60008B69002BD0F804320ED01343C0F8043236
:101B70000B69002BD0F8143208D01343C0F814328C
:101B8000096A012904D008E09343EFE79343F5E79E
:101B9000D0F81C121143C0F81C12D0F8001221F02A
:101BA0000101C0F80012002010BD000000640040D8
:101BB000704730B590F82040012C07D090F82040B5
:101BC000022C03D0416A41F4802109E011B10129BE
:101BD00009D00CE00468E46807E0416A41F40011B0
:101BE0004162012030BD04682469A407F5D04FF498
:101BF000D874056804EB01142D5915F0040595609F
:101C000005682D5942D0ED08556005682C59C4F37C
:101C10004004D4604FF4DA74056804EB01142D59C4
:101C200005F00F05156105682D59C5F30725956168
:101C300005682C59240C54614FF4DC72046802EBE3
:101C40000112A4581C700468A458240A5C7004682B
:101C5000A458240C9C700468A258120EDA704FF439
:101C6000DE72046802EB0112A4581C710468A458C7
:101C7000240A5C710468A458240C9C710468A2585E
:101C8000120EDA7129B1012909D00DE06D0D156030
:101C9000BBE70068C16841F02001C16004E0006852
:101CA000016941F020010161002030BD2DE9F05FA4
:101CB0000546006800244669D0F804908768D0F88B
:101CC0000CB0D0F810A0D0F81880F10748D0F90770
:101CD00014D001218160B80703D5284600F081FAAD
:101CE0000CE0780702D54FF4006407E0380702D50E
:101CF0004FF4805402E0284600F072FAF80516D539
:101D000029684FF480708860B80503D5284600F034
:101D10006AFA0CE0780502D544F4005407E038056F
:101D200002D544F4804402E0284600F05BFAF80350
:101D300016D529684FF480308860B80303D528464B
:101D400000F053FA0CE0780302D544F4004407E0B5
:101D5000380302D544F4803402E0284600F044FA07
:101D6000300707D55FEACB6004D52968102044F41A
:101D70000074C86070074FF0080707D55FEA0B7062
:101D800004D52868C760284600F07CF9B00706D55E
:101D90002868C068800702D0284600F075F97006F0
:101DA00007D55FEACA6004D52968102044F480642E
:101DB0000861B00607D55FEA0A7004D52868076194
:101DC000284600F0DDF9F00606D52868006980078E
:101DD00002D0284600F0D5F9B00308D55FEAC96003
:101DE00005D5296810204860284600F0CBF9F0039B
:101DF00007D55FEA097004D528684760284600F0D7
:101E0000F5F9300446D55FEA497040D5F00504D5B0
:101E10005FEAC87001D044F00104B00504D55FEA60
:101E2000887001D544F00204700504D55FEA48705B
:101E300001D544F00404300529D518F0700F26D0E0
:101E400008F07000402815D006DC102809D02028A2
:101E50000AD0302816D10AE050280ED0602811D1BF
:101E60000EE044F008040DE044F010040AE044F0F1
:101E7000200407E044F0400404E044F0800401E062
:101E800044F480742868816921F0700181612968B7
:101E900004204860002C05D0686A20436862284608
:101EA000FFF786FEBDE8F09F70B5040003D094F8FC
:101EB000200010B104E0012070BD204600F082F83F
:101EC0002068016821F00201016000F009FC05466C
:101ED000052604E000F004FC401B0A2811D8206805
:101EE00040688007F6D42068016841F00101016074
:101EF00000F0F6FB05460BE000F0F2FB401B0A2861
:101F000006D9606A40F40030606284F82060D2E74D
:101F100020684068C007EFD0207E01282068016853
:101F20003DD021F080010160607E012820680168B9
:101F300038D021F040010160A07E012820680168AE
:101F400033D021F020010160E07E01282068016883
:101F50002ED041F010010160207F01282068016827
:101F600029D021F008010160607F01282068016804
:101F700024D021F004010160D4E902010843D4E92E
:101F80000412114308436168491E08432168C8616F
:101F900000206062012084F82000002070BD41F024
:101FA0008001C0E741F04001C5E741F02001CAE7E8
:101FB00021F01001CFE741F00801D4E741F004011E
:101FC000D9E70000F0B52A4B0768DFF8A0C0186811
:101FD00003220224092527490026401C87B06745B3
:101FE00019D11860012807D1086840F00070086016
:101FF000086800F0007005908DE85400CDE90325D5
:1020000069461D4800F08AFA00220521142000F0DC
:1020100017FC142026E0DFF864C0674524D10F6860
:1020200047F080670F600F68012807F08067059709
:10203000186007D1086840F000700860086800F078
:10204000007005904FF440508DE85100CDE9032514
:1020500069460B4800F062FA00220521402000F09A
:10206000EFFB402000F0E0FB07B0F0BD0064004053
:102070003800002040380240000C02400068004058
:10208000000402407047000070B537493326374DD1
:10209000374C884238D1A31C2A460021FFF789FD1E
:1020A0002868B0F5887F1AD0A0F5807019381FD045
:1020B00007280CD0EA281AD1052002F01FF92D4874
:1020C000C16A4A1CC26232291AD8274941E0042059
:1020D00002F014F9BDE870402348FEF7CBBD0420A0
:1020E00002F00CF92048FEF7B1FD0120207070BD10
:1020F000042002F003F9BDE870401B48FEF798BDCC
:10210000C66219491B482AE01B498842EFD1184B87
:10211000164A9B1C0021FFF74CFD2868A0F50070B3
:10212000013805D0012803D0022801D0032801D1AD
:1021300002F0E4F82878401EC0B26070C0EB0011D5
:102140000E4800EB8100C16A4A1CC262322904D8E1
:102150000949BDE8704003F0C5BC0749C662BDE847
:10216000704003F09BBC0000100B002050010020C9
:102170001C000020840E0020380B0020940D00204D
:10218000704770477047000070B5044690F8200013
:10219000012804D0606A40F40020606218E0022048
:1021A00084F820002068016821F00101016000F03E
:1021B00097FA05460EE000BF00F092FA401B0A288D
:1021C00008D9606A40F400306062052084F820007D
:1021D000012070BD20684068C007EDD1606270BD0D
:1021E00070477047704770477047704770470000EE
:1021F0002DE9F84304464FF00009CDF800906348FC
:102200004FF41651A56D0068B0FBF1F72E6894F8F5
:102210005C10082000FA01F131420FD021680A68F1
:1022200052070BD50A6822F004020A6094F85C1089
:102230008840A860606D40F00100606594F85C1013
:102240004FF0010808FA01F0304208D021684969CE
:10225000090604D5A860606D40F00200606594F83E
:102260005C1004208840304208D021680968890742
:1022700004D5A860606D40F00400606594F85C10BF
:1022800010208840304218D021680968090714D509
:10229000A86020680168490304D50068000308D5D8
:1022A000A16C07E00168C90503D4016821F00801A9
:1022B0000160216C09B12046884794F85C10202009
:1022C0008840304231D021680968C9062DD5A86000
:1022D00094F8350005282068016806D0490347D5E1
:1022E000006800031DD4616C1CE021F01601016040
:1022F0002068416921F080014161206C08B9A06C1F
:1023000020B12068016821F00801016094F85C1098
:102310003F208840A86084F8349084F83580216D8F
:102320001FE0E16B09B120468847606D00282BD083
:10233000606DC00714D0052084F83500206801685E
:1023400021F0010101600098401C0090B84203D8C0
:1023500020680068C007F6D184F8349084F835808E
:10236000E16C002910D001B02046BDE8F0430847D9
:102370000168C905D5D4016821F01001016084F815
:10238000349084F83580CCE7BDE8F883E80000207D
:102390002DE9F041044600F0A3F906465CB10025A2
:1023A00084F83450022084F835002068016821F058
:1023B000010101600DE00120BDE8F08100F090F91D
:1023C000801B052805D920206065032084F835008E
:1023D000F2E720680068C007F0D122681168204841
:1023E0000140D4E901031843D4E9033633431843C9
:1023F00063691843A3691843E3691843236A1843C0
:102400000843616A042903D1D4E90B131943084333
:10241000106020684069666A20F0070130460E436C
:10242000012704280CD1A06A0643E06A40B1204687
:10243000FEF76EFF20B14020606584F83570BAE782
:10244000206846612046FEF74FFF94F85C203F214C
:1024500091408160656584F835700020ACE700002C
:102460003F8010F02DE9F0410446866D90F834006D
:10247000002501280DD0012084F8340094F835702F
:102480000020012F07D084F8340002252846BDE83B
:10249000F0810220FBE7022784F835706065204652
:1024A000FEF760FF94F85C103F208840B060206821
:1024B000016841F0160101602068416941F0800126
:1024C0004161206C20B12068016841F00801016081
:1024D0002068016841F001010160D7E770B504464A
:1024E00000F0FEF80546601C02D004480078044461
:1024F00000F0F6F8401BA042FAD370BDDC000020CB
:1025000070470000044910B50A68024202D0086012
:10251000FFF7F6FF10BD0000143C01402DE9F84F15
:10252000DFF87CB100224FF001084FF0030A4FF0B2
:102530000F090BF1040E00BF0B6808FA02F42340E8
:10254000A3426ED14D68022D01D0122D0ED1D508B7
:1025500000EB850CDCF820505607F70E09FA07F659
:10256000B5430E69BE402E43CCF820600668550086
:102570000F790AFA05FC07F0030726EA0C06AF40BC
:10258000374307604E68012E05D0022E03D0112E6E
:1025900001D0122E0ED18668CF6826EA0C06AF4015
:1025A000374387604668A6430C79C4F3001494400F
:1025B00034434460C6688C6826EA0C06AC40344359
:1025C000C4604C68E40065D5364C256845F4804508
:1025D0002560246822F0030504F480440094324C02
:1025E0002E19D6F8084895072F0F09FA07F5AC43BE
:1025F0002E4DA84201D1002524E02D4DA84201D145
:1026000001251FE02B4DA84201D102251AE02A4DD9
:10261000A84201D1032515E0284DA84202D1042586
:1026200010E037E0264DA84201D105250AE0254DEE
:10263000A84201D1062505E0234DA84201D1072576
:1026400000E00825BD402543C6F80858DBF80040E7
:102650005D464E689C43F60300D51C432C60DEF8B3
:10266000004075464E689C43B60300D51C432C6061
:102670000B4D08352C684E689C43F60200D51C4370
:102680002C60074D0C352C684E689C43B60200D573
:102690001C432C60521C102AFFF44EAFBDE8F88F8B
:1026A000003C01404438024000300140000002403C
:1026B0000004024000080240000C024000100240EA
:1026C0000014024000180240001C024042694A40C7
:1026D000426170470AB1816170470904FBE700005D
:1026E0000148806870470000DC00002002488168D3
:1026F0000278114481607047DC0000200B4810B55F
:10270000016841F400710160016841F48061016079
:10271000016841F480710160032000F0B1F80020ED
:1027200000F006F800F03EF8002010BD003C02402A
:1027300010B5014688B00022192000F081F8192058
:1027400000F072F813480024016841F001010160B3
:10275000006805A900F001000690684600F03AF90B
:1027600000F06EF90C494000B0FBF1F10C480B4A47
:10277000491E026040F2E732C0E90324C0E90114B7
:1027800000F078FB10B1012008B010BD044800F043
:10279000C9FBF9E74438024040420F000000014005
:1027A000580D00201F4808B5016841F480410160C0
:1027B000006800F4804000901A48001F016841F052
:1027C00080510160006800F080500090032000F00C
:1027D00057F8002211466FF00B0000F031F800228C
:1027E00011466FF00A0000F02BF8002211466FF03E
:1027F000090000F025F800221146501F00F020F8D3
:1028000000221146101F00F01BF800220F21901E1D
:1028100000F016F800220F21BDE80840501E00F01D
:102820000FB800004438024000F01F02012191401F
:102830004009800000F1E020C0F80011704700005E
:10284000F0B40E4B1B680C46C3F30223C3F107051B
:10285000042D00D90425191D072901D2002300E009
:10286000DB1E012606FA05F1491E214099409E40D3
:10287000761E16403143F0BC01F0DDBB0CED00E0EC
:10288000064900F0070208684FF6FF03184040EAC7
:102890000220034A10430860704700000CED00E07E
:1028A0000000FA052DE9F0470E46050065D0DFF877
:1028B0001481D8F80000F7B200F00F00B04207D240
:1028C00088F80070D8F8000000F00F00B04254D132
:1028D00028683D4C810712D5400703D5206840F495
:1028E000E05020602878000703D5206840F460405D
:1028F00020602068A96820F0F00008432060287854
:10290000C0072DD0304968680839012812D0022844
:1029100013D0032811D00968890700292DDA21680E
:1029200021F0030101432160FFF7DAFE814641F205
:10293000883A0EE009688903EFE709688901ECE746
:10294000FFF7CEFEA0EB0901514502D90320BDE8F7
:10295000F0872068696800F00C00B0EB810FEFD1C0
:10296000D8F80010404601F00F01B14207D90770B6
:10297000006800F00F00B04201D00120E7E728789E
:10298000400705D52068E96820F4E050084320603E
:102990002878000706D52068296920F4604040EABD
:1029A000C100206000F05CF82168084AC1F30311FF
:1029B000515CC840064908600020FFF7B9FE0020BE
:1029C000C5E70000003C0240083802400C6E0008D9
:1029D000E80000200F2202600C4A136803F0030392
:1029E0004360136803F0F0038360136803F4E0535B
:1029F000C36012684FF4E05303EAD2020261044854
:102A0000006800F00F0008607047000008380240BE
:102A1000003C02400148006870470000E8000020C8
:102A20000448054900680968044AC1F38221515CE1
:102A3000C8407047E8000020083802401C6E0008BB
:102A40000448054900680968044AC1F34231515CF1
:102A5000C8407047E8000020083802401C6E00089B
:102A6000154810B5006810F00C02144813D0144932
:102A7000042A0FD0082A0ED10F4C241F2268236885
:102A800002F03F025B0207D52068C0F38810A0FB6C
:102A9000010106E0084610BD2168C1F38811A1FBC1
:102AA00000010023FDF7EAFB2168C1F30141491C45
:102AB0004900B0FBF1F010BD083802400024F400DA
:102AC00000366E012DE9F84F050076D02878DFF842
:102AD000F8B2BE4CC00749D0DBF800105846C1F32D
:102AE0008101012908D00068C0F3810002280AD1C1
:102AF000201D0068400206D52068800336D568682E
:102B00000028E2D032E06868B0F5803F10D0B0F520
:102B1000A02F206810D020F480302060206820F49E
:102B2000802020606868A0B1FFF7DAFD06460CE05F
:102B3000206840F48030F4E740F480202060F7E71C
:102B4000FFF7CEFD801B642873D820688003F7D57B
:102B50000CE0FFF7C5FD064605E000BFFFF7C0FD2E
:102B6000801B6428F0D820688003F7D42878DFF829
:102B7000608280074FF000093ED5DBF80010584610
:102B800011F00C0F09D00068C0F3810002280BD1AE
:102B90008D48001F0068400206D42068800715D5C4
:102BA000E868012809D111E0E868B8B10120C8F847
:102BB0000000FFF795FD064605E002E1FFF790FDF6
:102BC000801B0228C0D820688007F7D520682969B3
:102BD00020F0F80040EAC10020600DE0C8F8009045
:102BE000FFF77EFD064604E0FFF77AFD801B022812
:102BF0001FD820688007F7D42878000722D5724EA6
:102C0000744869696C3671B101210160FFF768FD94
:102C1000074604E0FFF764FDC01B022809D83068AE
:102C20008007F7D50EE0C0F80090FFF759FD074682
:102C300005E083E0FFF754FDC01B02287ED8306812
:102C40008007F7D42878400768D5DFF87CA10027F3
:102C50000AF1380ADAF80000C0000BD4DAF80010E4
:102C600041F08051CAF80010DAF80000012700F0A6
:102C700080500090584E3068C00510D4306840F441
:102C800080703060FFF72CFD009005E0FFF728FD15
:102C90000099401A022851D83068C005F6D54A4E2E
:102CA000A868683601280FD00528306810D020F0B9
:102CB00001003060306820F004003060A868B8B1CE
:102CC000FFF70EFD00900FE0306840F00100F4E7E0
:102CD00040F004003060F7E7FFF702FD0099411A69
:102CE00041F28830814264D830688007F4D50EE024
:102CF000FFF7F6FC009007E0FFF7F2FC0099411A9D
:102D000041F28830814254D830688007F4D42FB122
:102D1000DAF8001021F08051CAF80010A869C0B399
:102D2000DBF80010C1F3810102294AD0022848468D
:102D300007D0C8F86000FFF7D3FC00E039E0054693
:102D40003AE04746C8F86000FFF7CAFC064604E0D0
:102D5000FFF7C6FC801B02282BD820688001F7D41F
:102D6000D5E907010843A96A1C4A490802EB014159
:102D70006A6A41EA8211084395F82C1040EA016121
:102D80001148001F016001203866FFF7A9FC0546C5
:102D900005E014E0FFF7A4FC401B022809D82068D6
:102DA0008001F7D50BE000BFFFF79AFC401B02281B
:102DB00002D90320BDE8F88F20688001F4D40020F8
:102DC000F8E70120F6E7000008380240003802402A
:102DD00000004742800E4742007000400000FFFFA5
:102DE0004FF0E0210428086903D020F004000861B6
:102DF000704740F00400FAE710B5401EB0F1807F44
:102E000001D3012010BD4FF0E02460610F21601755
:102E100001F011F90020A06107202061002010BD01
:102E20007047704730B590F83820012A20D0012231
:102E300080F83820022380F8393003685C6824F079
:102E400070045C6003685C680D682C435C60036818
:102E50009C6824F080049C6003689C6849680C436B
:102E60009C6080F83920002180F83810084630BD79
:102E7000022030BD10B5040003D094F8390010B121
:102E800007E0012010BD002084F83800204600F043
:102E90000DF8022084F83900211D206801F036FE6B
:102EA000012084F83900002010BD000008B5016839
:102EB0001948B1F1804F14D0184A914220D10168CD
:102EC00041F0100101600068002200F01000009045
:102ED00002213620FFF7B4FC3620BDE80840FFF79A
:102EE000A3BC016841F0010101600068002200F00C
:102EF0000100009005211C20FFF7A2FC1C20ECE73C
:102F0000074A914207D1016841F00401016000685D
:102F100000F00400009008BD40380240001000405E
:102F2000000800400168CA6842F00102CA600068F7
:102F3000016841F0010101600020704770B504464E
:102F400090F83800012817D0012584F83850022065
:102F500084F839002068826822F0770222F47F42E8
:102F600082600868502837D00DDC202859D005DC55
:102F700088B3102841D151E0022070BD302853D0D1
:102F800040283AD13FE060282ED070280BD0B0F511
:102F9000805F03D0B0F5005F2FD110E0206881681A
:102FA00021F0070115E0CB68D1E90121206801F08B
:102FB0000DFE2168886840F0770088601DE0CB68CE
:102FC000D1E90121206801F001FE2068816841F407
:102FD0008041816011E01EE0CA684968206801F004
:102FE00007FE5021206806E0CA684968206801F0A1
:102FF00010FE6021206801F0F3FD84F839500020B4
:1030000084F8380070BDCA684968206801F0F0FD96
:1030100040212068EFE700212068ECE710212068BC
:10302000E9E720212068E6E730212068E3E77047E0
:1030300070B50446006801694FF00005C94389076F
:1030400015D4C168C943890711D4E91E0161012063
:103050002076206880698007204602D0FFF7E7FFCE
:1030600004E000F098F8204600F096F825762068F5
:103070000169C943490717D4C168C943490713D433
:103080006FF004010161022020762068806910F44D
:10309000407F204602D0FFF7CAFF04E000F07BF833
:1030A000204600F079F8257620680169C9430907B0
:1030B00016D4C168C943090712D46FF00801016131
:1030C000042020762068C0698007204602D0FFF7E0
:1030D000AEFF04E000F05FF8204600F05DF82576D2
:1030E00020680169C943C90617D4C168C943C90624
:1030F00013D46FF010010161082020762068C069A8
:1031000010F4407F204602D0FFF791FF04E000F06A
:1031100042F8204600F040F8257620680169C9434E
:10312000C90708D1C168C943C90704D1891E016113
:10313000204600F033F820680169C943090609D424
:10314000C168C943090605D46FF0800101612046BA
:10315000FFF766FE20680169C943490609D4C168C2
:10316000C943490605D46FF040010161204600F0D3
:1031700029F820680169C94389060BD4C168C9438D
:10318000890607D46FF0200101612046BDE8704038
:10319000FFF747BE70BD70477047000010B504468A
:1031A00000680649884201D1FFF7A0FA044884422A
:1031B00003D1BDE8104001F0B1B810BD00000140DE
:1031C000D40A00207047704770B5040004D094F80A
:1031D0003900002510B106E0012070BD84F8385098
:1031E000204600F023F8242084F839002068C168C4
:1031F00021F40051C160204601F0ACFD2068016956
:1032000021F4904101612068416921F02A01416166
:103210002068C16841F40051C160E563202084F852
:10322000390084F83A00002070BD00002DE9F04F0D
:103230000546D0F800C0DFF8F88202200024BD4A1D
:10324000012603210823DFF8F0E2470287B04FF0A0
:10325000006A4FF48079C44531D1D2F800C04CF4F3
:10326000002CC2F800C01268029602F400220592F7
:10327000CDE903138A02CDE9002069467046FFF7C5
:103280004DF9AF4EAD483060C6E901A4C6E9034729
:103290007461C6E90649346230467462FFF778F813
:1032A00020B14FF48671A7A001F00FFF6E630022DA
:1032B00006213420B563FFF7C3FA342046E0DFF877
:1032C0009482C44547D1D2F800C04CF4801CC2F8A7
:1032D00000C01268804602F4801205924FF48052BA
:1032E0000092CDE901000320CDE903039B46694626
:1032F0007046FFF713F90420CDE900080320CDE95B
:1033000002606946CDF810B09348FFF707F98C4E7C
:103310008A48603630383060C6E901A4C6E9034700
:103320007461C6E90649346230467462FFF730F8CA
:1033300020B14FF49E7183A001F0C7FE6E6300229E
:1033400006213520B563FFF77BFA3520FFF76CFACD
:1033500007B0BDE8F08FDFF80482DFF8D8E14FF066
:10336000070B0EF1040EC44533D1DEF8003043F0F4
:103370001003CEF80030DEF80020CDE9026102F043
:1033800010020592C022CDE90020CDF810B06946A8
:103390007348FFF7C3F8744E72483060C6E901A461
:1033A000C6E903477461C6E906493462304674626F
:1033B000FEF7EEFF20B14FF4B27162A001F085FE7E
:1033C0006E63002205212520B563FFF739FA252019
:1033D000BCE7DFF89881C44532D1136843F4003369
:1033E00013601268CDE9026102F400320592602296
:1033F000CDE90020CDF810B069465748FFF78EF8A8
:103400004F4E4E48603E48303060C6E901A4C6E9E0
:1034100003477461C6E90649346230467462FEF7B8
:10342000B7FF20B14FF4C87146A001F04EFE6E63A5
:10343000002205212620B563FFF702FA262085E742
:10344000DFF82C81C44535D1136843F48023136021
:103450001268CDE9026102F4802205924FF44062C5
:10346000CDE90020CDF810B069463D48FFF756F889
:103470003D4E3248603618383060C6E901A4C6E9CE
:1034800003477461C6E906494FF40030C6E90804F1
:103490003046FEF77DFF20B14FF4DC7129A001F02A
:1034A00014FE6E63002205212720B563FFF7C8F9DB
:1034B00027204BE72F4A94457FF44AAFDEF800C03F
:1034C0004CF0200CCEF800C0DEF80020029602F08E
:1034D00020020592CDE903134FF4C062CDE900202C
:1034E00069462548FFF71AF8154E1E48C0361838A9
:1034F00030608005C6E90104C6E903477461C6E986
:1035000006494FF40030C6E908043046FEF740FF94
:1035100020B14FF4F0710BA001F0D7FD6E630022D3
:1035200005214720B563FFF78BF947200EE7000020
:10353000004C004040380240000802404060024019
:103540003C0900202E2E2F5372632F757361727405
:103550002E63000000500040000C024000100140AB
:1035600000040240406402401C0800200044004067
:10357000004800400014014000180240F8B504461D
:1035800090F83A0020283CD1C1B3BAB394F838007F
:10359000012836D0012084F83800A162A2850025D8
:1035A000E563222084F83A00636B1748D863636BA5
:1035B00016481864636B1648D864606B134605653B
:1035C0000846666B216802463046091DFEF74AFF31
:1035D000206801684168009184F83850C16841F45E
:1035E0008071C1602068416941F00101416120683A
:1035F000416941F0400141610020F8BDFFE7012031
:10360000FBE70220F9E70000DF4C00081B4D000833
:10361000954C0008704770472DE9F843044690F830
:1036200039001F4616460D46202850D1A5B19EB13F
:1036300094F8380001284AD0012084F838004FF06F
:103640000008C4F83C80212084F83900FFF748F8CE
:10365000A6848146E68426E00120BDE8F883E08C5C
:10366000401EE084A0684B46B0F5805F4FF000023A
:103670004FF080012046009703D001F0C1FCE8B96B
:103680000DE001F0BDFCC8B928882168C0F308002E
:103690004860206908B16D1C05E0AD1C03E021689D
:1036A00015F8010B4860E08C0028D8D14B46002269
:1036B00040212046009701F0A3FC08B10320CCE78D
:1036C000202084F8390084F838800020C5E70220E3
:1036D000C3E7FEE77FB51548134901240160046183
:1036E0004FF4803100258461C0E90115104905625D
:1036F000C0E90A15C4610463C5604461FDF7FBFFBE
:1037000018B158210BA001F0E0FC0094694607486D
:10371000CDE90145FDF746FF002803D0622105A051
:1037200001F0D3FC7FBD000000200140600B0020B1
:103730000100000F2E2E2F5372632F6164632E63DE
:10374000000000007FB515481349012401600461A1
:103750004FF4803100258461C0E9011510490562EC
:10376000C0E90A15C4610463C5604461FDF7C3FF85
:1037700018B17B210BA001F0A8FC02208DE83100DC
:1037800069460648FDF70EFF002803D0852105A0F5
:1037900001F09BFC7FBD000000210140A80B002030
:1037A0000100000F2E2E2F5372632F6164632E636E
:1037B000000000007FB51548134901240160046131
:1037C0004FF4803100258461C0E90115104905627C
:1037D000C0E90A15C4610463C5604461FDF78BFF4D
:1037E00018B19E210BA001F070FC03208DE8310080
:1037F00069460648FDF7D6FE002803D0A82105A09B
:1038000001F063FC7FBD000000220140F00B0020AE
:103810000100000F2E2E2F5372632F6164632E63FD
:1038200000000000114810B50F49016006214160F9
:1038300000214FF480328160C0E903124FF440123E
:1038400042610176012242768276C1760177417724
:10385000FEF72AFB002805D0BDE81040502104A047
:1038600001F033BC10BD000000640040100B0020CC
:103870002E2E2F5372632F63616E2E6300000000A3
:10388000114810B50F4901600621416000214FF435
:1038900080328160C0E903124FF440124261017628
:1038A000012242768276C17601774177FEF7FCFAF3
:1038B000002805D0BDE81040662104A001F005BC39
:1038C00010BD000000680040380B00202E2E2F5342
:1038D00072632F63616E2E6300000000214808B5FB
:1038E000016841F400110160016801F400110091C8
:1038F000016841F4800101600068002200F480004A
:10390000009007211020FEF79BFF1020FEF78CFF90
:10391000002206210D20FEF793FF0D20FEF784FF05
:10392000002207210B20FEF78BFF0B20FEF77CFF08
:10393000002205213820FEF783FF3820FEF774FFB0
:10394000002207213920FEF77BFF3920FEF76CFFAC
:10395000002205213A20FEF773FFBDE808403A2017
:10396000FEF762BF3038024010B5A4B014222749D8
:103970006846FCF7B4FC0021684602F010F9244CBC
:10398000224914222060143105A8FCF7A8FC00216C
:1039900005A802F004F91D496060142228310AA824
:1039A000FCF79DFC00210AA802F0F9F81749A06075
:1039B00014223C310FA8FCF792FC00210FA802F062
:1039C000EEF81249E0601422503114A8FCF787FC8D
:1039D000002114A802F0E3F80C492061142264319C
:1039E00019A8FCF77CFC002119A802F0D8F80749B7
:1039F0006061142278311EA8FCF771FC00211EA81A
:103A000002F0CDF8A06124B010BD00005C6A00088F
:103A10000000002030B5454887B00025016841F01E
:103A200020010160016801F020010591016841F069
:103A300080010160016801F080010591016841F099
:103A400004010160016801F004010591016841F081
:103A500001010160016801F001010591016841F077
:103A600002010160016801F002010591016841F065
:103A700010010160016801F010010591016841F039
:103A800008010160016801F008010591016841F039
:103A9000400101600068012400F04000059041F6FB
:103AA0007F00CDE9000469462148CDE90245FEF7D3
:103AB00035FD44F20700CDE9000469461D48029433
:103AC000FEF72CFD4FF44040CDE9000469461A484A
:103AD0000294FEF723FD0620CDE900056946029415
:103AE0001648FEF71BFD6020CDE9000569460294EB
:103AF0001348FEF713FD002205210720FEF7A0FE64
:103B00000720FEF791FE002205210820FEF798FE0F
:103B10000820FEF789FE002205211720FEF790FEFF
:103B20001720FEF781FE07B030BD0000303802409C
:103B3000001402400004024000100240000802404D
:103B40000000024010B5164886B04FF08041016079
:103B500053210024C0E901140121C0E90314FFF737
:103B600089F918B149210FA001F0AFFA4FF4805044
:103B7000009069460A48FFF7E1F918B14F2109A002
:103B800001F0A3FA049404A905480594FFF74AF943
:103B9000002803D0562103A001F097FA06B010BD0B
:103BA0005C0A00202E2E2F5372632F74696D2E63D2
:103BB0000000000010B5164886B014490024C0E982
:103BC00000148460C4600461FFF754F918B17521D2
:103BD00010A001F07AFA4FF48050009069460C482A
:103BE000FFF7ACF918B17B210AA001F06EFA04943A
:103BF00004A907480594FFF715F9002803D082218E
:103C000004A001F062FA06B010BD000000080040F8
:103C1000980A00202E2E2F5372632F74696D2E6325
:103C2000000000000D4810B50B4901604FF4E13170
:103C30004160002181600C22C160C0E904128161F1
:103C4000C161FFF7C1FA002805D0BDE81040852109
:103C500003A001F03ABA10BD004C00409C060020C1
:103C60002E2E2F5372632F75736172742E630000B2
:103C70000D4810B50B4901604FF4E131416000215E
:103C800081600C22C160C0E904128161C161FFF74B
:103C90009BFA002805D0BDE81040BD2103A001F02B
:103CA00014BA10BD004400405C0700202E2E2F5394
:103CB00072632F75736172742E6300000D4810B526
:103CC0000B4901604FF4E1314160002181600C2219
:103CD000C160C0E904128161C161FFF775FA002873
:103CE00005D0BDE81040D02103A001F0EEB910BD11
:103CF000004800409C0700202E2E2F5372632F7522
:103D0000736172742E630000FEE700002DE9F0413C
:103D1000A549A64D2DED048B488AC2060BD541F26C
:103D20008832AA804EF67842EA8040F6B8322A817C
:103D30004FF2484214E0420507D54FF4FA72AA80C8
:103D40005342EB802A816B810BE04FF47A62AA80A8
:103D50004FF26002EA804FF4FA622A814FF6300295
:103D60006A81934C8846934E94ED000A924FC107A6
:103D7000B3EE0E8ADFED918A9FED919A02D030EE7C
:103D8000480A20E0810702D530EE080A1BE010EE59
:103D9000101AB14205D210EE101AB94201DAC4ED80
:103DA000008A94ED000AB5EEC00AF1EE10FA03DDC8
:103DB00030EE490A84ED000AB5EEC00AF1EE10FAC1
:103DC00003D230EE090A84ED000A794AB3EE0E0AF6
:103DD000297892ED021A71EE401A71EE000A31B1A3
:103DE00092ED010A010779D530EE480A97E0810586
:103DF0001FD57448F0EE680A4069404200EE100A90
:103E00007148B8EEC00A01F0E1FE6F48D0ED140A27
:103E10006E48B0F90000404200EE100A6C48B8EE5F
:103E2000C00A01F0D3FE6A4890ED140AB1EE400AD0
:103E300025E0410702D5C4ED021A22E0000702D5B1
:103E4000C4ED020A1DE011EE100AB04205D211EED7
:103E5000100AB84201DAC4ED028A94ED020AB5EE06
:103E6000C00AF1EE10FA03DD30EE490A84ED020AD1
:103E7000B5EEC00AF1EE10FA03D230EE090A84ED75
:103E8000020AB8F81200410604D594ED010A30EE9A
:103E9000080A1FE0000604D594ED010A30EE480A36
:103EA00018E06068B04203D2B84201DAC4ED018A7A
:103EB00094ED010AB5EEC00AF1EE10FA03DD30EE22
:103EC000490A84ED010AB5EEC00AF1EE10FA50D2AB
:103ED00030EE090A84ED010A4BE0FFE7410702D505
:103EE00030EE080A1BE010EE101AB14205D210EEB7
:103EF000101AB94201DAC4ED018A94ED010AB5EE57
:103F0000C00AF1EE10FA03DD30EE490A84ED010A31
:103F1000B5EEC00AF1EE10FA03D230EE090A84EDD4
:103F2000010A410602D5C4ED021A22E0000602D5BC
:103F3000C4ED020A1DE011EE100AB04205D211EEE6
:103F4000100AB84201DAC4ED028A94ED020AB5EE15
:103F5000C00AF1EE10FA03DD30EE490A84ED020AE0
:103F6000B5EEC00AF1EE10FA03D230EE090A84ED84
:103F7000020AB8F81200010402D50121697006E0B6
:103F8000410401D5002009E06978002907D0010526
:103F900005D5800601D5032000E002206870BDEC45
:103FA000048BBDE8F081000076100020280000207E
:103FB0006C010020000096C3000096430000000042
:103FC00000009643C00E00207C0100203E0000202F
:103FD000FC010020012908D0022905D100219FED14
:103FE000040BC16080ED040B70471821FCF790B9F9
:103FF000000000000000000010B50446FEF770FB52
:104000002060616801B1411AC4E90101E068DFED97
:10401000080A084400EE100AE060B8EEC00A20EE7C
:10402000200A10EE100AFCF76CFAC4E9040110BD76
:104030006F12833A70470907090E002806DA00F06C
:104040000F0000F1E02080F8141D704700F1E0201F
:1040500080F800147047000070B50024FEF740FBA4
:1040600000EE100A0E4B0F4DB8EE400AA3F11401FA
:104070005FF0010003EB8402D2ED000A70EE600AEB
:1040800010EE902AAA420A8A00FA04F601DD3243B1
:1040900000E0B243641C24B20A82092CEADB70BD42
:1040A000DC1000200000C84230B4034C8467034C8D
:1040B000C46730BC01F06CBE915D00089F5D0008D4
:1040C00010B52B482B4C2DED028B90ED0D8A84ED15
:1040D000018A008EFCF708FA9FED271B53EC112B89
:1040E000FCF721F9FCF720FA206025489FED250A0E
:1040F000D0ED000A60EE800AC4ED030AD0ED050A97
:10410000A4F1200020EE800A84ED040AD0ED070A15
:10411000B4EE608AF1EE10FA01D084ED038ADFED8F
:104120001A0A9FED1B1AB5EEC08A80ED078AF1EEE0
:1041300010FA164884ED038A02D8C4ED030A05E09C
:1041400018EE101A814201DB84ED031AB5EEC00AA5
:10415000F1EE10FA04D8C4ED040ABDEC028B10BDD8
:1041600010EE101A8142F8DB84ED041AF5E7000026
:104170008C100020B0000020FCA9F1D24D62503F0D
:10418000881100206666BA410000000000009643D6
:10419000000096432DE9F047554F544E0025DFF8B7
:1041A0005491DFF854817C6893E0705DA5287DD13F
:1041B00074190521204602F0AFFA002876D0B4F831
:1041C00001102046093102F089FA00287FD0B4F8A6
:1041D0000500A0F5007101391DD1E17989F80010C1
:1041E000217A89F80110B4F80910A9F80210B4F87E
:1041F0000B10A9F80410B4F80D10A9F80810B4F8C1
:104200000F10A9F80C10B4F81110A9F80A10B4F89E
:104210001310A9F80E10B4F80500A0F500710239CA
:1042200017D1B4F81110A9F81010B4F81310A9F8A8
:104230001210B4F80910A9F83210D4F80B10C9F80C
:104240003410B4F80F10A9F83810B4F80710A9F812
:104250003010B4F80500A0F5007103390FD1D4F87F
:104260000710C9F82010D4F80B10C9F82410D4F89E
:104270000F10C9F82810D4F81310C9F82C10B4F88E
:104280000500B0F5017F02D1E17989F80610B4F894
:104290000500A0F50071073915D1E079012808D192
:1042A000217A89F81410D4F8091000E00FE0C9F859
:1042B0001810E079022806D1217A89F81510D4F86F
:1042C0000910C9F81C10607809352844C5B26D1C66
:1042D000EDB2B8F800008542FFF467AF7C60BDE83E
:1042E000F047C8210148FCF713B80000AD0F0020CB
:1042F000880000208C1000206C00002010B50446BF
:10430000FEF7EEF900EE100A0348B8EE400A00EBA3
:10431000840080ED000A10BDDC1000200248816896
:10432000491C816070470000C810002010B5044689
:10433000FEF7D6F900EE100A0348B8EE400A00EB8B
:10434000840080ED000A10BD0011002070B53448D3
:104350002DED028BFFF750FE324C334D334A206A6D
:104360002F49DFED330A9FED331AA84202DBE368E1
:1043700093420FDD94ED030A70EE601A91ED020A8C
:10438000B8EEC00A61EE801A94ED070A01EEC10A88
:1043900084ED070A94ED030A9FED278A10EE103A88
:1043A00093420FDAA8420DD170EE600A91ED020A35
:1043B000B8EEC00A60EE800AB0EE480A00EEC10A0C
:1043C00084ED070A1D48008F00EE100AB8EE400A7F
:1043D00084ED050AD4ED060AB4EE600AF1EE10FA97
:1043E00001D084ED070A84ED060A84ED070A022154
:1043F0000B48FFF7EFFD94ED070AB5EEC00AF1EEAA
:1044000010FA06D89FED0E0A84ED070ABDEC028B68
:1044100070BD10EE100AA842F8DB84ED078AF5E7BC
:10442000A0110020B0000020000070420000A04257
:104430000000A0426F12833A000070428C100020EE
:10444000000000002DED028B82B002F03BFA9FEDE0
:10445000601ADFED600A0090B1EE000A4FF47A7343
:1044600043F6982203215C48FFF71EFE9FED5B8A0E
:10447000DFED5B8A5B4E5C4D5C4FDFF85C815C4C32
:10448000DFF870910820B0EE481AF0EE680AB7EE37
:10449000080A01F057FF0220FFF748FF707A012851
:1044A00004D0022808D0032808D102E0FCF7DAFC87
:1044B00004E0FFF72BFC01E000F0DAF8B4F90600A5
:1044C000D5ED011A00EE100AB8EEC00AF4EEC01ADB
:1044D000F1EE10FA02D800EE100A0CE0B4F9041064
:1044E00000EE101AB8EEC00AF4EEC01AF1EE10FA9F
:1044F00005DB00EE101AB8EEC00A85ED010A00EEE9
:10450000100AD5ED001AB8EEC00AF4EEC01AF1EEAA
:1045100010FA0AD9B4F9040000EE100AB8EEC00A85
:10452000F4EEC01AF1EE10FA05DB00EE100AB8EE58
:10453000C00A85ED000AB4F90A0095ED020A01EE01
:10454000900AF8EEE10AB4EEE00AF1EE10FA0AD9A8
:10455000B4F9080001EE900AF8EEE10AB4EEE00AC0
:10456000F1EE10FA05DB00EE100AB8EEC00A85ED98
:10457000020A387800B12048E060B9F90000D4EDB3
:10458000030A00EE100A1448F8EEE00AB8EEC00A7A
:1045900001F01CFB98ED140ABDEEC00A10EE100AE3
:1045A00001B2164800F0FCF81448FCF7CDFB1348A4
:1045B000FCF7F6FB1148FCF775FB1048FCF79AFB7B
:1045C000A0780521401CA070684601F0D2FA59E796
:1045D000000000000AD7233C1C0600209A99D93F0E
:1045E000CDCCCC3F761000206C0100203C00002098
:1045F00028000020840E002044FDFFFF100B002047
:1046000070B588B014460D4606461C221649684609
:10461000FBF765FE002D24D0132C22D1ADF80560E8
:10462000ADF8014000208DF803000DF1070100BF37
:10463000401C15F8012BC0B201F8012BA042F7D3A2
:104640000521684601F0E6F90934E1B2684601F057
:10465000CBF9ADF81A0064231C2269460348FEF723
:10466000DBFF08B070BD0000E86D00089C0700206B
:104670000C480188A1F5806101EB810100EE101A60
:104680000949B8EEC00A81ED020A4088A0F58060B1
:1046900000EB8000404200EE100AB8EEC00A81ED47
:1046A000000A7047761000206C010020012001F004
:1046B00059FAFBE708B5642001F054FA02F002F958
:1046C0004FF40045324FDFF8CC90334CDFF8CCB0DC
:1046D0006E104FF480584FF4006A0090208AC10792
:1046E00005D0810703D5410701D5000704D4314621
:1046F0005846FDF7EBFF04E0012231465846FDF72E
:10470000E9FF207CC00604D429463846FDF7DEFFC9
:1047100004E0012229463846FDF7DCFF207C8006B4
:1047200004D431463846FDF7D1FF04E0012231467A
:104730003846FDF7CFFF207C400604D4414648466A
:10474000FDF7C4FF04E0012241464846FDF7C2FFE1
:10475000207C000604D451464846FDF7B7FF04E02C
:10476000012251464846FDF7B5FF208AC00504D412
:1047700004215846FDF7AAFF04E00122042158460F
:10478000FDF7A8FF4FF49671684601F0F2F9A5E72E
:104790000010024000140240C81000200004024033
:1047A00030B40C4B08224FF400741A6100229A6056
:1047B0001C60DA60084B0C0A1A705A709A70DA7032
:1047C0001C7159719A71DA7130BC0123024A014996
:1047D000FDF704B98C0F0020440000202DE9F047BC
:1047E0008246FCF7F9FDFFF76BFCFFF7AFFDF7EE34
:1047F000080AB2EE0E0AFCF723FB5F49B1F90C0080
:10480000C82844DB5D4C01254FF00209207804F1F3
:104810002006002780B15A4AF068904201DA65709C
:1048200009E0584A904202DC84F8019003E090428B
:1048300001DD0320607027706078DFF84C8101286B
:1048400027D0022847D0032821D108694F49884240
:1048500001DB6079F0B36571002201214046FDF76C
:1048600039FF002202214046FDF734FF01220421D6
:104870004046FDF72FFF504601F094FA4449F06995
:10488000884201DD25706771277184F80390BDE8C7
:10489000F087002201214046FDF71CFF0122022182
:1048A0004046FDF717FF012204214046FDF712FFA5
:1048B0003849F0688842EADB257000220121404631
:1048C000FDF708FF002202214046FDF703FF012209
:1048D00004214CE010E0002201214046FDF7FAFEE1
:1048E000002202214046FDF7F5FE01220421404648
:1048F000FDF7F0FE2570CAE720790028F06926D080
:1049000025494FF00002884211DD01214046FDF7A4
:10491000E1FE002202214046FDF7DCFE01220421D7
:104920004046FDF7D7FE25702771E770AFE70221FB
:104930004046FDF7CFFE002204214046FDF7CAFEA7
:10494000012211464046FDF7C5FEE5709FE7134979
:104950008842C0DA2571002202214046FDF7BAFEE6
:10496000002204214046FDF7B5FE012211464046D3
:10497000BDE8F047FDF7AEBE881100209000002092
:10498000000020420000A0420014024000007041DC
:1049900000005C4200009642000048420000F041E6
:1049A00001F0F3B830B5254893B00025016841F017
:1049B00080510160006800F080501190204801682B
:1049C00041F4804101600068022400F480401190AD
:1049D00001200090000401908001CDE906401820DC
:1049E00008904FF4A870CDE9090404200B906846A4
:1049F000FEF768F800B1FEE70CA90F2081E831004E
:104A00004FF4A0500F904FF48050109005210CA847
:104A1000FDF748FF00B1FEE7FDF7FCFF4FF47A71A8
:104A2000B0FBF1F0FEF7E8F90420FEF7D9F9002217
:104A30000F21501EFDF704FF13B030BD4038024077
:104A4000007000401048016841F4700101600F4897
:104A5000016841F0010101600C4A00210832116037
:104A600002680B4B1A400260031D0A4A1A60026872
:104A700022F48022026005480C3001600249580689
:104A8000803908607047000088ED00E0003802407F
:104A9000FFFFF6FE1030002470B50024FDF720FE65
:104AA00000EE100A0E4B0F4DB8EE400AA3F138018C
:104AB0005FF0010003EB8402D2ED000A70EE600AA1
:104AC00010EE902AAA424A8A00FA04F601DD324327
:104AD00000E0B243641C24B24A82042CEADB70BDBD
:104AE000001100200000C8420148FEF7A1BA0000F2
:104AF000580D00200148FEF79BBA00005C0A002018
:104B00000148FEF795BA0000D40A0020F0B502680B
:104B1000234B244D244E254F254C4FF0804C98427A
:104B200009D0604507D0A84205D0B04203D0B842B2
:104B300001D0A04204D122F0700E4A6842EA0E026F
:104B400098421BD0604519D0A84217D0B04215D06A
:104B5000B84213D0A04211D0164DA8420ED0164D27
:104B6000A8420BD0154DA84208D0154DA84205D03B
:104B7000144DA84202D0144DA84203D122F440752E
:104B8000CA682A4302608A68C2620A6882629842DE
:104B900001D0A04201D10969016301214161F0BD49
:104BA000000001400004004000080040000C0040EC
:104BB0000004014000400140004401400048014021
:104BC00000180040001C00400020004010B5846820
:104BD00042EA032224F47F440A432243826010BD48
:104BE000826822F070020A4342F007018160704738
:104BF00010B5036A046A24F001040462846924F095
:104C0000F00444EA021423F00A020A4384610262B7
:104C100010BD10B5036A23F0100303628369046AB0
:104C200023F4704343EA023224F0A00343EA011163
:104C30008261016210BD000038B513480268116836
:104C4000D268C1F3001102F0100200291BD0002A23
:104C500019D00E4C21680A6822F001020A6000682F
:104C6000016840680090206840680949C0F1070069
:104C70000880FCF76FFC2168072048602068016805
:104C800041F00101016038BD9C0600203C09002074
:104C90007600002070B5846B2068406994F8391064
:104CA000C0F3C0100025212904D118B1E5842046A5
:104CB00000F046F82068406994F83A10C0F380107C
:104CC000222904D118B1E585204600F02BF8E06BCD
:104CD00040F01000E0632046FEF775FA70BD10B595
:104CE0000146806B09680968C90513D40021C18594
:104CF0000168CA6822F48072CA6001684A6922F0B9
:104D000001024A6101684A6922F040024A61202199
:104D100080F83A10FEF77EFC10BD10B5806BFEF7F0
:104D20007AFC10BD0168CA6822F49072CA600168FA
:104D30004A6922F001024A61202180F83A10704746
:104D40000168CA6822F0C002CA60202180F83910C8
:104D5000704700002DE9F04104460068016921F424
:104D60004052E168114301612168C86849F20C6250
:104D700090432369A268E5691A4363692B431A4388
:104D80000243CA602168486920F44072A069104358
:104D90004861E1696425B1F5004F9748974A216859
:104DA0004FF032083FD0914201D081427CD1FDF7D3
:104DB00047FE00EBC00101EB001061688900B0FB09
:104DC000F1F6FDF73DFE00EBC00101EB001061685C
:104DD0008900B0FBF1F0B0FBF5F06FF0180148432B
:104DE00006EB800108EB0110B0FBF5F000F0F006D7
:104DF000FDF726FE00EBC00101EB001061688900A1
:104E0000B0FBF1F0B0FBF5F006EB0016FDF718FE75
:104E100000EBC00101EB001061688900B0FBF1F705
:104E2000FDF70EFED2E0914201D081423DD1FDF767
:104E300007FE00EBC00101EB001061684900B0FB08
:104E4000F1F0B0FBF5F00601FDF7FAFD00EBC00153
:104E500001EB001061684900B0FBF1F7FDF7F0FDD0
:104E600000EBC00101EB001061684900B0FBF1F0FC
:104E7000B0FBF5F06FF01801484307EB800108EB39
:104E8000C100B0FBF5F000F0F80006EB4006FDF7BE
:104E9000D7FD00EBC00101EB001061684900B0FBD9
:104EA000F1F7FDF7CDFD3CE055E0FDF7B9FD00EB76
:104EB000C00101EB001061684900B0FBF1F0B0FBEC
:104EC000F5F00601FDF7ACFD00EBC00101EB0010B1
:104ED00061684900B0FBF1F7FDF7A2FD00EBC001EE
:104EE00001EB001061684900B0FBF1F0B0FBF5F098
:104EF0006FF01801484307EB800108EBC100B0FBDD
:104F0000F5F000F0F80006EB4006FDF789FD00EB38
:104F1000C00101EB001061684900B0FBF1F7FDF73B
:104F20007FFD00EBC00101EB001061684900B0FBA0
:104F3000F1F0B0FBF5F06FF01801484307EB80018A
:104F400008EBC100B0FBF5F000F007002168304429
:104F50008860BDE8F081FDF763FD00EBC00101EB67
:104F6000001061688900B0FBF1F6FDF759FD00EB18
:104F7000C00101EB001061688900B0FBF1F0B0FBEB
:104F8000F5F06FF01801484306EB800108EB0110C3
:104F9000B0FBF5F000F0F006FDF742FD00EBC001BC
:104FA00001EB001061688900B0FBF1F0B0FBF5F097
:104FB00006EB0016FDF734FD00EBC00101EB00101D
:104FC00061688900B0FBF1F7FDF72AFD00EBC00135
:104FD00001EB001061688900B0FBF1F0B0FBF5F067
:104FE0006FF01801484307EB800108EB0110B0FB9C
:104FF000F5F000F00F00A9E7001401400010014097
:105000002DE9F041984617460E460446069D1DE0E0
:10501000681C1BD02DB1FDF763FBA0EB0800A84274
:1050200014D92068C16821F4D071C1602068416939
:1050300021F001014161202084F8390084F83A0010
:10504000002084F838000320BDE8F0812068006863
:1050500036EA000004D00020B842D9D00020F3E79F
:105060000120F9E738B5154C21680868C968C0F314
:10507000001001F0100100281ED000291CD00620CD
:10508000FFF73CF90E4D2868016821F0010101602D
:105090002068016840680090286840680949C0F1AC
:1050A000C8000880FFF776F82968C820486028689B
:1050B000016841F00101016038BD00009C0700203B
:1050C0007C0800206C000020FEE7FEE70FB4054BD3
:1050D00010B503A9044A029800F0DAF810BC5DF894
:1050E00014FB0000395A00084C01002002E008C8F7
:1050F000121F08C1002AFAD170477047002001E052
:1051000001C1121F002AFBD1704700002DE9FF5F8B
:1051100082B00021DDE90430020DDDF840B0034328
:1051200018D044F61050A2F2FF32424315141198E1
:1051300001281FD0A5EB0B00401C5FEA000A4FF0CE
:1051400000064E4FDFF83891B046504615D5CAF1EB
:10515000000413E0119801244AA3012801D16FEA49
:105160000B010298119AC0E90031C0E9024206B071
:10517000BDE8F09FCBF10000DFE704460021404A84
:10518000491842EB0450CDE9001012E0E00707D0C7
:1051900032463B4640464946FBF7C5F880468946BD
:1051A00032463B4610461946FBF7BDF806460F4609
:1051B0006410002CEAD1DDE90401DDE90023BAF135
:1051C000000F06DAFBF7AFF842464B46FBF7ABF8A9
:1051D00005E0FBF71AF942464B46FBF716F9044681
:1051E0000E460022284BFBF743FB03D84FF0FF305D
:1051F000014607E00022254B20463146FBF779FAAD
:10520000FBF71EFB102409E0002C0ADB0A22002316
:10521000FBF734F8039B30321A55641E50EA010242
:10522000F2D1641C039AC4F111031444119A012AA7
:1052300003D0012208430DD10AE0084304D0002026
:105240004FF0110B119072E7A3EB0B056D1E0DE0F3
:105250005B4504DD4FF0000205F1010504E003DACF
:105260004FF00002A5F10105002AECD00298119937
:10527000C0E90231C0E9004579E7000000001440B0
:105280000000F03F300000000000F0430000E03F6D
:105290002DE9FF4F95B09B468946064600250FE253
:1052A000252877D100242746F84A0121059400E0FB
:1052B000044316F8013F203B01FA03F01042F7D1F6
:1052C00030782A2811D06FF02F033078A0F1300207
:1052D000092A16D8059A44F0020402EB820203EB75
:1052E00042021044761C0590EFE759F8042B059212
:1052F000002A03DA504244F40054059044F00204BA
:10530000761C30782E2816D116F8010F44F00404CC
:105310002A280DD06FF02F023078A0F13003092B2E
:1053200009D807EB870302EB4303C718761CF3E7A2
:1053300059F8047B761C30786C280FD006DC4C289A
:1053400017D068280DD06A2814D104E0742810D032
:105350007A280FD10DE044F400140AE044F48014DC
:1053600001E044F440147278824202D104F58014C2
:10537000761C761C307866280BD013DC582877D042
:1053800009DC002875D04528F6D04628F4D04728F7
:105390001AD19DE118E0632835D0642879D06528BA
:1053A00012D195E1702873D008DC6728F1D0692804
:1053B0006FD06E280DD06F2806D1B5E073282CD0A1
:1053C000752875D0782874D05A46179990476D1C67
:1053D00075E1C4F30250022809D003280DD0D9F892
:1053E000001004280DD00D6009F1040967E1D9F817
:1053F0000010EA17C1E90052F6E7D9F800100D8055
:10540000F2E70D70F0E719F8041B8DF8001000208A
:105410008DF80100EA46012003E059F804AB4FF093
:10542000FF3061074FF0000102D40DE008F10101E7
:105430008846B9420FDA8045F8DB1AF808100029CF
:10544000F4D108E008F1010188468142FADB1AF83C
:1054500008100029F6D105985B46A0EB0807214605
:105460003846179A00F094FA284400EB080507E044
:105470004DE029E10DE01AF8010B5A4617999047C3
:10548000B8F10108F7D25B4621463846179A13E176
:1054900042E00A220092C4F302524FF0000A022AAC
:1054A00008D059F804CB032A4FEAEC710AD00DE07A
:1054B00029E02AE009F1070121F00702F2E802C120
:1054C000914609E00FFA8CFC4FEAEC71042A03D1F3
:1054D0004FFA8CFC4FEAEC71002907DA0A460021EA
:1054E000DCF1000C61EB02012D2202E0220504D563
:1054F0002B228DF80420012203E0E20701D02022B4
:10550000F7E7904659E00A2102E010220DE0102151
:105510004FF0000A00910BE010224FF0000A44F017
:1055200004040827009203E008224FF0000A0092CA
:10553000C4F30252022A05D059F804CB0021032AF1
:1055400008D009E009F1070121F00702F2E802C1E1
:10555000914605E01FFA8CFC042A01D10CF0FF0CE7
:105560004FF00008220728D5702806D0009B83F052
:10557000100353EA0A0305D00EE040228DF8042000
:10558000012208E05CEA010206D030228DF80420F6
:105590008DF8050002229046009B83F0080353EA31
:1055A0000A030AD15CEA010201D1620705D5302263
:1055B0008DF804204FF001087F1E582804D034A035
:1055C00003900EA802900DE036A0F9E7534660461E
:1055D000009AFAF753FE84460398825C0298401EB4
:1055E000029002705CEA0100F0D1029806A9081A44
:1055F00000F1200A600702D524F4803400E001277E
:10560000574502DDA7EB0A0000E0002000EB0A018D
:10561000009005984144401A0590E00306D45B468B
:105620002146179A059800F0B3F90544002706E0D3
:1056300001A85A46C05D179990476D1C7F1C4745CD
:10564000F6DBE0030CD55B462146179A059800F07F
:105650009FF9054404E030205A46179990476D1C85
:105660000099481E00900029F5DC08E00298029994
:105670005A460078491C0291179990476D1CBAF15F
:105680000001AAF1010AF1DC65E10000092801002E
:1056900030313233343536373839616263646566A8
:1056A000000000003031323334353637383941426A
:1056B000434445460000000000F058F90544761CBC
:1056C000307800287FF4ECAD19B02846BDE8F08FA3
:1056D000620700D4062709F1070222F0070CFCE854
:1056E0000223E14603F000485FEA080C02D00FF203
:1056F000702C0DE05FEA045C02D50FF2682C07E025
:105700005FEAC47C02D00FF2602C01E0AFF2700CB3
:105710004FF0FF3823F00043CDF850C065280CD07F
:1057200006DC452809D046281DD047283DD13DE05C
:10573000662818D067287ED138E00021112F01DBC0
:10574000112000E0781CCDE9000106A90EA8FFF7A2
:10575000DDFCDDE90F010E9A03910021009207F1B3
:10576000010A04914DE04FF000400097CDE901108F
:1057700006A90EA8FFF7CAFCDDE90F0203920E9BF3
:1057800011990022DDF80CA00093049211B9791C44
:1057900000EB010AB7EB0A0004D4C0F1FF3007F1B7
:1057A000010A0490AAEB0700019044E0012F00DAFF
:1057B00001270021112F01DD112000E03846CDE93D
:1057C000000106A90EA8FFF7A1FCDDE90F010E9A62
:1057D0000391002104910092BA4621070CD4039949
:1057E000514500DA8A46BAF1010F05DD009AAAF1A7
:1057F0000101515C302908D0B84202DA10F1040FDF
:1058000006DA0121CDE9011015E0AAF10101E9E76D
:10581000002805DC049901440491AAEB000102E090
:10582000411C514500DD8A460499401A401C0190F4
:105830004FF000400290200704D40198504501DB4E
:10584000CDF8048000208DF84F0002980DF14F072D
:10585000B0F1004F25D02B200E9002984FF0020897
:1058600000280CDA404202902D200E9007E00A2119
:105870000298FAF775FE3031029007F8011DB8F171
:105880000001A8F10108F2DC02980028EFD1791E8E
:105890000E980870307800F0200040F0450007F8BE
:1058A000020D12A8C01B00F107081498007800B17F
:1058B000012000EB0A01019801EBE07105984144D9
:1058C000401A401E0590E00306D45B462146179A15
:1058D000059800F05DF805441498007818B15A4610
:1058E000179990476D1CE00324D55B462146179A13
:1058F000059800F04DF805441CE00498002807DBEB
:10590000DDE90301884203DD0098405C179901E05E
:10591000179930205A469047049805F10105401C1C
:1059200004900198401E019004D12E205A461799E8
:1059300090476D1CBAF10001AAF1010ADDDC05E017
:1059400017F8010B5A46179990476D1CB8F10001E2
:10595000A8F10108F4DC5B462146179A0598ABE6EE
:105960002D0000002B000000200000002DE9F04178
:10597000044600251E461746880404D405E039462F
:105980002020B0476D1C641EF9D52846BDE8F08183
:105990002DE9F041044600251E469046C80301D576
:1059A000302700E02027880404D505E0414638462A
:1059B000B0476D1C641EF9D52846BDE8F081D0EDD6
:1059C000000AF4EEC00AF1EE10FA01DD80ED000AE3
:1059D000D0ED000AB1EE400AF4EEC00AF1EE10FA82
:1059E00001D280ED000A704730B50C46050001D0A9
:1059F000022C01D8002030BD0548A11E028828468F
:105A000000F026F82919020A01F8020D4A7030BD8B
:105A10008800002030B50C46050001D0022C01D8CA
:105A2000002030BD601E81B2FF22284600F026F81B
:105A3000291901F8010C30BD13B564230122694610
:105A40000248FDF7E9FD00981CBD00005C0700203E
:105A500010B558B1084C491E0BD310F8013B534008
:105A6000DBB234F8133083EA1222F4E74FF6FF700A
:105A700010BD104610BD0000E86B000810B5064CC4
:105A800004E000BF10F8013B5340E25C491E89B2BC
:105A9000F8D2104610BD0000E86A000810B5104AA0
:105AA00003894381118849BA01815488CB1A64BAA9
:105AB00004809488B3F5805F64BA448092798271DF
:105AC000026901DD521E03E013F5805F01DA521C0A
:105AD000026101EB42318289891A416110BD0000E7
