:020000040800F2
:10000000F050002059020008D5390008852F00085B
:10001000E1360008CD060008554500080000000044
:100020000000000000000000000000009D0100082A
:100030003D0E000800000000F1010008053F000827
:1000400073020008730200087302000873020008BC
:100050007302000873020008730200083F0E0008D4
:10006000450E00087302000873020008510D0008D5
:100070005D0D0008690D0008730200087302000896
:10008000750D00087302000873020008730200086F
:10009000D106000873020008730200084B0E000826
:1000A000730200084D400008730200087302000844
:1000B0005940000873020008730200087302000828
:1000C000730200087302000873020008730200083C
:1000D0007302000873020008730200080545000857
:1000E000730200087302000873020008730200081C
:1000F000730200087302000873020008730200080C
:1001000073020008730200087302000873020008FB
:1001100073020008730200086540000873020008BB
:10012000810D0008730200088D0D0008730200089D
:1001300073020008730200087302000873020008CB
:10014000DD0600087302000873020008730200084D
:1001500073020008730200087302000873020008AB
:10016000730200087302000873020008730200089B
:100170007302000873020008730200080000000008
:100180007302000873020008DFF80CD000F016F9C3
:10019000004800478D460008F05000202B4B19689E
:1001A0000868B0E8F04F80F30988BFF36F8F4FF015
:1001B000000080F3118870470000000006480068C6
:1001C000006880F3088862B661B6BFF34F8FBFF353
:1001D0006F8F00DF00BF00BF08ED00E0DFF80C000C
:1001E000016841F470010160704700BF88ED00E0D4
:1001F000EFF30980BFF36F8F144B1A681EF0100FD6
:1002000008BF20ED108A20E9F04F106008B44FF0CD
:10021000500080F31188BFF34F8FBFF36F8F05F04D
:100220002BF84FF0000080F3118808BC19680868AB
:10023000B0E8F04F1EF0100F08BFB0EC108A80F34A
:100240000988BFF36F8F704700BF00BFF800002020
:10025000EFF30580704700000648804706480047D6
:10026000FEE7FEE7FEE7FEE7FEE7FEE7FEE7FEE766
:10027000FEE7FEE7A93F0008890100082DE9F05FCD
:100280000546002092469B46884606468146402405
:100290001BE0284641464746224600F07EF853467A
:1002A0005A46C01A914110D311461846224600F012
:1002B00065F82D1A67EB01084F4622460120002100
:1002C00000F05CF817EB00094E41201EA4F1010478
:1002D000DFDC484631462A464346BDE8F09F40EA07
:1002E00001039B0703D009E008C9121F08C0042AB4
:1002F000FAD203E011F8013B00F8013B521EF9D29B
:100300007047D2B201E000F8012B491EFBD27047C2
:100310000022F6E710B513460A4604461946FFF7D1
:10032000F0FF204610BD00F0004230F000400AD03F
:10033000C10D01F56071C0F3160042EA0151C20817
:1003400040071143704700200146704730B5041E36
:1003500071F1000404DB4FF00044404264EB010102
:10036000141E73F1000405DB1C464FF0004352429B
:1003700063EB0403994208BF904230BD202A04DB9E
:10038000203A00FA02F1002070479140C2F12003A8
:1003900020FA03F3194390407047202A04DB203AE7
:1003A00021FA02F00021704721FA02F3D040C2F195
:1003B000200291400843194670470000064C074D43
:1003C00006E0E06840F0010394E807009847103425
:1003D000AC42F6D3FFF7DCFEC85A0008E85A000822
:1003E00030B58C1810F8012B12F00F0301D110F862
:1003F000013B120906D110F8012B03E010F8015B54
:1004000001F8015B5B1EF9D101E001F8013B521ECE
:10041000FBD1A142E6D3002030BD10B50146806B70
:10042000026C12F0500F05D0806BC26CBDE810401A
:1004300008461047016C41F40071016401688A6844
:1004400012F0405F17D18269AAB9CA6A12F4700F1C
:1004500002D08A6852050ED44A6822F020024A600F
:10046000016C21F480710164016CC90403D4016C36
:1004700041F00101016400F021FE10BD10B5806B58
:1004800040210164416C41F00401416400F018FE18
:1004900010BD10B5806B00F012FE10BD454910B5BF
:1004A0004A6822F440324A604A6843681A434A6004
:1004B00001684A6822F480724A6001684A680369E8
:1004C00042EA03224A6001684A6822F040724A60A8
:1004D00001684A6883681A434A6001688A6822F49E
:1004E00000628A6001688A68C3681A438A60816A08
:1004F0006FF07062D14201688A6822F070628A608F
:1005000001688A680CD0836A1A438A6001688A6825
:1005100022F040528A6001688A68C36A1A4301E087
:1005200022F040528A6001688A6822F002028A60E2
:1005300001688A68836942EA43028A60016A002985
:1005400001684A680FD042F400624A6001684A6854
:1005500022F460424A6001684A68174C436A04EB1F
:1005600043331A4301E022F400624A600168CA6A18
:1005700022F47002CA620168CA6A838B0F4C04EBD2
:1005800003531A43CA6201688A6822F400728A60BF
:1005900001688A68036B42EA43228A6001688A68BC
:1005A00022F480628A6001688A68406942EA802099
:1005B000886010BD0023014000E0FFFF0000F0FF55
:1005C00010B502F0A1FE02F0E3FD02F0B3FD02F06F
:1005D00083FD02F0EDFF03F011F803F035F802F0AF
:1005E0009BFF02F0BFFF03F055F802F0CDFC02F0D4
:1005F00003FD02F039FD02F057FF02F01DFF26480F
:1006000001F062FA254801F05FFA0A2224492548E0
:1006100000F0F0FD64222449244802F065FC072222
:100620002349244802F060FC07222349234802F0B2
:100630005BFC1E480068C16841F01001C1601D48A4
:100640000068C16841F01001C1601D480068016880
:1006500021F0080101601B480068016821F00801D1
:10066000016019480068016821F0080101600A482A
:1006700000F02AF9094800F027F90221064800F0A5
:1006800039FE0221054800F035FEBDE810404FF468
:100690007A7001F0C3BB0000740A00209C0A00209D
:1006A000200F0020C40A0020510E00200007002067
:1006B0008200002000060020890000204006002063
:1006C000E0070020A008002000090020FEE700004D
:1006D000014800F08BBF0000740A0020014800F0C0
:1006E00085BF00009C0A0020044801884ABA0449DA
:1006F0008A80408840BAC8807047000034000020DB
:1007000050000020074801884ABA07494A824288B7
:1007100052BA0A80828852BA4A8082790A72C079B3
:100720004872704734000020B60E002009480A4A7B
:100730000B4B018849BA09B2516141884ABA07494D
:100740004A8002791206120C1A7040790006000CD9
:100750000870704734000020640D00205000002015
:10076000400000200F4930B408220A6100228A604C
:1007700012230B600C4BCA600C495C88250A0D7073
:100780004C709C88250A8D70CC709B790B71084B3E
:100790005B784B718A71CA710A4630BC01230149EA
:1007A00000F0BCBDD00D00209000002068000020AB
:1007B000C00F00200F4930B408220A6100228A606D
:1007C00014230B600C4BCA600C495C88250A0D7021
:1007D0004C709C88250A8D70CC709B790B71084BEE
:1007E0001B784B718A71CA710A4630BC01230149DA
:1007F00000F094BD000E002098000020780000203A
:100800003E000020174930B408220A6100228A60A5
:10081000CA6011220A60144A903153881C0A0C7075
:100820004B7092ED070ABCEEC00A10EE103A1B0A9C
:100830008B7010EE103ACB70538A1C0A0C714B71FE
:1008400092ED0D0A0123BCEEC00A10EE102A120A26
:100850008A7110EE102ACA710A4630BC903900F035
:100860005DBD0000B80D0020C00F002030B413495A
:10087000002408228C60C1E9034213220A60104A56
:10088000104953780B7053881D0A4D708B7092ED90
:10089000060ABCEEC00A10EE103A1B0ACB7010EE2E
:1008A000103A0B71128A130A4B718A71CC710A4685
:1008B00030BC0123014900F031BD0000E80D0020EB
:1008C000C00F00207000002000B58BB00021012275
:1008D000CDE9061203910892094A00910191029113
:1008E0000491904200D1059105492831884201D1F7
:1008F0000E210591694600F075FD0BB000BD0000AA
:10090000740A00201B4B30B41888184CA0F5806086
:1009100000EB80015888A578A0F5806000EB80008E
:10092000134A4042012D16D000EE101AB8EEC00A4C
:1009300082ED020A00EE100AB8EEC00A82ED000A4B
:10094000607814280FD315206070187A01280AD116
:1009500030BC03F08DBE494200EE101AB8EEC00A5A
:1009600082ED010AE6E730BC704700003E0000203F
:1009700050010020B60E00201CB5C82003F0B0FEC8
:1009800004F09CFDDFF810810021019088F8001030
:1009900000F0D0F8DFF808A1DFF800910AF59076B2
:1009A000404F06F19005012003F034F999F9000059
:1009B00010B101282BD103E050469AED021A1FE036
:1009C0003948DFED3A0A90ED050A3548B8EEC00A1D
:1009D000103003F0B9FE32481030D0ED140A34481C
:1009E000B0F90000404200EE100A2D48B8EEC00AEF
:1009F000903003F0A9FE2A48903090ED141A50462A
:100A00009AED010AD0ED000A2A4803F054FE0024B2
:100A100006EB8400D0ED000AC4EB041037F9200087
:100A200000EE100A05EBC410B8EEC00A03F08CFE0D
:100A3000641C042CECDB1F48103803F071FF98F89D
:100A40000000012824D095ED740ABDEEC00A10EE16
:100A5000100A00B2009095ED540ABDEEC00A10EEE7
:100A6000100A95ED340A03B2BDEEC00A10EE100A6A
:100A700095ED140A02B2BDEEC00A10EE100A01B2E2
:100A80000D4800F01BF8052101A803F030FE8AE7AD
:100A9000094800F035F8F6E73C000020400000204F
:100AA00050010020380C0020640D002000000000E0
:100AB00052000020700200209C0A0020F0B40E4C6E
:100AC0000826049D26610026A660E6604FF40076A5
:100AD00026600A4C0E0A26706170110AA170E2703D
:100AE000190A21716371290AA171E5712246F0BCCE
:100AF0000123014900F012BC180E0020580000200C
:100B00000A4A08214FF400731161002191601360BB
:100B1000D160074A0123117051709170D170117129
:100B200051719171D171014900F0F8BB180E00208C
:100B3000580000202DE9F0414FF47A742DED028B1E
:100B400042F210759FED238AB3EE041AB7EE080A3D
:100B5000F0EE480A23462A4603211F4802F074FF9C
:100B60001D489FED1E0AB3EE041A80ED1A0ADFED50
:100B70001C0AB1EE000A23462A460321A0F5907014
:100B800002F062FF1448B0EE481AF0EE480A9FEDFA
:100B9000150A2346A2000321A03802F055FF0E4E8D
:100BA00000249FED118A80364FF4FA67F0EE480A70
:100BB00006EBC410B0EE601AB7EE080A3B462A46B0
:100BC000032102F041FF641C042CEFDBBDEC028B1F
:100BD000BDE8F08100000000800200200000164304
:100BE0000AD7233CCDCC4C3FCDCCCC3D08B56420BE
:100BF00003F076FD04F062FC534D544C0090688A7B
:100C0000C10719D000220121204601F003FA642116
:100C1000684603F06CFD01221146204601F0FAF906
:100C2000C821684603F063FD01221146204601F009
:100C3000F1F94FF4FA6182E0810712D50022012117
:100C4000204601F0E7F96421684603F050FD0122D7
:100C50001146204601F0DEF9C821684603F047FD41
:100C6000D0E7410712D500220121204601F0D2F938
:100C70006421684603F03BFD01221146204601F045
:100C8000C9F9C821684603F032FDD7E7010712D53C
:100C900000220121204601F0BDF96421684603F0DD
:100CA00026FD01221146204601F0B4F9C82168460C
:100CB00003F01DFDD7E7C10612D500220121204611
:100CC00001F0A8F96421684603F011FD01221146E4
:100CD000204601F09FF9C821684603F008FDD7E7D8
:100CE000810612D500220121204601F093F96421EA
:100CF000684603F0FCFC01221146204601F08AF907
:100D0000C821684603F0F3FCD7E7400612D500225D
:100D10000121204601F07EF96421684603F0E7FCDA
:100D200001221146204601F075F9C821684603F0FA
:100D3000DEFCD7E70121204601F068F91021684662
:100D400003F0D5FC5BE70000CC0E0020000402405D
:100D5000014800F0EDBE000000090020014800F04D
:100D6000E7BE0000E0070020014800F0E1BE0000FF
:100D7000A0080020014800F0DBBE00004008002071
:100D8000014800F0D5BE00009C0B0020014800F097
:100D9000CFBE00008007002001681823CAB2103AB5
:100DA000B2FBF3F2054B6FF30901032A9B5CC365A9
:100DB00000D9091D8165084670470000325A0008B5
:100DC00010B5014600208B698A6A4FF0C07453B198
:100DD000B3F5005F15D072B1012A0CD0022A0AD0F7
:100DE000032A09D104E01AB1012A06D0022A03D14C
:100DF000C96AC90100D5012010BDC96AA142FAD053
:100E000010BD002AF7D0012AF2D0022AF3D0032A1B
:100E1000F3D010BD30B50468256825F48025256021
:100E2000046863608368402B036803D0996000689E
:100E3000C26030BD9A600068C16030BD704702205A
:100E400001F000B8042000F0FDBF10B5202000F034
:100E5000F9FFBDE81040402000F0F4BF00B5284A7B
:100E60000021084652F82030401CC0B219440A281C
:100E7000F8D300EE101A9FED231A214BB8EEC00AEA
:100E80002833181D20EE010A83ED000A83ED0B0ABA
:100E900003F062FB60EE010ADFED1B1AB0EE040AFC
:100EA000C3ED0C0AB3F94000B3EE091AC82808DDF7
:100EB00010EEA10A93ED0E2A10EE012A83ED0D2A01
:100EC00000BD10EEA10A401C00B2A3F84000322879
:100ED00020EE010A83ED0D0AF2DDD3ED0F0AC828DA
:100EE00030EE600AD3ED0E0A30EE200A83ED0E0AD2
:100EF000E6DDDFED060A80EE201A83ED0E1A00BD56
:100F0000200F0020CDCCCC3DED32533A00001643EB
:100F100009480A4903780B70027ACA71FD2B0AD17D
:100F2000FC2A08D130F8012F52BA4A80428852BABE
:100F30008A8000798871704782000020900000202C
:100F400009480A4903780B70027ACA71FF2B0AD14B
:100F5000FE2A08D130F8012F52BA4A80428852BA8C
:100F60008A800079887170478900002098000020ED
:100F700078B50024009490F83C20012A19D0012271
:100F800080F83C200A6807230568092A13D9EE680F
:100F90000A3A02EB420293409E43EE600B788A6865
:100FA0000A3B03EB43039A400368DD682A43DA6097
:100FB00010E0022078BD2E6902EB420293409E436E
:100FC0002E610B788A6803EB43039A4003681D691E
:100FD0002A431A614A681F23072A13D205686E6BD9
:100FE000521E02EB820293409E436E630B790A8885
:100FF0005B1E92B203EB83039A4003685D6B2A4346
:101000005A6327E005680D2A12D22E6BD21F02EB1D
:10101000820293409E432E630B790A88DB1F92B2B3
:1010200003EB83039A4003681D6B2A431A6311E0A4
:10103000EE6A0D3A02EB820293409E43EE620B7918
:101040000A880D3B92B203EB83039A400368DD6A82
:101050002A43DA62164B0568144A9D4206D10D6890
:10106000122D03D1556845F48005556005689D42F1
:1010700018D10B68102B01D0112B13D1536843F4F6
:1010800000035360096810290CD10A490A4A09680B
:10109000B1FBF2F101EB8101490000E0491E009132
:1010A0000029FBD180F83C40002078BD002301409E
:1010B00000200140D000002040420F0070477047E0
:1010C000704770B504004FF0000503D0206C002677
:1010D00010B107E0012070BD666484F83C602046D2
:1010E00000F01AF8206CC00610D4206C20F4885050
:1010F00040F0020020642046FFF7D0F96664206CBF
:1011000020F0020040F00100206400E0012584F896
:101110003C60284670BD000070B506462A4C036846
:1011200000252A4903202A4A86B0A3422BD10B6806
:1011300043F480730B600968029501F48071059196
:101140001E21CDE900106946104600F087FE224CB2
:101150002048C4E900050015A560C4E9035040001B
:1011600060618000A0614011C4E907052046656206
:1011700000F0AEFD18B1D02118A003F001FAB4635D
:10118000A66306B070BD194CA34209D10B6843F4A5
:1011900000730B60096801F40071059104210BE0F4
:1011A000134CA342EDD10B6843F480630B600968D4
:1011B00001F4806105910821CDE90010029569468E
:1011C000104600F04BFEDCE70020014044380240AE
:1011D00000000240106402409C0B00202E2E2F5372
:1011E00072632F6164632E630000000000210140E0
:1011F00000220140F8B50E4600210446009190F807
:101200003C00012807D0012084F83C002068836856
:10121000DB0702D011E00220F8BD836843F0010330
:1012200083602D482D4B0068B0FBF3F000EB4000CD
:1012300000E0401E00900028FBD120688368DB0797
:1012400048D0236C40F20165AB4343F480732364C0
:101250004068400505D5206C20F4005040F48050D3
:101260002064206CC00404D5606C20F0060060642B
:1012700000E0616484F83C10A16B1A48184DC86303
:10128000A16B19480864A16B1848C86421686FF005
:10129000220008602068416841F080614160206858
:1012A000816841F4807181602168134632464C3177
:1012B000A06B00F077FD6868C006206802D00C497A
:1012C000884207D1816811F0405F03D1816841F005
:1012D000804181600020F8BDD000002040420F0016
:1012E000002301401B040008930400087D0400084B
:1012F0000020014090F82020012A09D090F82020F9
:10130000022A05D0416A41F48021416201207047E0
:10131000006842690A43426100207047F0B590F8C6
:101320002040012C07D090F82040022C03D0416AC5
:1013300041F4802153E00468A5686D0105D4A568D7
:101340002D0102D4A568ED0046D5A4680125C4F39B
:101350000164A5401D608D684FF4C0739DB1CE68D7
:1013600035434E6845EAC605066803EB0417F55198
:101370004FF4C275076805EB04150E697E51097DAF
:10138000012905D009E00E88CD6845EA4655EBE70E
:1013900001684E5946F480764E511179D2F80550C5
:1013A0004FF4C67641EA0521056806EB0416A951FB
:1013B0001178D2F801204FF4C47541EA0221026885
:1013C00005EB04155151006803EB0411425842F03B
:1013D000010242500020F0BD416A41F40011416217
:1013E0000120F0BD10B590F82020012A09D090F816
:1013F0002020022A05D0416A41F480214162012067
:1014000010BD3A48D0F8002242F00102C0F8002294
:10141000D0F8002222F47C52C0F80022D0F800223A
:101420004B6A42EA0322C0F800220B7D01229A4057
:10143000D0F81C329343C0F81C32CB69B3B9D0F852
:101440000C329343C0F80C328C894B6864F31F4311
:101450004C6900EBC404C4F840320C890B6864F397
:101460001F434C6900EBC404C4F84432CB69012B20
:1014700016D1D0F80C321343C0F80C320C884B68EC
:1014800064F31F434C6900EBC404C4F840320C8978
:10149000CB6864F31F434C6900EBC404C4F84432C6
:1014A0008B69002BD0F804320ED01343C0F80432FD
:1014B0000B69002BD0F8143208D01343C0F8143253
:1014C000096A012904D008E09343EFE79343F5E765
:1014D000D0F81C121143C0F81C12D0F8001221F0F1
:1014E0000101C0F80012002010BD0000006400409F
:1014F000704730B590F82040012C07D090F820407C
:10150000022C03D0416A41F4802109E011B1012984
:1015100009D00CE00468E46807E0416A41F4001176
:101520004162012030BD04682469A407F5D04FF45E
:10153000D874056804EB01142D5915F00405956065
:1015400005682D5942D0ED08556005682C59C4F343
:101550004004D4604FF4DA74056804EB01142D598B
:1015600005F00F05156105682D59C5F3072595612F
:1015700005682C59240C54614FF4DC72046802EBAA
:101580000112A4581C700468A458240A5C700468F2
:10159000A458240C9C700468A258120EDA704FF400
:1015A000DE72046802EB0112A4581C710468A4588E
:1015B000240A5C710468A458240C9C710468A25825
:1015C000120EDA7129B1012909D00DE06D0D1560F7
:1015D000BBE70068C16841F02001C16004E0006819
:1015E000016941F020010161002030BD2DE9F05F6B
:1015F0000546006800244669D0F804908768D0F852
:101600000CB0D0F810A0D0F81880F10748D0F90736
:1016100014D001218160B80703D5284600F081FA73
:101620000CE0780702D54FF4006407E0380702D5D4
:101630004FF4805402E0284600F072FAF80516D5FF
:1016400029684FF480708860B80503D5284600F0FB
:101650006AFA0CE0780502D544F4005407E0380536
:1016600002D544F4804402E0284600F05BFAF80317
:1016700016D529684FF480308860B80303D5284612
:1016800000F053FA0CE0780302D544F4004407E07C
:10169000380302D544F4803402E0284600F044FACE
:1016A000300707D55FEACB6004D52968102044F4E1
:1016B0000074C86070074FF0080707D55FEA0B7029
:1016C00004D52868C760284600F07CF9B00706D525
:1016D0002868C068800702D0284600F075F97006B7
:1016E00007D55FEACA6004D52968102044F48064F5
:1016F0000861B00607D55FEA0A7004D5286807615B
:10170000284600F0DDF9F00606D528680069800754
:1017100002D0284600F0D5F9B00308D55FEAC960C9
:1017200005D5296810204860284600F0CBF9F00361
:1017300007D55FEA097004D528684760284600F09D
:10174000F5F9300446D55FEA497040D5F00504D577
:101750005FEAC87001D044F00104B00504D55FEA27
:10176000887001D544F00204700504D55FEA487022
:1017700001D544F00404300529D518F0700F26D0A7
:1017800008F07000402815D006DC102809D0202869
:101790000AD0302816D10AE050280ED0602811D186
:1017A0000EE044F008040DE044F010040AE044F0B8
:1017B000200407E044F0400404E044F0800401E029
:1017C00044F480742868816921F07001816129687E
:1017D00004204860002C05D0686A204368622846CF
:1017E000FFF786FEBDE8F09F70B5040003D094F8C3
:1017F000200010B104E0012070BD204600F082F806
:101800002068016821F00201016000F009FC054632
:10181000052604E000F004FC401B0A2811D82068CB
:1018200040688007F6D42068016841F0010101603A
:1018300000F0F6FB05460BE000F0F2FB401B0A2827
:1018400006D9606A40F40030606284F82060D2E714
:1018500020684068C007EFD0207E0128206801681A
:101860003DD021F080010160607E01282068016880
:1018700038D021F040010160A07E01282068016875
:1018800033D021F020010160E07E0128206801684A
:101890002ED041F010010160207F012820680168EE
:1018A00029D021F008010160607F012820680168CB
:1018B00024D021F004010160D4E902010843D4E9F5
:1018C0000412114308436168491E08432168C86136
:1018D00000206062012084F82000002070BD41F0EB
:1018E0008001C0E741F04001C5E741F02001CAE7AF
:1018F00021F01001CFE741F00801D4E741F00401E5
:10190000D9E70000F0B52A4B0768DFF8A0C01868D7
:1019100003220224092527490026401C87B0674579
:1019200019D11860012807D1086840F000700860DC
:10193000086800F0007005908DE85400CDE903259B
:1019400069461D4800F08AFA00220521142000F0A3
:1019500017FC142026E0DFF864C0674524D10F6827
:1019600047F080670F600F68012807F080670597D0
:10197000186007D1086840F000700860086800F03F
:10198000007005904FF440508DE85100CDE90325DB
:1019900069460B4800F062FA00220521402000F061
:1019A000EFFB402000F0E0FB07B0F0BD006400401A
:1019B0004C00002040380240000C0240006800400B
:1019C000000402407047000070B537493326374D98
:1019D000374C884239D104F10C032A460021FFF725
:1019E00088FD2868B0F5887F1AD0A0F58070193876
:1019F0001FD007280CD0E9281AD1052002F0F2F8F0
:101A00002C48C16A4A1CC26232291AD8264941E0D0
:101A1000042002F0E7F8BDE870402348FEF786BED8
:101A2000042002F0DFF82048FEF76CFE0120207051
:101A300070BD042002F0D6F8BDE870401A48FEF7E9
:101A400053BEC66218491B482AE01B498842EFD1A1
:101A5000174B164A0C330021FFF74BFD2868A0F501
:101A60000070013805D0012803D0022801D00328D6
:101A700001D102F0B7F82878401EC0B26070C0EB08
:101A800000110E4800EB8100C16A4A1CC262322973
:101A900004D80949BDE8704002F0E2BD0649C662BB
:101AA000BDE8704002F0B8BD740A00203401002087
:101AB00028000020280D00209C0A0020380C00205F
:101AC000704770477047000070B5044690F82000DA
:101AD000012804D0606A40F40020606218E002200F
:101AE00084F820002068016821F00101016000F005
:101AF00097FA05460EE000BF00F092FA401B0A2854
:101B000008D9606A40F400306062052084F8200043
:101B1000012070BD20684068C007EDD1606270BDD3
:101B200070477047704770477047704770470000B4
:101B30002DE9F84304464FF00009CDF800906348C2
:101B40004FF41651A56D0068B0FBF1F72E6894F8BC
:101B50005C10082000FA01F131420FD021680A68B8
:101B600052070BD50A6822F004020A6094F85C1050
:101B70008840A860606D40F00100606594F85C10DA
:101B80004FF0010808FA01F0304208D02168496995
:101B9000090604D5A860606D40F00200606594F805
:101BA0005C1004208840304208D021680968890709
:101BB00004D5A860606D40F00400606594F85C1086
:101BC00010208840304218D021680968090714D5D0
:101BD000A86020680168490304D50068000308D59F
:101BE000A16C07E00168C90503D4016821F0080170
:101BF0000160216C09B12046884794F85C102020D0
:101C00008840304231D021680968C9062DD5A860C6
:101C100094F8350005282068016806D0490347D5A7
:101C2000006800031DD4616C1CE021F01601016006
:101C30002068416921F080014161206C08B9A06CE5
:101C400020B12068016821F00801016094F85C105F
:101C50003F208840A86084F8349084F83580216D56
:101C60001FE0E16B09B120468847606D00282BD04A
:101C7000606DC00714D0052084F835002068016825
:101C800021F0010101600098401C0090B84203D887
:101C900020680068C007F6D184F8349084F8358055
:101CA000E16C002910D001B02046BDE8F0430847A0
:101CB0000168C905D5D4016821F01001016084F8DC
:101CC000349084F83580CCE7BDE8F883D00000205C
:101CD0002DE9F041044600F0A3F906465CB1002569
:101CE00084F83450022084F835002068016821F01F
:101CF000010101600DE00120BDE8F08100F090F9E4
:101D0000801B052805D920206065032084F8350054
:101D1000F2E720680068C007F0D122681168204807
:101D20000140D4E901031843D4E90336334318438F
:101D300063691843A3691843E3691843236A184386
:101D40000843616A042903D1D4E90B1319430843FA
:101D5000106020684069666A20F0070130460E4333
:101D6000012704280CD1A06A0643E06A40B120464E
:101D7000FFF726F820B14020606584F83570BAE797
:101D8000206846612046FFF707F894F85C203F2161
:101D900091408160656584F835700020ACE70000F3
:101DA0003F8010F02DE9F0410446866D90F8340034
:101DB000002501280DD0012084F8340094F83570F6
:101DC0000020012F07D084F8340002252846BDE802
:101DD000F0810220FBE7022784F835706065204619
:101DE000FFF718F894F85C103F208840B060206836
:101DF000016841F0160101602068416941F08001ED
:101E00004161206C20B12068016841F00801016047
:101E10002068016841F001010160D7E770B5044610
:101E200000F0FEF80546601C02D004480078044427
:101E300000F0F6F8401BA042FAD370BDC4000020A9
:101E400070470000044910B50A68024202D00860D9
:101E5000FFF7F6FF10BD0000143C01402DE9F84FDC
:101E6000DFF87CB100224FF001084FF0030A4FF079
:101E70000F090BF1040E00BF0B6808FA02F42340AF
:101E8000A3426ED14D68022D01D0122D0ED1D5087E
:101E900000EB850CDCF820505607F70E09FA07F620
:101EA000B5430E69BE402E43CCF82060066855004D
:101EB0000F790AFA05FC07F0030726EA0C06AF4083
:101EC000374307604E68012E05D0022E03D0112E35
:101ED00001D0122E0ED18668CF6826EA0C06AF40DC
:101EE000374387604668A6430C79C4F300149440D6
:101EF00034434460C6688C6826EA0C06AC40344320
:101F0000C4604C68E40065D5364C256845F48045CE
:101F10002560246822F0030504F480440094324CC8
:101F20002E19D6F8084895072F0F09FA07F5AC4384
:101F30002E4DA84201D1002524E02D4DA84201D10B
:101F400001251FE02B4DA84201D102251AE02A4DA0
:101F5000A84201D1032515E0284DA84202D104254D
:101F600010E037E0264DA84201D105250AE0254DB5
:101F7000A84201D1062505E0234DA84201D107253D
:101F800000E00825BD402543C6F80858DBF80040AE
:101F90005D464E689C43F60300D51C432C60DEF87A
:101FA000004075464E689C43B60300D51C432C6028
:101FB0000B4D08352C684E689C43F60200D51C4337
:101FC0002C60074D0C352C684E689C43B60200D53A
:101FD0001C432C60521C102AFFF44EAFBDE8F88F52
:101FE000003C014044380240003001400000024003
:101FF0000004024000080240000C024000100240B1
:102000000014024000180240001C024042694A408D
:10201000426170470AB1816170470904FBE7000023
:102020000148806870470000C400002002488168B1
:102030000278114481607047C40000200B4810B53D
:10204000016841F400710160016841F48061016040
:10205000016841F480710160032000F0B1F80020B4
:1020600000F006F800F03EF8002010BD003C0240F1
:1020700010B5014688B00022192000F081F819201F
:1020800000F072F813480024016841F0010101607A
:10209000006805A900F001000690684600F03AF9D2
:1020A00000F06EF90C494000B0FBF1F10C480B4A0E
:1020B000491E026040F2E732C0E90324C0E901147E
:1020C00000F078FB10B1012008B010BD044800F00A
:1020D000C9FBF9E74438024040420F0000000140CC
:1020E000FC0B00201F4808B5016841F480410160E5
:1020F000006800F4804000901A48001F016841F019
:1021000080510160006800F080500090032000F0D2
:1021100057F8002211466FF00B0000F031F8002252
:1021200011466FF00A0000F02BF8002211466FF004
:10213000090000F025F800221146501F00F020F899
:1021400000221146101F00F01BF800220F21901EE4
:1021500000F016F800220F21BDE80840501E00F0E4
:102160000FB800004438024000F01F0201219140E6
:102170004009800000F1E020C0F800117047000025
:10218000F0B40E4B1B680C46C3F30223C3F10705E2
:10219000042D00D90425191D072901D2002300E0D0
:1021A000DB1E012606FA05F1491E214099409E409A
:1021B000761E16403143F0BC01F00DBC0CED00E082
:1021C000064900F0070208684FF6FF03184040EA8E
:1021D0000220034A10430860704700000CED00E045
:1021E0000000FA052DE9F0470E46050065D0DFF83E
:1021F0001481D8F80000F7B200F00F00B04207D207
:1022000088F80070D8F8000000F00F00B04254D1F8
:1022100028683D4C810712D5400703D5206840F45B
:10222000E05020602878000703D5206840F4604023
:1022300020602068A96820F0F0000843206028781A
:10224000C0072DD0304968680839012812D002280B
:1022500013D0032811D00968890700292DDA2168D5
:1022600021F0030101432160FFF7DAFE814641F2CC
:10227000883A0EE009688903EFE709688901ECE70D
:10228000FFF7CEFEA0EB0901514502D90320BDE8BE
:10229000F0872068696800F00C00B0EB810FEFD187
:1022A000D8F80010404601F00F01B14207D907707D
:1022B000006800F00F00B04201D00120E7E7287865
:1022C000400705D52068E96820F4E0500843206005
:1022D0002878000706D52068296920F4604040EA84
:1022E000C100206000F05CF82168084AC1F30311C6
:1022F000515CC840064908600020FFF7B9FE002085
:10230000C5E70000003C0240083802403A5A000885
:10231000D00000200F2202600C4A136803F0030370
:102320004360136803F0F0038360136803F4E05321
:10233000C36012684FF4E05303EAD202026104481A
:10234000006800F00F000860704700000838024085
:10235000003C02400148006870470000D0000020A7
:102360000448054900680968044AC1F38221515CA8
:10237000C8407047D0000020083802404A5A000880
:102380000448054900680968044AC1F34231515CB8
:10239000C8407047D0000020083802404A5A000860
:1023A000154810B5006810F00C02144813D01449F9
:1023B000042A0FD0082A0ED10F4C241F226823684C
:1023C00002F03F025B0207D52068C0F38810A0FB33
:1023D000010106E0084610BD2168C1F38811A1FB88
:1023E00000010023FDF74AFF2168C1F30141491CA8
:1023F0004900B0FBF1F010BD083802400024F400A1
:1024000000366E012DE9F84F050076D02878DFF808
:10241000F8B2BE4CC00749D0DBF800105846C1F3F3
:102420008101012908D00068C0F3810002280AD187
:10243000201D0068400206D52068800336D56868F4
:102440000028E2D032E06868B0F5803F10D0B0F5E7
:10245000A02F206810D020F480302060206820F465
:10246000802020606868A0B1FFF7DAFD06460CE026
:10247000206840F48030F4E740F480202060F7E7E3
:10248000FFF7CEFD801B642873D820688003F7D542
:102490000CE0FFF7C5FD064605E000BFFFF7C0FDF5
:1024A000801B6428F0D820688003F7D42878DFF8F0
:1024B000608280074FF000093ED5DBF800105846D7
:1024C00011F00C0F09D00068C0F3810002280BD175
:1024D0008D48001F0068400206D42068800715D58B
:1024E000E868012809D111E0E868B8B10120C8F80E
:1024F0000000FFF795FD064605E002E1FFF790FDBD
:10250000801B0228C0D820688007F7D52068296979
:1025100020F0F80040EAC10020600DE0C8F800900B
:10252000FFF77EFD064604E0FFF77AFD801B0228D8
:102530001FD820688007F7D42878000722D5724E6C
:10254000744869696C3671B101210160FFF768FD5B
:10255000074604E0FFF764FDC01B022809D8306875
:102560008007F7D50EE0C0F80090FFF759FD074649
:1025700005E083E0FFF754FDC01B02287ED83068D9
:102580008007F7D42878400768D5DFF87CA10027BA
:102590000AF1380ADAF80000C0000BD4DAF80010AB
:1025A00041F08051CAF80010DAF80000012700F06D
:1025B00080500090584E3068C00510D4306840F408
:1025C00080703060FFF72CFD009005E0FFF728FDDC
:1025D0000099401A022851D83068C005F6D54A4EF5
:1025E000A868683601280FD00528306810D020F080
:1025F00001003060306820F004003060A868B8B195
:10260000FFF70EFD00900FE0306840F00100F4E7A6
:1026100040F004003060F7E7FFF702FD0099411A2F
:1026200041F28830814264D830688007F4D50EE0EA
:10263000FFF7F6FC009007E0FFF7F2FC0099411A63
:1026400041F28830814254D830688007F4D42FB1E9
:10265000DAF8001021F08051CAF80010A869C0B360
:10266000DBF80010C1F3810102294AD00228484654
:1026700007D0C8F86000FFF7D3FC00E039E005465A
:102680003AE04746C8F86000FFF7CAFC064604E097
:10269000FFF7C6FC801B02282BD820688001F7D4E6
:1026A000D5E907010843A96A1C4A490802EB014120
:1026B0006A6A41EA8211084395F82C1040EA0161E8
:1026C0001148001F016001203866FFF7A9FC05468C
:1026D00005E014E0FFF7A4FC401B022809D820689D
:1026E0008001F7D50BE000BFFFF79AFC401B0228E2
:1026F00002D90320BDE8F88F20688001F4D40020BF
:10270000F8E70120F6E700000838024000380240F0
:1027100000004742800E4742007000400000FFFF6B
:102720004FF0E0210428086903D020F0040008617C
:10273000704740F00400FAE710B5401EB0F1807F0A
:1027400001D3012010BD4FF0E02460610F2160171C
:1027500001F041F90020A06107202061002010BD98
:102760007047704730B590F83820012A20D00122F8
:1027700080F83820022380F8393003685C6824F040
:1027800070045C6003685C680D682C435C600368DF
:102790009C6824F080049C6003689C6849680C4332
:1027A0009C6080F83920002180F83810084630BD40
:1027B000022030BD10B5040003D094F8390010B1E8
:1027C00007E0012010BD002084F83800204600F00A
:1027D0000DF8022084F83900211D206801F048FC22
:1027E000012084F83900002010BD000008B5016800
:1027F0001948B1F1804F14D0184A914220D1016894
:1028000041F0100101600068002200F0100000900B
:1028100002213620FFF7B4FC3620BDE80840FFF760
:10282000A3BC016841F0010101600068002200F0D2
:102830000100009005211C20FFF7A2FC1C20ECE702
:10284000074A914207D1016841F004010160006824
:1028500000F00400009008BD403802400010004025
:10286000000800400168CA6842F00102CA600068BE
:10287000016841F0010101600020704770B5044615
:1028800090F83800012817D0012584F8385002202C
:1028900084F839002068826822F0770222F47F42AF
:1028A00082600868502837D00DDC202859D005DC1C
:1028B00088B3102841D151E0022070BD302853D098
:1028C00040283AD13FE060282ED070280BD0B0F5D8
:1028D000805F03D0B0F5005F2FD110E020688168E1
:1028E00021F0070115E0CB68D1E90121206801F052
:1028F0001FFC2168886840F0770088601DE0CB6885
:10290000D1E90121206801F013FC2068816841F4BD
:102910008041816011E01EE0CA684968206801F0CA
:1029200019FC5021206806E0CA684968206801F057
:1029300022FC6021206801F005FC84F83950002059
:1029400084F8380070BDCA684968206801F002FC4C
:1029500040212068EFE700212068ECE71021206883
:10296000E9E720212068E6E730212068E3E77047A7
:1029700070B50446006801694FF00005C943890736
:1029800015D4C168C943890711D4E91E016101202A
:102990002076206880698007204602D0FFF7E7FF95
:1029A00004E000F098F8204600F096F825762068BC
:1029B0000169C943490717D4C168C943490713D4FA
:1029C0006FF004010161022020762068806910F414
:1029D000407F204602D0FFF7CAFF04E000F07BF8FA
:1029E000204600F079F8257620680169C943090777
:1029F00016D4C168C943090712D46FF008010161F8
:102A0000042020762068C0698007204602D0FFF7A6
:102A1000AEFF04E000F05FF8204600F05DF8257698
:102A200020680169C943C90617D4C168C943C906EA
:102A300013D46FF010010161082020762068C0696E
:102A400010F4407F204602D0FFF791FF04E000F031
:102A500042F8204600F040F8257620680169C94315
:102A6000C90708D1C168C943C90704D1891E0161DA
:102A7000204600F033F820680169C943090609D4EB
:102A8000C168C943090605D46FF080010161204681
:102A9000FFF766FE20680169C943490609D4C16889
:102AA000C943490605D46FF040010161204600F09A
:102AB00029F820680169C94389060BD4C168C94354
:102AC000890607D46FF0200101612046BDE87040FF
:102AD000FFF747BE70BD70477047000010B5044651
:102AE00000680649884201D1FFF7A0FA04488442F1
:102AF00003D1BDE8104001F085B810BD00000140D1
:102B0000380A002070470000084A0168914202D04C
:102B1000074A914208D14A6942F001024A610068BD
:102B2000C16841F49071C1607047000000500040DE
:102B30000044004070B5040004D094F8390000252A
:102B400010B106E0012070BD84F83850204600F036
:102B500023F8242084F839002068C16821F400514A
:102B6000C160204601F078FB2068016921F49041A2
:102B700001612068416921F02A0141612068C16832
:102B800041F40051C160E563202084F8390084F8E5
:102B90003A00002070BD00002DE9F04F0546D0F846
:102BA00000C0DFF8F88202200024BD4A012603217C
:102BB0000823DFF8F0E2470287B04FF0006A4FF4D5
:102BC0008079C44531D1D2F800C04CF4002CC2F851
:102BD00000C01268029602F400220592CDE90313A8
:102BE0008A02CDE9002069467046FFF737F9AF4EFB
:102BF000AD483060C6E901A4C6E903477461C6E97F
:102C00000649346230467462FFF762F820B14FF42F
:102C10008671A7A001F0B4FC6E6300220521342068
:102C2000B563FFF7ADFA342046E0DFF89482C4457F
:102C300047D1D2F800C04CF4801CC2F800C0126822
:102C4000804602F4801205924FF480520092CDE942
:102C500001000320CDE903039B4669467046FFF758
:102C6000FDF80420CDE900080320CDE902606946A3
:102C7000CDF810B09348FFF7F1F88C4E8A486036D3
:102C800030383060C6E901A4C6E903477461C6E97B
:102C90000649346230467462FFF71AF820B14FF4E7
:102CA0009E7183A001F06CFC6E630022052135202B
:102CB000B563FFF765FA3520FFF756FA07B0BDE8B0
:102CC000F08FDFF80482DFF8D8E14FF0070B0EF148
:102CD000040EC44533D1DEF8003043F01003CEF8C3
:102CE0000030DEF80020CDE9026102F0100205920A
:102CF000C022CDE90020CDF810B069467348FFF737
:102D0000ADF8744E72483060C6E901A4C6E90347C5
:102D10007461C6E90649346230467462FEF7D8FF32
:102D200020B14FF4B27162A001F02AFC6E63002260
:102D300005212520B563FFF723FA2520BCE7DFF83E
:102D40009881C44532D1136843F40033136012688C
:102D5000CDE9026102F4003205926022CDE9002043
:102D6000CDF810B069465748FFF778F84F4E4E48F7
:102D7000603E48303060C6E901A4C6E9034774618B
:102D8000C6E90649346230467462FEF7A1FF20B1FD
:102D90004FF4C87146A001F0F3FB6E6300220521D9
:102DA0002620B563FFF7ECF9262085E7DFF82C81B4
:102DB000C44535D1136843F4802313601268CDE90C
:102DC000026102F4802205924FF44062CDE90020B6
:102DD000CDF810B069463D48FFF740F83D4E324807
:102DE000603618383060C6E901A4C6E9034774614B
:102DF000C6E906494FF40030C6E908043046FEF73C
:102E000067FF20B14FF4DC7129A001F0B9FB6E63BC
:102E1000002205212720B563FFF7B2F927204BE7F1
:102E20002F4A94457FF44AAFDEF800C04CF0200CE6
:102E3000CEF800C0DEF80020029602F020020592D3
:102E4000CDE903134FF4C062CDE90020694625485F
:102E5000FFF704F8154E1E48C0361838306080055C
:102E6000C6E90104C6E903477461C6E906494FF49F
:102E70000030C6E908043046FEF72AFF20B14FF4BF
:102E8000F0710BA001F07CFB6E630022052147204E
:102E9000B563FFF775F947200EE70000004C0040CE
:102EA000403802400008024040600240A008002074
:102EB0002E2E2F5372632F75736172742E63000070
:102EC00000500040000C024000100140000402408D
:102ED0004064024080070020004400400048004059
:102EE0000014014000180240F8B5044690F83A007A
:102EF00020283CD1C1B3BAB394F83800012836D0A9
:102F0000012084F83800A162A2850025E563222013
:102F100084F83A00636B1748D863636B16481864EB
:102F2000636B1648D864606B134605650846666B8C
:102F3000216802463046091DFEF734FF206801680B
:102F40004168009184F83850C16841F48071C160D3
:102F50002068416941F0010141612068416941F007
:102F6000400141610020F8BDFFE70120FBE702209E
:102F7000F9E70000E5410008214200089B410008F4
:102F800070477047FEE700007FB5154813490125DB
:102F9000016005614FF4803100248561C0E90114AE
:102FA00010490462C0E90A14C460C5614561046344
:102FB000FEF787F818B156210BA001F0E1FA009551
:102FC000CDE9015469460648FDF7D2FF002803D039
:102FD000602105A001F0D4FA7FBD0000002001406F
:102FE000C40A00200100000F2E2E2F5372632F61A0
:102FF00064632E63000000007FB515481349002468
:1030000001604FF48031C0E9011404618461114909
:103010000462C0E90A140125C460C5614561046306
:10302000FEF74FF818B179210BA001F0A9FA0220A0
:10303000CDE90005694602940548FDF799FF00288F
:1030400003D0832104A001F09BFA7FBD0021014041
:103050000C0B00200100000F2E2E2F5372632F61E6
:1030600064632E63000000007FB5154813490024F7
:1030700001604FF48031C0E9011404618461114999
:103080000462C0E90A140125C460C5614561046396
:10309000FEF717F818B19C210BA001F071FA03207C
:1030A000CDE90005694602940548FDF761FF002857
:1030B00003D0A62104A001F063FA7FBD00220140E5
:1030C000540B00200100000F2E2E2F5372632F612E
:1030D00064632E6300000000114810B50F490160C1
:1030E0000621416000214FF480328160C0E9031263
:1030F0004FF4401242610176012242768276C17617
:1031000001774177FEF770FB002805D0BDE810403D
:10311000502104A001F034BA10BD0000006400404A
:10312000740A00202E2E2F5372632F63616E2E635C
:1031300000000000114810B50F49016006214160F0
:1031400000214FF480328160C0E903124FF4401235
:1031500042610176012242768276C176017741771B
:10316000FEF742FB002805D0BDE81040662104A010
:1031700001F006BA10BD0000006800409C0A002063
:103180002E2E2F5372632F63616E2E63000000009A
:10319000214808B5016841F400110160016801F49B
:1031A00000110091016841F4800101600068002273
:1031B00000F48000009007211020FEF7E1FF1020AE
:1031C000FEF7D2FF002206210C20FEF7D9FF0C20CB
:1031D000FEF7CAFF002206210D20FEF7D1FF0D20C9
:1031E000FEF7C2FF002207210B20FEF7C9FF0B20CC
:1031F000FEF7BAFF002207213920FEF7C1FF392070
:10320000FEF7B2FF002205213A20FEF7B9FFBDE824
:1032100008403A20FEF7A8BF3038024010B5B2B0DF
:10322000142237496846FDF75AF80021684601F034
:1032300074FA344C324914222060143105A8FDF789
:103240004EF8002105A801F068FA2D4960601422AB
:1032500028310AA8FDF743F800210AA801F05DFA19
:103260002749A06014223C310FA8FDF738F800214F
:103270000FA801F052FA2249E0601422503114A83C
:10328000FDF72DF8002114A801F047FA1C49206130
:103290001422643119A8FDF722F8002119A801F0C1
:1032A0003CFA17496061142278311EA8FDF717F81F
:1032B00000211EA801F031FA1149A06114228C31BD
:1032C00023A8FDF70CF8002123A801F026FA0C49E9
:1032D000E0611422A03128A8FDF701F8002128A8F8
:1032E00001F01BFA064920621422B4312DA8FCF724
:1032F000F6FF00212DA801F010FA606232B010BD77
:10330000545600080000002030B5454887B000251D
:10331000016841F020010160016801F02001059180
:10332000016841F080010160016801F080010591B0
:10333000016841F004010160016801F00401059198
:10334000016841F001010160016801F0010105918E
:10335000016841F002010160016801F0020105917C
:10336000016841F010010160016801F01001059150
:10337000016841F008010160016801F00801059150
:10338000016841F0400101600068012400F0400044
:10339000059041F67F00CDE9000469462148CDE95A
:1033A0000245FEF75BFD44F20700CDE900046946E3
:1033B0001D480294FEF752FD4FF44040CDE9000451
:1033C00069461A480294FEF749FD0620CDE900053A
:1033D000694602941648FEF741FD6020CDE90005DC
:1033E000694602941348FEF739FD002205210720A3
:1033F000FEF7C6FE0720FEF7B7FE002205210820D3
:10340000FEF7BEFE0820FEF7AFFE002205211720C2
:10341000FEF7B6FE1720FEF7A7FE07B030BD00008E
:103420003038024000140240000402400010024004
:10343000000802400000024010B5164886B04FF068
:103440008041016053210024C0E901140121C0E939
:103450000314FFF7AFF918B149210FA001F090F85C
:103460004FF48050009069460A48FFF707FA18B1F8
:103470004F2109A001F084F8049404A9054805949B
:10348000FFF770F9002803D0562103A001F078F867
:1034900006B010BDC00900202E2E2F5372632F746A
:1034A000696D2E630000000010B5164886B01449FF
:1034B0000024C0E900148460C4600461FFF77AF955
:1034C00018B1752110A001F05BF84FF48050009006
:1034D00069460C48FFF7D2F918B17B210AA001F028
:1034E0004FF8049404A907480594FFF73BF9002816
:1034F00003D0822104A001F043F806B010BD000003
:1035000000080040FC0900202E2E2F5372632F74F8
:10351000696D2E63000000000D4810B50B49016075
:103520004FF4E1314160002181600C22C160C0E9AB
:1035300004128161C161FFF7FDFA002805D0BDE8E2
:103540001040852103A001F01BB810BD004C0040C5
:10355000000600202E2E2F5372632F757361727434
:103560002E6300000D4810B50B4901604FF4E131A6
:103570004160002181600C22C160C0E904128161B8
:10358000C161FFF7D7FA002805D0BDE810409721A8
:1035900003A000F0F5BF10BD005000404006002021
:1035A0002E2E2F5372632F75736172742E63000079
:1035B0000D4810B50B4901604FF4E1314160002125
:1035C00081600C22C160C0E904128161C161FFF712
:1035D000B1FA002805D0BDE81040AA2103A000F0F0
:1035E000CFBF10BD00100140800600202E2E2F53AB
:1035F00072632F75736172742E6300000D4810B5ED
:103600000B4901604FF4E1314160002181600C22DF
:10361000C160C0E904128161C161FFF78BFA002823
:1036200005D0BDE81040BD2103A000F0A9BF10BD2A
:1036300000440040C00600202E2E2F5372632F75C9
:10364000736172742E6300000D4810B50B49016060
:103650004FF4E1314160002181600C22C160C0E97A
:1036600004128161C161FFF765FA002805D0BDE849
:103670001040D02103A000F083BF10BD00480040DF
:10368000000700202E2E2F5372632F757361727402
:103690002E6300000D4810B50B4901604FF4E13175
:1036A0004160002181600C22C160C0E90412816187
:1036B000C161FFF73FFA002805D0BDE81040E321C3
:1036C00003A000F05DBF10BD0014014040070020C2
:1036D0002E2E2F5372632F75736172742E63000048
:1036E000FEE700000F4908B50020887188804880F7
:1036F00000F040F801F0E2FE4FF0FF3400900520AA
:1037000000F088FA2146012001F014FC012804D1C0
:10371000FDF7FEFB0448FDF725F80221684600F09E
:10372000E6FFECE790000020740A00200F4908B57E
:10373000002088718880488000F01CF801F0BEFEEF
:103740004FF0FF340090062000F064FA214601207B
:1037500001F0F0FB012804D1FDF7F2FB0448FDF76E
:1037600029F80221684600F0C2FFECE7980000202B
:10377000740A002070B541F288342DED028B41F2BD
:1037800070759FED0F8AB7EE001AB7EE000AF0EEE3
:10379000480A23462A4603210A4800F055F9F0EE6C
:1037A000480ABDEC028B23462A46BDE87040054816
:1037B0000321B7EE001AB7EE000A803000F044B9DA
:1037C0000AD7233C0005002070B56348634A418A4C
:1037D000C80607D54FF4FA7090804342D380108119
:1037E00053810BE040F6B83090804FF24840D080D3
:1037F0004FF4FA6010814FF6300050815848594B11
:10380000594C90ED000ACD07B3EE0E2ADFED571AA2
:10381000DFED570A02D030EE420A20E08D0702D5D4
:1038200030EE020A1BE010EE105A9D4205D210EE57
:10383000105AA54201DAC0ED001A90ED000AB5EE6B
:10384000C00AF1EE10FA03DD30EE600A80ED000AE6
:10385000B5EEC00AF1EE10FA03D230EE200A80ED88
:10386000000A3F4EB3EE0E1A957896ED010A30EE3F
:10387000013A70EE412A25B10D074CD5C0ED012A61
:1038800044E0374E4D0796ED021A02D531EE421A4A
:1038900020E00D0702D531EE021A1BE011EE105A9E
:1038A0009D4205D211EE105AA54201DAC0ED021A6E
:1038B00090ED021AB5EEC01AF1EE10FA03DD31EE0A
:1038C000601A80ED021AB5EEC01AF1EE10FA03D2BA
:1038D00031EE201A80ED021A4D061ED40D06CDD40D
:1038E0001EE000BF90ED010AB5EEC00AF1EE10FA3D
:1038F00003DD30EE600A80ED010AB5EEC00AF1EE9C
:1039000010FA03D230EE200A80ED010A080412D525
:103910000120107016E04D0702D580ED013AF5E761
:1039200010EE105A9D42DDD210EE103AA342D9DAC1
:10393000C0ED011AD6E7480401D5002009E010784F
:10394000002807D0080505D5880601D5032000E02A
:103950000220107070BD0000B60E00203E00002056
:1039600050010020000096C30000964300000000B4
:1039700000009643012908D0022905D100219FEDBE
:10398000040BC16080ED040B70471821FCF7C0BC2C
:10399000000000000000000010B50446FEF740FBE8
:1039A0002060616801B1411AC4E90101E068DFEDFE
:1039B000080A084400EE100AE060B8EEC00A20EEE3
:1039C000200A10EE100AFCF7AEFCC4E9040110BD99
:1039D0006F12833A70470907090E002806DA00F0D3
:1039E0000F0000F1E02080F8141D704700F1E02086
:1039F00080F800147047000070B50024FEF710FB3B
:103A000000EE100A0E4B0F4DB8EE400AA3F1140160
:103A10005FF0010003EB8402D2ED000A70EE600A51
:103A200010EE902AAA420A8A00FA04F601DD324317
:103A300000E0B243641C24B20A82092CEADB70BDA8
:103A4000E00E00200000C84230B4034C8467034CF1
:103A5000C46730BC00F05ABF0D4900081B4900087C
:103A600008B5642000F03CFE01F028FDDFF8648119
:103A70004FF0FF390090042000F0CCF849460120B7
:103A800001F058FA01287DD1534E0025534F92E0A2
:103A9000705DA5284CD174192046B4F80110093185
:103AA00001F018FC002843D00521204601F030FC2D
:103AB000F0B3B4F80500A0F5007101391DD1E1792A
:103AC00088F80010217A88F80110B4F80910A8F8D5
:103AD0000210B4F80B10A8F80410B4F80D10A8F8F0
:103AE0000810B4F80F10A8F80C10B4F81110A8F8CA
:103AF0000A10B4F81310A8F80E10B4F80500A0F5D9
:103B00000071023919D1B4F81110A8F81010B4F8E6
:103B10001310A8F81210B4F80910A8F83210D4F84D
:103B20000B10C8F83410B4F80F10A8F8381000E0E3
:103B30003FE0B4F80710A8F83010B4F80500A0F57D
:103B4000007103390FD1D4F80710C8F82010D4F849
:103B50000B10C8F82410D4F80F10C8F82810D4F8A7
:103B60001310C8F82C10B4F80500B0F5017F02D18D
:103B7000E17988F80610B4F80500A0F5007107395E
:103B800015D100E01BE0E079012806D1217A88F800
:103B90001410D4F80910C8F81810E079022806D1DA
:103BA000217A88F81510D4F80910C8F81C102D1DBA
:103BB0006DB26D1C6DB238888542FFF669AF08485A
:103BC000FCF720FE0648FCF751FE0A21684600F08B
:103BD0008EFD50E7C00F0020510E00208000002015
:103BE000740A002010B50446FEF71AFA00EE100A17
:103BF0000348B8EE400A00EB840080ED000A10BDD7
:103C0000E00E002002488168491C81607047000076
:103C1000CC0E002010B50446FEF702FA00EE100AA2
:103C20000348B8EE400A00EB840080ED000A10BDA6
:103C3000040F002010B527482DED028BFFF7ACFED6
:103C4000254C2649234894ED020A9FED251A10EED3
:103C5000102ADFED240A8A420DDDD0ED021A30EE83
:103C6000412AF8EEE11A22EE212AD4ED041A42EE9E
:103C7000601AC4ED041A10EE102A9FED1B8A8A42C6
:103C80000DDA30EE411A90ED020AB8EEC00A21EECC
:103C9000001AB0EE480A01EE600A84ED040A02211F
:103CA0000C48FFF767FE94ED040AB5EEC00AF1EE8A
:103CB00010FA06D89FED0D0A84ED040ABDEC028BC4
:103CC00010BD10EE100A0A498842F7DB84ED048A21
:103CD000F4E70000A80F0020A00000200000A04290
:103CE0000000A0420AD7233C000070420000000000
:103CF0000000704208B501F0E1FB3D4E3D4C3E4DE9
:103D000000900220FFF786FF707A012804D0022875
:103D100008D0032808D102E0FCF7F4FD04E0FFF727
:103D200053FD01E000F06AF8B5F9060094ED010AD0
:103D300000EE900AF8EEE00AB4EEE00AF1EE10FAB6
:103D400002D800EE100A0CE0B5F9041000EE901A4B
:103D5000F8EEE00AB4EEE00AF1EE10FA05DB00EE50
:103D6000101AB8EEC00A84ED010A00EE900A94ED34
:103D7000000AF8EEE00AB4EEE00AF1EE10FA0AD911
:103D8000B5F9040000EE900AF8EEE00AB4EEE00A9D
:103D9000F1EE10FA05DB00EE100AB8EEC00A84ED71
:103DA000000AB5F90A0094ED020A00EE900AF8EE56
:103DB000E00AB4EEE00AF1EE10FA0AD9B5F908000B
:103DC00000EE900AF8EEE00AB4EEE00AF1EE10FA26
:103DD00005DB00EE100AB8EEC00A84ED020A68782E
:103DE0000521401C6870684600F081FC89E70000EE
:103DF000B60E0020500100203E000020034841780C
:103E0000142901D315214170704700003E000020A5
:103E1000012000F065FCFBE708B5642000F060FCC1
:103E200001F04CFB4FF40045324FDFF8CC90334C9F
:103E3000DFF8CCB06E104FF480584FF4006A009059
:103E4000208AC10705D0810703D5410701D50007A6
:103E500004D431465846FEF7D9F804E00122314631
:103E60005846FEF7D7F8207CC00604D429463846C9
:103E7000FEF7CCF804E0012229463846FEF7CAF8DE
:103E8000207C800604D431463846FEF7BFF804E0B3
:103E9000012231463846FEF7BDF8207C400604D4A6
:103EA00041464846FEF7B2F804E001224146484642
:103EB000FEF7B0F8207C000604D451464846FEF7D1
:103EC000A5F804E0012251464846FEF7A3F8208AEF
:103ED000C00504D404215846FEF798F804E00122F6
:103EE00004215846FEF796F84FF49671684600F0A4
:103EF000FEFBA5E70010024000140240CC0E00209B
:103F00000004024000F0FFBB30B5254893B0002507
:103F1000016841F080510160006800F0805011900C
:103F20002048016841F4804101600068022400F4E7
:103F30008040119001200090000401908001CDE9A3
:103F40000640182008904FF4A870CDE90904042019
:103F50000B906846FEF756FA00B1FEE70CA90F2059
:103F600081E831004FF4A0500F904FF48050109032
:103F700005210CA8FEF736F900B1FEE7FEF7EAF9D5
:103F80004FF47A71B0FBF1F0FEF7D6FB0420FEF798
:103F9000C7FB00220F21501EFEF7F2F813B030BD10
:103FA00040380240007000401048016841F4700140
:103FB00001600F48016841F0010101600C4A0021D5
:103FC0000832116002680B4B1A400260031D0A4A56
:103FD0001A60026822F48022026005480C300160F9
:103FE00002495806803908607047000088ED00E0FB
:103FF00000380240FFFFF6FE1030002470B50024A8
:10400000FEF70EF800EE100A0E4B0F4DB8EE400A08
:10401000A3F138015FF0010003EB8402D2ED000A46
:1040200070EE600A10EE902AAA424A8A00FA04F65C
:1040300001DD324300E0B243641C24B24A82072C03
:10404000EADB70BD040F00200000C8420148FEF703
:104050008FBC0000FC0B00200148FEF789BC00006B
:10406000C00900200148FEF783BC0000380A002088
:10407000F0B50268234B244D244E254F254C4FF0BC
:10408000804C984209D0604507D0A84205D0B04284
:1040900003D0B84201D0A04204D122F0700E4A6889
:1040A00042EA0E0298421BD0604519D0A84217D0B0
:1040B000B04215D0B84213D0A04211D0164DA8423C
:1040C0000ED0164DA8420BD0154DA84208D0154D64
:1040D000A84205D0144DA84202D0144DA84203D1E5
:1040E00022F44075CA682A4302608A68C2620A687C
:1040F0008262984201D0A04201D109690163012185
:104100004161F0BD00000140000400400008004093
:10411000000C004000040140004001400044014008
:104120000048014000180040001C004000200040F2
:1041300010B5846842EA032224F47F440A432243F0
:10414000826010BD826822F070020A4342F00701CB
:104150008160704710B5036A046A24F001040462A8
:10416000846924F0F00444EA021423F00A020A43AA
:104170008461026210BD10B5036A23F0100303626C
:104180008369046A23F4704343EA023224F0A003F3
:1041900043EA01118261016210BD70B5846B206831
:1041A000406994F83910C0F3C0100025212904D1CA
:1041B00018B1E584204600F046F82068406994F87C
:1041C0003A10C0F38010222904D118B1E5852046A9
:1041D00000F02BF8E06B40F01000E0632046FEF7A3
:1041E00093FC70BD10B50146806B09680968C9056C
:1041F00013D40021C1850168CA6822F48072CA60A4
:1042000001684A6922F001024A6101684A6922F0A4
:1042100040024A61202180F83A10FEF7B1FE10BD3D
:1042200010B5806BFEF7ADFE10BD0168CA6822F4C0
:104230009072CA6001684A6922F001024A61202135
:1042400080F83A1070470168CA6822F0C002CA605C
:10425000202180F8391070472DE9F04104460068AC
:10426000016921F44052E168114301612168C86885
:1042700049F20C6290432369A268E5691A436369B5
:104280002B431A430243CA602168486920F44072F4
:10429000A06910434861E1696425B1F5004F974872
:1042A000974A21684FF032083FD0914201D08142B5
:1042B0007CD1FEF765F800EBC00101EB00106168EE
:1042C0008900B0FBF1F6FEF75BF800EBC00101EBF3
:1042D000001061688900B0FBF1F0B0FBF5F06FF001
:1042E0001801484306EB800108EB0110B0FBF5F024
:1042F00000F0F006FEF744F800EBC00101EB0010FF
:1043000061688900B0FBF1F0B0FBF5F006EB001638
:10431000FEF736F800EBC00101EB00106168890080
:10432000B0FBF1F7FEF72CF8D2E0914201D08142C8
:104330003DD1FEF725F800EBC00101EB00106168EC
:104340004900B0FBF1F0B0FBF5F00601FEF718F8FC
:1043500000EBC00101EB001061684900B0FBF1F710
:10436000FEF70EF800EBC00101EB00106168490098
:10437000B0FBF1F0B0FBF5F06FF01801484307EB2C
:10438000800108EBC100B0FBF5F000F0F80006EB8F
:104390004006FDF7F5FF00EBC00101EB001061687E
:1043A0004900B0FBF1F7FDF7EBFF3CE055E0FDF70E
:1043B000D7FF00EBC00101EB001061684900B0FBC2
:1043C000F1F0B0FBF5F00601FDF7CAFF00EBC0010C
:1043D00001EB001061684900B0FBF1F7FDF7C0FF89
:1043E00000EBC00101EB001061684900B0FBF1F087
:1043F000B0FBF5F06FF01801484307EB800108EBC4
:10440000C100B0FBF5F000F0F80006EB4006FDF748
:10441000A7FF00EBC00101EB001061684900B0FB91
:10442000F1F7FDF79DFF00EBC00101EB00106168A3
:104430004900B0FBF1F0B0FBF5F06FF01801484314
:1044400007EB800108EBC100B0FBF5F000F00700BE
:10445000216830448860BDE8F081FDF781FF00EB02
:10446000C00101EB001061688900B0FBF1F6FDF7B7
:1044700077FF00EBC00101EB001061688900B0FB21
:10448000F1F0B0FBF5F06FF01801484306EB800146
:1044900008EB0110B0FBF5F000F0F006FDF760FF4F
:1044A00000EBC00101EB001061688900B0FBF1F086
:1044B000B0FBF5F006EB0016FDF752FF00EBC00174
:1044C00001EB001061688900B0FBF1F7FDF748FFD0
:1044D00000EBC00101EB001061688900B0FBF1F056
:1044E000B0FBF5F06FF01801484307EB800108EBD3
:1044F0000110B0FBF5F000F00F00A9E70014014037
:104500000010014038B5104C21680868C968C0F334
:10451000001001F01001002814D0002912D006204C
:10452000FFF760FB09490868026822F00102026097
:104530002068026840680090086840680449C0F13B
:104540006400088038BD000000070020E00700205C
:1045500080000020FEE700009FED080A5FF00001E8
:1045600000EB8102491CD2ED010AC9B2C2ED000A7A
:1045700030EE800A0A29F3D37047000000000000E3
:10458000FEE702E008C8121F08C1002AFAD17047EE
:104590007047002001E001C1121F002AFBD17047C3
:1045A000D0ED000AF4EEC00AF1EE10FA01DD80ED64
:1045B000000AD0ED000AB1EE400AF4EEC00AF1EEB6
:1045C00010FA01D280ED000A7047000010B558B112
:1045D000084C491E0BD310F8013B5340DBB234F8B2
:1045E000133083EA1222F4E74FF6FF7010BD104635
:1045F00010BD00001C58000810B5064C04E000BFB8
:1046000010F8013B5340E25C491E89B2F8D21046D3
:1046100010BD00001C57000810B5104A03894381E3
:10462000118849BA01815488CB1A64BA04809488ED
:10463000B3F5805F64BA448092798271026901DDCA
:10464000521E03E013F5805F01DA521C026101EB98
:1046500042318289891A416110BD00003400002076
:104660000249098849BA01818181704734000020DC
:1046700005489FED040A80ED010A80ED000A80EDF7
:10468000020A70470000000050010020FDF7D6FC30
:10469000FFF73AFC00F0D6FCFBF792FFFEF7BEFDF9
:1046A00000F0F0FC00F02AF8FEE701460020842923
:1046B00000D0C81C704770EEC01A30EE200A31EEF0
:1046C000812A71EE400A30EE010A80ED002AC0ED29
:1046D000010A71EE610AC0ED020A80ED030A70471B
:1046E00010B500B9012000F01FFD002010BD10B56D
:1046F00001B9012100F03EFD002010BD10B500F011
:104700007FFD002010BD10B500F0CAFE012803D0C7
:10471000BDE8104000F082BE10BD3EB504460D4617
:10472000B0F90800FFF7C1FF02A9CDE90001208A16
:104730002B4682B2D4E9001000F086FE012801D099
:1047400000203EBD02983EBD00B530EEC01A80ED9F
:10475000080AC0ED050A80ED0B1AD0ED191A0146C2
:104760009FED692A30EEC00AF5EEC01AB1EE400A9C
:10477000F1EE10FA0ED0B5EEC01AF1EE10FA02DD2D
:10478000F0EE410A01E0F0EE400AF4EEE10AF1EE4B
:1047900010FA12DCD1ED1A0AF5EEC00AF1EE10FAA9
:1047A0000ED0B5EEC01AF1EE10FA01DDB0EE410AFE
:1047B000B4EEE00AF1EE10FA02D2B0EE420A00BD09
:1047C000C86E01F13402032802D0042838D07AE000
:1047D00091ED000A104620EE010A81ED0C0A91EDE0
:1047E0000D0AD1ED010A00EE810A81ED0D0A91ED6D
:1047F0000A0AD1ED020A31EE400A20EE200A81EDCC
:104800000E0A91ED1D0AB8EE400AFFF7C9FE91EDC0
:104810000C0AD1ED0D0A01F1500030EE200AD1ED65
:104820000E0A30EE200A81ED140A91ED1C0AB8EE52
:10483000400AFFF7B5FE91ED140A81ED150A42E03A
:1048400091ED0A0AD1ED001A104671EE400A60EEB1
:10485000A10AC1ED0C0AD1ED010A60EE810AC1ED99
:104860000D0AF0EE000A00EE601A91ED090AD1ED92
:10487000020A31EE000A20EE200A81ED0E0A91EDC7
:104880001D0AB8EE400AFFF78BFE91ED0C0AD1ED40
:104890000D0A01F15C0030EE200AD1ED0E0A30EE77
:1048A000200A81ED160AD1ED180A30EE800A81ED5A
:1048B000170A91ED1C0AB8EE400AFFF771FE91ED60
:1048C000170A81ED180A91ED0A0A81ED090A91EDA6
:1048D0000B0A81ED0A0A91ED070A81ED060A91EDB6
:1048E000080A81ED070A91ED040A81ED030A91EDB2
:1048F000050A81ED040AC86E032802D091ED170A5B
:1049000000BD91ED140A00BD0000000000F16C0C28
:104910008CE80E0080EC030A704780EC030A7047B5
:1049200070B504462DED028B90ED000AB5EEC00A7D
:10493000F1EE10FA01DCB1EE400AD4ED010AF5EE19
:10494000C00AF1EE10FA01DCF1EE600A70EE200A06
:1049500094ED020AB5EEC00AF1EE10FA01DCB1EEF8
:10496000400A70EE800A94ED030AB5EEC00AF1EE3B
:1049700010FA01DCB1EE400A30EE808AFCF76EFAE4
:104980004B4D4C4E95ED000AB5EEC00AF1EE10FA13
:1049900004D0D6ED0D0A20EE800A05E096ED0D0A52
:1049A000F3EE070A20EE200A85ED020AFFF742F92E
:1049B00095ED040AD5ED020A9FED3F1A3F4900EE3E
:1049C000C10A10EE100A884269DA3A484830FEF708
:1049D000E3FF96ED0F0A3748D5ED040AB5EEC00A9D
:1049E0004830F1EE10FA01D1B3EE080A9FED341A07
:1049F00060EE810A80EE801A9FED320A31EE000AE5
:104A00009FED311B85ED070A90ED040B53EC112B44
:104A100051EC100BFBF79AFC03D8B6EE0E0A85EDAD
:104A2000070AD5ED070AF5EEC00AF1EE10FA33D009
:104A3000B7EE000A94ED001A38EE000AC1EE001A33
:104A400021EEA01ADFED220A21EE201A84ED001AD1
:104A5000D4ED011A81EE801AD5ED071A21EE211A44
:104A600021EE201A84ED011AD4ED021A81EE801A8B
:104A7000D5ED071A21EE211A21EE201A84ED021A33
:104A800094ED031AC1EE001A95ED070A21EE800A93
:104A900020EE200A84ED030ABDEC028B70BDBDEC54
:104AA000028B0221BDE8704002484830FEF762BF29
:104AB000A0000020480F0020B81E853E00002041C5
:104AC0009A99193ECDCCCC3D000000A09999B93FF0
:104AD00000803B452DE9F041184C0F460546E6683D
:104AE0002068001D00F05AFA38B9206890F82C10A0
:104AF00001208840216981432161681C07D137B1B9
:104B00002168BDE8F0410E48091D00F07FBA206819
:104B10003544B5424560216805D2A06BBDE8F0413F
:104B2000091D00F05BBA606B091D00F057FAA06A1E
:104B3000854200D2A562BDE8F0810000F8000020A7
:104B4000D84C00202DE9F041054600F07BFA2E4CB0
:104B5000A068401CA06020682C4F10B1606940B371
:104B60002DE02560A068012829D1002606EB8600EB
:104B700007EB800000F024FA761C072EF6D32348BA
:104B80008C3000F01DFA2148A03000F019FA1F48BF
:104B9000B43000F015FA1D48C83000F011FA1B4877
:104BA000DC3000F00DFA19488C3060631430A063DB
:104BB00005E02068E96AC06A884200D82560606A1A
:104BC000401C6062E96A012022698840104320612C
:104BD00001EB810007EB8000291D00F017FA00F0BF
:104BE00051FA606900280CD02068E96AC06A8842DE
:104BF00007D207494FF080500860BFF34F8FBFF3D3
:104C00006F8FBDE8F0810000F8000020FC4B002011
:104C100004ED00E070B5114E114C17E000F024FBDC
:104C20003068B8B100F0B4FC00F00CFAF068C56868
:104C3000281D00F0B3F9A068401EA0606068401E07
:104C4000606000F01FFA284600F00CF86068002849
:104C5000E4D170BD00F09CFCF8E70000C44C0020DB
:104C6000F800002010B50446006B00F01FFA204643
:104C7000BDE8104000F01ABA10484FF470514207D6
:104C800006D0C01D0D4920F00700411AC1F5705132
:104C90000B4A00230144C2E900030839103A21F00D
:104CA000070111604B600B600B1AC0E900139360A1
:104CB0004FF000405360D06070470000FC0F0020B0
:104CC000E4000020074C4FF08056074DFFF7A2FF8D
:104CD00020680128FAD92E60BFF34F8FBFF36F8F82
:104CE000F4E70000FC4B002004ED00E02DE9F04764
:104CF0009A46DDE9098481466FF00303206B03EBDC
:104D000082021044089D20F00706700707D050204B
:104D100080F31188BFF34F8FBFF36F8FFEE7231827
:104D20000A5C83F834200A5C12B1401C1028F6D3C8
:104D3000002784F84370072D00D30625E562C4E9F7
:104D40001157201D00F047F904F1180000F043F955
:104D50002461C5F107006462A061E76484F85070C3
:104D600052464946304600F0BFF82060B8F1000FC7
:104D700001D0C8F80040BDE8F087000030B5114907
:104D800000E011460A688242FBD34B685C188442FB
:104D900003D1406818444860084643681C18944290
:104DA00009D1084C103C2468A24209D052681A4428
:104DB00042600A6812680260814200D0086030BD1B
:104DC0000460F9E7E40000200648416B096829B156
:104DD000416BC968C9684968816270474FF0FF310B
:104DE000FAE70000F800002008484068401C4FF037
:104DF000500080F3118804D0BFF34F8FBFF36F8F43
:104E0000FEE7BFF34F8FBFF36F8FFEE7EC0000208C
:104E10002DE9F0410546002700F026FA314E3068B2
:104E200008B9FFF729FFF06805424BD1C5B3083533
:104E300068070ED005F00700C0F1080005446807B8
:104E400007D0502080F31188BFF34F8FBFF36F8FCF
:104E5000FEE72DB37068854234D8224810300146F1
:104E60000C6801E020460C466168A94202D2216824
:104E70000029F7D131688C4224D00768216801608D
:104E800060680837411B10290FD96019420708D004
:104E9000502080F31188BFF34F8FBFF36F8FFEE771
:104EA00010E041606560FFF769FF61687068401A53
:104EB0007060B268904200D2B060F0680143002098
:104EC000C4E9000100F064FB780707D0502080F3AC
:104ED0001188BFF34F8FBFF36F8FFEE73846BDE8F1
:104EE000F0810000D400002010B5031F4FF0807443
:104EF0001C601B1F21F001011960191F044B0B607E
:104F000014390A60091F6FF0020244380A6010BDAC
:104F1000E94D000808B5C820FFF7E2FB00F0CEFA23
:104F200000900020FEF776FE32216846FFF7DFFB97
:104F3000F7E7000070B50C46064600F083F8154D03
:104F40002868C06C80B92968012081F850005CB1E4
:104F500001212046FFF7BEFD0F494FF08050086049
:104F6000BFF34F8FBFF36F8F00F08CF800F06AF83B
:104F70002868C46C002034B116B12968C86402E006
:104F80002A68611ED164296881F8500000F07AF81F
:104F9000204670BDF800002004ED00E0D0E90132A9
:104FA00001699A60D0E901235A604A68824201D1BE
:104FB00082684A60002202610868401E08607047EB
:104FC00000F108014FF0FF32C0E90112C160016138
:104FD00000210160704700210161704730B50B6806
:104FE0005A1C02D000F1080202E0026904E02246E5
:104FF000546825689D42FAD953684B6099608A606D
:10500000516008610168491C016030BD42684A6016
:1050100093688B6093685960916008610168491CCE
:105020000160704708B500F049FA00900320FEF7D0
:10503000F1FDFEF7E3FFFEF7DFFC14216846FFF702
:1050400056FBF3E7502080F31188BFF34F8FBFF377
:105050006F8F0A494868401C486001280CD10848F5
:10506000006810F0FF0F07D0502080F31188BFF3C5
:105070004F8FBFF36F8FFEE770470000EC000020FA
:1050800004ED00E00849486828B1401E486001D19D
:1050900080F311887047502080F31188BFF34F8F41
:1050A000BFF36F8FFEE70000EC00002070B5002812
:1050B00027D0144DA0F108046168E868014207D1C7
:1050C000502080F31188BFF34F8FBFF36F8FFEE73F
:1050D00022683AB1502080F31188BFF34F8FBFF39D
:1050E0006F8FFEE78143616000F0BEF86068696819
:1050F000084468602046FFF741FEBDE8704000F0BC
:1051000047BA70BDD400002006484FF47A71006899
:10511000B0FBF1F14FF0E020491E41610721016130
:1051200070470000D000002010B5020014D00F48D6
:10513000006B38B1502080F31188BFF34F8FBFF35D
:105140006F8FFEE700F090F800211046FFF7C2FCD9
:1051500000F01EFA002807D105494FF08050086082
:10516000BFF34F8FBFF36F8F10BD0000F80000201A
:1051700004ED00E070B50D4604000BD095B11E4A59
:10518000106BB8B1502080F31188BFF34F8FBFF37D
:105190006F8FFEE7502080F31188BFF34F8FBFF36E
:1051A0006F8FFEE7502080F31188BFF34F8FBFF35E
:1051B0006F8FFEE700F058F8D268236859199342C0
:1051C00004D98B420AD9914202D807E08B42FAD91E
:1051D000881A21600021FFF77DFC00E0216000F0CB
:1051E000D7F9002807D105494FF080500860BFF378
:1051F0004F8FBFF36F8F70BDF800002004ED00E00B
:105200001CB515480024CDE900402346802213A197
:10521000144800F019F9012809D0401C1AD1502077
:1052200080F31188BFF34F8FBFF36F8FFEE75020DD
:1052300080F31188BFF34F8FBFF36F8F06484FF095
:10524000FF312C38816201214161C460BDE81C40FE
:1052500000F074B81CBD00002401002049444C45F6
:1052600000000000C54C00080248016B491C0163A6
:1052700070470000F80000201448016B11B10121B3
:10528000C16170470021C1610169B1FA81F1C1F1C9
:105290001F0101EB81020E4951F822306BB101EB85
:1052A000820101F108034A6852684A609A4201D1BA
:1052B00052684A60D16801607047502080F31188BD
:1052C000BFF34F8FBFF36F8FFEE70000F8000020A1
:1052D000FC4B002030B50C46050014D0022C12D92E
:1052E0000A48A11E02882846FFF770F92919C2B2A0
:1052F00011F8023C9A4206D111F8011CB1EB102FB3
:1053000001D1012030BD002030BD0000C0000020D0
:1053100030B50C4605000ED0022C0CD9601E81B2AF
:10532000FF222846FFF768F9291911F8011C81426C
:1053300001D1012030BD002030BD00001CB5324835
:105340000168324A914207D1502080F31188BFF39F
:105350004F8FBFF36F8FFEE700682C49491E8842CC
:1053600007D1502080F31188BFF34F8FBFF36F8FA9
:10537000FEE7274908780190FF20087008788DF82B
:1053800000009DF800009DF8002000F0F000904221
:1053900007D0502080F31188BFF34F8FBFF36F8F7A
:1053A000FEE79DF800001B4A00F050001070072037
:1053B000906005E09DF800305B008DF80030401EE5
:1053C0009DF800301B06F5D4000200F4E060906008
:1053D000019808700C482030016841F470010160A8
:1053E000016841F070410160FFF78EFE00205060BF
:1053F000FAF7F4FE0848016841F040410160FAF70D
:10540000DDFE00201CBD000000ED00E071C20F4178
:1054100000E400E0EC00002034EF00E010B5502084
:1054200080F31188BFF34F8FBFF36F8F00F04CF8FC
:1054300018B104494FF080500860002080F31188B3
:1054400010BD000004ED00E02DE9FF5F8346DDE9BB
:105450000E87994616468A469000FFF7D9FC05004C
:105460001AD05420FFF7D4FC040012D02563002189
:10547000CDE90241CDE900874B46324651465846B8
:10548000FFF734FC2046FFF75DFB012004B0BDE8C8
:10549000F09F2846FFF70AFE4FF0FF30F6E70000C6
:1054A0000548416919B1006B18B10020704701200F
:1054B0007047022070470000F80000200148C068D3
:1054C00070470000F80000202DE9F0412E4C002725
:1054D000206B40B1A069401CA061E06900B10127C8
:1054E0003846BDE8F081E668761CE66013D1606B53
:1054F000006838B1502080F31188BFF34F8FBFF39D
:105500006F8FFEE7606BA16B6163A063206A401C34
:105510002062FFF759FCA06ADFF87080864209D349
:10552000606B006880B1606BC068C568686886425F
:105530000DD2A0622068C06A00EB800158F82100FB
:105540000128CAD90127C8E74FF0FF30F1E7281D2D
:10555000FFF724FDA86A18B105F11800FFF71EFD3A
:10556000E86A0121226981401143216100EB800139
:1055700008EB8100291DFFF749FDE86A2168C96A27
:105580008842CDD30127CBE7F8000020FC4B002058
:105590002DE9F0472C4D00242746286B38B1FFF742
:1055A00051FD286B401E2863286B40B146E0502017
:1055B00080F31188BFF34F8FBFF36F8FFEE7A968A9
:1055C000224E0120D1B3A6F1B40980463068E8B17B
:1055D000F068C46804F11800FFF7E0FC201DFFF735
:1055E000DDFCE06A2A6908FA00F11143296100EB49
:1055F000800109EB8100211DFFF708FDE06A2968A1
:10560000C96A8842E2D3C5F81C80DFE70CB1FFF716
:10561000DBFBAC6944B14646FFF756FF00B1EE61D3
:10562000641EF9D10020A861E86938B10849012752
:1056300038070860BFF34F8FBFF36F8FFFF722FD6E
:105640003846BDE8F0870000F8000020B04C00208C
:1056500004ED00E0BC5A0008113E00080000000004
:105660000000000080000000545A0008154F000898
:10567000000000000000000000010000A45A000823
:10568000790900080000000000000000000100008F
:10569000745A0008F53C00080200000000000000F9
:1056A00000010000B05A0008193E00080100000087
:1056B0000000000080000000905A000825500008FB
:1056C000000000000000000080000000985A000860
:1056D000ED0B00080000000000000000800000004A
:1056E000845A0008613A0008010000000000000030
:1056F000000100005C5A0008E536000801000000C7
:105700000000000000010000685A00082D37000862
:10571000010000000000000000010000005EBCE28B
:10572000613FDD83C29C7E20A3FD1F419DC3217F7D
:10573000FCA2401E5F01E3BD3E6082DC237D9FC171
:10574000421CFEA0E1BF5D0380DE3C62BEE0025C65
:10575000DF81633D7C22C09E1D43A1FF4618FAA451
:1057600027799BC584DA3866E5BB5907DB8567393D
:10577000BAE406581947A5FB7826C49A653BD98731
:10578000045AB8E6A7F91B45C6987A24F8A6441A25
:1057900099C7257B3A6486D85B05E7B98CD2306E11
:1057A000EDB3510F4E10F2AC2F7193CD114FADF3FD
:1057B000702ECC92D38D6F31B2EC0E50AFF1134DF1
:1057C000CE90722C6D33D18F0C52B0EE326C8ED0E5
:1057D000530DEFB1F0AE4C1291CF2D73CA947628D1
:1057E000ABF517490856B4EA6937D58B5709EBB5BD
:1057F00036688AD495CB2977F4AA4816E9B7550BB1
:1058000088D6346A2B7597C94A14F6A8742AC896A4
:10581000154BA9F7B6E80A54D7896B3500008911F2
:1058200012239B322446AD573665BF74488CC19D08
:105830005AAFD3BE6CCAE5DB7EE9F7F881100801E8
:1058400093331A22A5562C47B7753E64C99C408DE8
:10585000DBBF52AEEDDA64CBFFF976E802218B3084
:10586000100299132667AF763444BD554AADC3BCC8
:10587000588ED19F6EEBE7FA7CC8F5D983310A20A8
:1058800091121803A7772E66B5543C45CBBD42ACA8
:10589000D99E508FEFFB66EAFDD874C904428D5340
:1058A00016619F702004A9153227BB364CCEC5DF88
:1058B0005EEDD7FC6888E1997AABF3BA85520C4368
:1058C00097711E60A1142805B3373A26CDDE44CF68
:1058D000DFFD56ECE9986089FBBB72AA06638F7204
:1058E00014409D512225AB343006B9174EEFC7FE48
:1058F0005CCCD5DD6AA9E3B8788AF19B87730E6228
:1059000095501C41A3352A24B1163807CFFF46EE27
:10591000DDDC54CDEBB962A8F99A708B08848195CF
:105920001AA793B62CC2A5D33EE1B7F04008C91917
:10593000522BDB3A644EED5F766DFF7C89940085D7
:105940009BB712A6ADD224C3BFF136E0C1184809F7
:10595000D33B5A2AE55E6C4FF77D7E6C0AA583B473
:10596000188691972EE3A7F23CC0B5D14229CB38D7
:10597000500AD91B666FEF7E744CFD5D8BB502A497
:1059800099961087AFF326E2BDD034C1C3394A28B7
:10599000D11A580BE77F6E6EF55C7C4D0CC685D72F
:1059A0001EE597F42880A1913AA3B3B2444ACD5B97
:1059B0005669DF78600CE91D722FFB3E8DD604C757
:1059C0009FF516E4A9902081BBB332A2C55A4C4B77
:1059D000D7795E68E11C680DF33F7A2E0EE787F6F3
:1059E0001CC495D52AA1A3B03882B193466BCF7A57
:1059F0005448DD59622DEB3C700EF91F8FF706E617
:105A00009DD414C5ABB122A0B9923083C77B4E6A36
:105A1000D5585C49E33D6A2CF11E780FA5000000C3
:105A20000000000000000000000000000000000076
:105A3000000000061016000610160000000000000E
:105A4000000001020304060708090000000001022B
:105A5000030400005461736B310000004D494E494E
:105A60005F425461736B00004D494E495F5354616E
:105A7000736B000052656D6F7465446174615461AD
:105A8000736B0000526566657265655461736B00E7
:105A9000764F75744C696E65436865636B546173CA
:105AA0006B000000436861737369735461736B002A
:105AB0005374617475735461736B0000646566613F
:105AC000756C745461736B00E85A00080000002084
:105AD00034010000E0030008085B000834010020E6
