:020000040800F2
:100000008850002059020008CD360008712D0008E4
:10001000B93400082906000861410008000000000A
:100020000000000000000000000000009D0100082A
:10003000450C000800000000F10100086D3B0008BD
:1000400073020008730200087302000873020008BC
:10005000730200087302000873020008470C0008CE
:100060004D0C000873020008730200081D0B000805
:10007000350B00084D0B00087302000873020008DE
:10008000650B000873020008730200087302000881
:100090002D0600087302000873020008530C0008C4
:1000A00073020008B53C00087302000873020008E0
:1000B000C13C0008730200087302000873020008C4
:1000C000730200087302000873020008730200083C
:1000D000730200087302000873020008730200082C
:1000E000730200087302000873020008730200081C
:1000F000730200087302000873020008730200080C
:1001000073020008730200087302000873020008FB
:100110007302000873020008CD3C00087302000857
:100120007D0B000873020008890B000873020008A9
:1001300073020008730200087302000873020008CB
:1001400039060008730200087302000873020008F1
:1001500073020008730200087302000873020008AB
:10016000730200087302000873020008730200089B
:100170007302000873020008730200080000000008
:100180007302000873020008DFF80CD000F016F9C3
:100190000048004799420008885000202B4B1968FE
:1001A0000868B0E8F04F80F30988BFF36F8F4FF015
:1001B000000080F3118870470000000006480068C6
:1001C000006880F3088862B661B6BFF34F8FBFF353
:1001D0006F8F00DF00BF00BF08ED00E0DFF80C000C
:1001E000016841F470010160704700BF88ED00E0D4
:1001F000EFF30980BFF36F8F144B1A681EF0100FD6
:1002000008BF20ED108A20E9F04F106008B44FF0CD
:10021000500080F31188BFF34F8FBFF36F8F04F04E
:1002200031FE4FF0000080F3118808BC196808689F
:10023000B0E8F04F1EF0100F08BFB0EC108A80F34A
:100240000988BFF36F8F704700BF00BFB000002068
:10025000EFF30580704700000648804706480047D6
:10026000FEE7FEE7FEE7FEE7FEE7FEE7FEE7FEE766
:10027000FEE7FEE7113C0008890100082DE9F05F68
:100280000546002092469B46884606468146402405
:100290001BE0284641464746224600F07EF853467A
:1002A0005A46C01A914110D311461846224600F012
:1002B00065F82D1A67EB01084F4622460120002100
:1002C00000F05CF817EB00094E41201EA4F1010478
:1002D000DFDC484631462A464346BDE8F09F40EA07
:1002E00001039B0703D009E008C9121F08C0042AB4
:1002F000FAD203E011F8013B00F8013B521EF9D29B
:100300007047D2B201E000F8012B491EFBD27047C2
:100310000022F6E710B513460A4604461946FFF7D1
:10032000F0FF204610BD00F0004230F000400AD03F
:10033000C10D01F56071C0F3160042EA0151C20817
:1003400040071143704700200146704730B5041E36
:1003500071F1000404DB4FF00044404264EB010102
:10036000141E73F1000405DB1C464FF0004352429B
:1003700063EB0403994208BF904230BD202A04DB9E
:10038000203A00FA02F1002070479140C2F12003A8
:1003900020FA03F3194390407047202A04DB203AE7
:1003A00021FA02F00021704721FA02F3D040C2F195
:1003B000200291400843194670470000064C074D43
:1003C00006E0E06840F0010394E807009847103425
:1003D000AC42F6D3FFF7DCFEB0560008D05600085A
:1003E00010B50146806B026C12F0500F05D0806B87
:1003F000C26CBDE8104008461047016C41F4007122
:10040000016401688A6812F0405F17D18269AAB955
:10041000CA6A12F4700F02D08A6852050ED44A6874
:1004200022F020024A60016C21F480710164016CA9
:10043000C90403D4016C41F00101016400F07AFDAC
:1004400010BD10B5806B40210164416C41F0040186
:10045000416400F071FD10BD10B5806B00F06BFDC4
:1004600010BD0000454910B54A6822F440324A6088
:100470004A6843681A434A6001684A6822F48072F5
:100480004A6001684A68036942EA03224A600168D7
:100490004A6822F040724A6001684A6883681A43D9
:1004A0004A6001688A6822F400628A6001688A688A
:1004B000C3681A438A60816A6FF07062D142016832
:1004C0008A6822F070628A6001688A680CD0836A48
:1004D0001A438A6001688A6822F040528A60016883
:1004E0008A68C36A1A4301E022F040528A600168B8
:1004F0008A6822F002028A6001688A68836942EA97
:1005000043028A60016A002901684A680FD042F4F8
:1005100000624A6001684A6822F460424A600168E9
:100520004A68174C436A04EB43331A4301E022F450
:1005300000624A600168CA6A22F47002CA620168F5
:10054000CA6A838B0F4C04EB03531A43CA620168D7
:100550008A6822F400728A6001688A68036B42EA42
:1005600043228A6001688A6822F480628A60016896
:100570008A68406942EA8020886010BD00230140FB
:1005800000E0FFFF0000F0FF10B502F0A9FD02F04F
:10059000F5FC02F0C5FC02F095FC02F0F5FE02F05D
:1005A00019FF02F03DFF02F0A3FE02F0C7FE02F0C9
:1005B0005DFF02F0DFFB02F015FC02F04BFC02F0E5
:1005C0005FFE02F025FE124801F0BAF9114801F071
:1005D000B7F90A221049114800F048FD03221049DA
:1005E000104802F083FB0A4800F06AF8094800F05E
:1005F00067F80221064800F0B9FD0221054800F025
:10060000B5FDBDE810404FF47A7001F043BB000027
:10061000C40A0020EC0A0020F80E0020140B002071
:100620003A00002050070020FEE70000014800F0DB
:1006300019BF0000C40A0020014800F013BF0000E9
:10064000EC0A0020044801884ABA04498A8040889C
:1006500040BAC880704700002600002044000020F7
:10066000074801884ABA07494A82428852BA0A8032
:10067000828852BA4A8082790A72C0794872704779
:1006800026000020840E002009480A4A0B4B0188EE
:1006900049BA09B2516141884ABA07494A80027988
:1006A0001206120C1A7040790006000C0870704790
:1006B00026000020B40D002044000020310000205E
:1006C00000B58BB000210122CDE9061203910892FA
:1006D000094A0091019102910491904200D1059143
:1006E00005492831884201D10E210591694600F063
:1006F000B5FD0BB000BD0000C40A00201B4B30B498
:100700001888184CA0F5806000EB80015888657847
:10071000A0F5806000EB8000134A4042012D16D006
:1007200000EE101AB8EEC00A82ED020A00EE100ABE
:10073000B8EEC00A82ED000A207814280FD31520E5
:100740002070187A01280AD130BC03F097BD4942C5
:1007500000EE101AB8EEC00A82ED010AE6E730BCDE
:10076000704700003000002008010020840E0020A7
:100770001CB5C82003F0BAFD04F0A6FCDFF8108118
:100780000021019088F8001000F0D0F8DFF808A1EF
:10079000DFF800910AF59076404F06F190050120B0
:1007A00003F054F899F9000010B101282BD103E0AF
:1007B00050469AED021A1FE03948DFED3A0A90EDF3
:1007C000050A3548B8EEC00A103003F0C3FD3248C0
:1007D0001030D0ED140A3448B0F90000404200EE69
:1007E000100A2D48B8EEC00A903003F0B3FD2A4835
:1007F000903090ED141A50469AED010AD0ED000A9F
:100800002A4803F05EFD002406EB8400D0ED000AC8
:10081000C4EB041037F9200000EE100A05EBC410F9
:10082000B8EEC00A03F096FD641C042CECDB1F48F4
:10083000103803F07BFE98F80000012824D095EDD5
:10084000740ABDEEC00A10EE100A00B2009095EDD9
:10085000540ABDEEC00A10EE100A95ED340A03B238
:10086000BDEEC00A10EE100A95ED140A02B2BDEEFC
:10087000C00A10EE100A01B20D4800F01BF8052165
:1008800001A803F03AFD8AE7094800F035F8F6E7D9
:100890002E0000203100002008010020880C0020DC
:1008A000B40D0020000000004600002028020020B7
:1008B000EC0A0020F0B40E4C0826049D26610026A8
:1008C000A660E6604FF4007626600A4C0E0A267099
:1008D0006170110AA170E270190A21716371290A0D
:1008E000A171E5712246F0BC0123014900F052BC20
:1008F000F00D00204C0000200A4A08214FF400733C
:100900001161002191601360D160074A01231170C9
:1009100051709170D170117151719171D171014902
:1009200000F038BCF00D00204C0000202DE9F04113
:100930004FF47A742DED028B42F210759FED238AED
:10094000B3EE041AB7EE080AF0EE480A23462A4628
:1009500003211F4802F0F4FE1D489FED1E0AB3EE6E
:10096000041A80ED1A0ADFED1C0AB1EE000A2346D4
:100970002A460321A0F5907002F0E2FE1448B0EE82
:10098000481AF0EE480A9FED150A2346A2000321FB
:10099000A03802F0D5FE0E4E00249FED118A80365D
:1009A0004FF4FA67F0EE480A06EBC410B0EE601A96
:1009B000B7EE080A3B462A46032102F0C1FE641C3A
:1009C000042CEFDBBDEC028BBDE8F08100000000E1
:1009D00038020020000016430AD7233CCDCC4C3F00
:1009E000CDCCCC3D08B5642003F080FC04F06CFB5A
:1009F000484D494C0090688AC10719D00022012156
:100A0000204601F043FA6421684603F076FC012297
:100A10001146204601F03AFAC821684603F06DFC01
:100A200001221146204601F031FA4FF4FA616DE0DF
:100A3000810712D500220121204601F027FA642106
:100A4000684603F05AFC01221146204601F01EFAC6
:100A5000C821684603F051FCD0E7410712D50022B7
:100A60000121204601F012FA6421684603F045FC9A
:100A700001221146204601F009FAC821684603F018
:100A80003CFCD7E7010712D500220121204601F0E6
:100A9000FDF96421684603F030FC0122114620462E
:100AA00001F0F4F9C821684603F027FCD7E7C10636
:100AB00012D500220121204601F0E8F964216846A0
:100AC00003F01BFC01221146204601F0DFF9C8218A
:100AD000684603F012FCD7E780064FF000024FF0A3
:100AE000010120460FD501F0D1F96421684603F0D9
:100AF00004FC01221146204601F0C8F9C8216846CD
:100B000003F0FBFBD5E701F0C1F91421684603F0BF
:100B1000F4FB70E7B00E00200004024004480068B7
:100B2000016821F001010160014800F03DBF0000B3
:100B30005009002004480068016821F001010160AB
:100B4000014800F031BF0000300800200448006870
:100B5000016821F001010160014800F025BF00009B
:100B6000F008002004480068016821F001010160DC
:100B7000014800F019BF000090080020014800F073
:100B800013BF0000EC0B002004480068016821F04E
:100B900001010160014800F007BF0000D0070020FC
:100BA00001681823CAB2103AB2FBF3F2054B6FF397
:100BB0000901032A9B5CC36500D9091D81650846AC
:100BC000704700002A56000810B5014600208B69C6
:100BD0008A6A4FF0C07453B1B3F5005F15D072B19B
:100BE000012A0CD0022A0AD0032A09D104E01AB142
:100BF000012A06D0022A03D1C96AC90100D5012001
:100C000010BDC96AA142FAD010BD002AF7D0012A4E
:100C1000F2D0022AF3D0032AF3D010BD30B5046815
:100C2000256825F480252560046863608368402B6F
:100C3000036803D099600068C26030BD9A600068A4
:100C4000C16030BD7047022001F038B8042001F0C7
:100C500035B810B5202001F031F8BDE81040402033
:100C600001F02CB800B5284A0021084652F820307F
:100C7000401CC0B219440A28F8D300EE101A9FEDA8
:100C8000231A214BB8EEC00A2833181D20EE010AA2
:100C900083ED000A83ED0B0A03F064FA60EE010AAB
:100CA000DFED1B1AB0EE040AC3ED0C0AB3F94000E5
:100CB000B3EE091AC82808DD10EEA10A93ED0E2A3A
:100CC00010EE012A83ED0D2A00BD10EEA10A401C92
:100CD00000B2A3F84000322820EE010A83ED0D0A8D
:100CE000F2DDD3ED0F0AC82830EE600AD3ED0E0A0C
:100CF00030EE200A83ED0E0AE6DDDFED060A80EE17
:100D0000201A83ED0E1A00BDF80E0020CDCCCC3D8C
:100D1000ED32533A0000164370B541F288342DEDA0
:100D2000028B41F270759FED168A9FED141A9FEDAC
:100D3000150AF0EE480A23462A460321124802F01B
:100D4000FFFC11489FED111AF0EE480AB7EE080AB1
:100D500023462A460321803002F0F2FCB0EE481A06
:100D6000F0EE480ABDEC028B23462A46BDE87040EF
:100D7000B0EE080A0321064802F0E2BC6666E63FD0
:100D8000000000003333333FB80400209A99193E25
:100D9000B805002008B5642003F0A8FA04F094F91F
:100DA0000090FFF7B9FF0D4C0D4F0025A4F1800610
:100DB000032002F04BFDA07C50B196ED140ABDEE6D
:100DC000C00A10EE100A01B2064802F0B1FEBD7171
:100DD0000A21684603F091FAEAE70000380600208D
:100DE000980E0020C40A002078B50024009490F8E2
:100DF0003C20012A19D0012280F83C200A680723F0
:100E00000568092A13D9EE680A3A02EB42029340B8
:100E10009E43EE600B788A680A3B03EB43039A40DB
:100E20000368DD682A43DA6010E0022078BD2E698D
:100E300002EB420293409E432E610B788A6803EBDB
:100E400043039A4003681D692A431A614A681F23B5
:100E5000072A13D205686E6B521E02EB8202934082
:100E60009E436E630B790A885B1E92B203EB830389
:100E70009A4003685D6B2A435A6327E005680D2A90
:100E800012D22E6BD21F02EB820293409E432E633E
:100E90000B790A88DB1F92B203EB83039A40036845
:100EA0001D6B2A431A6311E0EE6A0D3A02EB8202CF
:100EB00093409E43EE620B790A880D3B92B203EB9E
:100EC00083039A400368DD6A2A43DA62164B056899
:100ED000144A9D4206D10D68122D03D1556845F480
:100EE0008005556005689D4218D10B68102B01D014
:100EF000112B13D1536843F4000353600968102980
:100F00000CD10A490A4A0968B1FBF2F101EB8101EF
:100F1000490000E0491E00910029FBD180F83C40C7
:100F2000002078BD002301400020014088000020FF
:100F300040420F0070477047704770B504004FF093
:100F4000000503D0206C002610B107E0012070BD21
:100F5000666484F83C60204600F01AF8206CC006F5
:100F600010D4206C20F4885040F002002064204609
:100F7000FFF778FA6664206C20F0020040F0010070
:100F8000206400E0012584F83C60284670BD000024
:100F900070B506462A4C036800252A4903202A4AD0
:100FA00086B0A3422BD10B6843F480730B600968B1
:100FB000029501F4807105911E21CDE9001069466A
:100FC000104600F087FE224C2048C4E900050015B9
:100FD000A560C4E90350400060618000A061401139
:100FE000C4E907052046656200F0AEFD18B1D021C6
:100FF00018A003F0CBF8B463A66306B070BD194C1B
:10100000A34209D10B6843F400730B60096801F433
:101010000071059104210BE0134CA342EDD10B6844
:1010200043F480630B60096801F480610591082135
:10103000CDE9001002956946104600F04BFEDCE752
:101040000020014044380240000002401064024089
:10105000EC0B00202E2E2F5372632F6164632E63DE
:10106000000000000021014000220140F8B50E46BA
:1010700000210446009190F83C00012807D001208F
:1010800084F83C0020688368DB0702D011E002206E
:10109000F8BD836843F0010383602D482D4B006841
:1010A000B0FBF3F000EB400000E0401E0090002891
:1010B000FBD120688368DB0748D0236C40F20165D0
:1010C000AB4343F4807323644068400505D5206C2E
:1010D00020F4005040F480502064206CC00404D5FB
:1010E000606C20F00600606400E0616484F83C10ED
:1010F000A16B1A48184DC863A16B19480864A16B0D
:101100001848C86421686FF02200086020684168B0
:1011100041F0806141602068816841F480718160A4
:101120002168134632464C31A06B00F077FD6868A9
:10113000C006206802D00C49884207D1816811F0AE
:10114000405F03D1816841F0804181600020F8BD9B
:101150008800002040420F0000230140E103000806
:1011600059040008430400080020014090F82020A2
:10117000012A09D090F82020022A05D0416A41F4C2
:101180008021416201207047006842690A43426140
:1011900000207047F0B590F82040012C07D090F85F
:1011A0002040022C03D0416A41F4802153E00468BE
:1011B000A5686D0105D4A5682D0102D4A568ED00D0
:1011C00046D5A4680125C4F30164A5401D608D685F
:1011D0004FF4C0739DB1CE6835434E6845EAC605ED
:1011E000066803EB0417F5514FF4C275076805EB69
:1011F00004150E697E51097D012905D009E00E888C
:10120000CD6845EA4655EBE701684E5946F48076CD
:101210004E511179D2F805504FF4C67641EA0521B6
:10122000056806EB0416A9511178D2F801204FF495
:10123000C47541EA0221026805EB041551510068AA
:1012400003EB0411425842F0010242500020F0BD6D
:10125000416A41F4001141620120F0BD10B590F8DF
:101260002020012A09D090F82020022A05D0416AC6
:1012700041F480214162012010BD3A48D0F800229B
:1012800042F00102C0F80022D0F8002222F47C5281
:10129000C0F80022D0F800224B6A42EA0322C0F8CC
:1012A00000220B7D01229A40D0F81C329343C0F8F3
:1012B0001C32CB69B3B9D0F80C329343C0F80C326E
:1012C0008C894B6864F31F434C6900EBC404C4F879
:1012D00040320C890B6864F31F434C6900EBC40473
:1012E000C4F84432CB69012B16D1D0F80C32134329
:1012F000C0F80C320C884B6864F31F434C6900EB58
:10130000C404C4F840320C89CB6864F31F434C69B1
:1013100000EBC404C4F844328B69002BD0F80432CB
:101320000ED01343C0F804320B69002BD0F81432EE
:1013300008D01343C0F81432096A012904D008E028
:101340009343EFE79343F5E7D0F81C121143C0F83D
:101350001C12D0F8001221F00101C0F80012002088
:1013600010BD000000640040704730B590F8204088
:10137000012C07D090F82040022C03D0416A41F4A0
:10138000802109E011B1012909D00CE00468E4686A
:1013900007E0416A41F400114162012030BD046858
:1013A0002469A407F5D04FF4D874056804EB011440
:1013B0002D5915F00405956005682D5942D0ED08AA
:1013C000556005682C59C4F34004D4604FF4DA74B6
:1013D000056804EB01142D5905F00F05156105682A
:1013E0002D59C5F30725956105682C59240C5461C6
:1013F0004FF4DC72046802EB0112A4581C700468FC
:10140000A458240A5C700468A458240C9C700468D6
:10141000A258120EDA704FF4DE72046802EB011269
:10142000A4581C710468A458240A5C710468A45868
:10143000240C9C710468A258120EDA7129B101299A
:1014400009D00DE06D0D1560BBE70068C16841F083
:101450002001C16004E00068016941F020010161E0
:10146000002030BD2DE9F05F054600680024466984
:10147000D0F804908768D0F80CB0D0F810A0D0F85D
:101480001880F10748D0F90714D001218160B8070E
:1014900003D5284600F081FA0CE0780702D54FF416
:1014A000006407E0380702D54FF4805402E0284674
:1014B00000F072FAF80516D529684FF4807088603C
:1014C000B80503D5284600F06AFA0CE0780502D585
:1014D00044F4005407E0380502D544F4804402E0A7
:1014E000284600F05BFAF80316D529684FF48030DF
:1014F0008860B80303D5284600F053FA0CE078035F
:1015000002D544F4004407E0380302D544F48034A3
:1015100002E0284600F044FA300707D55FEACB60C6
:1015200004D52968102044F40074C86070074FF097
:10153000080707D55FEA0B7004D52868C7602846FE
:1015400000F07CF9B00706D52868C068800702D093
:10155000284600F075F9700607D55FEACA6004D521
:101560002968102044F480640861B00607D55FEA5A
:101570000A7004D528680761284600F0DDF9F006F6
:1015800006D528680069800702D0284600F0D5F902
:10159000B00308D55FEAC96005D529681020486006
:1015A000284600F0CBF9F00307D55FEA097004D5AF
:1015B00028684760284600F0F5F9300446D55FEA10
:1015C000497040D5F00504D55FEAC87001D044F0F9
:1015D0000104B00504D55FEA887001D544F0020427
:1015E000700504D55FEA487001D544F00404300565
:1015F00029D518F0700F26D008F07000402815D0BB
:1016000006DC102809D020280AD0302816D10AE09C
:1016100050280ED0602811D10EE044F008040DE0EF
:1016200044F010040AE044F0200407E044F04004D1
:1016300004E044F0800401E044F480742868816987
:1016400021F070018161296804204860002C05D0D8
:10165000686A204368622846FFF786FEBDE8F09F6F
:1016600070B5040003D094F8200010B104E001200C
:1016700070BD204600F082F82068016821F0020168
:10168000016000F009FC0546052604E000F004FCBA
:10169000401B0A2811D8206840688007F6D42068CB
:1016A000016841F00101016000F0F6FB05460BE026
:1016B00000F0F2FB401B0A2806D9606A40F40030B3
:1016C000606284F82060D2E720684068C007EFD0ED
:1016D000207E0128206801683DD021F08001016052
:1016E000607E01282068016838D021F04001016047
:1016F000A07E01282068016833D021F0200101601C
:10170000E07E0128206801682ED041F010010160C0
:10171000207F01282068016829D021F0080101609C
:10172000607F01282068016824D021F00401016055
:10173000D4E902010843D4E9041211430843616863
:10174000491E08432168C86100206062012084F8B6
:101750002000002070BD41F08001C0E741F0400151
:10176000C5E741F02001CAE721F01001CFE741F0C1
:101770000801D4E741F00401D9E70000F0B52A4B95
:101780000768DFF8A0C0186803220224092527494A
:101790000026401C87B0674519D11860012807D181
:1017A000086840F000700860086800F0007005905C
:1017B0008DE85400CDE9032569461D4800F08AFAFA
:1017C00000220521142000F017FC142026E0DFF889
:1017D00064C0674524D10F6847F080670F600F68C9
:1017E000012807F080670597186007D1086840F066
:1017F00000700860086800F0007005904FF44050D9
:101800008DE85100CDE9032569460B4800F062FAE6
:1018100000220521402000F0EFFB402000F0E0FB1B
:1018200007B0F0BD00640040400000204038024096
:10183000000C0240006800400004024070470000B5
:1018400070B537493326374D374C884238D1A31C01
:101850002A460021FFF789FD2868B0F5887F1AD055
:10186000A0F5807019381FD007280CD0E9281AD1AC
:10187000052001F0D3FF2D48C16A4A1CC2623229FB
:101880001AD8274941E0042001F0C8FFBDE87040A4
:101890002348FEF7F9BE042001F0C0FF2048FEF700
:1018A000DFFE0120207070BD042001F0B7FFBDE80D
:1018B00070401B48FEF7C6BEC66219491B482AE0A5
:1018C0001B498842EFD1184B164A9B1C0021FFF799
:1018D0004CFD2868A0F50070013805D0012803D020
:1018E000022801D0032801D101F098FF2878401E7A
:1018F000C0B26070C0EB00110E4800EB8100C16AFD
:101900004A1CC262322904D80949BDE8704002F07D
:10191000ADBC0749C662BDE8704002F083BC000060
:10192000C40A0020EC00002024000020780D0020D4
:10193000EC0A0020880C00207047704770470000B8
:1019400070B5044690F82000012804D0606A40F485
:101950000020606218E0022084F8200020680168FE
:1019600021F00101016000F097FA05460EE000BF8A
:1019700000F092FA401B0A2808D9606A40F400304F
:101980006062052084F82000012070BD2068406856
:10199000C007EDD1606270BD7047704770477047F7
:1019A00070477047704700002DE9F84304464FF038
:1019B0000009CDF8009063484FF41651A56D0068FA
:1019C000B0FBF1F72E6894F85C10082000FA01F1E2
:1019D00031420FD021680A6852070BD50A6822F0FD
:1019E00004020A6094F85C108840A860606D40F0C2
:1019F0000100606594F85C104FF0010808FA01F0EE
:101A0000304208D021684969090604D5A860606D94
:101A100040F00200606594F85C1004208840304279
:101A200008D021680968890704D5A860606D40F076
:101A30000400606594F85C1010208840304218D093
:101A400021680968090714D5A8602068016849035E
:101A500004D50068000308D5A16C07E00168C9053A
:101A600003D4016821F008010160216C09B120460E
:101A7000884794F85C1020208840304231D021689B
:101A80000968C9062DD5A86094F835000528206896
:101A9000016806D0490347D5006800031DD4616C76
:101AA0001CE021F0160101602068416921F08001ED
:101AB0004161206C08B9A06C20B12068016821F058
:101AC0000801016094F85C103F208840A86084F809
:101AD000349084F83580216D1FE0E16B09B1204618
:101AE0008847606D00282BD0606DC00714D005209A
:101AF00084F835002068016821F001010160009838
:101B0000401C0090B84203D820680068C007F6D196
:101B100084F8349084F83580E16C002910D001B04D
:101B20002046BDE8F04308470168C905D5D40168DF
:101B300021F01001016084F8349084F83580CCE7FE
:101B4000BDE8F883880000202DE9F041044600F04C
:101B5000A3F906465CB1002584F83450022084F8CD
:101B600035002068016821F0010101600DE00120CD
:101B7000BDE8F08100F090F9801B052805D92020F0
:101B80006065032084F83500F2E720680068C0072C
:101B9000F0D12268116820480140D4E901031843BC
:101BA000D4E903363343184363691843A3691843E0
:101BB000E3691843236A18430843616A042903D17F
:101BC000D4E90B1319430843106020684069666A22
:101BD00020F0070130460E43012704280CD1A06AEB
:101BE0000643E06A40B12046FEF7EEFF20B14020F8
:101BF000606584F83570BAE7206846612046FEF7D4
:101C0000CFFF94F85C203F2191408160656584F8A6
:101C100035700020ACE700003F8010F02DE9F04166
:101C20000446866D90F83400002501280DD001206F
:101C300084F8340094F835700020012F07D084F820
:101C4000340002252846BDE8F0810220FBE7022788
:101C500084F8357060652046FEF7E0FF94F85C106C
:101C60003F208840B0602068016841F016010160A3
:101C70002068416941F080014161206C20B12068F9
:101C8000016841F0080101602068016841F001012C
:101C90000160D7E770B5044600F0FEF80546601C09
:101CA00002D004480078044400F0F6F8401BA0423B
:101CB000FAD370BD7C00002070470000044910B5C5
:101CC0000A68024202D00860FFF7F6FF10BD00006C
:101CD000143C01402DE9F84FDFF87CB100224FF0B1
:101CE00001084FF0030A4FF00F090BF1040E00BF7B
:101CF0000B6808FA02F42340A3426ED14D68022D0E
:101D000001D0122D0ED1D50800EB850CDCF8205047
:101D10005607F70E09FA07F6B5430E69BE402E4383
:101D2000CCF82060066855000F790AFA05FC07F028
:101D3000030726EA0C06AF40374307604E68012EC2
:101D400005D0022E03D0112E01D0122E0ED186689E
:101D5000CF6826EA0C06AF40374387604668A64343
:101D60000C79C4F30014944034434460C6688C6812
:101D700026EA0C06AC403443C4604C68E40065D5E8
:101D8000364C256845F480452560246822F003051B
:101D900004F480440094324C2E19D6F80848950774
:101DA0002F0F09FA07F5AC432E4DA84201D10025AB
:101DB00024E02D4DA84201D101251FE02B4DA84262
:101DC00001D102251AE02A4DA84201D1032515E0D0
:101DD000284DA84202D1042510E037E0264DA84244
:101DE00001D105250AE0254DA84201D1062505E0CF
:101DF000234DA84201D1072500E00825BD40254319
:101E0000C6F80858DBF800405D464E689C43F60370
:101E100000D51C432C60DEF8004075464E689C439C
:101E2000B60300D51C432C600B4D08352C684E685A
:101E30009C43F60200D51C432C60074D0C352C68E2
:101E40004E689C43B60200D51C432C60521C102ADD
:101E5000FFF44EAFBDE8F88F003C0140443802402B
:101E6000003001400000024000040240000802402F
:101E7000000C024000100240001402400018024012
:101E8000001C024042694A40426170470AB18161C8
:101E900070470904FBE700000148806870470000B4
:101EA0007C000020024881680278114481607047FC
:101EB0007C0000200B4810B5016841F400710160FE
:101EC000016841F480610160016841F48071016042
:101ED000032000F0B1F8002000F006F800F03EF812
:101EE000002010BD003C024010B5014688B0002221
:101EF000192000F081F8192000F072F8134800242E
:101F0000016841F001010160006805A900F00100CD
:101F10000690684600F03AF900F06EF90C4940006E
:101F2000B0FBF1F10C480B4A491E026040F2E73267
:101F3000C0E90324C0E9011400F078FB10B10120CE
:101F400008B010BD044800F0C9FBF9E7443802406E
:101F500040420F00000001404C0C00201F4808B513
:101F6000016841F480410160006800F48040009005
:101F70001A48001F016841F080510160006800F0BC
:101F800080500090032000F057F8002211466FF0B7
:101F90000B0000F031F8002211466FF00A0000F04B
:101FA0002BF8002211466FF0090000F025F80022FE
:101FB0001146501F00F020F800221146101F00F0BB
:101FC0001BF800220F21901E00F016F800220F21AE
:101FD000BDE80840501E00F00FB800004438024031
:101FE00000F01F02012191404009800000F1E02033
:101FF000C0F8001170470000F0B40E4B1B680C468F
:10200000C3F30223C3F10705042D00D90425191DCC
:10201000072901D2002300E0DB1E012606FA05F1A4
:10202000491E214099409E40761E16403143F0BC27
:1020300001F04DBB0CED00E0064900F00702086816
:102040004FF6FF03184040EA0220034A104308609D
:10205000704700000CED00E00000FA052DE9F047A4
:102060000E46050065D0DFF81481D8F80000F7B2FD
:1020700000F00F00B04207D288F80070D8F80000D6
:1020800000F00F00B04254D128683D4C810712D5B2
:10209000400703D5206840F4E0502060287800070E
:1020A00003D5206840F4604020602068A96820F0D3
:1020B000F000084320602878C0072DD030496868B8
:1020C0000839012812D0022813D0032811D009683A
:1020D000890700292DDA216821F0030101432160DD
:1020E000FFF7DAFE814641F2883A0EE0096889037B
:1020F000EFE709688901ECE7FFF7CEFEA0EB0901E5
:10210000514502D90320BDE8F0872068696800F0D6
:102110000C00B0EB810FEFD1D8F80010404601F071
:102120000F01B14207D90770006800F00F00B042FC
:1021300001D00120E7E72878400705D52068E96845
:1021400020F4E050084320602878000706D5206876
:10215000296920F4604040EAC100206000F05CF88A
:102160002168084AC1F30311515CC8400649086060
:102170000020FFF7B9FE0020C5E70000003C024048
:102180000838024032560008880000200F22026002
:102190000C4A136803F003034360136803F0F00371
:1021A0008360136803F4E053C36012684FF4E05394
:1021B00003EAD20202610448006800F00F000860E0
:1021C0007047000008380240003C024001480068A7
:1021D000704700008800002004480549006809682D
:1021E000044AC1F38221515CC84070478800002036
:1021F000083802404256000804480549006809684A
:10220000044AC1F34231515CC84070478800002045
:102210000838024042560008154810B5006810F012
:102220000C02144813D01449042A0FD0082A0ED1E6
:102230000F4C241F2268236802F03F025B0207D57F
:102240002068C0F38810A0FB010106E0084610BD1D
:102250002168C1F38811A1FB00010023FEF70EF8ED
:102260002168C1F30141491C4900B0FBF1F010BDE8
:10227000083802400024F40000366E012DE9F84FC2
:10228000050076D02878DFF8F8B2BE4CC00749D0F8
:10229000DBF800105846C1F38101012908D000681D
:1022A000C0F3810002280AD1201D0068400206D533
:1022B0002068800336D568680028E2D032E068687C
:1022C000B0F5803F10D0B0F5A02F206810D020F4DA
:1022D00080302060206820F4802020606868A0B1F1
:1022E000FFF7DAFD06460CE0206840F48030F4E7A2
:1022F00040F480202060F7E7FFF7CEFD801B6428C4
:1023000073D820688003F7D50CE0FFF7C5FD0646BB
:1023100005E000BFFFF7C0FD801B6428F0D82068EF
:102320008003F7D42878DFF8608280074FF0000937
:102330003ED5DBF80010584611F00C0F09D00068AC
:10234000C0F3810002280BD18D48001F00684002B5
:1023500006D42068800715D5E868012809D111E066
:10236000E868B8B10120C8F80000FFF795FD0646FF
:1023700005E002E1FFF790FD801B0228C0D820682D
:102380008007F7D52068296920F0F80040EAC100ED
:1023900020600DE0C8F80090FFF77EFD064604E0DF
:1023A000FFF77AFD801B02281FD820688007F7D42A
:1023B0002878000722D5724E744869696C3671B16D
:1023C00001210160FFF768FD074604E0FFF764FDA7
:1023D000C01B022809D830688007F7D50EE0C0F886
:1023E0000090FFF759FD074605E083E0FFF754FD35
:1023F000C01B02287ED830688007F7D428784007B1
:1024000068D5DFF87CA100270AF1380ADAF8000065
:10241000C0000BD4DAF8001041F08051CAF8001067
:10242000DAF80000012700F080500090584E306824
:10243000C00510D4306840F480703060FFF72CFD88
:10244000009005E0FFF728FD0099401A022851D8B6
:102450003068C005F6D54A4EA868683601280FD006
:102460000528306810D020F001003060306820F07E
:1024700004003060A868B8B1FFF70EFD00900FE0CF
:10248000306840F00100F4E740F004003060F7E706
:10249000FFF702FD0099411A41F28830814264D869
:1024A00030688007F4D50EE0FFF7F6FC009007E0F7
:1024B000FFF7F2FC0099411A41F28830814254D86A
:1024C00030688007F4D42FB1DAF8001021F0805181
:1024D000CAF80010A869C0B3DBF80010C1F381018D
:1024E00002294AD00228484607D0C8F86000FFF702
:1024F000D3FC00E039E005463AE04746C8F8600002
:10250000FFF7CAFC064604E0FFF7C6FC801B022862
:102510002BD820688001F7D4D5E907010843A96AC0
:102520001C4A490802EB01416A6A41EA82110843E8
:1025300095F82C1040EA01611148001F016001204C
:102540003866FFF7A9FC054605E014E0FFF7A4FC98
:10255000401B022809D820688001F7D50BE000BF96
:10256000FFF79AFC401B022802D90320BDE8F88F30
:1025700020688001F4D40020F8E70120F6E700008D
:10258000083802400038024000004742800E4742AF
:10259000007000400000FFFF4FF0E02104280869B0
:1025A00003D020F004000861704740F00400FAE70F
:1025B00010B5401EB0F1807F01D3012010BD4FF057
:1025C000E02460610F21601701F081F80020A06114
:1025D00007202061002010BD7047704730B590F88B
:1025E0003820012A20D0012280F83820022380F8E8
:1025F000393003685C6824F070045C6003685C68D0
:102600000D682C435C6003689C6824F080049C6027
:1026100003689C6849680C439C6080F8392000215D
:1026200080F83810084630BD022030BD10B50400D7
:1026300003D094F8390010B107E0012010BD00204C
:1026400084F83800204600F00DF8022084F83900A4
:10265000211D206801F040FB012084F83900002092
:1026600010BD000008B501681948B1F1804F14D0C1
:10267000184A914220D1016841F0100101600068C0
:10268000002200F01000009002213620FFF7B4FC79
:102690003620BDE80840FFF7A3BC016841F0010106
:1026A00001600068002200F00100009005211C205C
:1026B000FFF7A2FC1C20ECE7074A914207D1016812
:1026C00041F004010160006800F00400009008BDC2
:1026D0004038024000100040000800400168CA680D
:1026E00042F00102CA600068016841F00101016026
:1026F0000020704770B5044690F83800012817D0C4
:10270000012584F83850022084F839002068826856
:1027100022F0770222F47F4282600868502837D086
:102720000DDC202859D005DC88B3102841D151E0B8
:10273000022070BD302853D040283AD13FE06028B5
:102740002ED070280BD0B0F5805F03D0B0F5005FBD
:102750002FD110E02068816821F0070115E0CB68D7
:10276000D1E90121206801F017FB2168886840F059
:10277000770088601DE0CB68D1E90121206801F075
:102780000BFB2068816841F48041816011E01EE00C
:10279000CA684968206801F011FB5021206806E0F2
:1027A000CA684968206801F01AFB6021206801F0BE
:1027B000FDFA84F83950002084F8380070BDCA68EA
:1027C0004968206801F0FAFA40212068EFE700210B
:1027D0002068ECE710212068E9E720212068E6E77F
:1027E00030212068E3E7704770B50446006801694E
:1027F0004FF00005C943890715D4C168C94389074B
:1028000011D4E91E016101202076206880698007CB
:10281000204602D0FFF7E7FF04E000F098F82046DA
:1028200000F096F8257620680169C943490717D456
:10283000C168C943490713D46FF004010161022044
:1028400020762068806910F4407F204602D0FFF790
:10285000CAFF04E000F07BF8204600F079F8257606
:1028600020680169C943090716D4C168C94309072B
:1028700012D46FF008010161042020762068C0693D
:102880008007204602D0FFF7AEFF04E000F05FF8BB
:10289000204600F05DF8257620680169C943C90625
:1028A00017D4C168C943C90613D46FF01001016180
:1028B000082020762068C06910F4407F204602D0AE
:1028C000FFF791FF04E000F042F8204600F040F8E6
:1028D000257620680169C943C90708D1C168C94381
:1028E000C90704D1891E0161204600F033F8206831
:1028F0000169C943090609D4C168C943090605D459
:102900006FF0800101612046FFF766FE20680169D3
:10291000C943490609D4C168C943490605D46FF0C3
:1029200040010161204600F029F820680169C9438F
:1029300089060BD4C168C943890607D46FF020010A
:1029400001612046BDE87040FFF747BE70BD70478B
:102950007047000010B5044600680649884201D15E
:10296000FFF7A0FA0448844203D1BDE8104000F00C
:1029700065BF10BD00000140880A002070470000BC
:10298000084A0168914202D0074A914208D14A6937
:1029900042F001024A610068C16841F49071C1606F
:1029A00070470000005000400044004070B5040033
:1029B00004D094F83900002510B106E0012070BD64
:1029C00084F83850204600F023F8242084F8390099
:1029D0002068C16821F40051C160204601F06AFA04
:1029E0002068016921F4904101612068416921F06A
:1029F0002A0141612068C16841F40051C160E5636A
:102A0000202084F8390084F83A00002070BD0000CE
:102A10002DE9F04F0546D0F800C0DFF8848202208F
:102A20000024A04A012603210823DFF87CE24702A4
:102A300087B04FF0006A4FF48079C4452BD1D2F8AB
:102A400000C04CF4002CC2F800C01268029602F4D8
:102A500000220592CDE903138A02CDE900206946E0
:102A60007046FFF737F9924E90483060C6E901A4EE
:102A7000C6E903477461C6E90649346230467462A8
:102A8000FFF762F810B14FF4867105E16E63B5632C
:102A900007B0BDE8F08FDFF81C82C44539D1D2F809
:102AA00000C04CF4801CC2F800C01268804602F4DA
:102AB000801205924FF480520092CDE9010003206C
:102AC000CDE903039B4669467046FFF703F90420EE
:102AD000CDE900080320CDE902606946CDF810B0C9
:102AE0007548FFF7F7F8724E70486036303830603E
:102AF000C6E901A4C6E903477461C6E90649346220
:102B000030467462FFF720F80028BFD040F23B1136
:102B1000C2E0DFF8A881DFF88CE14FF0070B0EF17F
:102B2000040EC44529D1DEF8003043F01003CEF87E
:102B30000030DEF80020CDE9026102F010020592BB
:102B4000C022CDE90020CDF810B069465C48FFF7FF
:102B5000C1F85D4E5B483060C6E901A4C6E9034791
:102B60007461C6E90649346230467462FEF7ECFFD0
:102B700000288BD04FF4B0718EE0DFF85081C4454F
:102B800028D1136843F4003313601268CDE9026161
:102B900002F4003205926022CDE90020CDF810B099
:102BA00069464548FFF796F8414E4048603E483038
:102BB0003060C6E901A4C6E903477461C6E9064965
:102BC000346230467462FEF7BFFF00289DD040F2A9
:102BD0008B1161E0DFF8F880C4452BD1136843F412
:102BE000802313601268CDE9026102F4802205920D
:102BF0004FF44062CDE90020CDF810B0694630486E
:102C0000FFF768F8304E2948603618383060C6E95A
:102C100001A4C6E903477461C6E906494FF40030D0
:102C2000C6E908043046FEF78FFF0028A1D04FF414
:102C3000D97131E0274A94457FF42AAFDEF800C00D
:102C40004CF0200CCEF800C0DEF80020029602F016
:102C500020020592CDE903134FF4C062CDE90020B4
:102C600069461D48FFF736F8114E1648C036183829
:102C700030608005C6E90104C6E903477461C6E90E
:102C800006494FF40030C6E908043046FEF75CFF01
:102C900000289BD040F2D91110A001F077FAF5E698
:102CA000004C0040403802400008024040600240B2
:102CB000F008002000500040000C024000100140CD
:102CC0000004024040640240D0070020004400405D
:102CD0000048004000140140001802402E2E2F53DF
:102CE00072632F75736172742E63000070B50446B1
:102CF00090F83900202830D169B362B394F83800D5
:102D000001282AD0012084F838002162A284E284BC
:102D10000025E563212084F83900236B1048D8632F
:102D2000236B10481864236B0F48D864206B13463C
:102D300005652668206B321DFEF770FF21686FF075
:102D40004000086084F838502068416941F08001F3
:102D50004161002070BD012070BD022070BD0000E7
:102D60004D3E00087B3E0008033E00087047704758
:102D7000FEE700007FB51548134901250160056194
:102D80004FF4803100248561C0E9011410490462C8
:102D9000C0E90A14C460C56145610463FEF7CDF85B
:102DA00018B156210BA001F0F1F90095CDE90154BD
:102DB00069460648FEF718F8002803D0602105A0F0
:102DC00001F0E4F97FBD000000200140140B002059
:102DD0000100000F2E2E2F5372632F6164632E6348
:102DE000000000007FB515481349002401604FF42E
:102DF0008031C0E901140461846111490462C0E9B1
:102E00000A140125C460C56145610463FEF795F8A5
:102E100018B179210BA001F0B9F90220CDE9000524
:102E2000694602940548FDF7DFFF002803D083219F
:102E300004A001F0ABF97FBD002101405C0B002034
:102E40000100000F2E2E2F5372632F6164632E63D7
:102E5000000000007FB515481349002401604FF4BD
:102E60008031C0E901140461846111490462C0E940
:102E70000A140125C460C56145610463FEF75DF86D
:102E800018B19C210BA001F081F90320CDE90005C8
:102E9000694602940548FDF7A7FF002803D0A62144
:102EA00004A001F073F97FBD00220140A40B0020B3
:102EB0000100000F2E2E2F5372632F6164632E6367
:102EC00000000000114810B50F4901600621416063
:102ED00000214FF480328160C0E903124FF44012A8
:102EE00042610176012242768276C176017741778E
:102EF000FEF7B6FB002805D0BDE81040502104A025
:102F000001F044B910BD000000640040C40A002074
:102F10002E2E2F5372632F63616E2E63000000000C
:102F2000114810B50F4901600621416000214FF49E
:102F300080328160C0E903124FF440124261017691
:102F4000012242768276C17601774177FEF788FBCF
:102F5000002805D0BDE81040662104A001F016B994
:102F600010BD000000680040EC0A00202E2E2F53F8
:102F700072632F63616E2E6300000000214808B564
:102F8000016841F400110160016801F40011009131
:102F9000016841F4800101600068002200F48000B3
:102FA000009007211020FFF727F81020FFF718F8EE
:102FB000002206210C20FFF71FF80C20FFF710F865
:102FC000002206210D20FFF717F80D20FFF708F863
:102FD000002207210B20FFF70FF80B20FFF700F866
:102FE000002207213920FFF707F83920FEF7F8FF04
:102FF000002205213A20FEF7FFFFBDE808403A20F5
:10300000FEF7EEBF3038024010B5AEB014223249A0
:103010006846FDF764F90021684601F084F92F4CF9
:103020002D4914222060143105A8FDF758F900211C
:1030300005A801F078F928496060142228310AA80F
:10304000FDF74DF900210AA801F06DF92249A060B1
:1030500014223C310FA8FDF742F900210FA801F01E
:1030600062F91D49E0601422503114A8FDF737F9C8
:10307000002114A801F057F9174920611422643186
:1030800019A8FDF72CF9002119A801F04CF91249F3
:103090006061142278311EA8FDF721F900211EA8D5
:1030A00001F041F90C49A06114228C3123A8FDF7ED
:1030B00016F9002123A801F036F90749E06114222E
:1030C000A03128A8FDF70BF9002128A801F02BF961
:1030D00020622EB010BD00006052000800000020E9
:1030E00030B5454887B00025016841F020010160F6
:1030F000016801F020010591016841F08001016043
:10310000016801F080010591016841F0040101604E
:10311000016801F004010591016841F001010160BD
:10312000016801F001010591016841F002010160AF
:10313000016801F002010591016841F01001016090
:10314000016801F010010591016841F0080101607A
:10315000016801F008010591016841F0400101603A
:103160000068012400F04000059041F67F00CDE9A1
:10317000000469462148CDE90245FEF7ABFD44F263
:103180000700CDE9000469461D480294FEF7A2FD40
:103190004FF44040CDE9000469461A480294FEF716
:1031A00099FD0620CDE90005694602941648FEF710
:1031B00091FD6020CDE90005694602941348FEF7B1
:1031C00089FD002205210720FEF716FF0720FEF7E4
:1031D00007FF002205210820FEF70EFF0820FEF75A
:1031E000FFFE002205211720FEF706FF1720FEF73D
:1031F000F7FE07B030BD0000303802400014024036
:10320000000402400010024000080240000002409A
:1032100010B5164886B04FF080410160532100245C
:10322000C0E901140121C0E90314FFF7FFF918B147
:1032300049210FA000F0AAFF4FF48050009069468A
:103240000A48FFF757FA18B14F2109A000F09EFF76
:10325000049404A905480594FFF7C0F9002803D099
:10326000562103A000F092FF06B010BD100A002006
:103270002E2E2F5372632F74696D2E630000000091
:1032800010B5164886B014490024C0E900148460C3
:10329000C4600461FFF7CAF918B1752110A000F0ED
:1032A00075FF4FF48050009069460C48FFF722FAF2
:1032B00018B17B210AA000F069FF049404A9074813
:1032C0000594FFF78BF9002803D0822104A000F0B9
:1032D0005DFF06B010BD0000000800404C0A002051
:1032E0002E2E2F5372632F74696D2E630000000021
:1032F0000D4810B50B4901604FF4E13141600021E8
:1033000081600C22C160C0E904128161C161FFF7D4
:103310004DFB002805D0BDE81040852103A000F03A
:1033200035BF10BD004C0040500600202E2E2F53FC
:1033300072632F75736172742E6300000D4810B5AF
:103340000B4901604FF4E1314160002181600C22A2
:10335000C160C0E904128161C161FFF727FB002849
:1033600005D0BDE81040972103A000F00FBF10BDAD
:1033700000500040900600202E2E2F5372632F75B0
:10338000736172742E6300000D4810B50B49016023
:103390004FF4E1314160002181600C22C160C0E93D
:1033A00004128161C161FFF701FB002805D0BDE86F
:1033B0001040AA2103A000F0E9BE10BD001001409A
:1033C000D00600202E2E2F5372632F7573617274F6
:1033D0002E6300000D4810B50B4901604FF4E13138
:1033E0004160002181600C22C160C0E9041281614A
:1033F000C161FFF7DBFA002805D0BDE81040BD2110
:1034000003A000F0C3BE10BD004400401007002020
:103410002E2E2F5372632F75736172742E6300000A
:103420000D4810B50B4901604FF4E13141600021B6
:1034300081600C22C160C0E904128161C161FFF7A3
:10344000B5FA002805D0BDE81040D02103A000F057
:103450009DBE10BD00480040500700202E2E2F5367
:1034600072632F75736172742E6300000D4810B57E
:103470000B4901604FF4E1314160002181600C2271
:10348000C160C0E904128161C161FFF78FFA0028B1
:1034900005D0BDE81040E32103A000F077BE10BDC9
:1034A00000140140900700202E2E2F5372632F75B9
:1034B000736172742E630000FEE7000030B564484B
:1034C000644A418AC80607D54FF4FA7050804342D7
:1034D0009380D08013810BE040F6B83050804FF2DB
:1034E000484090804FF4FA60D0804FF63000108151
:1034F00059485A4B5A4C90ED000ACD07F3EE0E1A7C
:103500009FED582ADFED580A02D030EE610A20E024
:103510008D0702D530EE210A1BE010EE105A9D42B5
:1035200005D210EE105AA54201DA80ED002A90ED86
:10353000000AB5EEC00AF1EE10FA03DD30EE600AC3
:1035400080ED000AB5EEC00AF1EE10FA03D230EEBB
:10355000200A80ED000A404DB3EE0E1A527895ED28
:10356000010A30EE013A70EE412A22B10A074FD526
:10357000C0ED012A44E0384D4A0795ED021A02D504
:1035800031EE611A20E00A0702D531EE211A1BE064
:1035900011EE102A9A4205D211EE102AA24201DA47
:1035A00080ED022A90ED021AB5EEC01AF1EE10FA83
:1035B00003DD31EE601A80ED021AB5EEC01AF1EEAD
:1035C00010FA03D231EE201A80ED021A4A0621D4F5
:1035D0000A06CDD421E000BF90ED010AB5EEC00A85
:1035E000F1EE10FA03DD30EE600A80ED010AB5EE6F
:1035F000C00AF1EE10FA03D230EE200A80ED010A83
:1036000014480A0400F10A0012D50122827016E063
:103610004A0702D580ED013AF2E710EE102A9A42ED
:10362000DAD210EE102AA242D6DA80ED012AD3E7D0
:103630004A0401D5002109E08278002A07D00A0552
:1036400005D5890601D5032100E00221817030BD36
:10365000840E00203000002008010020000096C3E6
:10366000000096430000000000009643012908D0A6
:10367000022905D100219FED040BC16080ED040BF0
:1036800070471821FCF744BE000000000000000055
:1036900010B50446FEF700FC2060616801B1411AD4
:1036A000C4E90101E068DFED080A084400EE100AF1
:1036B000E060B8EEC00A20EE200A10EE100AFCF717
:1036C00032FEC4E9040110BD6F12833A7047090746
:1036D000090E002806DA00F00F0000F1E02080F863
:1036E000141D704700F1E02080F8001470470000BE
:1036F00070B50024FEF7D0FB00EE100A0E4B0F4D04
:10370000B8EE400AA3F114015FF0010003EB84025C
:10371000D2ED000A70EE600A10EE902AAA420A8AE0
:1037200000FA04F601DD324300E0B243641C24B227
:103730000A82062CEADB70BDC40E00200000C842DD
:1037400030B4034C8467034CC46730BC00F0E4BE63
:10375000194500082745000808B501F0B5FCDFF859
:10376000A8804FF0FF390090052000F06FF849461F
:10377000012001F0E5F9012840D1244E0025244F15
:1037800039E0705DA52834D174192046B4F80110D1
:10379000093101F0A5FB60B30521204601F0BEFB15
:1037A00038B3B4F80500042811D11A49D4F80B0035
:1037B000C8631948D4F807100160D4F81310C16029
:1037C000B4F81720A8F80820D4F80F104160B4F816
:1037D0000500012802D1A17A88F81110B4F805007B
:1037E000032804D1B8F80010491CA8F800102D1DBA
:1037F0006DB26D1C6DB238888542C2DB052168460A
:1038000000F07BFDB0E7000038060020200E00200D
:1038100054000020200F00205800002010B504465E
:10382000FEF73AFB00EE100A0348B8EE400A00EB40
:10383000840080ED000A10BDC40E0020024881689B
:10384000491C816070470000B00E002010B504468E
:10385000FEF722FB00EE100A0348B8EE400A00EB28
:10386000840080ED000A10BDDC0E002010B5274852
:103870002DED028BFFF70CFF254C2649234894EDD4
:10388000020A9FED251A10EE102ADFED240A8A4263
:103890000DDDD0ED021A30EE412AF8EEE11A22EEEB
:1038A000212AD4ED041A42EE601AC4ED041A10EE77
:1038B000102A9FED1B8A8A420DDA30EE411A90EDF4
:1038C000020AB8EEC00A21EE001AB0EE480A01EE74
:1038D000600A84ED040A02210C48FFF7C7FE94ED4C
:1038E000040AB5EEC00AF1EE10FA06D89FED0D0AF3
:1038F00084ED040ABDEC028B10BD10EE100A0A49DB
:103900008842F7DB84ED048AF4E70000800F002092
:10391000580000200000A0420000A0420AD7233C2B
:1039200000007042000000000000704208B501F085
:10393000CBFB3D4E3D4C3E4D00900220FFF786FFF5
:10394000707A012804D0022808D0032808D102E0A8
:10395000FCF7D4FE04E0FFF7B1FD01E000F06AF8E7
:10396000B5F9040094ED010A00EE900AF8EEE00AC1
:10397000B4EEE00AF1EE10FA02D800EE100A0CE004
:10398000B5F9021000EE901AF8EEE00AB4EEE00A83
:10399000F1EE10FA05DB00EE101AB8EEC00A84ED65
:1039A000010A00EE900A94ED000AF8EEE00AB4EE87
:1039B000E00AF1EE10FA0AD9B5F9020000EE900A19
:1039C000F8EEE00AB4EEE00AF1EE10FA05DB00EEE4
:1039D000100AB8EEC00A84ED000AB5F9080094EDAB
:1039E000020A00EE900AF8EEE00AB4EEE00AF1EE08
:1039F00010FA0AD9B5F9060000EE900AF8EEE00ACE
:103A0000B4EEE00AF1EE10FA05DB00EE100AB8EEB3
:103A1000C00A84ED020A28780521401C28706846F7
:103A200000F06BFC89E70000840E002008010020F4
:103A30003000002003480178142901D315210170BA
:103A40007047000030000020012000F04FFCFBE731
:103A500008B5642000F04AFC01F036FB4FF4004545
:103A60002F4F304CDFF8C090DFF8C0B06E104FF42D
:103A700080584FF4006A0090207CC0070CD00122CF
:103A800031465846FEF702FA207C800709D42946C1
:103A90003846FEF7F7F909E031465846FEF7F2F9E5
:103AA000F2E7012229463846FEF7F0F9207C40076C
:103AB00004D431463846FEF7E5F904E001223146E8
:103AC0003846FEF7E3F9207C000704D44146484617
:103AD000FEF7D8F904E0012241464846FEF7D6F940
:103AE000207CC00604D451464846FEF7CBF904E0DA
:103AF000012251464846FEF7C9F9207C800604D4CD
:103B000051464846FEF7BEF904E00122042158461A
:103B1000FEF7BCF94FF49671684600F0EEFBABE798
:103B200000100240B00E00200014024000040240C9
:103B300030B40C4B08224FF400741A6100229A60D2
:103B40001C60DA60084B0C0A1A705A709C70D970AD
:103B50001A715A719A71DA7130BC0123024A014913
:103B6000FDF718BB080E00204C00002000F0D1BB70
:103B700030B5254893B00025016841F080510160BF
:103B8000006800F0805011902048016841F48041A5
:103B900001600068022400F4804011900120009030
:103BA000000401908001CDE90640182008904FF4F0
:103BB000A870CDE9090404200B906846FEF75EFB6F
:103BC00000B1FEE70CA90F2081E831004FF4A050AE
:103BD0000F904FF48050109005210CA8FEF73EFA8C
:103BE00000B1FEE7FEF7F2FA4FF47A71B0FBF1F0A4
:103BF000FEF7DEFC0420FEF7CFFC00220F21501E52
:103C0000FEF7FAF913B030BD4038024000700040B2
:103C10001048016841F4700101600F48016841F0EB
:103C2000010101600C4A00210832116002680B4B4F
:103C30001A400260031D0A4A1A60026822F48022B8
:103C4000026005480C30016002495806803908605E
:103C50007047000088ED00E000380240FFFFF6FEEC
:103C60001030002470B50024FEF716F900EE100A9B
:103C70000E4B0F4DB8EE400AA3F12C015FF001008E
:103C800003EB8402D2ED000A70EE600A10EE902A77
:103C9000AA424A8A00FA04F601DD324300E0B24348
:103CA000641C24B24A82062CEADB70BDDC0E0020C4
:103CB0000000C8420148FEF797BD00004C0C0020F0
:103CC0000148FEF791BD0000100A00200148FEF7F0
:103CD0008BBD0000880A0020F0B50268234B244DFC
:103CE000244E254F254C4FF0804C984209D060451A
:103CF00007D0A84205D0B04203D0B84201D0A042BC
:103D000004D122F0700E4A6842EA0E0298421BD09B
:103D1000604519D0A84217D0B04215D0B84213D090
:103D2000A04211D0164DA8420ED0164DA8420BD07D
:103D3000154DA84208D0154DA84205D0144DA842F3
:103D400002D0144DA84203D122F44075CA682A4318
:103D500002608A68C2620A688262984201D0A04208
:103D600001D10969016301214161F0BD00000140F9
:103D70000004004000080040000C00400004014026
:103D8000004001400044014000480140001800404C
:103D9000001C00400020004010B5846842EA032265
:103DA00024F47F440A432243826010BD826822F0DB
:103DB00070020A4342F007018160704710B5036A40
:103DC000046A24F001040462846924F0F00444EAE3
:103DD000021423F00A020A438461026210BD10B586
:103DE000036A23F0100303628369046A23F47043B7
:103DF00043EA023224F0A00343EA01118261016226
:103E000010BD70B5846B2068406994F83910C0F318
:103E1000C0100025212904D118B1E584204600F006
:103E20003FF82068406994F83A10C0F380102229C6
:103E300004D118B1E585204600F024F8E06B40F08D
:103E40001000E0632046FEF79BFD70BD10B50146F3
:103E5000806B09680968C9050CD40021C184016818
:103E60004A6922F080024A610068C16841F040015D
:103E7000C16010BDFEF77AFF10BD10B5806BFEF774
:103E800076FF10BD0168CA6822F49072CA600168AA
:103E90004A6922F001024A61202180F83A107047F5
:103EA0000168CA6822F0C002CA60202180F8391077
:103EB000704700002DE9F04104460068016921F4D3
:103EC0004052E168114301612168C86849F20C62FF
:103ED00090432369A268E5691A4363692B431A4337
:103EE0000243CA602168486920F44072A069104307
:103EF0004861E1696425B1F5004F9748974A216808
:103F00004FF032083FD0914201D081427CD1FEF780
:103F100073F900EBC00101EB001061688900B0FB90
:103F2000F1F6FEF769F900EBC00101EB00106168E2
:103F30008900B0FBF1F0B0FBF5F06FF018014843D9
:103F400006EB800108EB0110B0FBF5F000F0F00685
:103F5000FEF752F900EBC00101EB00106168890027
:103F6000B0FBF1F0B0FBF5F006EB0016FEF744F9FC
:103F700000EBC00101EB001061688900B0FBF1F7B4
:103F8000FEF73AF9D2E0914201D081423DD1FEF7ED
:103F900033F900EBC00101EB001061684900B0FB90
:103FA000F1F0B0FBF5F00601FEF726F900EBC001D9
:103FB00001EB001061684900B0FBF1F7FEF71CF956
:103FC00000EBC00101EB001061684900B0FBF1F0AB
:103FD000B0FBF5F06FF01801484307EB800108EBE8
:103FE000C100B0FBF5F000F0F80006EB4006FEF76C
:103FF00003F900EBC00101EB001061684900B0FB60
:10400000F1F7FEF7F9F83CE055E0FEF7E5F800EBD4
:10401000C00101EB001061684900B0FBF1F0B0FB9A
:10402000F5F00601FEF7D8F800EBC00101EB001037
:1040300061684900B0FBF1F7FEF7CEF800EBC00174
:1040400001EB001061684900B0FBF1F0B0FBF5F046
:104050006FF01801484307EB800108EBC100B0FB8B
:10406000F5F000F0F80006EB4006FEF7B5F800EBBF
:10407000C00101EB001061684900B0FBF1F7FEF7E9
:10408000ABF800EBC00101EB001061684900B0FB28
:10409000F1F0B0FBF5F06FF01801484307EB800139
:1040A00008EBC100B0FBF5F000F0070021683044D8
:1040B0008860BDE8F081FEF78FF800EBC00101EBEE
:1040C000001061688900B0FBF1F6FEF785F800EB9F
:1040D000C00101EB001061688900B0FBF1F0B0FB9A
:1040E000F5F06FF01801484306EB800108EB011072
:1040F000B0FBF5F000F0F006FEF76EF800EBC00143
:1041000001EB001061688900B0FBF1F0B0FBF5F045
:1041100006EB0016FEF760F800EBC00101EB0010A3
:1041200061688900B0FBF1F7FEF756F800EBC001BB
:1041300001EB001061688900B0FBF1F0B0FBF5F015
:104140006FF01801484307EB800108EB0110B0FB4A
:10415000F5F000F00F00A9E7001401400010014045
:10416000FEE700009FED080A5FF0000100EB81020E
:10417000491CD2ED010AC9B2C2ED000A30EE800A34
:104180000A29F3D37047000000000000FEE702E0B8
:1041900008C8121F08C1002AFAD1704770470020D2
:1041A00001E001C1121F002AFBD17047D0ED000AC7
:1041B000F4EEC00AF1EE10FA01DD80ED000AD0ED58
:1041C000000AB1EE400AF4EEC00AF1EE10FA01D294
:1041D00080ED000A7047000010B558B1084C491E28
:1041E0000BD310F8013B5340DBB234F8133083EAB1
:1041F0001222F4E74FF6FF7010BD104610BD00000C
:104200001454000810B5064C04E000BF10F8013B40
:104210005340E25C491E89B2F8D2104610BD00003E
:104220001453000810B5104A03894381118849BA14
:1042300001815488CB1A64BA04809488B3F5805FF6
:1042400064BA448092798271026901DD521E03E0F2
:1042500013F5805F01DA521C026101EB4231828961
:10426000891A416110BD000026000020024909881A
:1042700049BA0181818170472600002005489FEDE1
:10428000040A80ED010A80ED000A80ED020A704701
:104290000000000008010020FDF70CFEFFF768FC9D
:1042A00000F0D6FCFCF770F9FEF7AEFE00F0F0FC73
:1042B00000F02AF8FEE701460020842900D0C81C3F
:1042C000704770EEC01A30EE200A31EE812A71EE8E
:1042D000400A30EE010A80ED002AC0ED010A71EEBD
:1042E000610AC0ED020A80ED030A704710B500B9FB
:1042F000012000F01FFD002010BD10B501B9012103
:1043000000F03EFD002010BD10B500F07FFD002044
:1043100010BD10B500F0CAFE012803D0BDE8104062
:1043200000F082BE10BD3EB504460D46B0F908004F
:10433000FFF7C1FF02A9CDE90001208A2B4682B216
:10434000D4E9001000F086FE012801D000203EBD17
:1043500002983EBD00B530EEC01A80ED080AC0EDEF
:10436000050A80ED0B1AD0ED191A01469FED692A56
:1043700030EEC00AF5EEC01AB1EE400AF1EE10FAC6
:104380000ED0B5EEC01AF1EE10FA02DDF0EE410AE1
:1043900001E0F0EE400AF4EEE10AF1EE10FA12DC70
:1043A000D1ED1A0AF5EEC00AF1EE10FA0ED0B5EE14
:1043B000C01AF1EE10FA01DDB0EE410AB4EEE00AE7
:1043C000F1EE10FA02D2B0EE420A00BDC86E01F161
:1043D0003402032802D0042838D07AE091ED000A94
:1043E000104620EE010A81ED0C0A91ED0D0AD1ED87
:1043F000010A00EE810A81ED0D0A91ED0A0AD1ED64
:10440000020A31EE400A20EE200A81ED0E0A91EDFB
:104410001D0AB8EE400AFFF7C9FE91ED0C0AD1ED76
:104420000D0A01F1500030EE200AD1ED0E0A30EEF7
:10443000200A81ED140A91ED1C0AB8EE400AFFF73C
:10444000B5FE91ED140A81ED150A42E091ED0A0ADC
:10445000D1ED001A104671EE400A60EEA10AC1EDDE
:104460000C0AD1ED010A60EE810AC1ED0D0AF0EEF1
:10447000000A00EE601A91ED090AD1ED020A31EE50
:10448000000A20EE200A81ED0E0A91ED1D0AB8EE19
:10449000400AFFF78BFE91ED0C0AD1ED0D0A01F1F8
:1044A0005C0030EE200AD1ED0E0A30EE200A81EDDC
:1044B000160AD1ED180A30EE800A81ED170A91ED47
:1044C0001C0AB8EE400AFFF771FE91ED170A81ED64
:1044D000180A91ED0A0A81ED090A91ED0B0A81EDA6
:1044E0000A0A91ED070A81ED060A91ED080A81EDAD
:1044F000070A91ED040A81ED030A91ED050A81EDA9
:10450000040AC86E032802D091ED170A00BD91ED90
:10451000140A00BD0000000000F16C0C8CE80E00D5
:1045200080EC030A704780EC030A704770B50446BC
:104530002DED028B90ED000AB5EEC00AF1EE10FAF7
:1045400001DCB1EE400AD4ED010AF5EEC00AF1EE4D
:1045500010FA01DCF1EE600A70EE200A94ED020A16
:10456000B5EEC00AF1EE10FA01DCB1EE400A70EED1
:10457000800A94ED030AB5EEC00AF1EE10FA01DCF0
:10458000B1EE400A30EE808AFCF76CFB4B4D4C4E8E
:1045900095ED000AB5EEC00AF1EE10FA04D0D6EDA2
:1045A0000D0A20EE800A05E096ED0D0AF3EE070AEB
:1045B00020EE200A85ED020AFFF758F995ED040A6E
:1045C000D5ED020A9FED3F1A3F4900EEC10A10EEF9
:1045D000100A884269DA3A484830FFF759F896EDF0
:1045E0000F0A3748D5ED040AB5EEC00A4830F1EE9F
:1045F00010FA01D1B3EE080A9FED341A60EE810A79
:1046000080EE801A9FED320A31EE000A9FED311BD9
:1046100085ED070A90ED040B53EC112B51EC100BB8
:10462000FBF794FE03D8B6EE0E0A85ED070AD5ED2A
:10463000070AF5EEC00AF1EE10FA33D0B7EE000A21
:1046400094ED001A38EE000AC1EE001A21EEA01A0D
:10465000DFED220A21EE201A84ED001AD4ED011AB2
:1046600081EE801AD5ED071A21EE211A21EE201ACB
:1046700084ED011AD4ED021A81EE801AD5ED071AE5
:1046800021EE211A21EE201A84ED021A94ED031A6C
:10469000C1EE001A95ED070A21EE800A20EE200AED
:1046A00084ED030ABDEC028B70BDBDEC028B0221D0
:1046B000BDE8704002484830FEF7D8BF58000020DF
:1046C000200F0020B81E853E000020419A99193E17
:1046D000CDCCCC3D000000A09999B93F00803B456E
:1046E0002DE9F041184C0F460546E6682068001D8C
:1046F00000F05AFA38B9206890F82C100120884050
:10470000216981432161681C07D137B12168BDE867
:10471000F0410E48091D00F07FBA20683544B542CB
:104720004560216805D2A06BBDE8F041091D00F08D
:104730005BBA606B091D00F057FAA06A854200D28F
:10474000A562BDE8F0810000B0000020744C00209C
:104750002DE9F041054600F07BFA2E4CA068401C84
:10476000A06020682C4F10B1606940B32DE0256037
:10477000A068012829D1002606EB860007EB8000FF
:1047800000F024FA761C072EF6D323488C3000F074
:104790001DFA2148A03000F019FA1F48B43000F08B
:1047A00015FA1D48C83000F011FA1B48DC3000F043
:1047B0000DFA19488C3060631430A06305E020685E
:1047C000E96AC06A884200D82560606A401C60625D
:1047D000E96A0120226988401043206101EB8100D1
:1047E00007EB8000291D00F017FA00F051FA60690C
:1047F00000280CD02068E96AC06A884207D20749BD
:104800004FF080500860BFF34F8FBFF36F8FBDE84C
:10481000F0810000B0000020984B002004ED00E083
:1048200070B5114E114C17E000F024FB3068B8B1A0
:1048300000F0B4FC00F00CFAF068C568281D00F028
:10484000B3F9A068401EA0606068401E606000F080
:104850001FFA284600F00CF860680028E4D170BD0B
:1048600000F09CFCF8E70000604C0020B000002045
:1048700010B50446006B00F01FFA2046BDE810405A
:1048800000F01ABA10484FF47051420706D0C01D0C
:104890000D4920F00700411AC1F570510B4A002361
:1048A0000144C2E900030839103A21F00701116000
:1048B0004B600B600B1AC0E9001393604FF000408F
:1048C0005360D06070470000980F00209C000020CB
:1048D000074C4FF08056074DFFF7A2FF20680128D4
:1048E000FAD92E60BFF34F8FBFF36F8FF4E700004C
:1048F000984B002004ED00E02DE9F0479A46DDE9F1
:10490000098481466FF00303206B03EB820210449D
:10491000089D20F00706700707D0502080F311880B
:10492000BFF34F8FBFF36F8FFEE723180A5C83F846
:1049300034200A5C12B1401C1028F6D3002784F8FA
:104940004370072D00D30625E562C4E91157201DE9
:1049500000F047F904F1180000F043F92461C5F1B3
:1049600007006462A061E76484F8507052464946CB
:10497000304600F0BFF82060B8F1000F01D0C8F851
:104980000040BDE8F087000030B5114900E0114655
:104990000A688242FBD34B685C18844203D14068AA
:1049A00018444860084643681C18944209D1084CD2
:1049B000103C2468A24209D052681A4442600A6836
:1049C00012680260814200D0086030BD0460F9E7DF
:1049D0009C0000200648416B096829B1416BC968F9
:1049E000C9684968816270474FF0FF31FAE70000FB
:1049F000B000002008484068401C4FF0500080F391
:104A0000118804D0BFF34F8FBFF36F8FFEE7BFF362
:104A10004F8FBFF36F8FFEE7A40000202DE9F04118
:104A20000546002700F026FA314E306808B9FFF736
:104A300029FFF06805424BD1C5B3083568070ED091
:104A400005F00700C0F108000544680707D05020B2
:104A500080F31188BFF34F8FBFF36F8FFEE72DB345
:104A60007068854234D82248103001460C6801E055
:104A700020460C466168A94202D221680029F7D17C
:104A800031688C4224D0076821680160606808376B
:104A9000411B10290FD96019420708D0502080F31C
:104AA0001188BFF34F8FBFF36F8FFEE710E04160B7
:104AB0006560FFF769FF61687068401A7060B268EE
:104AC000904200D2B060F06801430020C4E90001C8
:104AD00000F064FB780707D0502080F31188BFF303
:104AE0004F8FBFF36F8FFEE73846BDE8F0810000BF
:104AF0008C00002010B5031F4FF080741C601B1F3A
:104B000021F001011960191F044B0B6014390A6070
:104B1000091F6FF0020244380A6010BDF549000811
:104B200008B5C820FFF7E2FB00F0CEFA00900020A5
:104B3000FEF78CFE32216846FFF7DFFBF7E7000047
:104B400070B50C46064600F083F8154D2868C06C19
:104B500080B92968012081F850005CB1012120460C
:104B6000FFF7BEFD0F494FF080500860BFF34F8F35
:104B7000BFF36F8F00F08CF800F06AF82868C46CFF
:104B8000002034B116B12968C86402E02A68611EA9
:104B9000D164296881F8500000F07AF8204670BD91
:104BA000B000002004ED00E0D0E9013201699A6014
:104BB000D0E901235A604A68824201D182684A6082
:104BC000002202610868401E0860704700F1080179
:104BD0004FF0FF32C0E90112C160016100210160A4
:104BE000704700210161704730B50B685A1C02D034
:104BF00000F1080202E0026904E0224654682568D8
:104C00009D42FAD953684B6099608A60516008618F
:104C10000168491C016030BD42684A6093688B603E
:104C200093685960916008610168491C0160704790
:104C300008B500F049FA00900420FEF707FEFFF7E0
:104C400011F8FEF755FD14216846FFF756FBF3E710
:104C5000502080F31188BFF34F8FBFF36F8F0A4945
:104C60004868401C486001280CD10848006810F0D2
:104C7000FF0F07D0502080F31188BFF34F8FBFF391
:104C80006F8FFEE770470000A400002004ED00E0F5
:104C90000849486828B1401E486001D180F3118856
:104CA0007047502080F31188BFF34F8FBFF36F8F91
:104CB000FEE70000A400002070B5002827D0144DA6
:104CC000A0F108046168E868014207D1502080F330
:104CD0001188BFF34F8FBFF36F8FFEE722683AB1A1
:104CE000502080F31188BFF34F8FBFF36F8FFEE723
:104CF0008143616000F0BEF86068696808446860DC
:104D00002046FFF741FEBDE8704000F047BA70BD95
:104D10008C00002006484FF47A710068B0FBF1F176
:104D20004FF0E020491E41610721016170470000FA
:104D30008800002010B5020014D00F48006B38B175
:104D4000502080F31188BFF34F8FBFF36F8FFEE7C2
:104D500000F090F800211046FFF7C2FC00F01EFAA8
:104D6000002807D105494FF080500860BFF34F8FEE
:104D7000BFF36F8F10BD0000B000002004ED00E015
:104D800070B50D4604000BD095B11E4A106BB8B13A
:104D9000502080F31188BFF34F8FBFF36F8FFEE772
:104DA000502080F31188BFF34F8FBFF36F8FFEE762
:104DB000502080F31188BFF34F8FBFF36F8FFEE752
:104DC00000F058F8D26823685919934204D98B42ED
:104DD0000AD9914202D807E08B42FAD9881A216099
:104DE0000021FFF77DFC00E0216000F0D7F90028EA
:104DF00007D105494FF080500860BFF34F8FBFF3D4
:104E00006F8F70BDB000002004ED00E01CB51548A8
:104E10000024CDE900402346802213A1144800F06D
:104E200019F9012809D0401C1AD1502080F31188AB
:104E3000BFF34F8FBFF36F8FFEE7502080F31188D1
:104E4000BFF34F8FBFF36F8F06484FF0FF312C3801
:104E5000816201214161C460BDE81C4000F074B86A
:104E60001CBD0000DC00002049444C45000000004F
:104E7000D14800080248016B491C016370470000DB
:104E8000B00000201448016B11B10121C1617047CD
:104E90000021C1610169B1FA81F1C1F11F0101EB8A
:104EA00081020E4951F822306BB101EB820101F110
:104EB00008034A6852684A609A4201D152684A60BF
:104EC000D16801607047502080F31188BFF34F8F85
:104ED000BFF36F8FFEE70000B0000020984B00206A
:104EE00030B50C46050014D0022C12D90A48A11E78
:104EF00002882846FFF770F92919C2B211F8023C5E
:104F00009A4206D111F8011CB1EB102F01D10120FA
:104F100030BD002030BD00007800002030B50C46C8
:104F200005000ED0022C0CD9601E81B2FF2228464B
:104F3000FFF768F9291911F8011C814201D10120FC
:104F400030BD002030BD00001CB532480168324A37
:104F5000914207D1502080F31188BFF34F8FBFF3E8
:104F60006F8FFEE700682C49491E884207D1502008
:104F700080F31188BFF34F8FBFF36F8FFEE7274990
:104F800008780190FF20087008788DF800009DF8DF
:104F900000009DF8002000F0F000904207D0502063
:104FA00080F31188BFF34F8FBFF36F8FFEE79DF83B
:104FB00000001B4A00F0500010700720906005E0D0
:104FC0009DF800305B008DF80030401E9DF80030E9
:104FD0001B06F5D4000200F4E060906001980870B0
:104FE0000C482030016841F470010160016841F013
:104FF00070410160FFF78EFE00205060FBF7EEF875
:105000000848016841F040410160FBF7D7F80020F3
:105010001CBD000000ED00E071C20F4100E400E0A3
:10502000A400002034EF00E010B5502080F3118878
:10503000BFF34F8FBFF36F8F00F04CF818B10449E6
:105040004FF080500860002080F3118810BD0000F0
:1050500004ED00E02DE9FF5F8346DDE90E87994608
:1050600016468A469000FFF7D9FC05001AD0542056
:10507000FFF7D4FC040012D025630021CDE90241E2
:10508000CDE900874B46324651465846FFF734FC7F
:105090002046FFF75DFB012004B0BDE8F09F2846E5
:1050A000FFF70AFE4FF0FF30F6E7000005484169C0
:1050B00019B1006B18B10020704701207047022021
:1050C00070470000B00000200148C0687047000031
:1050D000B00000202DE9F0412E4C0027206B40B19C
:1050E000A069401CA061E06900B101273846BDE815
:1050F000F081E668761CE66013D1606B006838B119
:10510000502080F31188BFF34F8FBFF36F8FFEE7FE
:10511000606BA16B6163A063206A401C2062FFF793
:1051200059FCA06ADFF87080864209D3606B006882
:1051300080B1606BC068C568686886420DD2A062A5
:105140002068C06A00EB800158F821000128CAD904
:105150000127C8E74FF0FF30F1E7281DFFF724FDD6
:10516000A86A18B105F11800FFF71EFDE86A0121D1
:10517000226981401143216100EB800108EB81002D
:10518000291DFFF749FDE86A2168C96A8842CDD325
:105190000127CBE7B0000020984B00202DE9F04715
:1051A0002C4D00242746286B38B1FFF751FD286BA2
:1051B000401E2863286B40B146E0502080F31188E0
:1051C000BFF34F8FBFF36F8FFEE7A968224E012018
:1051D000D1B3A6F1B40980463068E8B1F068C4687C
:1051E00004F11800FFF7E0FC201DFFF7DDFCE06A8A
:1051F0002A6908FA00F11143296100EB800109EBEB
:105200008100211DFFF708FDE06A2968C96A88420C
:10521000E2D3C5F81C80DFE70CB1FFF7DBFBAC691C
:1052200044B14646FFF756FF00B1EE61641EF9D166
:105230000020A861E86938B10849012738070860EB
:10524000BFF34F8FBFF36F8FFFF722FD3846BDE8E6
:10525000F0870000B00000204C4C002004ED00E07E
:10526000A4560008493A00080000000000000000B1
:10527000800000004C560008214B00080000000090
:1052800000000000000100008C56000871070008B3
:10529000000000000000000000010000545600085B
:1052A0002D3900080200000000000000000100008D
:1052B00098560008513A0008010000000000000064
:1052C0008000000084560008950D000800000000D2
:1052D000000000008000000070560008314C0008FB
:1052E0000000000000000000800000007856000868
:1052F000E509000800000000000000008000000038
:105300006456000859370008010000000000000042
:1053100000010000005EBCE2613FDD83C29C7E2094
:10532000A3FD1F419DC3217FFCA2401E5F01E3BD81
:105330003E6082DC237D9FC1421CFEA0E1BF5D0375
:1053400080DE3C62BEE0025CDF81633D7C22C09E69
:105350001D43A1FF4618FAA427799BC584DA386655
:10536000E5BB5907DB856739BAE406581947A5FB41
:105370007826C49A653BD987045AB8E6A7F91B4535
:10538000C6987A24F8A6441A99C7257B3A6486D829
:105390005B05E7B98CD2306EEDB3510F4E10F2AC15
:1053A0002F7193CD114FADF3702ECC92D38D6F3101
:1053B000B2EC0E50AFF1134DCE90722C6D33D18FF5
:1053C0000C52B0EE326C8ED0530DEFB1F0AE4C12E9
:1053D00091CF2D73CA947628ABF517490856B4EAD5
:1053E0006937D58B5709EBB536688AD495CB2977C1
:1053F000F4AA4816E9B7550B88D6346A2B7597C9B5
:105400004A14F6A8742AC896154BA9F7B6E80A54A8
:10541000D7896B350000891112239B322446AD5782
:105420003665BF74488CC19D5AAFD3BE6CCAE5DBEC
:105430007EE9F7F88110080193331A22A5562C470C
:10544000B7753E64C99C408DDBBF52AEEDDA64CBCC
:10545000FFF976E802218B30100299132667AF76A8
:105460003444BD554AADC3BC588ED19F6EEBE7FAAC
:105470007CC8F5D983310A2091121803A7772E66CC
:10548000B5543C45CBBD42ACD99E508FEFFB66EA8C
:10549000FDD874C904428D5316619F702004A9156C
:1054A0003227BB364CCEC5DF5EEDD7FC6888E1996C
:1054B0007AABF3BA85520C4397711E60A11428058C
:1054C000B3373A26CDDE44CFDFFD56ECE99860894C
:1054D000FBBB72AA06638F7214409D512225AB3428
:1054E0003006B9174EEFC7FE5CCCD5DD6AA9E3B82C
:1054F000788AF19B87730E6295501C41A3352A244C
:10550000B1163807CFFF46EEDDDC54CDEBB962A80B
:10551000F99A708B088481951AA793B62CC2A5D3EB
:105520003EE1B7F04008C919522BDB3A644EED5FFB
:10553000766DFF7C899400859BB712A6ADD224C3FB
:10554000BFF136E0C1184809D33B5A2AE55E6C4FDB
:10555000F77D7E6C0AA583B4188691972EE3A7F297
:105560003CC0B5D14229CB38500AD91B666FEF7EBB
:10557000744CFD5D8BB502A499961087AFF326E2BB
:10558000BDD034C1C3394A28D11A580BE77F6E6E9B
:10559000F55C7C4D0CC685D71EE597F42880A1915B
:1055A0003AA3B3B2444ACD5B5669DF78600CE91D7B
:1055B000722FFB3E8DD604C79FF516E4A99020817B
:1055C000BBB332A2C55A4C4BD7795E68E11C680D5B
:1055D000F33F7A2E0EE787F61CC495D52AA1A3B017
:1055E0003882B193466BCF7A5448DD59622DEB3C3B
:1055F000700EF91F8FF706E69DD414C5ABB122A03B
:10560000B9923083C77B4E6AD5585C49E33D6A2C1A
:10561000F11E780FA500000000000000000000004F
:105620000000000000000000000000061016000648
:10563000101600000000000000000102030406072D
:105640000809000000000102030400005461736BAC
:105650003100000052656D6F74654461746154617E
:10566000736B0000526566657265655461736B000B
:10567000764F75744C696E65436865636B546173EE
:105680006B00000047756E5461736B004368617373
:105690007369735461736B005374617475735461EF
:1056A000736B000064656661756C745461736B00A4
:1056B000D056000800000020EC0000008E410008D9
:1056C000BC570008EC0000209C4F00009E410008E1
:1056D00000000000000000000000000000000000CA
:1056E00000000000000000000000000000000000BA
:1056F00000000000000000000000000000000000AA
:105700000000B80B48F4D00730F8FE01FF0000009D
:105710000000000000000000000000000000000089
:105720000000000000000000000000000000000079
:1057300000000000000000000000704200000000B7
:105740000000000000000000FFFF0000010000005A
:1057500010000000000000000024F4000000000021
:105760000000000000000000000000000000000039
:105770000000000000000000AAAAAAAA0000000081
:105780000000000000000000000000000000000019
:105790000000000000000000000000000000000009
:1057A00000000000000000000000000000000000F9
:0C57B000000000000000000000000000ED
:040000050800018965
:00000001FF
