:020000040800F2
:100000007051002059020008513A000803300008DE
:100010005D370008CD060008994700080000000081
:100020000000000000000000000000009D0100082A
:100030002D0E000800000000F1010008A940000892
:1000400073020008730200087302000873020008BC
:100050007302000873020008730200082F0E0008E4
:10006000350E00087302000873020008410D0008F5
:100070004D0D0008590D00087302000873020008B6
:10008000650D00087302000873020008730200087F
:10009000D106000873020008730200083B0E000836
:1000A00073020008F141000873020008730200089F
:1000B000FD41000873020008730200087302000883
:1000C000730200087302000873020008730200083C
:1000D0007302000873020008730200080D4700084D
:1000E000730200087302000873020008730200081C
:1000F000730200087302000873020008730200080C
:1001000073020008730200087302000873020008FB
:100110007302000873020008094200087302000815
:10012000710D0008730200087D0D000873020008BD
:1001300073020008730200087302000873020008CB
:10014000DD0600087302000873020008730200084D
:1001500073020008730200087302000873020008AB
:10016000730200087302000873020008730200089B
:100170007302000873020008730200080000000008
:100180007302000873020008DFF80CD000F016F9C3
:100190000048004721490008705100202B4B196886
:1001A0000868B0E8F04F80F30988BFF36F8F4FF015
:1001B000000080F3118870470000000006480068C6
:1001C000006880F3088862B661B6BFF34F8FBFF353
:1001D0006F8F00DF00BF00BF08ED00E0DFF80C000C
:1001E000016841F470010160704700BF88ED00E0D4
:1001F000EFF30980BFF36F8F144B1A681EF0100FD6
:1002000008BF20ED108A20E9F04F106008B44FF0CD
:10021000500080F31188BFF34F8FBFF36F8F05F04D
:100220001BFA4FF0000080F3118808BC19680868B9
:10023000B0E8F04F1EF0100F08BFB0EC108A80F34A
:100240000988BFF36F8F704700BF00BFFC0000201C
:10025000EFF30580704700000648804706480047D6
:10026000FEE7FEE7FEE7FEE7FEE7FEE7FEE7FEE766
:10027000FEE7FEE74D410008890100082DE9F05F27
:100280000546002092469B46884606468146402405
:100290001BE0284641464746224600F07EF853467A
:1002A0005A46C01A914110D311461846224600F012
:1002B00065F82D1A67EB01084F4622460120002100
:1002C00000F05CF817EB00094E41201EA4F1010478
:1002D000DFDC484631462A464346BDE8F09F40EA07
:1002E00001039B0703D009E008C9121F08C0042AB4
:1002F000FAD203E011F8013B00F8013B521EF9D29B
:100300007047D2B201E000F8012B491EFBD27047C2
:100310000022F6E710B513460A4604461946FFF7D1
:10032000F0FF204610BD00F0004230F000400AD03F
:10033000C10D01F56071C0F3160042EA0151C20817
:1003400040071143704700200146704730B5041E36
:1003500071F1000404DB4FF00044404264EB010102
:10036000141E73F1000405DB1C464FF0004352429B
:1003700063EB0403994208BF904230BD202A04DB9E
:10038000203A00FA02F1002070479140C2F12003A8
:1003900020FA03F3194390407047202A04DB203AE7
:1003A00021FA02F00021704721FA02F3D040C2F195
:1003B000200291400843194670470000064C074D43
:1003C00006E0E06840F0010394E807009847103425
:1003D000AC42F6D3FFF7DCFEAC5E0008CC5E000852
:1003E00030B58C1810F8012B12F00F0301D110F862
:1003F000013B120906D110F8012B03E010F8015B54
:1004000001F8015B5B1EF9D101E001F8013B521ECE
:10041000FBD1A142E6D3002030BD10B50146806B70
:10042000026C12F0500F05D0806BC26CBDE810401A
:1004300008461047016C41F40071016401688A6844
:1004400012F0405F17D18269AAB9CA6A12F4700F1C
:1004500002D08A6852050ED44A6822F020024A600F
:10046000016C21F480710164016CC90403D4016C36
:1004700041F00101016400F019FE10BD10B5806B60
:1004800040210164416C41F00401416400F010FE20
:1004900010BD10B5806B00F00AFE10BD454910B5C7
:1004A0004A6822F440324A604A6843681A434A6004
:1004B00001684A6822F480724A6001684A680369E8
:1004C00042EA03224A6001684A6822F040724A60A8
:1004D00001684A6883681A434A6001688A6822F49E
:1004E00000628A6001688A68C3681A438A60816A08
:1004F0006FF07062D14201688A6822F070628A608F
:1005000001688A680CD0836A1A438A6001688A6825
:1005100022F040528A6001688A68C36A1A4301E087
:1005200022F040528A6001688A6822F002028A60E2
:1005300001688A68836942EA43028A60016A002985
:1005400001684A680FD042F400624A6001684A6854
:1005500022F460424A6001684A68174C436A04EB1F
:1005600043331A4301E022F400624A600168CA6A18
:1005700022F47002CA620168CA6A838B0F4C04EBD2
:1005800003531A43CA6201688A6822F400728A60BF
:1005900001688A68036B42EA43228A6001688A68BC
:1005A00022F480628A6001688A68406942EA802099
:1005B000886010BD0023014000E0FFFF0000F0FF55
:1005C00010B502F0DFFE02F021FE02F0F1FD02F0B4
:1005D000C1FD03F02BF803F04FF803F073F802F0BD
:1005E000D9FF02F0FDFF03F093F802F00BFD02F0DB
:1005F00041FD02F077FD02F095FF02F05BFF264817
:1006000001F05AFA254801F057FA0A2224492548F0
:1006100000F0E8FD64222449244802F047FC072248
:100620002349244802F042FC07222349234802F0D0
:100630003DFC1E480068C16841F01001C1601D48C2
:100640000068C16841F01001C1601D480068016880
:1006500021F0080101601B480068016821F00801D1
:10066000016019480068016821F0080101600A482A
:1006700000F028F9094800F025F90221064800F0A9
:1006800031FE0221054800F02DFEBDE810404FF478
:100690007A7001F0BBBB0000F80A0020200B00209C
:1006A000E00F0020480B0020D50E0020840700201A
:1006B00086000020840600208D000020C406002053
:1006C000640800202409002084090020FEE70000BF
:1006D000014800F083BF0000F80A0020014800F044
:1006E0007DBF0000200B0020044801884ABA04495D
:1006F0008A80408840BAC8807047000038000020D7
:1007000054000020074801884ABA07494A824288B3
:1007100052BA0A80828852BA4A8082790A72C079B3
:1007200048727047380000203A0F002009480A4AF2
:100730000B4B018849BA09B2516141884ABA07494D
:100740004A8002791206120C1A7040790006000CD9
:100750000870704738000020E80D00205400002089
:10076000440000200F4930B408220A6100228A6048
:1007700012230B600C4BCA600C495C88250A0D7073
:100780004C709C88250A8D70CC709B790B71084B3E
:100790005B784B718A71CA710A4630BC01230149EA
:1007A00000F0B4BD540E0020940000206C00002026
:1007B000500F0020114930B408220A6100228A60DB
:1007C000CA6014220A600E4A0E4953881C0A0C7033
:1007D0004B7093881C0A8C70CB7092790A710A4A0C
:1007E00012784A71094A9289130A8B71CA710A46B2
:1007F00030BC0123014900F089BD0000840E0020B7
:100800009C0000207C00002042000020500F0020AF
:10081000134930B408220A6100228A60CA6011229A
:100820000A60104A903153881C0A0C704B7092ED8C
:10083000070ABCEEC00A10EE103A1B0A8B7010EECD
:10084000103ACB70538A1C0A0C714B71D289130A6F
:100850008B71CA7101230A4630BC903900F056BD35
:100860003C0E0020500F002030B413490024082211
:100870008C60C1E9034213220A60104A1049537880
:100880000B7053881D0A4D708B7092ED060ABCEEFA
:10089000C00A10EE103A1B0ACB7010EE103A0B7122
:1008A000128A130A4B718A71CC710A4630BC01233B
:1008B000014900F02BBD00006C0E0020500F0020FD
:1008C0007400002000B58BB000210122CDE9061292
:1008D00003910892094A009101910291049190427A
:1008E00000D1059105492831884201D10E21059199
:1008F000694600F06FFD0BB000BD0000F80A002053
:10090000184B10B419881548A1F5806101EB8102DC
:1009100059888478A1F5806101EB81011048494232
:10092000012C11D000EE102AB8EEC00A80ED020AA8
:1009300000EE101AB8EEC00A80ED000A187A0128FD
:100940000AD110BC03F0DEBF524200EE102AB8EE0E
:10095000C00A80ED010AEBE710BC7047420000209E
:10096000540100203A0F00201CB5C82004F002F802
:1009700004F094FFDFF810810021019088F8001046
:1009800000F0D0F8DFF808A1DFF800910AF59076C2
:10099000404F06F19005012003F07AF999F9000023
:1009A00010B101282BD103E050469AED021A1FE046
:1009B0003948DFED3A0A90ED050A3548B8EEC00A2D
:1009C000103004F00BF832481030D0ED140A3448DF
:1009D000B0F90000404200EE100A2D48B8EEC00AFF
:1009E000903003F0FBFF2A48903090ED141A5046E7
:1009F0009AED010AD0ED000A2A4803F0A6FF002470
:100A000006EB8400D0ED000AC4EB041037F9200097
:100A100000EE100A05EBC410B8EEC00A03F0DEFFCA
:100A2000641C042CECDB1F48103804F0C3F898F861
:100A30000000012824D095ED740ABDEEC00A10EE26
:100A4000100A00B2009095ED540ABDEEC00A10EEF7
:100A5000100A95ED340A03B2BDEEC00A10EE100A7A
:100A600095ED140A02B2BDEEC00A10EE100A01B2F2
:100A70000D4800F01BF8052101A803F082FF8AE76A
:100A8000094800F035F8F6E7400000204400002057
:100A900054010020BC0C0020E80D002000000000E4
:100AA0005600002074020020200B0020F0B40E4CF1
:100AB0000826049D26610026A660E6604FF40076B5
:100AC00026600A4C0E0A26706170110AA170E2704D
:100AD000190A21716371290AA171E5712246F0BCDE
:100AE0000123014900F012BC9C0E00205C00002094
:100AF0000A4A08214FF400731161002191601360CC
:100B0000D160074A0123117051709170D170117139
:100B100051719171D171014900F0F8BB9C0E002018
:100B20005C0000202DE9F0414FF47A742DED028B2A
:100B300042F210759FED238AB3EE041AB7EE080A4D
:100B4000F0EE480A23462A4603211F4802F0BAFF66
:100B50001D489FED1E0AB3EE041A80ED1A0ADFED60
:100B60001C0AB1EE000A23462A460321A0F5907024
:100B700002F0A8FF1448B0EE481AF0EE480A9FEDC4
:100B8000150A2346A2000321A03802F09BFF0E4E57
:100B900000249FED118A80364FF4FA67F0EE480A80
:100BA00006EBC410B0EE601AB7EE080A3B462A46C0
:100BB000032102F087FF641C042CEFDBBDEC028BE9
:100BC000BDE8F08100000000840200200000164310
:100BD0000AD7233CCDCC4C3FCDCCCC3D08B56420CE
:100BE00003F0C8FE04F05AFE534D544C0090688A3E
:100BF000C10719D000220121204601F003FA642127
:100C0000684603F0BEFE01221146204601F0FAF9C3
:100C1000C821684603F0B5FE01221146204601F0C6
:100C2000F1F94FF4FA6182E0810712D50022012127
:100C3000204601F0E7F96421684603F0A2FE012294
:100C40001146204601F0DEF9C821684603F099FEFE
:100C5000D0E7410712D500220121204601F0D2F948
:100C60006421684603F08DFE01221146204601F002
:100C7000C9F9C821684603F084FED7E7010712D5F9
:100C800000220121204601F0BDF96421684603F0ED
:100C900078FE01221146204601F0B4F9C8216846C9
:100CA00003F06FFED7E7C10612D5002201212046CE
:100CB00001F0A8F96421684603F063FE01221146A1
:100CC000204601F09FF9C821684603F05AFED7E795
:100CD000810612D500220121204601F093F96421FA
:100CE000684603F04EFE01221146204601F08AF9C3
:100CF000C821684603F045FED7E7400612D500221A
:100D00000121204601F07EF96421684603F039FE96
:100D100001221146204601F075F9C821684603F00A
:100D200030FED7E70121204601F068F9102168461E
:100D300003F027FE5BE700008C0F00200004024058
:100D4000014800F0EDBE000084090020014800F0D9
:100D5000E7BE000064080020014800F0E1BE00008A
:100D600024090020014800F0DBBE0000C408002078
:100D7000014800F0D5BE0000200C0020014800F022
:100D8000CFBE00000408002001681823CAB2103A40
:100D9000B2FBF3F2054B6FF30901032A9B5CC365B9
:100DA00000D9091D8165084670470000185E0008DB
:100DB00010B5014600208B698A6A4FF0C07453B1A8
:100DC000B3F5005F15D072B1012A0CD0022A0AD007
:100DD000032A09D104E01AB1012A06D0022A03D15C
:100DE000C96AC90100D5012010BDC96AA142FAD063
:100DF00010BD002AF7D0012AF2D0022AF3D0032A2C
:100E0000F3D010BD30B50468256825F48025256031
:100E1000046863608368402B036803D099600068AE
:100E2000C26030BD9A600068C16030BD704702206A
:100E300001F000B8042000F0FDBF10B5202000F044
:100E4000F9FFBDE81040402000F0F4BF00B5284A8B
:100E50000021084652F82030401CC0B219440A282C
:100E6000F8D300EE101A9FED231A214BB8EEC00AFA
:100E70002833181D20EE010A83ED000A83ED0B0ACA
:100E800003F08CFC60EE010ADFED1B1AB0EE040AE1
:100E9000C3ED0C0AB3F94000B3EE091AC82808DD07
:100EA00010EEA10A93ED0E2A10EE012A83ED0D2A11
:100EB00000BD10EEA10A401C00B2A3F84000322889
:100EC00020EE010A83ED0D0AF2DDD3ED0F0AC828EA
:100ED00030EE600AD3ED0E0A30EE200A83ED0E0AE2
:100EE000E6DDDFED060A80EE201A83ED0E1A00BD66
:100EF000E00F0020CDCCCC3DED32533A000016433C
:100F000009480A4903780B70027ACA71FD2B0AD18D
:100F1000FC2A08D130F8012F52BA4A80428852BACE
:100F20008A80007988717047860000209400002034
:100F300009480A4903780B70027ACA71FF2B0AD15B
:100F4000FE2A08D130F8012F52BA4A80428852BA9C
:100F50008A800079887170478D0000209C000020F5
:100F600078B50024009490F83C20012A19D0012281
:100F700080F83C200A6807230568092A13D9EE681F
:100F80000A3A02EB420293409E43EE600B788A6875
:100F90000A3B03EB43039A400368DD682A43DA60A7
:100FA00010E0022078BD2E6902EB420293409E437E
:100FB0002E610B788A6803EB43039A4003681D692E
:100FC0002A431A614A681F23072A13D205686E6BE9
:100FD000521E02EB820293409E436E630B790A8895
:100FE0005B1E92B203EB83039A4003685D6B2A4356
:100FF0005A6327E005680D2A12D22E6BD21F02EB2E
:10100000820293409E432E630B790A88DB1F92B2C3
:1010100003EB83039A4003681D6B2A431A6311E0B4
:10102000EE6A0D3A02EB820293409E43EE620B7928
:101030000A880D3B92B203EB83039A400368DD6A92
:101040002A43DA62164B0568144A9D4206D10D68A0
:10105000122D03D1556845F48005556005689D4201
:1010600018D10B68102B01D0112B13D1536843F406
:1010700000035360096810290CD10A490A4A09681B
:10108000B1FBF2F101EB8101490000E0491E009142
:101090000029FBD180F83C40002078BD00230140AE
:1010A00000200140D400002040420F0070477047EC
:1010B000704770B504004FF0000503D0206C002687
:1010C00010B107E0012070BD666484F83C602046E2
:1010D00000F01AF8206CC00610D4206C20F4885060
:1010E00040F0020020642046FFF7D8F96664206CC7
:1010F00020F0020040F00100206400E0012584F8A7
:101100003C60284670BD000070B506462A4C036856
:1011100000252A4903202A4A86B0A3422BD10B6816
:1011200043F480730B600968029501F480710591A6
:101130001E21CDE900106946104600F087FE224CC2
:101140002048C4E900050015A560C4E9035040002B
:1011500060618000A0614011C4E907052046656216
:1011600000F0AEFD18B1D02118A003F02BFBB46342
:10117000A66306B070BD194CA34209D10B6843F4B5
:1011800000730B60096801F40071059104210BE004
:10119000134CA342EDD10B6843F480630B600968E4
:1011A00001F4806105910821CDE90010029569469E
:1011B000104600F04BFEDCE70020014044380240BE
:1011C0000000024010640240200C00202E2E2F53FD
:1011D00072632F6164632E630000000000210140F0
:1011E00000220140F8B50E4600210446009190F817
:1011F0003C00012807D0012084F83C002068836867
:10120000DB0702D011E00220F8BD836843F0010340
:1012100083602D482D4B0068B0FBF3F000EB4000DD
:1012200000E0401E00900028FBD120688368DB07A7
:1012300048D0236C40F20165AB4343F480732364D0
:101240004068400505D5206C20F4005040F48050E3
:101250002064206CC00404D5606C20F0060060643B
:1012600000E0616484F83C10A16B1A48184DC86313
:10127000A16B19480864A16B1848C86421686FF015
:10128000220008602068416841F080614160206868
:10129000816841F4807181602168134632464C3187
:1012A000A06B00F077FD6868C006206802D00C498A
:1012B000884207D1816811F0405F03D1816841F015
:1012C000804181600020F8BDD400002040420F0022
:1012D000002301401B040008930400087D0400085B
:1012E0000020014090F82020012A09D090F8202009
:1012F000022A05D0416A41F48021416201207047F1
:10130000006842690A43426100207047F0B590F8D6
:101310002040012C07D090F82040022C03D0416AD5
:1013200041F4802153E00468A5686D0105D4A568E7
:101330002D0102D4A568ED0046D5A4680125C4F3AB
:101340000164A5401D608D684FF4C0739DB1CE68E7
:1013500035434E6845EAC605066803EB0417F551A8
:101360004FF4C275076805EB04150E697E51097DBF
:10137000012905D009E00E88CD6845EA4655EBE71E
:1013800001684E5946F480764E511179D2F80550D5
:101390004FF4C67641EA0521056806EB0416A9510B
:1013A0001178D2F801204FF4C47541EA0221026895
:1013B00005EB04155151006803EB0411425842F04B
:1013C000010242500020F0BD416A41F40011416227
:1013D0000120F0BD10B590F82020012A09D090F826
:1013E0002020022A05D0416A41F480214162012077
:1013F00010BD3A48D0F8002242F00102C0F80022A5
:10140000D0F8002222F47C52C0F80022D0F800224A
:101410004B6A42EA0322C0F800220B7D01229A4067
:10142000D0F81C329343C0F81C32CB69B3B9D0F862
:101430000C329343C0F80C328C894B6864F31F4321
:101440004C6900EBC404C4F840320C890B6864F3A7
:101450001F434C6900EBC404C4F84432CB69012B30
:1014600016D1D0F80C321343C0F80C320C884B68FC
:1014700064F31F434C6900EBC404C4F840320C8988
:10148000CB6864F31F434C6900EBC404C4F84432D6
:101490008B69002BD0F804320ED01343C0F804320D
:1014A0000B69002BD0F8143208D01343C0F8143263
:1014B000096A012904D008E09343EFE79343F5E775
:1014C000D0F81C121143C0F81C12D0F8001221F001
:1014D0000101C0F80012002010BD000000640040AF
:1014E000704730B590F82040012C07D090F820408C
:1014F000022C03D0416A41F4802109E011B1012995
:1015000009D00CE00468E46807E0416A41F4001186
:101510004162012030BD04682469A407F5D04FF46E
:10152000D874056804EB01142D5915F00405956075
:1015300005682D5942D0ED08556005682C59C4F353
:101540004004D4604FF4DA74056804EB01142D599B
:1015500005F00F05156105682D59C5F3072595613F
:1015600005682C59240C54614FF4DC72046802EBBA
:101570000112A4581C700468A458240A5C70046802
:10158000A458240C9C700468A258120EDA704FF410
:10159000DE72046802EB0112A4581C710468A4589E
:1015A000240A5C710468A458240C9C710468A25835
:1015B000120EDA7129B1012909D00DE06D0D156007
:1015C000BBE70068C16841F02001C16004E0006829
:1015D000016941F020010161002030BD2DE9F05F7B
:1015E0000546006800244669D0F804908768D0F862
:1015F0000CB0D0F810A0D0F81880F10748D0F90747
:1016000014D001218160B80703D5284600F081FA83
:101610000CE0780702D54FF4006407E0380702D5E4
:101620004FF4805402E0284600F072FAF80516D50F
:1016300029684FF480708860B80503D5284600F00B
:101640006AFA0CE0780502D544F4005407E0380546
:1016500002D544F4804402E0284600F05BFAF80327
:1016600016D529684FF480308860B80303D5284622
:1016700000F053FA0CE0780302D544F4004407E08C
:10168000380302D544F4803402E0284600F044FADE
:10169000300707D55FEACB6004D52968102044F4F1
:1016A0000074C86070074FF0080707D55FEA0B7039
:1016B00004D52868C760284600F07CF9B00706D535
:1016C0002868C068800702D0284600F075F97006C7
:1016D00007D55FEACA6004D52968102044F4806405
:1016E0000861B00607D55FEA0A7004D5286807616B
:1016F000284600F0DDF9F00606D528680069800765
:1017000002D0284600F0D5F9B00308D55FEAC960D9
:1017100005D5296810204860284600F0CBF9F00371
:1017200007D55FEA097004D528684760284600F0AD
:10173000F5F9300446D55FEA497040D5F00504D587
:101740005FEAC87001D044F00104B00504D55FEA37
:10175000887001D544F00204700504D55FEA487032
:1017600001D544F00404300529D518F0700F26D0B7
:1017700008F07000402815D006DC102809D0202879
:101780000AD0302816D10AE050280ED0602811D196
:101790000EE044F008040DE044F010040AE044F0C8
:1017A000200407E044F0400404E044F0800401E039
:1017B00044F480742868816921F07001816129688E
:1017C00004204860002C05D0686A204368622846DF
:1017D000FFF786FEBDE8F09F70B5040003D094F8D3
:1017E000200010B104E0012070BD204600F082F816
:1017F0002068016821F00201016000F009FC054643
:10180000052604E000F004FC401B0A2811D82068DB
:1018100040688007F6D42068016841F0010101604A
:1018200000F0F6FB05460BE000F0F2FB401B0A2837
:1018300006D9606A40F40030606284F82060D2E724
:1018400020684068C007EFD0207E0128206801682A
:101850003DD021F080010160607E01282068016890
:1018600038D021F040010160A07E01282068016885
:1018700033D021F020010160E07E0128206801685A
:101880002ED041F010010160207F012820680168FE
:1018900029D021F008010160607F012820680168DB
:1018A00024D021F004010160D4E902010843D4E905
:1018B0000412114308436168491E08432168C86146
:1018C00000206062012084F82000002070BD41F0FB
:1018D0008001C0E741F04001C5E741F02001CAE7BF
:1018E00021F01001CFE741F00801D4E741F00401F5
:1018F000D9E70000F0B52A4B0768DFF8A0C01868E8
:1019000003220224092527490026401C87B0674589
:1019100019D11860012807D1086840F000700860EC
:10192000086800F0007005908DE85400CDE90325AB
:1019300069461D4800F08AFA00220521142000F0B3
:1019400017FC142026E0DFF864C0674524D10F6837
:1019500047F080670F600F68012807F080670597E0
:10196000186007D1086840F000700860086800F04F
:10197000007005904FF440508DE85100CDE90325EB
:1019800069460B4800F062FA00220521402000F071
:10199000EFFB402000F0E0FB07B0F0BD006400402A
:1019A0005000002040380240000C02400068004017
:1019B000000402407047000070B537493326374DA8
:1019C000374C884239D104F110032A460021FFF731
:1019D00088FD2868B0F5887F1AD0A0F58070193886
:1019E0001FD007280CD0E9281AD1052002F038F9B9
:1019F0002C48C16A4A1CC26232291AD8264941E0E1
:101A0000042002F02DF9BDE870402348FEF78EBE99
:101A1000042002F025F92048FEF774FE0120207012
:101A200070BD042002F01CF9BDE870401A48FEF7B2
:101A30005BBEC66218491B482AE01B498842EFD1A9
:101A4000174B164A10330021FFF74BFD2868A0F50D
:101A50000070013805D0012803D0022801D00328E6
:101A600001D102F0FDF82878401EC0B26070C0EBD2
:101A700000110E4800EB8100C16A4A1CC262322983
:101A800004D80949BDE8704002F034BF0649C66277
:101A9000BDE8704002F00ABFF80A002038010020BB
:101AA00028000020AC0D0020200B0020BC0C0020E2
:101AB000704770477047000070B5044690F82000EA
:101AC000012804D0606A40F40020606218E002201F
:101AD00084F820002068016821F00101016000F015
:101AE00097FA05460EE000BF00F092FA401B0A2864
:101AF00008D9606A40F400306062052084F8200054
:101B0000012070BD20684068C007EDD1606270BDE3
:101B100070477047704770477047704770470000C4
:101B20002DE9F84304464FF00009CDF800906348D2
:101B30004FF41651A56D0068B0FBF1F72E6894F8CC
:101B40005C10082000FA01F131420FD021680A68C8
:101B500052070BD50A6822F004020A6094F85C1060
:101B60008840A860606D40F00100606594F85C10EA
:101B70004FF0010808FA01F0304208D021684969A5
:101B8000090604D5A860606D40F00200606594F815
:101B90005C1004208840304208D021680968890719
:101BA00004D5A860606D40F00400606594F85C1096
:101BB00010208840304218D021680968090714D5E0
:101BC000A86020680168490304D50068000308D5AF
:101BD000A16C07E00168C90503D4016821F0080180
:101BE0000160216C09B12046884794F85C102020E0
:101BF0008840304231D021680968C9062DD5A860D7
:101C000094F8350005282068016806D0490347D5B7
:101C1000006800031DD4616C1CE021F01601016016
:101C20002068416921F080014161206C08B9A06CF5
:101C300020B12068016821F00801016094F85C106F
:101C40003F208840A86084F8349084F83580216D66
:101C50001FE0E16B09B120468847606D00282BD05A
:101C6000606DC00714D0052084F835002068016835
:101C700021F0010101600098401C0090B84203D897
:101C800020680068C007F6D184F8349084F8358065
:101C9000E16C002910D001B02046BDE8F0430847B0
:101CA0000168C905D5D4016821F01001016084F8EC
:101CB000349084F83580CCE7BDE8F883D400002068
:101CC0002DE9F041044600F0A3F906465CB1002579
:101CD00084F83450022084F835002068016821F02F
:101CE000010101600DE00120BDE8F08100F090F9F4
:101CF000801B052805D920206065032084F8350065
:101D0000F2E720680068C007F0D122681168204817
:101D10000140D4E901031843D4E90336334318439F
:101D200063691843A3691843E3691843236A184396
:101D30000843616A042903D1D4E90B13194308430A
:101D4000106020684069666A20F0070130460E4343
:101D5000012704280CD1A06A0643E06A40B120465E
:101D6000FFF726F820B14020606584F83570BAE7A7
:101D7000206846612046FFF707F894F85C203F2171
:101D800091408160656584F835700020ACE7000003
:101D90003F8010F02DE9F0410446866D90F8340044
:101DA000002501280DD0012084F8340094F8357006
:101DB0000020012F07D084F8340002252846BDE812
:101DC000F0810220FBE7022784F835706065204629
:101DD000FFF718F894F85C103F208840B060206846
:101DE000016841F0160101602068416941F08001FD
:101DF0004161206C20B12068016841F00801016058
:101E00002068016841F001010160D7E770B5044620
:101E100000F0FEF80546601C02D004480078044437
:101E200000F0F6F8401BA042FAD370BDC8000020B5
:101E300070470000044910B50A68024202D00860E9
:101E4000FFF7F6FF10BD0000143C01402DE9F84FEC
:101E5000DFF87CB100224FF001084FF0030A4FF089
:101E60000F090BF1040E00BF0B6808FA02F42340BF
:101E7000A3426ED14D68022D01D0122D0ED1D5088E
:101E800000EB850CDCF820505607F70E09FA07F630
:101E9000B5430E69BE402E43CCF82060066855005D
:101EA0000F790AFA05FC07F0030726EA0C06AF4093
:101EB000374307604E68012E05D0022E03D0112E45
:101EC00001D0122E0ED18668CF6826EA0C06AF40EC
:101ED000374387604668A6430C79C4F300149440E6
:101EE00034434460C6688C6826EA0C06AC40344330
:101EF000C4604C68E40065D5364C256845F48045DF
:101F00002560246822F0030504F480440094324CD8
:101F10002E19D6F8084895072F0F09FA07F5AC4394
:101F20002E4DA84201D1002524E02D4DA84201D11B
:101F300001251FE02B4DA84201D102251AE02A4DB0
:101F4000A84201D1032515E0284DA84202D104255D
:101F500010E037E0264DA84201D105250AE0254DC5
:101F6000A84201D1062505E0234DA84201D107254D
:101F700000E00825BD402543C6F80858DBF80040BE
:101F80005D464E689C43F60300D51C432C60DEF88A
:101F9000004075464E689C43B60300D51C432C6038
:101FA0000B4D08352C684E689C43F60200D51C4347
:101FB0002C60074D0C352C684E689C43B60200D54A
:101FC0001C432C60521C102AFFF44EAFBDE8F88F62
:101FD000003C014044380240003001400000024013
:101FE0000004024000080240000C024000100240C1
:101FF0000014024000180240001C024042694A409E
:10200000426170470AB1816170470904FBE7000033
:102010000148806870470000C800002002488168BD
:102020000278114481607047C80000200B4810B549
:10203000016841F400710160016841F48061016050
:10204000016841F480710160032000F0B1F80020C4
:1020500000F006F800F03EF8002010BD003C024001
:1020600010B5014688B00022192000F081F819202F
:1020700000F072F813480024016841F0010101608A
:10208000006805A900F001000690684600F03AF9E2
:1020900000F06EF90C494000B0FBF1F10C480B4A1E
:1020A000491E026040F2E732C0E90324C0E901148E
:1020B00000F078FB10B1012008B010BD044800F01A
:1020C000C9FBF9E74438024040420F0000000140DC
:1020D000800C00201F4808B5016841F48041016070
:1020E000006800F4804000901A48001F016841F029
:1020F00080510160006800F080500090032000F0E3
:1021000057F8002211466FF00B0000F031F8002262
:1021100011466FF00A0000F02BF8002211466FF014
:10212000090000F025F800221146501F00F020F8A9
:1021300000221146101F00F01BF800220F21901EF4
:1021400000F016F800220F21BDE80840501E00F0F4
:102150000FB800004438024000F01F0201219140F6
:102160004009800000F1E020C0F800117047000035
:10217000F0B40E4B1B680C46C3F30223C3F10705F2
:10218000042D00D90425191D072901D2002300E0E0
:10219000DB1E012606FA05F1491E214099409E40AA
:1021A000761E16403143F0BC01F053BC0CED00E04C
:1021B000064900F0070208684FF6FF03184040EA9E
:1021C0000220034A10430860704700000CED00E055
:1021D0000000FA052DE9F0470E46050065D0DFF84E
:1021E0001481D8F80000F7B200F00F00B04207D217
:1021F00088F80070D8F8000000F00F00B04254D109
:1022000028683D4C810712D5400703D5206840F46B
:10221000E05020602878000703D5206840F4604033
:1022200020602068A96820F0F0000843206028782A
:10223000C0072DD0304968680839012812D002281B
:1022400013D0032811D00968890700292DDA2168E5
:1022500021F0030101432160FFF7DAFE814641F2DC
:10226000883A0EE009688903EFE709688901ECE71D
:10227000FFF7CEFEA0EB0901514502D90320BDE8CE
:10228000F0872068696800F00C00B0EB810FEFD197
:10229000D8F80010404601F00F01B14207D907708D
:1022A000006800F00F00B04201D00120E7E7287875
:1022B000400705D52068E96820F4E0500843206015
:1022C0002878000706D52068296920F4604040EA94
:1022D000C100206000F05CF82168084AC1F30311D6
:1022E000515CC840064908600020FFF7B9FE002095
:1022F000C5E70000003C024008380240205E0008AC
:10230000D40000200F2202600C4A136803F003037C
:102310004360136803F0F0038360136803F4E05331
:10232000C36012684FF4E05303EAD202026104482A
:10233000006800F00F000860704700000838024095
:10234000003C02400148006870470000D4000020B3
:102350000448054900680968044AC1F38221515CB8
:10236000C8407047D400002008380240305E0008A2
:102370000448054900680968044AC1F34231515CC8
:10238000C8407047D400002008380240305E000882
:10239000154810B5006810F00C02144813D0144909
:1023A000042A0FD0082A0ED10F4C241F226823685C
:1023B00002F03F025B0207D52068C0F38810A0FB43
:1023C000010106E0084610BD2168C1F38811A1FB98
:1023D00000010023FDF752FF2168C1F30141491CB0
:1023E0004900B0FBF1F010BD083802400024F400B1
:1023F00000366E012DE9F84F050076D02878DFF819
:10240000F8B2BE4CC00749D0DBF800105846C1F303
:102410008101012908D00068C0F3810002280AD197
:10242000201D0068400206D52068800336D5686804
:102430000028E2D032E06868B0F5803F10D0B0F5F7
:10244000A02F206810D020F480302060206820F475
:10245000802020606868A0B1FFF7DAFD06460CE036
:10246000206840F48030F4E740F480202060F7E7F3
:10247000FFF7CEFD801B642873D820688003F7D552
:102480000CE0FFF7C5FD064605E000BFFFF7C0FD05
:10249000801B6428F0D820688003F7D42878DFF800
:1024A000608280074FF000093ED5DBF800105846E7
:1024B00011F00C0F09D00068C0F3810002280BD185
:1024C0008D48001F0068400206D42068800715D59B
:1024D000E868012809D111E0E868B8B10120C8F81E
:1024E0000000FFF795FD064605E002E1FFF790FDCD
:1024F000801B0228C0D820688007F7D5206829698A
:1025000020F0F80040EAC10020600DE0C8F800901B
:10251000FFF77EFD064604E0FFF77AFD801B0228E8
:102520001FD820688007F7D42878000722D5724E7C
:10253000744869696C3671B101210160FFF768FD6B
:10254000074604E0FFF764FDC01B022809D8306885
:102550008007F7D50EE0C0F80090FFF759FD074659
:1025600005E083E0FFF754FDC01B02287ED83068E9
:102570008007F7D42878400768D5DFF87CA10027CA
:102580000AF1380ADAF80000C0000BD4DAF80010BB
:1025900041F08051CAF80010DAF80000012700F07D
:1025A00080500090584E3068C00510D4306840F418
:1025B00080703060FFF72CFD009005E0FFF728FDEC
:1025C0000099401A022851D83068C005F6D54A4E05
:1025D000A868683601280FD00528306810D020F090
:1025E00001003060306820F004003060A868B8B1A5
:1025F000FFF70EFD00900FE0306840F00100F4E7B7
:1026000040F004003060F7E7FFF702FD0099411A3F
:1026100041F28830814264D830688007F4D50EE0FA
:10262000FFF7F6FC009007E0FFF7F2FC0099411A73
:1026300041F28830814254D830688007F4D42FB1F9
:10264000DAF8001021F08051CAF80010A869C0B370
:10265000DBF80010C1F3810102294AD00228484664
:1026600007D0C8F86000FFF7D3FC00E039E005466A
:102670003AE04746C8F86000FFF7CAFC064604E0A7
:10268000FFF7C6FC801B02282BD820688001F7D4F6
:10269000D5E907010843A96A1C4A490802EB014130
:1026A0006A6A41EA8211084395F82C1040EA0161F8
:1026B0001148001F016001203866FFF7A9FC05469C
:1026C00005E014E0FFF7A4FC401B022809D82068AD
:1026D0008001F7D50BE000BFFFF79AFC401B0228F2
:1026E00002D90320BDE8F88F20688001F4D40020CF
:1026F000F8E70120F6E70000083802400038024001
:1027000000004742800E4742007000400000FFFF7B
:102710004FF0E0210428086903D020F0040008618C
:10272000704740F00400FAE710B5401EB0F1807F1A
:1027300001D3012010BD4FF0E02460610F2160172C
:1027400001F087F90020A06107202061002010BD62
:102750007047704730B590F83820012A20D0012208
:1027600080F83820022380F8393003685C6824F050
:1027700070045C6003685C680D682C435C600368EF
:102780009C6824F080049C6003689C6849680C4342
:102790009C6080F83920002180F83810084630BD50
:1027A000022030BD10B5040003D094F8390010B1F8
:1027B00007E0012010BD002084F83800204600F01A
:1027C0000DF8022084F83900211D206801F022FD57
:1027D000012084F83900002010BD000008B5016810
:1027E0001948B1F1804F14D0184A914220D10168A4
:1027F00041F0100101600068002200F0100000901C
:1028000002213620FFF7B4FC3620BDE80840FFF770
:10281000A3BC016841F0010101600068002200F0E2
:102820000100009005211C20FFF7A2FC1C20ECE712
:10283000074A914207D1016841F004010160006834
:1028400000F00400009008BD403802400010004035
:10285000000800400168CA6842F00102CA600068CE
:10286000016841F0010101600020704770B5044625
:1028700090F83800012817D0012584F8385002203C
:1028800084F839002068826822F0770222F47F42BF
:1028900082600868502837D00DDC202859D005DC2C
:1028A00088B3102841D151E0022070BD302853D0A8
:1028B00040283AD13FE060282ED070280BD0B0F5E8
:1028C000805F03D0B0F5005F2FD110E020688168F1
:1028D00021F0070115E0CB68D1E90121206801F062
:1028E000F9FC2168886840F0770088601DE0CB68BB
:1028F000D1E90121206801F0EDFC2068816841F4F4
:102900008041816011E01EE0CA684968206801F0DA
:10291000F3FC5021206806E0CA684968206801F08D
:10292000FCFC6021206801F0DFFC84F839500020B5
:1029300084F8380070BDCA684968206801F0DCFC82
:1029400040212068EFE700212068ECE71021206893
:10295000E9E720212068E6E730212068E3E77047B7
:1029600070B50446006801694FF00005C943890746
:1029700015D4C168C943890711D4E91E016101203A
:102980002076206880698007204602D0FFF7E7FFA5
:1029900004E000F098F8204600F096F825762068CC
:1029A0000169C943490717D4C168C943490713D40A
:1029B0006FF004010161022020762068806910F424
:1029C000407F204602D0FFF7CAFF04E000F07BF80A
:1029D000204600F079F8257620680169C943090787
:1029E00016D4C168C943090712D46FF00801016108
:1029F000042020762068C0698007204602D0FFF7B7
:102A0000AEFF04E000F05FF8204600F05DF82576A8
:102A100020680169C943C90617D4C168C943C906FA
:102A200013D46FF010010161082020762068C0697E
:102A300010F4407F204602D0FFF791FF04E000F041
:102A400042F8204600F040F8257620680169C94325
:102A5000C90708D1C168C943C90704D1891E0161EA
:102A6000204600F033F820680169C943090609D4FB
:102A7000C168C943090605D46FF080010161204691
:102A8000FFF766FE20680169C943490609D4C16899
:102A9000C943490605D46FF040010161204600F0AA
:102AA00029F820680169C94389060BD4C168C94364
:102AB000890607D46FF0200101612046BDE870400F
:102AC000FFF747BE70BD70477047000010B5044661
:102AD00000680649884201D1FFF7A0FA0448844201
:102AE00003D1BDE8104001F0CBB810BD000001409B
:102AF000BC0A00207047704770B5040004D094F8F9
:102B00003900002510B106E0012070BD84F838506E
:102B1000204600F023F8242084F839002068C1689A
:102B200021F40051C160204601F068FC2068016971
:102B300021F4904101612068416921F02A0141613D
:102B40002068C16841F40051C160E563202084F829
:102B5000390084F83A00002070BD00002DE9F04FE4
:102B60000546D0F800C0DFF8F88202200024BD4AF4
:102B7000012603210823DFF8F0E2470287B04FF077
:102B8000006A4FF48079C44531D1D2F800C04CF4CA
:102B9000002CC2F800C01268029602F400220592CE
:102BA000CDE903138A02CDE9002069467046FFF79C
:102BB0004DF9AF4EAD483060C6E901A4C6E9034700
:102BC0007461C6E90649346230467462FFF778F8EA
:102BD00020B14FF48671A7A001F0F4FD6E630022CE
:102BE00005213420B563FFF7C3FA342046E0DFF84F
:102BF0009482C44547D1D2F800C04CF4801CC2F87E
:102C000000C01268804602F4801205924FF4805290
:102C10000092CDE901000320CDE903039B466946FC
:102C20007046FFF713F90420CDE900080320CDE931
:102C300002606946CDF810B09348FFF707F98C4E53
:102C40008A48603630383060C6E901A4C6E90347D7
:102C50007461C6E90649346230467462FFF730F8A1
:102C600020B14FF49E7183A001F0ACFD6E63002291
:102C700005213520B563FFF77BFA3520FFF76CFAA5
:102C800007B0BDE8F08FDFF80482DFF8D8E14FF03D
:102C9000070B0EF1040EC44533D1DEF8003043F0CB
:102CA0001003CEF80030DEF80020CDE9026102F01A
:102CB00010020592C022CDE90020CDF810B069467F
:102CC0007348FFF7C3F8744E72483060C6E901A438
:102CD000C6E903477461C6E9064934623046746246
:102CE000FEF7EEFF20B14FF4B27162A001F06AFD71
:102CF0006E63002205212520B563FFF739FA2520F0
:102D0000BCE7DFF89881C44532D1136843F400333F
:102D100013601268CDE9026102F40032059260226C
:102D2000CDE90020CDF810B069465748FFF78EF87E
:102D30004F4E4E48603E48303060C6E901A4C6E9B7
:102D400003477461C6E90649346230467462FEF78F
:102D5000B7FF20B14FF4C87146A001F033FD6E6398
:102D6000002205212620B563FFF702FA262085E719
:102D7000DFF82C81C44535D1136843F480231360F8
:102D80001268CDE9026102F4802205924FF440629C
:102D9000CDE90020CDF810B069463D48FFF756F860
:102DA0003D4E3248603618383060C6E901A4C6E9A5
:102DB00003477461C6E906494FF40030C6E90804C8
:102DC0003046FEF77DFF20B14FF4DC7129A001F001
:102DD000F9FC6E63002205212720B563FFF7C8F9CF
:102DE00027204BE72F4A94457FF44AAFDEF800C016
:102DF0004CF0200CCEF800C0DEF80020029602F065
:102E000020020592CDE903134FF4C062CDE9002002
:102E100069462548FFF71AF8154E1E48C03618387F
:102E200030608005C6E90104C6E903477461C6E95C
:102E300006494FF40030C6E908043046FEF740FF6B
:102E400020B14FF4F0710BA001F0BCFC6E630022C6
:102E500005214720B563FFF78BF947200EE70000F7
:102E6000004C0040403802400008024040600240F0
:102E7000240900202E2E2F5372632F7573617274F4
:102E80002E63000000500040000C02400010014082
:102E90000004024040640240040800200044004056
:102EA000004800400014014000180240F8B50446F4
:102EB00090F83A0020283CD1C1B3BAB394F8380056
:102EC000012836D0012084F83800A162A2850025AF
:102ED000E563222084F83A00636B1748D863636B7C
:102EE00016481864636B1648D864606B1346056512
:102EF0000846666B216802463046091DFEF74AFF08
:102F0000206801684168009184F83850C16841F434
:102F10008071C1602068416941F001014161206810
:102F2000416941F0400141610020F8BDFFE7012007
:102F3000FBE70220F9E7000089430008C5430008C9
:102F40003F430008704770472DE9F843044690F866
:102F500039001F4616460D46202850D1A5B19EB116
:102F600094F8380001284AD0012084F838004FF046
:102F70000008C4F83C80212084F83900FFF748F8A5
:102F8000A6848146E68426E00120BDE8F883E08C33
:102F9000401EE084A0684B46B0F5805F4FF0000211
:102FA0004FF080012046009703D001F07DFBE8B987
:102FB0000DE001F079FBC8B928882168C0F308004A
:102FC0004860206908B16D1C05E0AD1C03E0216874
:102FD00015F8010B4860E08C0028D8D14B46002240
:102FE00040212046009701F05FFB08B10320CCE7A9
:102FF000202084F8390084F838800020C5E70220BA
:10300000C3E7FEE77FB51548134901250160056157
:103010004FF4803100248561C0E901141049046235
:10302000C0E90A14C460C56145610463FEF741F854
:1030300018B156210BA001F0C5FB0095CDE9015454
:1030400069460648FDF78CFF002803D0602105A0E3
:1030500001F0B8FB7FBD000000200140480B0020BC
:103060000100000F2E2E2F5372632F6164632E63B5
:10307000000000007FB515481349002401604FF49B
:103080008031C0E901140461846111490462C0E91E
:103090000A140125C460C56145610463FEF709F89F
:1030A00018B179210BA001F08DFB0220CDE90005BC
:1030B000694602940548FDF753FF002803D0832199
:1030C00004A001F07FFB7FBD00210140900B002098
:1030D0000100000F2E2E2F5372632F6164632E6345
:1030E000000000007FB515481349002401604FF42B
:1030F0008031C0E901140461846111490462C0E9AE
:103100000A140125C460C56145610463FDF7D1FF60
:1031100018B19C210BA001F055FB0320CDE900055F
:10312000694602940548FDF71BFF002803D0A6213D
:1031300004A001F047FB7FBD00220140D80B002016
:103140000100000F2E2E2F5372632F6164632E63D4
:1031500000000000114810B50F49016006214160D0
:1031600000214FF480328160C0E903124FF4401215
:1031700042610176012242768276C17601774177FB
:10318000FEF72AFB002805D0BDE81040502104A01E
:1031900001F018BB10BD000000640040F80A0020D8
:1031A0002E2E2F5372632F63616E2E63000000007A
:1031B000114810B50F4901600621416000214FF40C
:1031C00080328160C0E903124FF4401242610176FF
:1031D000012242768276C17601774177FEF7FCFACA
:1031E000002805D0BDE81040662104A001F0EABA2D
:1031F00010BD000000680040200B00202E2E2F5331
:1032000072632F63616E2E6300000000214808B5D1
:10321000016841F400110160016801F4001100919E
:10322000016841F4800101600068002200F4800020
:10323000009007211020FEF79BFF1020FEF78CFF67
:10324000002206210C20FEF793FF0C20FEF784FFDE
:10325000002206210D20FEF78BFF0D20FEF77CFFDC
:10326000002207210B20FEF783FF0B20FEF774FFDF
:10327000002207213920FEF77BFF3920FEF76CFF83
:10328000002205213A20FEF773FFBDE808403A20EE
:10329000FEF762BF3038024010B5B2B01422374991
:1032A0006846FDF71CF80021684601F080FB344CAD
:1032B000324914222060143105A8FDF710F80021CE
:1032C00005A801F074FB2D496060142228310AA87A
:1032D000FDF705F800210AA801F069FB2749A06065
:1032E00014223C310FA8FCF7FAFF00210FA801F0CF
:1032F0005EFB2249E0601422503114A8FCF7EFFF76
:10330000002114A801F053FB1C49206114226431F0
:1033100019A8FCF7E4FF002119A801F048FB1749A0
:103320006061142278311EA8FCF7D9FF00211EA885
:1033300001F03DFB1149A06114228C3123A8FCF758
:10334000CEFF002123A801F032FB0C49E0611422DA
:10335000A03128A8FCF7C3FF002128A801F027FB13
:10336000064920621422B4312DA8FCF7B8FF0021D1
:103370002DA801F01CFB606232B010BD345A000869
:103380000000002030B5454887B00025016841F0B5
:1033900020010160016801F020010591016841F000
:1033A00080010160016801F080010591016841F030
:1033B00004010160016801F004010591016841F018
:1033C00001010160016801F001010591016841F00E
:1033D00002010160016801F002010591016841F0FC
:1033E00010010160016801F010010591016841F0D0
:1033F00008010160016801F008010591016841F0D0
:10340000400101600068012400F04000059041F691
:103410007F00CDE9000469462148CDE90245FEF769
:1034200015FD44F20700CDE9000469461D480294E9
:10343000FEF70CFD4FF44040CDE9000469461A4800
:103440000294FEF703FD0620CDE9000569460294CB
:103450001648FEF7FBFC6020CDE9000569460294A2
:103460001348FEF7F3FC002205210720FEF780FE3B
:103470000720FEF771FE002205210820FEF778FEE6
:103480000820FEF769FE002205211720FEF770FED6
:103490001720FEF761FE07B030BD00003038024053
:1034A00000140240000402400010024000080240E4
:1034B0000000024010B5164886B04FF08041016010
:1034C00053210024C0E901140121C0E90314FFF7CE
:1034D00069F918B149210FA001F074F94FF4805037
:1034E000009069460A48FFF7C1F918B14F2109A0B9
:1034F00001F068F9049404A905480594FFF72AF936
:10350000002803D0562103A001F05CF906B010BDDD
:10351000440A00202E2E2F5372632F74696D2E6380
:103520000000000010B5164886B014490024C0E918
:1035300000148460C4600461FFF734F918B1752188
:1035400010A001F03FF94FF48050009069460C48FC
:10355000FFF78CF918B17B210AA001F033F904942C
:1035600004A907480594FFF7F5F8002803D0822145
:1035700004A001F027F906B010BD000000080040CB
:10358000800A00202E2E2F5372632F74696D2E63D4
:10359000000000000D4810B50B4901604FF4E13107
:1035A0004160002181600C22C160C0E90412816188
:1035B000C161FFF7A1FA002805D0BDE810408521C0
:1035C00003A001F0FFB810BD004C004084060020AD
:1035D0002E2E2F5372632F75736172742E63000049
:1035E0000D4810B50B4901604FF4E13141600021F5
:1035F00081600C22C160C0E904128161C161FFF7E2
:103600007BFA002805D0BDE81040972103A001F007
:10361000D9B810BD00500040C40600202E2E2F53F4
:1036200072632F75736172742E6300000D4810B5BC
:103630000B4901604FF4E1314160002181600C22AF
:10364000C160C0E904128161C161FFF755FA002829
:1036500005D0BDE81040AA2103A001F0B3B810BD09
:1036600000100140040700202E2E2F5372632F7587
:10367000736172742E6300000D4810B50B49016030
:103680004FF4E1314160002181600C22C160C0E94A
:1036900004128161C161FFF72FFA002805D0BDE84F
:1036A0001040BD2103A001F08DB810BD00440040C2
:1036B000440700202E2E2F5372632F75736172748E
:1036C0002E6300000D4810B50B4901604FF4E13145
:1036D0004160002181600C22C160C0E90412816157
:1036E000C161FFF709FA002805D0BDE81040D021DC
:1036F00003A001F067B810BD004800408407002017
:103700002E2E2F5372632F75736172742E63000017
:103710000D4810B50B4901604FF4E13141600021C3
:1037200081600C22C160C0E904128161C161FFF7B0
:10373000E3F9002805D0BDE81040E32103A001F023
:1037400041B810BD00140140C40700202E2E2F5395
:1037500072632F75736172742E630000FEE70000C0
:103760000F4908B5002088718880488000F040F833
:1037700002F094F84FF0FF340090052000F088FA32
:103780002146012001F040FD012804D1FDF7B8FBDE
:103790000448FCF7E7FF0221684601F0F2F8ECE785
:1037A00094000020F80A00200F4908B50020887115
:1037B0008880488000F01CF802F070F84FF0FF3469
:1037C0000090062000F064FA2146012001F01CFD63
:1037D000012804D1FDF7ACFB0448FCF7EBFF022104
:1037E000684601F0CEF8ECE79C000020F80A0020C3
:1037F00070B541F288342DED028B41F270759FED6A
:103800000F8AB7EE001AB7EE000AF0EE480A234618
:103810002A4603210A4800F055F9F0EE480ABDECAB
:10382000028B23462A46BDE8704005480321B7EEC7
:10383000001AB7EE000A803000F044B90AD7233CE2
:103840000405002070B56348634A418AC80607D55D
:103850004FF4FA7090804342D380108153810BE083
:1038600040F6B83090804FF24840D0804FF4FA6074
:1038700010814FF6300050815848594B594C90ED0B
:10388000000ACD07B3EE0E2ADFED571ADFED570A17
:1038900002D030EE420A20E08D0702D530EE020A57
:1038A0001BE010EE105A9D4205D210EE105AA542B0
:1038B00001DAC0ED001A90ED000AB5EEC00AF1EE93
:1038C00010FA03DD30EE600A80ED000AB5EEC00AA2
:1038D000F1EE10FA03D230EE200A80ED000A3F4EDE
:1038E000B3EE0E1A957896ED010A30EE013A70EEBD
:1038F000412A25B10D074CD5C0ED012A44E0374ED1
:103900004D0796ED021A02D531EE421A20E00D075E
:1039100002D531EE021A1BE011EE105A9D4205D27B
:1039200011EE105AA54201DAC0ED021A90ED021A0A
:10393000B5EEC01AF1EE10FA03DD31EE601A80ED3B
:10394000021AB5EEC01AF1EE10FA03D231EE201AC7
:1039500080ED021A4D061ED40D06CDD41EE000BF28
:1039600090ED010AB5EEC00AF1EE10FA03DD30EE7B
:10397000600A80ED010AB5EEC00AF1EE10FA03D23A
:1039800030EE200A80ED010A080412D501201070E3
:1039900016E04D0702D580ED013AF5E710EE105A1A
:1039A0009D42DDD210EE103AA342D9DAC0ED011AE1
:1039B000D6E7480401D5002009E01078002807D098
:1039C000080505D5880601D5032000E00220107007
:1039D00070BD00003A0F002042000020540100207A
:1039E000000096C3000096430000000000009643CC
:1039F000012908D0022905D100219FED040BC160E7
:103A000080ED040B70471821FCF782BC0000000019
:103A10000000000010B50446FEF7FAFA2060616865
:103A200001B1411AC4E90101E068DFED080A084468
:103A300000EE100AE060B8EEC00A20EE200A10EE98
:103A4000100AFCF770FCC4E9040110BD6F12833A40
:103A500070470907090E002806DA00F00F0000F190
:103A6000E02080F8141D704700F1E02080F8001479
:103A70007047000070B50024FEF7CAFA00EE100A85
:103A80000E4B0F4DB8EE400AA3F114015FF0010098
:103A900003EB8402D2ED000A70EE600A10EE902A69
:103AA000AA420A8A00FA04F601DD324300E0B2437A
:103AB000641C24B20A82092CEADB70BDA00F00202E
:103AC0000000C84230B4034C8467034CC46730BC68
:103AD00001F066B8A14B0008AF4B000808B56420A0
:103AE00000F048FF01F0DAFEDFF864814FF0FF39A3
:103AF0000090042000F0CCF84946012001F084FB3E
:103B000001287DD1534E0025534F92E0705DA528CA
:103B10004CD174192046B4F80110093101F0CAFDE6
:103B2000002843D00521204601F0E2FDF0B3B4F8AF
:103B30000500A0F5007101391DD1E17988F8001068
:103B4000217A88F80110B4F80910A8F80210B4F826
:103B50000B10A8F80410B4F80D10A8F80810B4F869
:103B60000F10A8F80C10B4F81110A8F80A10B4F847
:103B70001310A8F80E10B4F80500A0F50071023972
:103B800019D1B4F81110A8F81010B4F81310A8F84F
:103B90001210B4F80910A8F83210D4F80B10C8F8B5
:103BA0003410B4F80F10A8F8381000E03FE0B4F873
:103BB0000710A8F83010B4F80500A0F5007103391B
:103BC0000FD1D4F80710C8F82010D4F80B10C8F89B
:103BD0002410D4F80F10C8F82810D4F81310C8F81F
:103BE0002C10B4F80500B0F5017F02D1E17988F816
:103BF0000610B4F80500A0F50071073915D100E0F2
:103C00001BE0E079012806D1217A88F81410D4F855
:103C10000910C8F81810E079022806D1217A88F82E
:103C20001510D4F80910C8F81C102D1D6DB26D1CAC
:103C30006DB238888542FFF669AF0848FCF7E8FDA9
:103C40000648FCF711FE0A21684600F09AFE50E78C
:103C5000500F0020D50E002084000020F80A00201C
:103C600010B50446FEF7D4F900EE100A0348B8EE8A
:103C7000400A00EB840080ED000A10BDA00F002078
:103C800002488168491C8160704700008C0F002049
:103C900010B50446FEF7BCF900EE100A0348B8EE72
:103CA000400A00EB840080ED000A10BDC40F002024
:103CB00010B527482DED028BFFF7ACFE254C2649A9
:103CC000234894ED020A9FED251A10EE102ADFED2D
:103CD000240A8A420DDDD0ED021A30EE412AF8EEB8
:103CE000E11A22EE212AD4ED041A42EE601AC4ED44
:103CF000041A10EE102A9FED1B8A8A420DDA30EE6C
:103D0000411A90ED020AB8EEC00A21EE001AB0EE98
:103D1000480A01EE600A84ED040A02210C48FFF70C
:103D200067FE94ED040AB5EEC00AF1EE10FA06D86B
:103D30009FED0D0A84ED040ABDEC028B10BD10EE60
:103D4000100A0A498842F7DB84ED048AF4E7000090
:103D500068100020A80000200000A0420000A0423F
:103D60000AD7233C000070420000000000007042AF
:103D70002DED028B82B001F091FDB3EE041ADFED60
:103D8000580A0090B1EE000A4FF47A7342F21072B2
:103D900003215448FFF796FE9FED538ADFED538AC7
:103DA000534E544C544FDFF83C81544DDFF8509142
:103DB0000820B0EE481AF0EE680AB7EE080A01F0E3
:103DC000F3F90220FFF764FF707A012804D002287B
:103DD00007D0032805D102E0FCF792FD01E0FFF7D0
:103DE00031FDB5F90600D4ED011A00EE100AB8EE67
:103DF000C00AF4EEC01AF1EE10FA02D800EE100A72
:103E00000CE0B5F9041000EE101AB8EEC00AF4EE9A
:103E1000C01AF1EE10FA05DB00EE101AB8EEC00A77
:103E200084ED010A00EE100AD4ED001AB8EEC00AC3
:103E3000F4EEC01AF1EE10FA0AD9B5F9040000EE5A
:103E4000100AB8EEC00AF4EEC01AF1EE10FA05DB63
:103E500000EE100AB8EEC00A84ED000AB5F90A00B7
:103E600094ED020A01EE900AF8EEE10AB4EEE00ADF
:103E7000F1EE10FA0AD9B5F9080001EE900AF8EE51
:103E8000E10AB4EEE00AF1EE10FA05DB00EE100AEA
:103E9000B8EEC00A84ED020A387808B140F6B830AE
:103EA000B9F9001000EE900A00EE101A0D48F8EE75
:103EB000E00AB8EEC00A00F091FD98ED140ABDEEDC
:103EC000C00A10EE100A01B20E4800F0CFF8687870
:103ED0000521401C6870684600F053FD68E700004B
:103EE0000AD7233C040600209A99D93FCDCCCC3F79
:103EF0003A0F00205401002054000020420000200E
:103F0000AC0D0020F80A002070B588B014460D46AC
:103F100006461C2216496846FCF7E1F9002D24D01C
:103F2000132C22D1ADF80560ADF8014000208DF8CA
:103F300003000DF1070100BF401C15F8012BC0B2B2
:103F400001F8012BA042F7D30521684600F076FC6A
:103F50000934E1B2684600F05BFCADF81A00642356
:103F60001C2269460348FEF7EFFF08B070BD000051
:103F7000FC5D000884070020012000F0FBFCFBE74B
:103F800008B5642000F0F6FC01F088FC4FF4004511
:103F9000324FDFF8CC90334CDFF8CCB06E104FF4DA
:103FA00080584FF4006A0090208AC10705D081072D
:103FB00003D5410701D5000704D431465846FEF722
:103FC0001DF804E0012231465846FEF71BF8207C1C
:103FD000C00604D429463846FEF710F804E0012252
:103FE00029463846FEF70EF8207C800604D4314678
:103FF0003846FEF703F804E0012231463846FEF762
:1040000001F8207C400604D441464846FDF7F6FFFF
:1040100004E0012241464846FDF7F4FF207C0006FB
:1040200004D451464846FDF7E9FF04E00122514619
:104030004846FDF7E7FF208AC00504D4042158460E
:10404000FDF7DCFF04E0012204215846FDF7DAFF0A
:104050004FF49671684600F094FCA5E7001002400A
:10406000001402408C0F00200004024030B40C4BBE
:1040700008224FF400741A6100229A601C60DA6012
:10408000084B0C0A1A705A709C70D9701A715A71C8
:104090009A71DA7130BC0123024A0149FDF736B941
:1040A000B40E00205C00002000F077BC30B525483D
:1040B00093B00025016841F080510160006800F074
:1040C000805011902048016841F4804101600068EF
:1040D000022400F48040119001200090000401901F
:1040E0008001CDE90640182008904FF4A870CDE972
:1040F000090404200B906846FEF77CF900B1FEE746
:104100000CA90F2081E831004FF4A0500F904FF41C
:104110008050109005210CA8FEF75CF800B1FEE776
:10412000FEF710F94FF47A71B0FBF1F0FEF7FCFAEC
:104130000420FEF7EDFA00220F21501EFEF718F8BA
:1041400013B030BD40380240007000401048016894
:1041500041F4700101600F48016841F00101016004
:104160000C4A00210832116002680B4B1A400260B1
:10417000031D0A4A1A60026822F480220260054880
:104180000C30016002495806803908607047000011
:1041900088ED00E000380240FFFFF6FE10300024FA
:1041A00070B50024FDF734FF00EE100A0E4B0F4DE2
:1041B000B8EE400AA3F138015FF0010003EB84027E
:1041C000D2ED000A70EE600A10EE902AAA424A8AE6
:1041D00000FA04F601DD324300E0B243641C24B26D
:1041E0004A82072CEADB70BDC40F00200000C842E1
:1041F0000148FEF7B5BB0000800C00200148FEF727
:10420000AFBB0000440A00200148FEF7A9BB000034
:10421000BC0A0020F0B50268234B244D244E254FE4
:10422000254C4FF0804C984209D0604507D0A842F9
:1042300005D0B04203D0B84201D0A04204D122F050
:10424000700E4A6842EA0E0298421BD0604519D0AF
:10425000A84217D0B04215D0B84213D0A04211D016
:10426000164DA8420ED0164DA8420BD0154DA842AF
:1042700008D0154DA84205D0144DA84202D0144DC7
:10428000A84203D122F44075CA682A4302608A68B2
:10429000C2620A688262984201D0A04201D10969D3
:1042A000016301214161F0BD0000014000040040B4
:1042B00000080040000C00400004014000400140A4
:1042C000004401400048014000180040001C00402C
:1042D0000020004010B5846842EA032224F47F44A1
:1042E0000A432243826010BD826822F070020A43B2
:1042F00042F007018160704710B5036A046A24F038
:1043000001040462846924F0F00444EA021423F0F6
:104310000A020A438461026210BD10B5036A23F0E9
:10432000100303628369046A23F4704343EA023290
:1043300024F0A00343EA01118261016210BD70B54F
:10434000846B2068406994F83910C0F3C0100025D0
:10435000212904D118B1E584204600F046F82068F0
:10436000406994F83A10C0F38010222904D118B1A2
:10437000E585204600F02BF8E06B40F01000E0638C
:104380002046FEF7B8FB70BD10B50146806B09688A
:104390000968C90513D40021C1850168CA6822F4DF
:1043A0008072CA6001684A6922F001024A610168AC
:1043B0004A6922F040024A61202180F83A10FEF753
:1043C000C1FD10BD10B5806BFEF7BDFD10BD0168CD
:1043D000CA6822F49072CA6001684A6922F0010238
:1043E0004A61202180F83A1070470168CA6822F0BB
:1043F000C002CA60202180F8391070472DE9F041D1
:1044000004460068016921F44052E16811430161EA
:104410002168C86849F20C6290432369A268E56983
:104420001A4363692B431A430243CA6021684869EF
:1044300020F44072A06910434861E1696425B1F538
:10444000004F9748974A21684FF032083FD0914279
:1044500001D081427CD1FDF78BFF00EBC00101EB65
:10446000001061688900B0FBF1F6FDF781FF00EBF9
:10447000C00101EB001061688900B0FBF1F0B0FBF6
:10448000F5F06FF01801484306EB800108EB0110CE
:10449000B0FBF5F000F0F006FDF76AFF00EBC0019D
:1044A00001EB001061688900B0FBF1F0B0FBF5F0A2
:1044B00006EB0016FDF75CFF00EBC00101EB0010FE
:1044C00061688900B0FBF1F7FDF752FFD2E091423D
:1044D00001D081423DD1FDF74BFF00EBC00101EB64
:1044E000001061684900B0FBF1F0B0FBF5F0060187
:1044F000FDF73EFF00EBC00101EB001061684900D1
:10450000B0FBF1F7FDF734FF00EBC00101EB001049
:1045100061684900B0FBF1F0B0FBF5F06FF01801F5
:10452000484307EB800108EBC100B0FBF5F000F059
:10453000F80006EB4006FDF71BFF00EBC00101EBA6
:10454000001061684900B0FBF1F7FDF711FF3CE096
:1045500055E0FDF7FDFE00EBC00101EB00106168C6
:104560004900B0FBF1F0B0FBF5F00601FDF7F0FEFD
:1045700000EBC00101EB001061684900B0FBF1F7EE
:10458000FDF7E6FE00EBC00101EB00106168490099
:10459000B0FBF1F0B0FBF5F06FF01801484307EB0A
:1045A000800108EBC100B0FBF5F000F0F80006EB6D
:1045B0004006FDF7CDFE00EBC00101EB0010616885
:1045C0004900B0FBF1F7FDF7C3FE00EBC00101EBC2
:1045D000001061684900B0FBF1F0B0FBF5F06FF03E
:1045E0001801484307EB800108EBC100B0FBF5F070
:1045F00000F00700216830448860BDE8F081FDF7D5
:10460000A7FE00EBC00101EB001061688900B0FB60
:10461000F1F6FDF79DFE00EBC00101EB00106168B3
:104620008900B0FBF1F0B0FBF5F06FF018014843E2
:1046300006EB800108EB0110B0FBF5F000F0F0068E
:10464000FDF786FE00EBC00101EB001061688900F8
:10465000B0FBF1F0B0FBF5F006EB0016FDF778FECD
:1046600000EBC00101EB001061688900B0FBF1F7BD
:10467000FDF76EFE00EBC00101EB001061688900E0
:10468000B0FBF1F0B0FBF5F06FF01801484307EB19
:10469000800108EB0110B0FBF5F000F00F00A9E776
:1046A00000140140001001402DE9F04198461746E2
:1046B0000E460446069D1DE0681C1BD02DB1FDF77B
:1046C000A7FCA0EB0800A84214D92068C16821F417
:1046D000D071C1602068416921F001014161202051
:1046E00084F8390084F83A00002084F83800032068
:1046F000BDE8F0812068006836EA000004D00020A0
:10470000B842D9D00020F3E70120F9E738B51C4CB6
:1047100021680868C968C0F3001001F01001002882
:104720002DD000292BD00620FFF79AFA15480168F2
:104730000A6822F001020A6021680A68496800914B
:1047400001684A68104BC2F164021A8064224A6010
:104750000068016841F0010101600D480B490068E3
:1047600000F0E2FE0948001F4068002807D0094910
:104770004FF080500860BFF34F8FBFF36F8F38BD8D
:104780008407002064080020840000202C00002002
:104790001C00002004ED00E0FEE700009FED080A89
:1047A0005FF0000100EB8102491CD2ED010AC9B2A1
:1047B000C2ED000A30EE800A0A29F3D370470000E8
:1047C00000000000FEE702E008C8121F08C1002A2E
:1047D000FAD170477047002001E001C1121F002A82
:1047E000FBD17047D0ED000AF4EEC00AF1EE10FAEA
:1047F00001DD80ED000AD0ED000AB1EE400AF4EED2
:10480000C00AF1EE10FA01D280ED000A70470000F4
:1048100030B50C46050001D0022C01D8002030BD77
:104820000548A11E0288284600F01AF82919020A34
:1048300001F8020D4A7030BDA400002030B50C46CE
:10484000050001D0022C01D8002030BD601E81B2CD
:10485000FF22284600F01AF8291901F8010C30BD92
:1048600010B558B1084C491E0BD310F8013B53400A
:10487000DBB234F8133083EA1222F4E74FF6FF700C
:1048800010BD104610BD0000FC5B000810B5064CC2
:1048900004E000BF10F8013B5340E25C491E89B2BE
:1048A000F8D2104610BD0000FC5A000810B5104A9E
:1048B00003894381118849BA01815488CB1A64BAAB
:1048C00004809488B3F5805F64BA448092798271E1
:1048D000026901DD521E03E013F5805F01DA521C0C
:1048E000026101EB42318289891A416110BD0000E9
:1048F000380000200249098849BA01818181704746
:104900003800002005489FED040A80ED010A80ED83
:10491000000A80ED020A70470000000054010020E8
:10492000FDF784FBFFF7C2FB00F0F6FCFBF748FE47
:10493000FEF7B2FC00F010FD00F02AF8FEE7014699
:104940000020842900D0C81C704770EEC01A30EED9
:10495000200A31EE812A71EE400A30EE010A80ED24
:10496000002AC0ED010A71EE610AC0ED020A80ED75
:10497000030A704710B500B9012000F069FD00205E
:1049800010BD10B501B9012100F088FD002010BD57
:1049900010B500F025FE002010BD10B500F070FF2E
:1049A000012803D0BDE8104000F028BF10BD3EB57F
:1049B00004460D46B0F90800FFF7C1FF02A9CDE992
:1049C0000001208A2B4682B2D4E9001000F02CFFAF
:1049D000012801D000203EBD02983EBD00B530EE5A
:1049E000C01A80ED080AC0ED050A80ED0B1AD0ED63
:1049F000191A01469FED692A30EEC00AF5EEC01A79
:104A0000B1EE400AF1EE10FA0ED0B5EEC01AF1EE9A
:104A100010FA02DDF0EE410A01E0F0EE400AF4EE99
:104A2000E10AF1EE10FA12DCD1ED1A0AF5EEC00A35
:104A3000F1EE10FA0ED0B5EEC01AF1EE10FA01DD6B
:104A4000B0EE410AB4EEE00AF1EE10FA02D2B0EE96
:104A5000420A00BDC86E01F13402032802D00428C6
:104A600038D07AE091ED000A104620EE010A81ED7F
:104A70000C0A91ED0D0AD1ED010A00EE810A81EDDB
:104A80000D0A91ED0A0AD1ED020A31EE400A20EE3C
:104A9000200A81ED0E0A91ED1D0AB8EE400AFFF7DB
:104AA000A1FE91ED0C0AD1ED0D0A01F1500030EE9E
:104AB000200AD1ED0E0A30EE200A81ED140A91EDA4
:104AC0001C0AB8EE400AFFF78DFE91ED140A81ED45
:104AD000150A42E091ED0A0AD1ED001A104671EE76
:104AE000400A60EEA10AC1ED0C0AD1ED010A60EEA8
:104AF000810AC1ED0D0AF0EE000A00EE601A91ED98
:104B0000090AD1ED020A31EE000A20EE200A81EDF9
:104B10000E0A91ED1D0AB8EE400AFFF763FE91ED13
:104B20000C0AD1ED0D0A01F15C0030EE200AD1ED46
:104B30000E0A30EE200A81ED160AD1ED180A30EE89
:104B4000800A81ED170A91ED1C0AB8EE400AFFF7C2
:104B500049FE91ED170A81ED180A91ED0A0A81EDDF
:104B6000090A91ED0B0A81ED0A0A91ED070A81ED20
:104B7000060A91ED080A81ED070A91ED040A81ED1C
:104B8000030A91ED050A81ED040AC86E032802D0DC
:104B900091ED170A00BD91ED140A00BD0000000060
:104BA00000F16C0C8CE80E0080EC030A704780EC7E
:104BB000030A704770B504462DED028B90ED000A94
:104BC000B5EEC00AF1EE10FA01DCB1EE400AD4ED08
:104BD000010AF5EEC00AF1EE10FA01DCF1EE600A0E
:104BE00070EE200A94ED020AB5EEC00AF1EE10FA5A
:104BF00001DCB1EE400A70EE800A94ED030AB5EED6
:104C0000C00AF1EE10FA01DCB1EE400A30EE808A03
:104C1000FCF71CF94B4D4C4E95ED000AB5EEC00A61
:104C2000F1EE10FA04D0D6ED0D0A20EE800A05E070
:104C300096ED0D0AF3EE070A20EE200A85ED020A32
:104C4000FFF736F895ED040AD5ED020A9FED3F1AFD
:104C50003F4900EEC10A10EE100A884269DA3A486C
:104C60004830FEF7D7FE96ED0F0A3748D5ED040A17
:104C7000B5EEC00A4830F1EE10FA01D1B3EE080AE1
:104C80009FED341A60EE810A80EE801A9FED320AA1
:104C900031EE000A9FED311B85ED070A90ED040B04
:104CA00053EC112B51EC100BFBF750FB03D8B6EE75
:104CB0000E0A85ED070AD5ED070AF5EEC00AF1EEFA
:104CC00010FA33D0B7EE000A94ED001A38EE000A5D
:104CD000C1EE001A21EEA01ADFED220A21EE201A01
:104CE00084ED001AD4ED011A81EE801AD5ED071A71
:104CF00021EE211A21EE201A84ED011AD4ED021AB8
:104D000081EE801AD5ED071A21EE211A21EE201A24
:104D100084ED021A94ED031AC1EE001A95ED070A0C
:104D200021EE800A20EE200A84ED030ABDEC028BFE
:104D300070BDBDEC028B0221BDE8704002484830D6
:104D4000FEF756BEA800002008100020B81E853EC1
:104D5000000020419A99193ECDCCCC3D000000A026
:104D60009999B93F00803B452DE9F041184C0F4619
:104D70000546E6682068001D00F07AFA38B9206818
:104D800090F82C1001208840216981432161681C22
:104D900007D137B12168BDE8F0410E48091D00F088
:104DA0009FBA20683544B5424560216805D2A06BA2
:104DB000BDE8F041091D00F07BBA606B091D00F0F1
:104DC00077FAA06A854200D2A562BDE8F0810000B2
:104DD000FC0000205C4D00202DE9F041054600F06C
:104DE0009BFA2E4CA068401CA06020682C4F10B18C
:104DF000606940B32DE02560A068012829D1002614
:104E000006EB860007EB800000F044FA761C072EC4
:104E1000F6D323488C3000F03DFA2148A03000F052
:104E200039FA1F48B43000F035FA1D48C83000F098
:104E300031FA1B48DC3000F02DFA19488C306063E1
:104E40001430A06305E02068E96AC06A884200D88F
:104E50002560606A401C6062E96A0120226988401E
:104E60001043206101EB810007EB8000291D00F059
:104E700037FA00F071FA606900280CD02068E96AFE
:104E8000C06A884207D207494FF080500860BFF3DC
:104E90004F8FBFF36F8FBDE8F0810000FC00002052
:104EA000804C002004ED00E070B5114E114C17E06D
:104EB00000F0CAFB3068B8B100F05AFD00F02CFADF
:104EC000F068C568281D00F0D3F9A068401EA060F6
:104ED0006068401E606000F03FFA284600F00CF861
:104EE00060680028E4D170BD00F042FDF8E70000E2
:104EF000484D0020FC00002010B50446006B00F077
:104F00003FFA2046BDE8104000F03ABA10484FF48E
:104F10007051420706D0C01D0D4920F00700411A0C
:104F2000C1F570510B4A00230144C2E9000308395E
:104F3000103A21F0070111604B600B600B1AC0E9B9
:104F4000001393604FF000405360D0607047000042
:104F500080100020E8000020074C4FF08056074DDD
:104F6000FFF7A2FF20680128FAD92E60BFF34F8F08
:104F7000BFF36F8FF4E70000804C002004ED00E0E9
:104F80002DE9F0479A46DDE9098481466FF0030375
:104F9000206B03EB82021044089D20F00706700787
:104FA00007D0502080F31188BFF34F8FBFF36F8F6E
:104FB000FEE723180A5C83F834200A5C12B1401C17
:104FC0001028F6D3002784F84370072D00D3062558
:104FD000E562C4E91157201D00F067F904F11800DB
:104FE00000F063F92461C5F107006462A061E76421
:104FF00084F8507052464946304600F0BFF82060B1
:10500000B8F1000F01D0C8F80040BDE8F0870000FB
:1050100030B5114900E011460A688242FBD34B6863
:105020005C18844203D140681844486008464368CD
:105030001C18944209D1084C103C2468A24209D0A3
:1050400052681A4442600A6812680260814200D0C5
:10505000086030BD0460F9E7E80000200648416BB5
:10506000096829B1416BC968C9684968816270479C
:105070004FF0FF31FAE70000FC00002008484068CC
:10508000401C4FF0500080F3118804D0BFF34F8FC5
:10509000BFF36F8FFEE7BFF34F8FBFF36F8FFEE756
:1050A000F00000202DE9F0410546002700F0CCFA81
:1050B000314E306808B9FFF729FFF06805424BD13F
:1050C000C5B3083568070ED005F00700C0F1080029
:1050D0000544680707D0502080F31188BFF34F8F35
:1050E000BFF36F8FFEE72DB37068854234D8224836
:1050F000103001460C6801E020460C466168A94268
:1051000002D221680029F7D131688C4224D0076887
:105110002168016060680837411B10290FD96019A8
:10512000420708D0502080F31188BFF34F8FBFF3A0
:105130006F8FFEE710E041606560FFF769FF61680F
:105140007068401A7060B268904200D2B060F06837
:1051500001430020C4E9000100F00AFC780707D0F1
:10516000502080F31188BFF34F8FBFF36F8FFEE79E
:105170003846BDE8F0810000D800002010B5031FBC
:105180004FF080741C601B1F21F001011960191F72
:10519000044B0B6014390A60091F6FF00202443897
:1051A0000A6010BD7D50000800B585B04DF280103A
:1051B000ADF800000120ADF8020040F20110ADF89A
:1051C00004000020CDF806004FF08041CDF80A1011
:1051D000CDF80E108DF812001322694640F201300E
:1051E000FEF792FE05B000BD08B5C820FFF7C2FB70
:1051F00000F054FB00900020FEF74AFD3221684683
:10520000FFF7BFFBF7E7000070B50C46064600F05D
:1052100083F8154D2868C06C80B92968012081F891
:1052200050005CB101212046FFF79EFD0F494FF071
:1052300080500860BFF34F8FBFF36F8F00F08CF882
:1052400000F06AF82868C46C002034B116B12968EF
:10525000C86402E02A68611ED164296881F85000A0
:1052600000F07AF8204670BDFC00002004ED00E05C
:10527000D0E9013201699A60D0E901235A604A6895
:10528000824201D182684A60002202610868401EA1
:105290000860704700F108014FF0FF32C0E90112C9
:1052A000C160016100210160704700210161704708
:1052B00030B50B685A1C02D000F1080202E0026906
:1052C00004E02246546825689D42FAD953684B6031
:1052D00099608A60516008610168491C016030BDB5
:1052E00042684A6093688B60936859609160086176
:1052F0000168491C0160704708B500F0CFFA0090C2
:105300000320FEF7C5FCFEF74BFFFEF7B3FB1421AD
:105310006846FFF736FBF3E7502080F31188BFF3B0
:105320004F8FBFF36F8F0A494868401C48600128BF
:105330000CD10848006810F0FF0F07D0502080F310
:105340001188BFF34F8FBFF36F8FFEE770470000E8
:10535000F000002004ED00E00849486828B1401E34
:10536000486001D180F311887047502080F3118884
:10537000BFF34F8FBFF36F8FFEE70000F0000020F8
:1053800070B5002827D0144DA0F108046168E868C2
:10539000014207D1502080F31188BFF34F8FBFF334
:1053A0006F8FFEE722683AB1502080F31188BFF377
:1053B0004F8FBFF36F8FFEE78143616000F044F9C8
:1053C00060686968084468602046FFF721FEBDE810
:1053D000704000F0CDBA70BDD800002006484FF4F0
:1053E0007A710068B0FBF1F14FF0E020491E416195
:1053F0000721016170470000D400002010B5FAF7C2
:1054000027FF114910280ED300F1E02090F8F00397
:105410000A78904207D2502080F31188BFF34F8F53
:10542000BFF36F8FFEE709480068896800F4E06009
:10543000884207D9502080F31188BFF34F8FBFF304
:105440006F8FFEE710BD0000F00000200CED00E0C3
:1054500010B5020014D00F48006B38B1502080F313
:105460001188BFF34F8FBFF36F8FFEE700F0ECF8AA
:1054700000211046FFF778FC00F07AFA002807D1E7
:1054800005494FF080500860BFF34F8FBFF36F8F17
:1054900010BD0000FC00002004ED00E070B50D46DA
:1054A00004000BD095B11E4A106BB8B1502080F3A8
:1054B0001188BFF34F8FBFF36F8FFEE7502080F34B
:1054C0001188BFF34F8FBFF36F8FFEE7502080F33B
:1054D0001188BFF34F8FBFF36F8FFEE700F0B4F872
:1054E000D26823685919934204D98B420AD9914250
:1054F00002D807E08B42FAD9881A21600021FFF711
:1055000033FC00E0216000F033FA002807D10549A0
:105510004FF080500860BFF34F8FBFF36F8F70BDA7
:10552000FC00002004ED00E02DE9F0418846040075
:1055300015D0FFF763FF5020EFF3118680F3118839
:10554000BFF34F8FBFF36F8F94F85000022184F8A0
:105550005010E16C491CE164012808D037E050206C
:1055600080F31188BFF34F8FBFF36F8FFEE7A06A00
:1055700038B1502080F31188BFF34F8FBFF36F8F86
:10558000FEE7154D286B012778B104F11801134887
:10559000FFF7A6FEE06A2968C96A884217D9B8F100
:1055A000000F13D0C8F8007011E0201DFFF760FE57
:1055B000E16A2A6907FA01F01043286101EB8100D2
:1055C0000649B43901EB8000211DE1E7EF6186F364
:1055D0001188BDE8F0810000FC000020344D00205F
:1055E0001CB515480024CDE900402346802213A1B4
:1055F000144800F019F9012809D0401C1AD1502094
:1056000080F31188BFF34F8FBFF36F8FFEE75020F9
:1056100080F31188BFF34F8FBFF36F8F06484FF0B1
:10562000FF312C38816201214161C460BDE81C401A
:1056300000F074B81CBD00002801002049444C450E
:1056400000000000594F00080248016B491C01632B
:1056500070470000FC0000201448016B11B10121CB
:10566000C16170470021C1610169B1FA81F1C1F1E5
:105670001F0101EB81020E4951F822306BB101EBA1
:10568000820101F108034A6852684A609A4201D1D6
:1056900052684A60D16801607047502080F31188D9
:1056A000BFF34F8FBFF36F8FFEE70000FC000020B9
:1056B000804C002030B50C46050014D0022C12D9C5
:1056C0000A48A11E02882846FFF7CAF82919C2B263
:1056D00011F8023C9A4206D111F8011CB1EB102FCF
:1056E00001D1012030BD002030BD0000A400002009
:1056F00030B50C4605000ED0022C0CD9601E81B2CC
:10570000FF222846FFF7C2F8291911F8011C81422F
:1057100001D1012030BD002030BD00001CB5324851
:105720000168324A914207D1502080F31188BFF3BB
:105730004F8FBFF36F8FFEE700682C49491E8842E8
:1057400007D1502080F31188BFF34F8FBFF36F8FC5
:10575000FEE7274908780190FF20087008788DF847
:1057600000009DF800009DF8002000F0F00090423D
:1057700007D0502080F31188BFF34F8FBFF36F8F96
:10578000FEE79DF800001B4A00F050001070072053
:10579000906005E09DF800305B008DF80030401E01
:1057A0009DF800301B06F5D4000200F4E060906024
:1057B000019808700C482030016841F470010160C4
:1057C000016841F070410160FFF708FE0020506061
:1057D000FAF704FD0848016841F040410160FAF71A
:1057E000EDFC00201CBD000000ED00E071C20F4187
:1057F00000E400E0F000002034EF00E010B550209D
:1058000080F31188BFF34F8FBFF36F8F00F04CF818
:1058100018B104494FF080500860002080F31188CF
:1058200010BD000004ED00E02DE9FF5F8346DDE9D7
:105830000E87994616468A469000FFF733FC05000E
:105840001AD05420FFF72EFC040012D0256300214B
:10585000CDE90241CDE900874B46324651465846D4
:10586000FFF78EFB2046FFF7B7FA012004B0BDE832
:10587000F09F2846FFF784FD4FF0FF30F6E7000069
:105880000548416919B1006B18B10020704701202B
:105890007047022070470000FC0000200148C068EB
:1058A00070470000FC0000202DE9F0412E4C00273D
:1058B000206B40B1A069401CA061E06900B10127E4
:1058C0003846BDE8F081E668761CE66013D1606B6F
:1058D000006838B1502080F31188BFF34F8FBFF3B9
:1058E0006F8FFEE7606BA16B6163A063206A401C51
:1058F0002062FFF7B3FBA06ADFF87080864209D30D
:10590000606B006880B1606BC068C568686886427B
:105910000DD2A0622068C06A00EB800158F8210017
:105920000128CAD90127C8E74FF0FF30F1E7281D49
:10593000FFF79EFCA86A18B105F11800FFF798FC64
:10594000E86A0121226981401143216100EB800155
:1059500008EB8100291DFFF7C3FCE86A2168C96ACA
:105960008842CDD30127CBE7FC000020804C0020EB
:105970002DE9F0472C4D00242746286B38B1FFF75E
:10598000CBFC286B401E2863286B40B146E05020BA
:1059900080F31188BFF34F8FBFF36F8FFEE7A968C5
:1059A000224E0120D1B3A6F1B40980463068E8B197
:1059B000F068C46804F11800FFF75AFC201DFFF7D7
:1059C00057FCE06A2A6908FA00F11143296100EBEB
:1059D000800109EB8100211DFFF782FCE06A296844
:1059E000C96A8842E2D3C5F81C80DFE70CB1FFF733
:1059F00035FBAC6944B14646FFF756FF00B1EE6196
:105A0000641EF9D10020A861E86938B1084901276E
:105A100038070860BFF34F8FBFF36F8FFFF79CFC11
:105A20003846BDE8F0870000FC000020344D00201F
:105A300004ED00E0A05E0008793F000800000000CF
:105A40000000000080000000385E0008E9510008F6
:105A5000000000000000000000010000885E000857
:105A600069090008000000000000000000010000BB
:105A7000585E0008713D00080200000000000000B0
:105A800000010000945E0008813F00080100000052
:105A90000000000080000000745E0008F952000859
:105AA0000000000000000000800000007C5E000894
:105AB000DD0B000800000000000000008000000076
:105AC000685E0008DD3A00080100000000000000E8
:105AD00000010000405E000861370008010000007E
