:020000040800F2
:100000004852002059020008553C00084B330008B4
:10001000813900081D090008954C00080000000007
:100020000000000000000000000000009D0100082A
:100030004110000800000000F10100086D450008B3
:1000400073020008730200087302000873020008BC
:100050007302000873020008730200086F100008A2
:10006000751000087302000873020008550F00089D
:10007000610F00086D0F000873020008730200088A
:10008000790F000873020008730200087302000869
:100090002109000873020008730200087B100008A1
:1000A00073020008B54600087302000873020008D6
:1000B000C1460008730200087302000873020008BA
:1000C000730200087302000873020008730200083C
:1000D000730200087302000873020008314C000824
:1000E000730200087302000873020008730200081C
:1000F000730200087302000873020008730200080C
:1001000073020008730200087302000873020008FB
:100110000548000873020008CD4600087302000875
:10012000850F000873020008910F00087302000891
:1001300073020008730200087302000873020008CB
:100140002D090008730200087302000873020008FA
:1001500073020008730200087302000873020008AB
:10016000730200087302000873020008730200089B
:100170007302000873020008730200080000000008
:100180007302000873020008DFF80CD000F02CFAAC
:1001900000480047F14D0008485200202B4B1968D9
:1001A0000868B0E8F04F80F30988BFF36F8F4FF015
:1001B000000080F3118870470000000006480068C6
:1001C000006880F3088862B661B6BFF34F8FBFF353
:1001D0006F8F00DF00BF00BF08ED00E0DFF80C000C
:1001E000016841F470010160704700BF88ED00E0D4
:1001F000EFF30980BFF36F8F144B1A681EF0100FD6
:1002000008BF20ED108A20E9F04F106008B44FF0CD
:10021000500080F31188BFF34F8FBFF36F8F05F04D
:10022000AFFB4FF0000080F3118808BC1968086824
:10023000B0E8F04F1EF0100F08BFB0EC108A80F34A
:100240000988BFF36F8F704700BF00BFFC0000201C
:10025000EFF30580704700000648804706480047D6
:10026000FEE7FEE7FEE7FEE7FEE7FEE7FEE7FEE766
:10027000FEE7FEE711460008890100082DE9F05F5E
:100280000546002092469B46884606468146402405
:100290001BE0284641464746224600F001F95346F6
:1002A0005A46C01A914110D311461846224600F012
:1002B000E8F82D1A67EB01084F462246012000217D
:1002C00000F0DFF817EB00094E41201EA4F10104F5
:1002D000DFDC484631462A464346BDE8F09F40EA07
:1002E00001039B0703D009E008C9121F08C0042AB4
:1002F000FAD203E011F8013B00F8013B521EF9D29B
:100300007047D2B201E000F8012B491EFBD27047C2
:100310000022F6E710B513460A4604461946FFF7D1
:10032000F0FF204610BD2DE9FE4F81EA030404F0E2
:10033000004421F0004100944FF0000B23F00043F3
:1003400050EA01045ED052EA03045BD0C3F30A54BE
:10035000C1F30A552C44A4F2F3340194A0FB0254D7
:10036000C1F3130141F48011C3F3130343F4801369
:1003700001FB024400FB034E840A970A44EA8154BD
:1003800047EA8357A4FB076802958D0A05FB07859A
:100390004FEA932C04FB0C542705029D4FEA0658A4
:1003A00047EA1637B5EB08056EEB070C870E920E81
:1003B00047EA811742EA8312A7FB0201B6EB0B0161
:1003C00064EB00042B0D43EA0C335E1844EB1C5025
:1003D000DA465146E7FB0201C5F313044FEA0B333B
:1003E00043EA14534FEA0432019C43EA0603A4F1A2
:1003F0000C040294009CCDE900B400F0A7F803B00F
:10040000BDE8F08F00200146F9E70EB540F2334118
:1004100002910021CDE900110A460B4600F096F842
:1004200003B000BD00F0004230F000400AD0C10D22
:1004300001F56071C0F3160042EA0151C20840079D
:100440001143704700200146704701F0004330B46B
:1004500021F0004150EA010206D00A0DA2F56072B7
:10046000C1F31301002A02DC30BC00207047440FA6
:1004700044EAC104C100E01830BC00EBC25000F0F7
:100480001FB8202A04DB203A00FA02F1002070474E
:100490009140C2F1200320FA03F3194390407047C2
:1004A000202A04DB203A21FA02F00021704721FAC9
:1004B00002F3D040C2F12002914008431946704730
:1004C0000029A8BF7047401C490008BF20F0010068
:1004D000704710B4B0FA80FC00FA0CF050EA010446
:1004E00004BF10BC704749B1CCF1200421FA04F4D8
:1004F00011FA0CF118BF012121430843A3EB0C01B1
:10050000CB1D4FEA00614FEA102042BF002010BC13
:10051000704700EBC35010440029A4BF10BC7047C3
:10052000401C490008BF20F0010010BC704710B506
:10053000141E73F1000408DA401C41F10001921806
:100540005B411A4301D120F0010010BD2DE9F04DAF
:1005500092469B4611B1B1FA81F202E0B0FA80F204
:1005600020329046FFF78DFF04460F4640EA0A000E
:1005700041EA0B0153465A46084313D0114653EA49
:10058000010019D0C8F140025046FFF789FF054627
:100590000E46504659464246FFF773FF084305D0C2
:1005A000012004E020463946BDE8F08D00200543D7
:1005B00046EAE0762C4337430A986305E40AA0EB49
:1005C00008000022FD0A44EA47540A3002D5002000
:1005D0000146E9E7010510196941DDE908450019FF
:1005E0006941BDE8F04DA2E7064C074D06E0E06822
:1005F00040F0010394E8070098471034AC42F6D36A
:10060000FFF7C6FD746100089461000830B58C18CE
:1006100010F8012B12F00F0301D110F8013B120961
:1006200006D110F8012B03E010F8015B01F8015B23
:100630005B1EF9D101E001F8013B521EFBD1A14242
:10064000E6D3002030BD10B50146806B026C12F07D
:10065000500F05D0806BC26CBDE8104008461047B3
:10066000016C41F40071016401688A6812F0405F16
:1006700017D18269AAB9CA6A12F4700F02D08A68C7
:1006800052050ED44A6822F020024A60016C21F41F
:1006900080710164016CC90403D4016C41F0010153
:1006A000016400F07FFE10BD10B5806B4021016435
:1006B000416C41F00401416400F076FE10BD10B5BC
:1006C000806B00F070FE10BD454910B54A6822F4F9
:1006D00040324A604A6843681A434A6001684A687F
:1006E00022F480724A6001684A68036942EA032280
:1006F0004A6001684A6822F040724A6001684A68AC
:1007000083681A434A6001688A6822F400628A603A
:1007100001688A68C3681A438A60816A6FF07062F0
:10072000D14201688A6822F070628A6001688A6832
:100730000CD0836A1A438A6001688A6822F04052AA
:100740008A6001688A68C36A1A4301E022F0405255
:100750008A6001688A6822F002028A6001688A68F9
:10076000836942EA43028A60016A002901684A6893
:100770000FD042F400624A6001684A6822F4604285
:100780004A6001684A68174C436A04EB43331A43D2
:1007900001E022F400624A600168CA6A22F4700231
:1007A000CA620168CA6A838B0F4C04EB03531A4375
:1007B000CA6201688A6822F400728A6001688A68E5
:1007C000036B42EA43228A6001688A6822F48062ED
:1007D0008A6001688A68406942EA8020886010BDAA
:1007E0000023014000E0FFFF0000F0FF10B502F021
:1007F0004DFF02F0AFFE02F07FFE02F04FFE03F06D
:1008000073F803F097F803F049F802F09FFD02F047
:10081000D5FD02F00BFE03F009F802F0CFFF2E48E1
:1008200001F0EEFA2D4801F0EBFA0A222C492D488E
:1008300000F09AFE0A222C492C4800F095FE0A226C
:100840002B492C4800F090FE2B480068016821F0ED
:100850009E01016029480068016821F09E01016045
:1008600027480068016821F09E010160C8222549DF
:10087000254802F0BFFC0E222449254802F0BAFCAC
:1008800021480068C16841F01001C160204800683B
:10089000C16841F01001C1601E480068016821F084
:1008A000080101601C480068016821F0080101602E
:1008B000094800F0F3F8094800F0F0F80221064872
:1008C00000F0D2FE0221054800F0CEFEBDE8104047
:1008D0004FF47A7001F03EBCF80A0020200B002093
:1008E00098100020480B0020C0100020900B002022
:1008F000E8100020D80B0020200C0020800C0020E5
:10090000E00C0020290F002084070020F10F0020B8
:10091000840600206408002024090020FEE700006F
:10092000014801F01DB80000F80A0020014801F05C
:1009300017B80000200B0020074801884ABA074971
:100940004A82428852BA0A80828852BA4A808279A0
:100950000A72C079487270471E0000200010002003
:100960000748084A094B018849BA118141884ABAA7
:1009700005494A8002791A70407908707047000072
:100980001E0000206C0E00204400002030000020DB
:100990000F4930B408220A6100228A6012230B60DA
:1009A0000C4BCA600C495C88250A0D704C709C8801
:1009B000250A8D70CC709B790B71084B5B784B715D
:1009C0008A71CA710A4630BC0123014900F060BE39
:1009D000C00E0020640000205000002014100020F1
:1009E000134930B408220A6100228A60CA601122C9
:1009F0000A60104A783153881C0A0C704B7092EDD3
:100A0000070ABCEEC00A10EE103A1B0A8B7010EEFB
:100A1000103ACB70538A1C0A0C714B71D289130A9D
:100A20008B71CA7101230A4630BC783900F030BEA0
:100A3000A80E002014100020134930B408220A61C7
:100A400000228A60CA6013220A60104A1049538843
:100A50001C0A0C704B7093881C0A8C70CB709279B6
:100A60000A71A1F1140213780A4A127863F3DF12B3
:100A70004A71094A9289130A8B71CA710A4630BCBD
:100A80000123014900F004BED80E00206C000020B4
:100A900058000020310000201410002000B58BB059
:100AA00000210122CDE9061203910892094A009122
:100AB000019102910491904200D10591054928319C
:100AC000884201D10E210591694600F045FE0BB028
:100AD00000BD0000F80A0020074800B5F0EE401AFB
:100AE000B0EE601A90ED040AF0EE610A00F0A9FA87
:100AF00080ED040A00BD00001011002030B5194B34
:100B0000164C174819882578A1F5806101EB810200
:100B10005988A1F5806101EB81014942012D0FD077
:100B200000EE102AB8EEC00A80ED020A00EE101A9C
:100B3000B8EEC00A80ED000A187A012808D009E052
:100B4000524200EE102AB8EEC00A80ED010AEDE72D
:100B500004F040F90120607030BD0000300000203A
:100B600054010020001000201CB5C82004F06AF9D0
:100B700005F028F8644E01900020307000F01AF95A
:100B8000DFF89091DFF884B1DFF884A109F5907760
:100B9000DFF8848107F19005012003F0D7F9BAF856
:100BA0000800A0F6746100EE101AB8EEC00A86EDD7
:100BB000010A9BF8001011B15849097819B1584938
:100BC000097800297ED000EE100AB8EE400ADFED69
:100BD000550A5048103004F069F94E481030D0EDF5
:100BE000140A5148B0F90000404200EE100A49488A
:100BF000B8EEC00A903004F059F9464849469030A2
:100C000090ED140A89ED020A96ED010ABDEEC00AC4
:100C100010EE100A002800DA4042322803DA9FED75
:100C2000430A81ED020A91ED021AD1ED000A00BFDC
:100C300099ED010A3E4804F0F0F8002407EB840027
:100C4000C4EB0411D0ED000A38F9210000EE100ABF
:100C500005EBC410B8EEC00A04F028F9641C042C9B
:100C6000ECDB334C95ED140A103C204684ED000A71
:100C700095ED340A84ED010A95ED540A84ED020ADB
:100C800095ED740A84ED030A03F090FBD4ED001A8D
:100C9000C5ED141A94ED011A85ED341AD4ED020A4B
:100CA000C5ED540A94ED030A85ED740A30780128E5
:100CB00026D0BDEEC00A10EE100ABDEEE00A00B26A
:100CC000009000E017E010EE100ABDEEC10A03B27A
:100CD00010EE100ABDEEE10A02B210EE100A01B2E7
:100CE000144800F02BF81448FFF752FE052101A824
:100CF00004F0AFF850E799ED021AD9ED000A97E732
:100D00000C4800F03DF8EEE72800002030000020FD
:100D10006C0E0020540100207C0D002033000020C8
:100D2000320000200040674546000020000000001F
:100D300074020020200B0020F80A0020F0B40E4CB2
:100D40000826049D26610026A660E6604FF4007622
:100D500026600A4C0E0A26706170110AA170E270BA
:100D6000190A21716371290AA171E5712246F0BC4B
:100D70000123014900F08CBCF00E00204800002047
:100D80000A4A08214FF40073116100219160136039
:100D9000D160074A0123117051709170D1701171A7
:100DA00051719171D171014900F072BCF00E0020B7
:100DB000480000202DE9F04141F288352DED028BED
:100DC000B3EE041A9FED248AB7EE080A2B46F0EE24
:100DD000480A6A000321214802F076FF1F489FED70
:100DE000200A4FF47A7480ED1A0A40F6B836B3EE52
:100DF0000E1ADFED1C0A9FED1C0A23463246032122
:100E0000A0F5907002F060FF1448B0EE481AF0EEC2
:100E1000480AB7EE000A234632460321A03802F002
:100E200053FF0E4E00249FED118A803643F698271B
:100E3000F0EE480A06EBC410B0EE601AB7EE080AEE
:100E40002B463A46032102F03FFF641C042CEFDBE3
:100E5000BDEC028BBDE8F0810000000084020020A0
:100E6000000016430AD7233C9A993940CDCCCC3D9B
:100E700008B5642003F0E6FF04F0A4FE334D344CC3
:100E80000090688AC10719D000220121204601F094
:100E90005DFA6421684603F0DCFF0122114620461A
:100EA00001F054FAC821684603F0D3FF012211462D
:100EB000204601F04BFA4FF4FA6143E0810712D566
:100EC00000220121204601F041FA6421684603F026
:100ED000C0FF01221146204601F038FAC8216846B9
:100EE00003F0B7FFD0E7410712D5002201212046C9
:100EF00001F02CFA6421684603F0ABFF0122114691
:100F0000204601F023FAC821684603F0A2FFD7E784
:100F1000000712D500220121204601F017FA6421B2
:100F2000684603F096FF01221146204601F00EFAB2
:100F3000C821684603F08DFFD7E70121204601F064
:100F400001FA1021684603F084FF9AE75010002050
:100F500000040240014800F087BF0000840900201F
:100F6000014800F081BF000064080020014800F043
:100F70007BBF000024090020014800F075BF00007D
:100F8000C4080020014800F06FBF0000200C0020C2
:100F9000014800F069BF0000040800200168182320
:100FA000CAB2103AB2FBF3F2054B6FF30901032A00
:100FB0009B5CC36500D9091D816508467047000028
:100FC0000461000810B5014600208B698A6A4FF061
:100FD000C07453B1B3F5005F15D072B1012A0CD0C3
:100FE000022A0AD0032A09D104E01AB1012A06D044
:100FF000022A03D1C96AC90100D5012010BDC96AFE
:10100000A142FAD010BD002AF7D0012AF2D0022A5C
:10101000F3D0032AF3D010BD30B50468256825F459
:1010200080252560046863608368402B036803D0D3
:1010300099600068C26030BD9A600068C16030BDD0
:10104000704770EE601AF5EEC01AF1EE10FA01DC8E
:10105000F1EE611AF4EEC11AF1EE10FA06D2B4EE16
:10106000E00AF1EE10FA01DA30EEC10A7047022010
:1010700001F084B8042001F081B810B5202001F0FF
:101080007DF8BDE81040402001F078B82DE9F0412E
:101090002DED028B9FED520A524D0020D5F808101D
:1010A00051F82020401C00EE902AC0B20A28F8EE29
:1010B000600A30EE800AF3D3B2EE041A4A4CC0EE56
:1010C000010AB4F90C009FED491A2146B0EE040A5A
:1010D00091ED018AF3EE091AC82806DD10EE810AA7
:1010E00010EE218A84ED008A28E010EE810A401C6F
:1010F00006B2A681322E60EE218AC4ED008A1DDD83
:101100003B48408EFFF781F99FED3A1B53EC112BC2
:10111000FFF709F9FFF799F900EE100AC82E84EDE0
:10112000020A38EEC00A30EE080A84ED010A05DD35
:10113000DFED320A80EE201A84ED011AD5E905129E
:10114000D5E90363002000BF56F82070394453F8F6
:101150002070401CC0B23A440A28F5D30A23B1FBE0
:10116000F3F0B2FBF3F100EE100AC5E905011E48E9
:10117000F8EE400A00EE101A3030B8EE400A90ED5A
:10118000011A80ED001A30EEC00ADFED1D0AD0ED25
:10119000021A20EE200AC0ED011A31EE211ADFED0D
:1011A000190A90ED032A20EE200A80ED022A31EE82
:1011B000021AD0ED040AC0ED030A71EE200A80ED98
:1011C000040A30EE800AF1EE040A80ED050A80EE92
:1011D000201A84ED041ABDEC028BBDE8F0810000FA
:1011E000000000007C00002010110020ED32533A76
:1011F00014100020FCA9F1D24D62503F00001643AC
:10120000E72E533A53D6244110B5114C2178207A59
:10121000FD2911D0FF290ED1FE280CD1082002F0A3
:101220007DFE34F8010F41BA0A484180618849BA0D
:1012300081802179817110BDFC28FCD1072002F04A
:101240006DFE34F8010F41BA02480838EDE700009E
:10125000F10F00206C00002078B50024009490F875
:101260003C20012A19D0012280F83C200A6807237B
:101270000568092A13D9EE680A3A02EB4202934044
:101280009E43EE600B788A680A3B03EB43039A4067
:101290000368DD682A43DA6010E0022078BD2E6919
:1012A00002EB420293409E432E610B788A6803EB67
:1012B00043039A4003681D692A431A614A681F2341
:1012C000072A13D205686E6B521E02EB820293400E
:1012D0009E436E630B790A885B1E92B203EB830315
:1012E0009A4003685D6B2A435A6327E005680D2A1C
:1012F00012D22E6BD21F02EB820293409E432E63CA
:101300000B790A88DB1F92B203EB83039A400368D0
:101310001D6B2A431A6311E0EE6A0D3A02EB82025A
:1013200093409E43EE620B790A880D3B92B203EB29
:1013300083039A400368DD6A2A43DA62164B056824
:10134000144A9D4206D10D68122D03D1556845F40B
:101350008005556005689D4218D10B68102B01D09F
:10136000112B13D1536843F400035360096810290B
:101370000CD10A490A4A0968B1FBF2F101EB81017B
:10138000490000E0491E00910029FBD180F83C4053
:10139000002078BD0023014000200140D40000203F
:1013A00040420F0070477047704770B504004FF01F
:1013B000000503D0206C002610B107E0012070BDAD
:1013C000666484F83C60204600F01AF8206CC00681
:1013D00010D4206C20F4885040F002002064204695
:1013E000FFF772F96664206C20F0020040F0010003
:1013F000206400E0012584F83C60284670BD0000B0
:101400002DE9F047054603684D48DFF830C1002458
:1014100003214C4A0615871486B04FF480484FF4D8
:10142000807963452AD1036843F4807303600068C0
:1014300000F48070059002208DE813006946104684
:1014400000F0A8FEDFF804A13F4950460AF10C0362
:10145000C0E90014CAF8084083E8D003CAF8204065
:10146000CAF8244000F0D0FD08B1CF2162E0C5F8F1
:1014700038A0CAF8385006B0BDE8F087DFF8D0C011
:10148000634529D1036843F400730360006800F4E6
:101490000070059004208DE813006946104600F0A6
:1014A00079FEDFF8A8A028490AF1600A30315046D9
:1014B000CAF800104FF00071C0E901140AF10C03E2
:1014C00083E8D003CAF82040CAF8244000F09CFD0D
:1014D0000028CCD0F6212DE0DFF878C06345CAD1D2
:1014E000036843F480630360006800F48060059043
:1014F00008208DE813006946104600F04BFEDFF827
:101500004CA011490AF1C00A18315046CAF800101F
:101510004FF08061C0E901140AF10C0383E8D003A5
:10152000CAF82040CAF8244000F06EFD00289ED082
:1015300040F21D1108A003F0AEFB98E70020014027
:10154000443802400000024010640240200C002099
:1015500000210140002201402E2E2F5372632F6183
:1015600064632E6300000000F8B50E4600210446B7
:10157000009190F83C00012807D0012084F83C003D
:1015800020688368DB0702D011E00220F8BD836881
:1015900043F0010383602D482D4B0068B0FBF3F04E
:1015A00000EB400000E0401E00900028FBD12068C6
:1015B0008368DB0748D0236C40F20165AB4343F4FA
:1015C000807323644068400505D5206C20F40050EA
:1015D00040F480502064206CC00404D5606C20F07E
:1015E0000600606400E0616484F83C10A16B1A4856
:1015F000184DC863A16B19480864A16B1848C864EA
:1016000021686FF0220008602068416841F0806125
:1016100041602068816841F48071816021681346CF
:1016200032464C31A06B00F059FD6868C006206856
:1016300002D00C49884207D1816811F0405F03D184
:10164000816841F0804181600020F8BDD400002015
:1016500040420F000023014047060008BF06000873
:10166000A90600080020014090F82020012A09D096
:1016700090F82020022A05D0416A41F4802141627D
:1016800001207047006842690A43426100207047A8
:10169000F0B590F82040012C07D090F82040022CA3
:1016A00003D0416A41F4802153E00468A5686D01CC
:1016B00005D4A5682D0102D4A568ED0046D5A4681F
:1016C0000125C4F30164A5401D608D684FF4C0730B
:1016D0009DB1CE6835434E6845EAC605066803EB02
:1016E0000417F5514FF4C275076805EB04150E6930
:1016F0007E51097D012905D009E00E88CD6845EAB3
:101700004655EBE701684E5946F480764E51117903
:10171000D2F805504FF4C67641EA0521056806EB7C
:101720000416A9511178D2F801204FF4C47541EA8A
:101730000221026805EB04155151006803EB041106
:10174000425842F0010242500020F0BD416A41F48B
:10175000001141620120F0BD10B590F82020012A4F
:1017600009D090F82020022A05D0416A41F4802156
:101770004162012010BD3A48D0F8002242F0010237
:10178000C0F80022D0F8002222F47C52C0F80022D7
:10179000D0F800224B6A42EA0322C0F800220B7DF7
:1017A00001229A40D0F81C329343C0F81C32CB6916
:1017B000B3B9D0F80C329343C0F80C328C894B6823
:1017C00064F31F434C6900EBC404C4F840320C8935
:1017D0000B6864F31F434C6900EBC404C4F8443243
:1017E000CB69012B16D1D0F80C321343C0F80C3260
:1017F0000C884B6864F31F434C6900EBC404C4F8C5
:1018000040320C89CB6864F31F434C6900EBC4047D
:10181000C4F844328B69002BD0F804320ED0134345
:10182000C0F804320B69002BD0F8143208D01343EF
:10183000C0F81432096A012904D008E09343EFE7A5
:101840009343F5E7D0F81C121143C0F81C12D0F8EE
:10185000001221F00101C0F80012002010BD0000AC
:1018600000640040704730B590F82040012C07D04C
:1018700090F82040022C03D0416A41F4802109E015
:1018800011B1012909D00CE00468E46807E0416A5D
:1018900041F400114162012030BD04682469A407AD
:1018A000F5D04FF4D874056804EB01142D5915F0E8
:1018B0000405956005682D5942D0ED08556005680E
:1018C0002C59C4F34004D4604FF4DA74056804EB77
:1018D00001142D5905F00F05156105682D59C5F343
:1018E0000725956105682C59240C54614FF4DC726E
:1018F000046802EB0112A4581C700468A458240A5E
:101900005C700468A458240C9C700468A258120EE1
:10191000DA704FF4DE72046802EB0112A4581C71F5
:101920000468A458240A5C710468A458240C9C71AF
:101930000468A258120EDA7129B1012909D00DE00C
:101940006D0D1560BBE70068C16841F02001C16002
:1019500004E00068016941F020010161002030BD10
:101960002DE9F05F0546006800244669D0F8049030
:101970008768D0F80CB0D0F810A0D0F81880F10724
:1019800048D0F90714D001218160B80703D5284653
:1019900000F063FA0CE0780702D54FF4006407E02A
:1019A000380702D54FF4805402E0284600F054FA7C
:1019B000F80516D529684FF480708860B80503D5FE
:1019C000284600F04CFA0CE0780502D544F40054A7
:1019D00007E0380502D544F4804402E0284600F0D0
:1019E0003DFAF80316D529684FF480308860B803B3
:1019F00003D5284600F035FA0CE0780302D544F40C
:101A0000004407E0380302D544F4803402E028465D
:101A100000F026FA300707D55FEACB6004D52968C5
:101A2000102044F40074C86070074FF0080707D511
:101A30005FEA0B7004D52868C760284600F07CF97F
:101A4000B00706D52868C068800702D0284600F095
:101A500075F9700607D55FEACA6004D529681020B9
:101A600044F480640861B00607D55FEA0A7004D5C3
:101A700028680761284600F0BFF9F00606D52868F7
:101A80000069800702D0284600F0B7F9B00308D5F6
:101A90005FEAC96005D5296810204860284600F033
:101AA000ADF9F00307D55FEA097004D528684760EF
:101AB000284600F0D7F9300446D55FEA497040D592
:101AC000F00504D55FEAC87001D044F00104B00508
:101AD00004D55FEA887001D544F00204700504D58E
:101AE0005FEA487001D544F00404300529D518F0A8
:101AF000700F26D008F07000402815D006DC1028A2
:101B000009D020280AD0302816D10AE050280ED05B
:101B1000602811D10EE044F008040DE044F01004F8
:101B20000AE044F0200407E044F0400404E044F0FC
:101B3000800401E044F480742868816921F0700118
:101B40008161296804204860002C05D0686A204320
:101B500068622846FFF786FEBDE8F09F70B5040076
:101B600003D094F8200010B104E0012070BD20469D
:101B700000F082F82068016821F00201016000F0A5
:101B8000EBFB0546052604E000F0E6FB401B0A28B7
:101B900011D8206840688007F6D42068016841F0B9
:101BA0000101016000F0D8FB05460BE000F0D4FB1A
:101BB000401B0A2806D9606A40F40030606284F84D
:101BC0002060D2E720684068C007EFD0207E01285F
:101BD000206801683DD021F080010160607E01280D
:101BE0002068016838D021F040010160A07E012802
:101BF0002068016833D021F020010160E07E0128D7
:101C0000206801682ED041F010010160207F01287A
:101C10002068016829D021F008010160607F012857
:101C20002068016824D021F004010160D4E9020198
:101C30000843D4E90412114308436168491E08436C
:101C40002168C86100206062012084F82000002023
:101C500070BD41F08001C0E741F04001C5E741F0AF
:101C60002001CAE721F01001CFE741F00801D4E7D5
:101C700041F00401D9E70000F0B52A4B0768DFF80E
:101C8000A0C0186803220224092527490026401C09
:101C900087B0674519D11860012807D1086840F05E
:101CA00000700860086800F0007005908DE854002E
:101CB000CDE9032569461D4800F06CFA0022052194
:101CC000142000F0F9FB142026E0DFF864C067451B
:101CD00024D10F6847F080670F600F68012807F074
:101CE00080670597186007D1086840F000700860A9
:101CF000086800F0007005904FF440508DE85100E6
:101D0000CDE9032569460B4800F044FA002205217D
:101D1000402000F0D1FB402000F0C2FB07B0F0BD36
:101D2000006400404000002040380240000C0240A7
:101D300000680040000402407047000070B5294967
:101D4000294D2A4C88421CD1A31C2A460021FFF7AA
:101D50008AFD2868B0F5887F0AD0B0F5907F0FD152
:101D6000042002F0DBF8BDE870401E48FEF7F8BD25
:101D7000042002F0D3F81B48FEF7DEFD012020709E
:101D800070BD1B498842FBD1184B174A9B1C002190
:101D9000FFF769FD2868A0F50070013805D001281B
:101DA00003D0022801D0032801D102F0B7F8287827
:101DB000401EC0B26070C0EB00110E4800EB810005
:101DC000C16A4A1CC262322904D8BDE87040084981
:101DD00002F0F8BF3321C162BDE87040044902F04F
:101DE000CDBF0000F80A0020380100201C000020B0
:101DF000200B00207C0D00207047704770470000CA
:101E000070B5044690F82000012804D0606A40F4C0
:101E10000020606218E0022084F820002068016839
:101E200021F00101016000F097FA05460EE000BFC5
:101E300000F092FA401B0A2808D9606A40F400308A
:101E40006062052084F82000012070BD2068406891
:101E5000C007EDD1606270BD704770477047704732
:101E600070477047704700002DE9F84304464FF073
:101E70000009CDF8009063484FF41651A56D006835
:101E8000B0FBF1F72E6894F85C10082000FA01F11D
:101E900031420FD021680A6852070BD50A6822F038
:101EA00004020A6094F85C108840A860606D40F0FD
:101EB0000100606594F85C104FF0010808FA01F029
:101EC000304208D021684969090604D5A860606DD0
:101ED00040F00200606594F85C10042088403042B5
:101EE00008D021680968890704D5A860606D40F0B2
:101EF0000400606594F85C1010208840304218D0CF
:101F000021680968090714D5A86020680168490399
:101F100004D50068000308D5A16C07E00168C90575
:101F200003D4016821F008010160216C09B1204649
:101F3000884794F85C1020208840304231D02168D6
:101F40000968C9062DD5A86094F8350005282068D1
:101F5000016806D0490347D5006800031DD4616CB1
:101F60001CE021F0160101602068416921F0800128
:101F70004161206C08B9A06C20B12068016821F093
:101F80000801016094F85C103F208840A86084F844
:101F9000349084F83580216D1FE0E16B09B1204653
:101FA0008847606D00282BD0606DC00714D00520D5
:101FB00084F835002068016821F001010160009873
:101FC000401C0090B84203D820680068C007F6D1D2
:101FD00084F8349084F83580E16C002910D001B089
:101FE0002046BDE8F04308470168C905D5D401681B
:101FF00021F01001016084F8349084F83580CCE73A
:10200000BDE8F883D40000202DE9F041044600F03B
:10201000A3F906465CB1002584F83450022084F808
:1020200035002068016821F0010101600DE0012008
:10203000BDE8F08100F090F9801B052805D920202B
:102040006065032084F83500F2E720680068C00767
:10205000F0D12268116820480140D4E901031843F7
:10206000D4E903363343184363691843A36918431B
:10207000E3691843236A18430843616A042903D1BA
:10208000D4E90B1319430843106020684069666A5D
:1020900020F0070130460E43012704280CD1A06A26
:1020A0000643E06A40B12046FEF78CFF20B1402095
:1020B000606584F83570BAE7206846612046FEF70F
:1020C0006DFF94F85C203F2191408160656584F844
:1020D00035700020ACE700003F8010F02DE9F041A2
:1020E0000446866D90F83400002501280DD00120AB
:1020F00084F8340094F835700020012F07D084F85C
:10210000340002252846BDE8F0810220FBE70227C3
:1021100084F8357060652046FEF77EFF94F85C1009
:102120003F208840B0602068016841F016010160DE
:102130002068416941F080014161206C20B1206834
:10214000016841F0080101602068016841F0010167
:102150000160D7E770B5044600F0FEF80546601C44
:1021600002D004480078044400F0F6F8401BA04276
:10217000FAD370BDC800002070470000044910B5B4
:102180000A68024202D00860FFF7F6FF10BD0000A7
:10219000143C01402DE9F84FDFF87CB100224FF0EC
:1021A00001084FF0030A4FF00F090BF1040E00BFB6
:1021B0000B6808FA02F42340A3426ED14D68022D49
:1021C00001D0122D0ED1D50800EB850CDCF8205083
:1021D0005607F70E09FA07F6B5430E69BE402E43BF
:1021E000CCF82060066855000F790AFA05FC07F064
:1021F000030726EA0C06AF40374307604E68012EFE
:1022000005D0022E03D0112E01D0122E0ED18668D9
:10221000CF6826EA0C06AF40374387604668A6437E
:102220000C79C4F30014944034434460C6688C684D
:1022300026EA0C06AC403443C4604C68E40065D523
:10224000364C256845F480452560246822F0030556
:1022500004F480440094324C2E19D6F808489507AF
:102260002F0F09FA07F5AC432E4DA84201D10025E6
:1022700024E02D4DA84201D101251FE02B4DA8429D
:1022800001D102251AE02A4DA84201D1032515E00B
:10229000284DA84202D1042510E037E0264DA8427F
:1022A00001D105250AE0254DA84201D1062505E00A
:1022B000234DA84201D1072500E00825BD40254354
:1022C000C6F80858DBF800405D464E689C43F603AC
:1022D00000D51C432C60DEF8004075464E689C43D8
:1022E000B60300D51C432C600B4D08352C684E6896
:1022F0009C43F60200D51C432C60074D0C352C681E
:102300004E689C43B60200D51C432C60521C102A18
:10231000FFF44EAFBDE8F88F003C01404438024066
:10232000003001400000024000040240000802406A
:10233000000C02400010024000140240001802404D
:10234000001C024042694A40426170470AB1816103
:1023500070470904FBE700000148806870470000EF
:10236000C8000020024881680278114481607047EB
:10237000C80000200B4810B5016841F400710160ED
:10238000016841F480610160016841F4807101607D
:10239000032000F0B1F8002000F006F800F03EF84D
:1023A000002010BD003C024010B5014688B000225C
:1023B000192000F081F8192000F072F81348002469
:1023C000016841F001010160006805A900F0010009
:1023D0000690684600F03AF900F06EF90C494000AA
:1023E000B0FBF1F10C480B4A491E026040F2E732A3
:1023F000C0E90324C0E9011400F078FB10B101200A
:1024000008B010BD044800F0C9FBF9E744380240A9
:1024100040420F0000000140400D00201F4808B559
:10242000016841F480410160006800F48040009040
:102430001A48001F016841F080510160006800F0F7
:1024400080500090032000F057F8002211466FF0F2
:102450000B0000F031F8002211466FF00A0000F086
:102460002BF8002211466FF0090000F025F8002239
:102470001146501F00F020F800221146101F00F0F6
:102480001BF800220F21901E00F016F800220F21E9
:10249000BDE80840501E00F00FB80000443802406C
:1024A00000F01F02012191404009800000F1E0206E
:1024B000C0F8001170470000F0B40E4B1B680C46CA
:1024C000C3F30223C3F10705042D00D90425191D08
:1024D000072901D2002300E0DB1E012606FA05F1E0
:1024E000491E214099409E40761E16403143F0BC63
:1024F00001F0B1BB0CED00E0064900F007020868EE
:102500004FF6FF03184040EA0220034A10430860D8
:10251000704700000CED00E00000FA052DE9F047DF
:102520000E46050065D0DFF81481D8F80000F7B238
:1025300000F00F00B04207D288F80070D8F8000011
:1025400000F00F00B04254D128683D4C810712D5ED
:10255000400703D5206840F4E05020602878000749
:1025600003D5206840F4604020602068A96820F00E
:10257000F000084320602878C0072DD030496868F3
:102580000839012812D0022813D0032811D0096875
:10259000890700292DDA216821F003010143216018
:1025A000FFF7DAFE814641F2883A0EE009688903B6
:1025B000EFE709688901ECE7FFF7CEFEA0EB090120
:1025C000514502D90320BDE8F0872068696800F012
:1025D0000C00B0EB810FEFD1D8F80010404601F0AD
:1025E0000F01B14207D90770006800F00F00B04238
:1025F00001D00120E7E72878400705D52068E96881
:1026000020F4E050084320602878000706D52068B1
:10261000296920F4604040EAC100206000F05CF8C5
:102620002168084AC1F30311515CC840064908609B
:102630000020FFF7B9FE0020C5E70000003C024083
:10264000083802400C610008D40000200F2202600C
:102650000C4A136803F003034360136803F0F003AC
:102660008360136803F4E053C36012684FF4E053CF
:1026700003EAD20202610448006800F00F0008601B
:102680007047000008380240003C024001480068E2
:1026900070470000D400002004480549006809681C
:1026A000044AC1F38221515CC8407047D400002025
:1026B000083802401C6100080448054900680968A0
:1026C000044AC1F34231515CC8407047D400002035
:1026D000083802401C610008154810B5006810F069
:1026E0000C02144813D01449042A0FD0082A0ED122
:1026F0000F4C241F2268236802F03F025B0207D5BB
:102700002068C0F38810A0FB010106E0084610BD58
:102710002168C1F38811A1FB00010023FDF7AEFD84
:102720002168C1F30141491C4900B0FBF1F010BD23
:10273000083802400024F40000366E012DE9F84FFD
:10274000050076D02878DFF8F8B2BE4CC00749D033
:10275000DBF800105846C1F38101012908D0006858
:10276000C0F3810002280AD1201D0068400206D56E
:102770002068800336D568680028E2D032E06868B7
:10278000B0F5803F10D0B0F5A02F206810D020F415
:1027900080302060206820F4802020606868A0B12C
:1027A000FFF7DAFD06460CE0206840F48030F4E7DD
:1027B00040F480202060F7E7FFF7CEFD801B6428FF
:1027C00073D820688003F7D50CE0FFF7C5FD0646F7
:1027D00005E000BFFFF7C0FD801B6428F0D820682B
:1027E0008003F7D42878DFF8608280074FF0000973
:1027F0003ED5DBF80010584611F00C0F09D00068E8
:10280000C0F3810002280BD18D48001F00684002F0
:1028100006D42068800715D5E868012809D111E0A1
:10282000E868B8B10120C8F80000FFF795FD06463A
:1028300005E002E1FFF790FD801B0228C0D8206868
:102840008007F7D52068296920F0F80040EAC10028
:1028500020600DE0C8F80090FFF77EFD064604E01A
:10286000FFF77AFD801B02281FD820688007F7D465
:102870002878000722D5724E744869696C3671B1A8
:1028800001210160FFF768FD074604E0FFF764FDE2
:10289000C01B022809D830688007F7D50EE0C0F8C1
:1028A0000090FFF759FD074605E083E0FFF754FD70
:1028B000C01B02287ED830688007F7D428784007EC
:1028C00068D5DFF87CA100270AF1380ADAF80000A1
:1028D000C0000BD4DAF8001041F08051CAF80010A3
:1028E000DAF80000012700F080500090584E306860
:1028F000C00510D4306840F480703060FFF72CFDC4
:10290000009005E0FFF728FD0099401A022851D8F1
:102910003068C005F6D54A4EA868683601280FD041
:102920000528306810D020F001003060306820F0B9
:1029300004003060A868B8B1FFF70EFD00900FE00A
:10294000306840F00100F4E740F004003060F7E741
:10295000FFF702FD0099411A41F28830814264D8A4
:1029600030688007F4D50EE0FFF7F6FC009007E032
:10297000FFF7F2FC0099411A41F28830814254D8A5
:1029800030688007F4D42FB1DAF8001021F08051BC
:10299000CAF80010A869C0B3DBF80010C1F38101C8
:1029A00002294AD00228484607D0C8F86000FFF73D
:1029B000D3FC00E039E005463AE04746C8F860003D
:1029C000FFF7CAFC064604E0FFF7C6FC801B02289E
:1029D0002BD820688001F7D4D5E907010843A96AFC
:1029E0001C4A490802EB01416A6A41EA8211084324
:1029F00095F82C1040EA01611148001F0160012088
:102A00003866FFF7A9FC054605E014E0FFF7A4FCD3
:102A1000401B022809D820688001F7D50BE000BFD1
:102A2000FFF79AFC401B022802D90320BDE8F88F6B
:102A300020688001F4D40020F8E70120F6E70000C8
:102A4000083802400038024000004742800E4742EA
:102A5000007000400000FFFF4FF0E02104280869EB
:102A600003D020F004000861704740F00400FAE74A
:102A700010B5401EB0F1807F01D3012010BD4FF092
:102A8000E02460610F21601701F0E5F80020A061EB
:102A900007202061002010BD7047704730B590F8C6
:102AA0003820012A20D0012280F83820022380F823
:102AB000393003685C6824F070045C6003685C680B
:102AC0000D682C435C6003689C6824F080049C6063
:102AD00003689C6849680C439C6080F83920002199
:102AE00080F83810084630BD022030BD10B5040013
:102AF00003D094F8390010B107E0012010BD002088
:102B000084F83800204600F00DF8022084F83900DF
:102B1000211D206801F0E0FD012084F8390000202B
:102B200010BD000008B501681948B1F1804F14D0FC
:102B3000184A914220D1016841F0100101600068FB
:102B4000002200F01000009002213620FFF7B4FCB4
:102B50003620BDE80840FFF7A3BC016841F0010141
:102B600001600068002200F00100009005211C2097
:102B7000FFF7A2FC1C20ECE7074A914207D101684D
:102B800041F004010160006800F00400009008BDFD
:102B90004038024000100040000800400168CA6848
:102BA00042F00102CA600068016841F00101016061
:102BB0000020704770B5044690F83800012817D0FF
:102BC000012584F83850022084F839002068826892
:102BD00022F0770222F47F4282600868502837D0C2
:102BE0000DDC202859D005DC88B3102841D151E0F4
:102BF000022070BD302853D040283AD13FE06028F1
:102C00002ED070280BD0B0F5805F03D0B0F5005FF8
:102C10002FD110E02068816821F0070115E0CB6812
:102C2000D1E90121206801F0B7FD2168886840F0F2
:102C3000770088601DE0CB68D1E90121206801F0B0
:102C4000ABFD2068816841F48041816011E01EE0A5
:102C5000CA684968206801F0B1FD5021206806E08B
:102C6000CA684968206801F0BAFD6021206801F057
:102C70009DFD84F83950002084F8380070BDCA6882
:102C80004968206801F09AFD40212068EFE70021A3
:102C90002068ECE710212068E9E720212068E6E7BA
:102CA00030212068E3E7704770B504460068016989
:102CB0004FF00005C943890715D4C168C943890786
:102CC00011D4E91E01610120207620688069800707
:102CD000204602D0FFF7E7FF04E000F098F8204616
:102CE00000F096F8257620680169C943490717D492
:102CF000C168C943490713D46FF004010161022080
:102D000020762068806910F4407F204602D0FFF7CB
:102D1000CAFF04E000F07BF8204600F079F8257641
:102D200020680169C943090716D4C168C943090766
:102D300012D46FF008010161042020762068C06978
:102D40008007204602D0FFF7AEFF04E000F05FF8F6
:102D5000204600F05DF8257620680169C943C90660
:102D600017D4C168C943C90613D46FF010010161BB
:102D7000082020762068C06910F4407F204602D0E9
:102D8000FFF791FF04E000F042F8204600F040F821
:102D9000257620680169C943C90708D1C168C943BC
:102DA000C90704D1891E0161204600F033F820686C
:102DB0000169C943090609D4C168C943090605D494
:102DC0006FF0800101612046FFF766FE206801690F
:102DD000C943490609D4C168C943490605D46FF0FF
:102DE00040010161204600F029F820680169C943CB
:102DF00089060BD4C168C943890607D46FF0200146
:102E000001612046BDE87040FFF747BE70BD7047C6
:102E10007047000010B5044600680649884201D199
:102E2000FFF7A0FA0448844203D1BDE8104001F046
:102E300085B810BD00000140BC0A002070477047F3
:102E400070B5040004D094F83900002510B106E0F4
:102E5000012070BD84F83850204600F023F824206B
:102E600084F839002068C16821F40051C16020460F
:102E700001F056FD2068016921F49041016120684C
:102E8000416921F02A0141612068C16841F4005183
:102E9000C160E563202084F8390084F83A000020FE
:102EA00070BD00002DE9F04F0546D0F800C0DFF8F6
:102EB000F88202200024BD4A012603210823DFF8FE
:102EC000F0E2470287B04FF0006A4FF48079C445C2
:102ED00031D1D2F800C04CF4002CC2F800C0126806
:102EE000029602F400220592CDE903138A02CDE98D
:102EF000002069467046FFF74DF9AF4EAD4830608F
:102F0000C6E901A4C6E903477461C6E9064934620B
:102F100030467462FFF778F820B14FF48671A7A0AD
:102F200001F0B9FE6E63002206213420B563FFF77D
:102F3000C3FA342046E0DFF89482C44547D1D2F882
:102F400000C04CF4801CC2F800C01268804602F435
:102F5000801205924FF480520092CDE901000320C7
:102F6000CDE903039B4669467046FFF713F9042039
:102F7000CDE900080320CDE902606946CDF810B024
:102F80009348FFF707F98C4E8A4860363038306036
:102F9000C6E901A4C6E903477461C6E9064934627B
:102FA00030467462FFF730F820B14FF49E7183A071
:102FB00001F071FE6E63002206213520B563FFF734
:102FC0007BFA3520FFF76CFA07B0BDE8F08FDFF829
:102FD0000482DFF8D8E14FF0070B0EF1040EC44570
:102FE00033D1DEF8003043F01003CEF80030DEF8C5
:102FF0000020CDE9026102F010020592C022CDE965
:103000000020CDF810B069467348FFF7C3F8744E3E
:1030100072483060C6E901A4C6E903477461C6E995
:103020000649346230467462FEF7EEFF20B14FF479
:10303000B27162A001F02FFE6E63002205212520EF
:10304000B563FFF739FA2520BCE7DFF89881C4455E
:1030500032D1136843F4003313601268CDE9026182
:1030600002F4003205926022CDE90020CDF810B0C4
:1030700069465748FFF78EF84F4E4E48603E48303D
:103080003060C6E901A4C6E903477461C6E9064990
:10309000346230467462FEF7B7FF20B14FF4C87156
:1030A00046A001F0F8FD6E63002205212620B563DD
:1030B000FFF702FA262085E7DFF82C81C44535D1D9
:1030C000136843F4802313601268CDE9026102F4AF
:1030D000802205924FF44062CDE90020CDF810B077
:1030E00069463D48FFF756F83D4E3248603618387D
:1030F0003060C6E901A4C6E903477461C6E9064920
:103100004FF40030C6E908043046FEF77DFF20B1D9
:103110004FF4DC7129A001F0BEFD6E630022052191
:103120002720B563FFF7C8F927204BE72F4A9445BE
:103130007FF44AAFDEF800C04CF0200CCEF800C09F
:10314000DEF80020029602F020020592CDE903137A
:103150004FF4C062CDE9002069462548FFF71AF810
:10316000154E1E48C036183830608005C6E9010487
:10317000C6E903477461C6E906494FF40030C6E961
:1031800008043046FEF740FF20B14FF4F0710BA069
:1031900001F081FD6E63002205214720B563FFF732
:1031A0008BF947200EE70000004C004040380240F9
:1031B0000008024040600240240900202E2E2F53B8
:1031C00072632F75736172742E63000000500040AB
:1031D000000C024000100140000402404064024024
:1031E0000408002000440040004800400014014052
:1031F00000180240F8B5044690F83A0020283CD167
:10320000C1B3BAB394F83800012836D0012084F84D
:103210003800A162A2850025E563222084F83A00E7
:10322000636B1748D863636B16481864636B164862
:10323000D864606B134605650846666B21680246D4
:103240003046091DFEF74AFF206801684168009179
:1032500084F83850C16841F48071C16020684169C8
:1032600041F0010141612068416941F04001416143
:103270000020F8BDFFE70120FBE70220F9E700008E
:10328000AB480008E74800086148000870477047ED
:103290002DE9F843044690F839001F4616460D46BE
:1032A000202850D1A5B19EB194F8380001284AD009
:1032B000012084F838004FF00008C4F83C80212039
:1032C00084F83900FFF748F8A6848146E68426E0B2
:1032D0000120BDE8F883E08C401EE084A0684B46E6
:1032E000B0F5805F4FF000024FF08001204600975C
:1032F00003D001F06BFCE8B90DE001F067FCC8B940
:1033000028882168C0F308004860206908B16D1C56
:1033100005E0AD1C03E0216815F8010B4860E08C66
:103320000028D8D14B46002240212046009701F0CA
:103330004DFC08B10320CCE7202084F8390084F844
:1033400038800020C5E70220C3E7FEE77FB51548B7
:1033500013490124016004614FF480310025846128
:10336000C0E9011510490562C0E90A15C46104638A
:10337000C5604461FEF719F818B158210BA001F09F
:103380008AFC009469460748CDE90145FDF764FFD2
:10339000002803D0622105A001F07DFC7FBD000064
:1033A00000200140480B00200100000F2E2E2F535B
:1033B00072632F6164632E63000000007FB51548BF
:1033C00013490124016004614FF4803100258461B8
:1033D000C0E9011510490562C0E90A15C46104631A
:1033E000C5604461FDF7E1FF18B17B210BA001F03E
:1033F00052FC02208DE8310069460648FDF72CFF9B
:10340000002803D0852105A001F045FC7FBD000008
:1034100000210140900B00200100000F2E2E2F53A1
:1034200072632F6164632E63000000007FB515484E
:1034300013490124016004614FF480310025846147
:10344000C0E9011510490562C0E90A15C4610463A9
:10345000C5604461FDF7A9FF18B19E210BA001F0E2
:103460001AFC03208DE8310069460648FDF7F4FE9A
:10347000002803D0A82105A001F00DFC7FBD0000AD
:1034800000220140D80B00200100000F2E2E2F53E8
:1034900072632F6164632E6300000000114810B551
:1034A0000F4901600621416000214FF480328160A4
:1034B000C0E903124FF440124261017601224276C4
:1034C0008276C17601774177FEF748FB002805D068
:1034D000BDE81040502104A001F0DDBB10BD00008C
:1034E00000640040F80A00202E2E2F5372632F63D1
:1034F000616E2E6300000000114810B50F49016095
:103500000621416000214FF480328160C0E903123E
:103510004FF4401242610176012242768276C176F2
:1035200001774177FEF71AFB002805D0BDE810406F
:10353000662104A001F0AFBB10BD00000068004090
:10354000200B00202E2E2F5372632F63616E2E638B
:1035500000000000214808B5016841F40011016035
:10356000016801F400110091016841F480010160DB
:103570000068002200F48000009007211020FEF770
:103580009BFF1020FEF78CFF002206210D20FEF786
:1035900093FF0D20FEF784FF002207210B20FEF78A
:1035A0008BFF0B20FEF77CFF002205213820FEF761
:1035B00083FF3820FEF774FF002207213920FEF731
:1035C0007BFF3920FEF76CFF002205213A20FEF731
:1035D00073FFBDE808403A20FEF762BF3038024072
:1035E00010B5A4B0142227496846FCF778FE0021E4
:1035F000684601F044FC244C224914222060143116
:1036000005A8FCF76CFE002105A801F038FC1D4957
:103610006060142228310AA8FCF761FE00210AA884
:1036200001F02DFC1749A06014223C310FA8FCF7D3
:1036300056FE00210FA801F022FC1249E06014227E
:10364000503114A8FCF74BFE002114A801F017FC20
:103650000C4920611422643119A8FCF740FE0021B6
:1036600019A801F00CFC07496061142278311EA8EA
:10367000FCF735FE00211EA801F001FCA06124B07A
:1036800010BD00005C5D00080000002030B545481A
:1036900087B00025016841F020010160016801F058
:1036A00020010591016841F080010160016801F08D
:1036B00080010591016841F004010160016801F099
:1036C00004010591016841F001010160016801F008
:1036D00001010591016841F002010160016801F0FA
:1036E00002010591016841F010010160016801F0DB
:1036F00010010591016841F008010160016801F0C5
:1037000008010591016841F0400101600068012451
:1037100000F04000059041F67F00CDE900046946C5
:103720002148CDE90245FEF735FD44F20700CDE919
:10373000000469461D480294FEF72CFD4FF44040FA
:10374000CDE9000469461A480294FEF723FD0620DD
:10375000CDE90005694602941648FEF71BFD60207E
:10376000CDE90005694602941348FEF713FD0022D7
:1037700005210720FEF7A0FE0720FEF791FE00229C
:1037800005210820FEF798FE0820FEF789FE00229A
:1037900005211720FEF790FE1720FEF781FE07B0E7
:1037A00030BD0000303802400014024000040240E6
:1037B00000100240000802400000024010B5164808
:1037C00086B04FF08041016053210024C0E901140C
:1037D0000121C0E90314FFF789F918B149210FA0AD
:1037E00001F059FA4FF48050009069460A48FFF7FB
:1037F000E1F918B14F2109A001F04DFA049404A990
:1038000005480594FFF74AF9002803D0562103A084
:1038100001F041FA06B010BD440A00202E2E2F53AD
:1038200072632F74696D2E630000000010B5164896
:1038300086B014490024C0E900148460C4600461A7
:10384000FFF754F918B1752110A001F024FA4FF4D4
:103850008050009069460C48FFF7ACF918B17B2105
:103860000AA001F018FA049404A907480594FFF788
:1038700015F9002803D0822104A001F00CFA06B04B
:1038800010BD000000080040800A00202E2E2F539B
:1038900072632F74696D2E63000000000D4810B52F
:1038A0000B4901604FF4E1314160002181600C223D
:1038B000C160C0E904128161C161FFF7C1FA00284B
:1038C00005D0BDE81040852103A001F0E4B910BD8A
:1038D000004C0040840600202E2E2F5372632F755B
:1038E000736172742E6300000D4810B50B490160BE
:1038F0004FF4E1314160002181600C22C160C0E9D8
:1039000004128161C161FFF79BFA002805D0BDE870
:103910001040BD2103A001F0BEB910BD004400401D
:10392000440700202E2E2F5372632F75736172741B
:103930002E6300000D4810B50B4901604FF4E131D2
:103940004160002181600C22C160C0E904128161E4
:10395000C161FFF775FA002805D0BDE81040D021FD
:1039600003A001F098B910BD004800408407002072
:103970002E2E2F5372632F75736172742E630000A5
:10398000FEE700002DE9F0478F49904D4FF0010808
:103990002DED048B4FF00009488A820502D585F889
:1039A000028001E085F8029010F0C00F02D085F887
:1039B000038001E085F80390C2060BD541F28832FE
:1039C000EA804EF678422A8140F6B8326A814FF298
:1039D000484214E0420507D54FF4FA72EA80534298
:1039E0002B816A81AB810BE04FF47A62EA804FF25F
:1039F00060022A814FF4FA626A814FF63002AA818E
:103A0000734C744E744F94ED000AC207B3EE0E8AE5
:103A10009FED729ADFED728A02D030EE480A20E004
:103A2000820702D530EE080A1BE010EE102AB242DF
:103A300005D210EE102ABA4201DA84ED009A94ED14
:103A4000000AB5EEC00AF1EE10FA03DD30EE680AA6
:103A500084ED000AB5EEC00AF1EE10FA03D230EEA2
:103A6000280A84ED000A5A4A8A46410692ED020A63
:103A700002D530EE480A20E0010602D530EE080AF1
:103A80001BE010EE101AB14205D210EE101AB94226
:103A900001DA84ED029A94ED020AB5EEC00AF1EE65
:103AA00010FA03DD30EE680A84ED020AB5EEC00AB2
:103AB000F1EE10FA03D230EE280A84ED020A2978DA
:103AC00009B1EA78EAB3800520D54648F0EE490A04
:103AD0004069404200EE100A4348B8EEC00A01F0C7
:103AE000E5F94148D0ED140A4048B0F900004042E1
:103AF00000EE100A3E48B8EEC00A01F0D7F93C4883
:103B000090ED140AB1EE400A84ED020ABAF81200F0
:103B1000410702D594ED010A2CE0000702D594ED8F
:103B2000010A22E06068B04201D2B84234DB94ED71
:103B3000010AB5EEC00AF1EE10FA05DD30EE680AB2
:103B400000E009E084ED010AB5EEC00AF1EE10FADA
:103B500014D230EE280A0FE0012901D0A97869B10A
:103B60001B4A010792ED010A02D530EE480A03E034
:103B700040070AD530EE080A84ED010ABAF81200AF
:103B800001040CD585F8018014E010EE100AB04253
:103B9000CDD210EE100AC8E784ED019AC7E74104C0
:103BA00005D585F80190BDEC048BBDE8F0876978F8
:103BB0000029F8D00105F6D5800601D5032000E0E4
:103BC00002206870EFE700000010002030000020A5
:103BD00054010020000096C300009643000000003E
:103BE000000096436C0E0020640100204600002077
:103BF000E4010020012908D0022905D100219FED10
:103C0000040BC16080ED040B70471821FCF780BBEA
:103C1000000000000000000010B50446FEF79CFB09
:103C20002060616801B1411AC4E90101E068DFED7B
:103C3000080A084400EE100AE060B8EEC00A20EE60
:103C4000200A10EE100AFCF7EDFBC4E9040110BDD8
:103C50006F12833A70470907090E002806DA00F050
:103C60000F0000F1E02080F8141D704700F1E02003
:103C700080F800147047000070B50024FEF76CFB5C
:103C800000EE100A0E4B0F4DB8EE400AA3F11401DE
:103C90005FF0010003EB8402D2ED000A70EE600ACF
:103CA00010EE902AAA420A8A00FA04F601DD324395
:103CB00000E0B243641C24B20A82092CEADB70BD26
:103CC000641000200000C84230B4034C8467034CE9
:103CD000C46730BC01F0CCB9715000087F500008B7
:103CE00010B52B482B4C2DED028B90ED0D8A84EDF9
:103CF000018A008EFCF789FB9FED271B53EC112BEB
:103D0000FCF711FBFCF7A1FB206025489FED250A7D
:103D1000D0ED000A60EE800AC4ED030AD0ED050A7A
:103D2000A4F1200020EE800A84ED040AD0ED070AF9
:103D3000B4EE608AF1EE10FA01D084ED038ADFED73
:103D40001A0A9FED1B1AB5EEC08A80ED078AF1EEC4
:103D500010FA164884ED038A02D8C4ED030A05E080
:103D600018EE101A814201DB84ED031AB5EEC00A89
:103D7000F1EE10FA04D8C4ED040ABDEC028B10BDBC
:103D800010EE101A8142F8DB84ED041AF5E700000A
:103D9000141000209C000020FCA9F1D24D62503F7D
:103DA000101100206666BA41000000000000964332
:103DB000000096432DE9F047554F544E0025DFF89B
:103DC0005491DFF854817C6893E0705DA5287DD123
:103DD00074190521204601F01FFE002876D0B4F8A2
:103DE00001102046093101F0F9FD00287FD0B4F818
:103DF0000500A0F5007101391DD1E17989F80010A5
:103E0000217A89F80110B4F80910A9F80210B4F861
:103E10000B10A9F80410B4F80D10A9F80810B4F8A4
:103E20000F10A9F80C10B4F81110A9F80A10B4F882
:103E30001310A9F80E10B4F80500A0F500710239AE
:103E400017D1B4F81110A9F81010B4F81310A9F88C
:103E50001210B4F80910A9F83210D4F80B10C9F8F0
:103E60003410B4F80F10A9F83810B4F80710A9F8F6
:103E70003010B4F80500A0F5007103390FD1D4F863
:103E80000710C9F82010D4F80B10C9F82410D4F882
:103E90000F10C9F82810D4F81310C9F82C10B4F872
:103EA0000500B0F5017F02D1E17989F80610B4F878
:103EB0000500A0F50071073915D1E079012808D176
:103EC000217A89F81410D4F8091000E00FE0C9F83D
:103ED0001810E079022806D1217A89F81510D4F853
:103EE0000910C9F81C10607809352844C5B26D1C4A
:103EF000EDB2B8F800008542FFF467AF7C60BDE822
:103F0000F047C8210148FCF703BA0000290F002040
:103F100074000020141000206000002010B504463A
:103F2000FEF71AFA00EE100A0348B8EE400A00EB5A
:103F3000840080ED000A10BD6410002002488168F2
:103F4000491C8160704700005010002010B50446E5
:103F5000FEF702FA00EE100A0348B8EE400A00EB42
:103F6000840080ED000A10BD8810002070B5344830
:103F70002DED028BFFF750FE324C334D334A206A51
:103F80002F49DFED330A9FED331AA84202DBE368C5
:103F900093420FDD94ED030A70EE601A91ED020A70
:103FA000B8EEC00A61EE801A94ED070A01EEC10A6C
:103FB00084ED070A94ED030A9FED278A10EE103A6C
:103FC00093420FDAA8420DD170EE600A91ED020A19
:103FD000B8EEC00A60EE800AB0EE480A00EEC10AF0
:103FE00084ED070A1D48008F00EE100AB8EE400A63
:103FF00084ED050AD4ED060AB4EE600AF1EE10FA7B
:1040000001D084ED070A84ED060A84ED070A022137
:104010000B48FFF7EFFD94ED070AB5EEC00AF1EE8D
:1040200010FA06D89FED0E0A84ED070ABDEC028B4C
:1040300070BD10EE100AA842F8DB84ED078AF5E7A0
:10404000281100209C000020000070420000A042C7
:104050000000A0426F12833A00007042141000204A
:10406000000000002DED028B84B001F0ABFD9FED50
:10407000518AB0EE481ADFED500A0290B1EE000A04
:104080004FF47A7343F6982203214C48FFF71CFE45
:1040900001264B4FDFF82C814B4C4C4D00F0FEF8C5
:1040A0000123F0EE480A009601961A461946387820
:1040B000B0EE601A01F0B6FA0220FFF747FF98F859
:1040C0000900012804D0022808D0032808D102E002
:1040D000FCF714FD04E0FFF755FC01E000F0B2F836
:1040E000B5F90800D4ED010A00EE100AB8EEC00AD6
:1040F000F4EEC00AF1EE10FA02D800EE100A0CE05D
:10410000B5F9061000EE101AB8EEC00AF4EEC00AB7
:10411000F1EE10FA05DB00EE101AB8EEC00A84EDDD
:10412000010A00EE900A94ED000AF8EEE00AB4EEFF
:10413000E00AF1EE10FA0AD9B5F9060000EE900A8D
:10414000F8EEE00AB4EEE00AF1EE10FA05DB00EE5C
:10415000100AB8EEC00A84ED000AB5F90C0094ED1F
:10416000020A00EE900AF8EEE00AB4EEE00AF1EE80
:1041700010FA0AD9B5F90A0000EE900AF8EEE00A42
:10418000B4EEE00AF1EE10FA05DB00EE100AB8EE2C
:10419000C00A84ED020A0E48FCF722FC0C48FCF72A
:1041A0004BFC28790521401C287102A800F051FE23
:1041B00074E70000000000000AD7233C040600203A
:1041C0004400002000100020540100203000002096
:1041D000F80A002070B588B014460D4606461C2229
:1041E00016496846FCF77BF8002D24D0132C22D109
:1041F000ADF80560ADF8014000208DF803000DF129
:10420000070100BF401C15F8012BC0B201F8012BBB
:10421000A042F7D30521684600F078FD0934E1B2E9
:10422000684600F05DFDADF81A0064231C22694663
:104230000348FFF72DF808B070BD0000E8600008E3
:10424000840700201249012212480B7A012B03D067
:10425000022B1BD0032B00D142700888A0F5806090
:1042600000EB800000EE100A0B48B8EEC00A80EDAB
:10427000020A4988A1F5806101EB8101494200EE03
:10428000101AB8EEC00A80ED000A70470022E3E77A
:104290000010002030000020540100200548F3EEFB
:1042A000000A90ED040A30EE600AF2EE090A20EEF0
:1042B000200A704710110020012000F0C3FDFBE729
:1042C00008B5642000F0BEFD01F07CFC4FF4004511
:1042D000324FDFF8CC90334CDFF8CCB06E104FF497
:1042E00080584FF4006A0090208AC10705D08107EA
:1042F00003D5410701D5000704D431465846FEF7DF
:1043000021F804E0012231465846FEF71FF8207CD0
:10431000C00604D429463846FEF714F804E001220A
:1043200029463846FEF712F8207C800604D4314630
:104330003846FEF707F804E0012231463846FEF71A
:1043400005F8207C400604D441464846FDF7FAFFB4
:1043500004E0012241464846FDF7F8FF207C0006B4
:1043600004D451464846FDF7EDFF04E001225146D2
:104370004846FDF7EBFF208AC00504D404215846C7
:10438000FDF7E0FF04E0012204215846FDF7DEFFBF
:104390004FF49671684600F05CFDA5E700100240FE
:1043A0000014024050100020000402402DE9F047A4
:1043B0008246FCF76BFEFFF793FCFFF7D7FDF7EEA5
:1043C000080AB3EE000AFCF787FB5F49B1F90C005D
:1043D000C82844DB5D4C01254FF00209207804F128
:1043E0002006002780B15A4AF068904201DA6570D1
:1043F00009E0584A904202DC84F8019003E09042C0
:1044000001DD0320607027706078DFF84C8101289F
:1044100027D0022847D0032821D10869B0F1834F63
:1044200001DB6079F0B36571002201214046FDF7A0
:104430008DFF002202214046FDF788FF0122042162
:104440004046FDF783FF504600F01CFE4349F069EB
:10445000884201DD25706771277184F80390BDE8FB
:10446000F087002201214046FDF770FF0122022162
:104470004046FDF76BFF012204214046FDF766FF31
:104480003749F0688842EADB257000220121404666
:10449000FDF75CFF002202214046FDF757FF012295
:1044A00004214CE010E0002201214046FDF74EFFC0
:1044B000002202214046FDF749FF01220421404627
:1044C000FDF744FF2570CAE720790028F06926D05F
:1044D00024494FF00002884211DD01214046FDF7DA
:1044E00035FF002202214046FDF730FF0122042162
:1044F0004046FDF72BFF25702771E770AFE70221DB
:104500004046FDF723FF002204214046FDF71EFF31
:10451000012211464046FDF719FFE5709FE7124959
:104520008842C0DA2571002202214046FDF70EFFC5
:10453000002204214046FDF709FF012211464046B2
:10454000BDE8F047FDF702BF101100207C000020FD
:10455000000020420000A0420014024000005C4223
:1045600000009642000048420000F04100F07DBC8F
:1045700030B5254893B00025016841F080510160B5
:10458000006800F0805011902048016841F480419B
:1045900001600068022400F4804011900120009026
:1045A000000401908001CDE90640182008904FF4E6
:1045B000A870CDE9090404200B906846FEF7BEF808
:1045C00000B1FEE70CA90F2081E831004FF4A050A4
:1045D0000F904FF48050109005210CA8FDF79EFF1E
:1045E00000B1FEE7FEF752F84FF47A71B0FBF1F03C
:1045F000FEF73EFA0420FEF72FFA00220F21501E8C
:10460000FDF75AFF13B030BD403802400070004043
:104610001048016841F4700101600F48016841F0E1
:10462000010101600C4A00210832116002680B4B45
:104630001A400260031D0A4A1A60026822F48022AE
:10464000026005480C300160024958068039086054
:104650007047000088ED00E000380240FFFFF6FEE2
:104660001030002470B50024FDF776FE00EE100A2D
:104670000E4B0F4DB8EE400AA3F138015FF0010078
:1046800003EB8402D2ED000A70EE600A10EE902A6D
:10469000AA424A8A00FA04F601DD324300E0B2433E
:1046A000641C24B24A82042CEADB70BD881000200E
:1046B0000000C8420148FEF7F7BA0000400D002094
:1046C0000148FEF7F1BA0000440A00200148FEF755
:1046D000EBBA0000BC0A0020F0B50268234B244D61
:1046E000244E254F254C4FF0804C984209D0604510
:1046F00007D0A84205D0B04203D0B84201D0A042B2
:1047000004D122F0700E4A6842EA0E0298421BD091
:10471000604519D0A84217D0B04215D0B84213D086
:10472000A04211D0164DA8420ED0164DA8420BD073
:10473000154DA84208D0154DA84205D0144DA842E9
:1047400002D0144DA84203D122F44075CA682A430E
:1047500002608A68C2620A688262984201D0A042FE
:1047600001D10969016301214161F0BD00000140EF
:104770000004004000080040000C0040000401401C
:104780000040014000440140004801400018004042
:10479000001C00400020004010B5846842EA03225B
:1047A00024F47F440A432243826010BD826822F0D1
:1047B00070020A4342F007018160704710B5036A36
:1047C000046A24F001040462846924F0F00444EAD9
:1047D000021423F00A020A438461026210BD10B57C
:1047E000036A23F0100303628369046A23F47043AD
:1047F00043EA023224F0A00343EA0111826101621C
:1048000010BD000038B5134802681168D268C1F3C2
:10481000001102F0100200291BD0002A19D00E4C02
:1048200021680A6822F001020A6000680168406895
:104830000090206840680949C0F10E000880FCF72C
:10484000E3FC21680E2048602068016841F0010106
:10485000016038BD84060020240900206200002089
:1048600070B5846B2068406994F83910C0F3C010AB
:104870000025212904D118B1E584204600F046F82E
:104880002068406994F83A10C0F38010222904D1BE
:1048900018B1E585204600F02BF8E06B40F01000E1
:1048A000E0632046FEF7CBFA70BD10B50146806B81
:1048B00009680968C90513D40021C1850168CA685F
:1048C00022F48072CA6001684A6922F001024A61DA
:1048D00001684A6922F040024A61202180F83A10BA
:1048E000FEF7D4FC10BD10B5806BFEF7D0FC10BDF8
:1048F0000168CA6822F49072CA6001684A6922F0AD
:1049000001024A61202180F83A1070470168CA68A4
:1049100022F0C002CA60202180F8391070470000E0
:104920002DE9F04104460068016921F44052E16834
:10493000114301612168C86849F20C629043236900
:10494000A268E5691A4363692B431A430243CA60AC
:104950002168486920F44072A06910434861E16908
:104960006425B1F5004F9748974A21684FF0320807
:104970003FD0914201D081427CD1FDF79DFE00EBFA
:10498000C00101EB001061688900B0FBF1F6FDF792
:1049900093FE00EBC00101EB001061688900B0FBE1
:1049A000F1F0B0FBF5F06FF01801484306EB800121
:1049B00008EB0110B0FBF5F000F0F006FDF77CFE0F
:1049C00000EBC00101EB001061688900B0FBF1F061
:1049D000B0FBF5F006EB0016FDF76EFE00EBC00134
:1049E00001EB001061688900B0FBF1F7FDF764FE90
:1049F000D2E0914201D081423DD1FDF75DFE00EB56
:104A0000C00101EB001061684900B0FBF1F0B0FBA0
:104A1000F5F00601FDF750FE00EBC00101EB0010C0
:104A200061684900B0FBF1F7FDF746FE00EBC001FD
:104A300001EB001061684900B0FBF1F0B0FBF5F04C
:104A40006FF01801484307EB800108EBC100B0FB91
:104A5000F5F000F0F80006EB4006FDF72DFE00EB48
:104A6000C00101EB001061684900B0FBF1F7FDF7F0
:104A700023FE3CE055E0FDF70FFE00EBC00101EB2B
:104A8000001061684900B0FBF1F0B0FBF5F00601E1
:104A9000FDF702FE00EBC00101EB00106168490068
:104AA000B0FBF1F7FDF7F8FD00EBC00101EB0010E2
:104AB00061684900B0FBF1F0B0FBF5F06FF0180150
:104AC000484307EB800108EBC100B0FBF5F000F0B4
:104AD000F80006EB4006FDF7DFFD00EBC00101EB3F
:104AE000001061684900B0FBF1F7FDF7D5FD00EB60
:104AF000C00101EB001061684900B0FBF1F0B0FBB0
:104B0000F5F06FF01801484307EB800108EBC10096
:104B1000B0FBF5F000F00700216830448860BDE884
:104B2000F081FDF7B9FD00EBC00101EB00106168F9
:104B30008900B0FBF1F6FDF7AFFD00EBC00101EB22
:104B4000001061688900B0FBF1F0B0FBF5F06FF088
:104B50001801484306EB800108EB0110B0FBF5F0AB
:104B600000F0F006FDF798FD00EBC00101EB00102E
:104B700061688900B0FBF1F0B0FBF5F006EB0016C0
:104B8000FDF78AFD00EBC00101EB001061688900B0
:104B9000B0FBF1F7FDF780FD00EBC00101EB001069
:104BA00061688900B0FBF1F0B0FBF5F06FF018011F
:104BB000484307EB800108EB0110B0FBF5F000F073
:104BC0000F00A9E700140140001001402DE9F04159
:104BD000984617460E460446069D1DE0681C1BD0ED
:104BE0002DB1FDF7B9FBA0EB0800A84214D920684D
:104BF000C16821F4D071C1602068416921F00101D0
:104C00004161202084F8390084F83A00002084F8BB
:104C100038000320BDE8F0812068006836EA000013
:104C200004D00020B842D9D00020F3E70120F9E7F2
:104C300038B5154C21680868C968C0F3001001F048
:104C4000100100281ED000291CD00620FFF766F9AD
:104C50000E4D2868016821F001010160206801689B
:104C600040680090286840680949C0F1C800088081
:104C7000FFF7A0F82968C82048602868016841F05B
:104C80000101016038BD0000840700206408002095
:104C900060000020FEE7FEE702E008C8121F08C11E
:104CA000002AFAD170477047002001E001C1121FAD
:104CB000002AFBD17047D0ED000AF4EEC00AF1EEF5
:104CC00010FA01DD80ED000AD0ED000AB1EE400AD5
:104CD000F4EEC00AF1EE10FA01D280ED000A70473E
:104CE00030B50C46050001D0022C01D8002030BDA3
:104CF0000548A11E0288284600F01AF82919020A60
:104D000001F8020D4A7030BD7400002030B50C4629
:104D1000050001D0022C01D8002030BD601E81B2F8
:104D2000FF22284600F01AF8291901F8010C30BDBD
:104D300010B558B1084C491E0BD310F8013B534035
:104D4000DBB234F8133083EA1222F4E74FF6FF7037
:104D500010BD104610BD0000E85E000810B5064CFE
:104D600004E000BF10F8013B5340E25C491E89B2E9
:104D7000F8D2104610BD0000E85D000810B5104ADA
:104D800003894381118849BA01815488CB1A64BAD6
:104D900004809488B3F5805F64BA4480927982710C
:104DA000026901DD521E03E013F5805F01DA521C37
:104DB000026101EB42318289891A416110BD000014
:104DC0001E0000200249098849BA0181818170478B
:104DD0001E00002005489FED040A80ED010A80EDC9
:104DE000000A80ED020A7047000000005401002014
:104DF000FDF7C0FAFFF7BCFB00F0A8FCFBF7F6FCE0
:104E0000FEF7EEFB00F0C2FC00F02AF8FEE70146D8
:104E10000020842900D0C81C704770EEC01A30EE04
:104E2000200A31EE812A71EE400A30EE010A80ED4F
:104E3000002AC0ED010A71EE610AC0ED020A80EDA0
:104E4000030A704710B500B9012000F0F1FC002002
:104E500010BD10B501B9012100F010FD002010BDFA
:104E600010B500F051FD002010BD10B500F09CFE03
:104E7000012803D0BDE8104000F054BE10BD3EB57F
:104E800004460D46B0F90800FFF7C1FF02A9CDE9BD
:104E90000001208A2B4682B2D4E9001000F058FEAF
:104EA000012801D000203EBD02983EBD00B530EE85
:104EB000C01A80ED080AC0ED050A80ED0B1AD0ED8E
:104EC000191A01469FED692A30EEC00AF5EEC01AA4
:104ED000B1EE400AF1EE10FA0ED0B5EEC01AF1EEC6
:104EE00010FA02DDF0EE410A01E0F0EE400AF4EEC5
:104EF000E10AF1EE10FA12DCD1ED1A0AF5EEC00A61
:104F0000F1EE10FA0ED0B5EEC01AF1EE10FA01DD96
:104F1000B0EE410AB4EEE00AF1EE10FA02D2B0EEC1
:104F2000420A00BDC86E01F13402032802D00428F1
:104F300038D07AE091ED000A104620EE010A81EDAA
:104F40000C0A91ED0D0AD1ED010A00EE810A81ED06
:104F50000D0A91ED0A0AD1ED020A31EE400A20EE67
:104F6000200A81ED0E0A91ED1D0AB8EE400AFFF706
:104F7000A2FE91ED0C0AD1ED0D0A01F1500030EEC8
:104F8000200AD1ED0E0A30EE200A81ED140A91EDCF
:104F90001C0AB8EE400AFFF78EFE91ED140A81ED6F
:104FA000150A42E091ED0A0AD1ED001A104671EEA1
:104FB000400A60EEA10AC1ED0C0AD1ED010A60EED3
:104FC000810AC1ED0D0AF0EE000A00EE601A91EDC3
:104FD000090AD1ED020A31EE000A20EE200A81ED25
:104FE0000E0A91ED1D0AB8EE400AFFF764FE91ED3E
:104FF0000C0AD1ED0D0A01F15C0030EE200AD1ED72
:105000000E0A30EE200A81ED160AD1ED180A30EEB4
:10501000800A81ED170A91ED1C0AB8EE400AFFF7ED
:105020004AFE91ED170A81ED180A91ED0A0A81ED09
:10503000090A91ED0B0A81ED0A0A91ED070A81ED4B
:10504000060A91ED080A81ED070A91ED040A81ED47
:10505000030A91ED050A81ED040AC86E032802D007
:1050600091ED170A00BD91ED140A00BD000000008B
:1050700000F16C0C8CE80E0080EC030A704780ECA9
:10508000030A704710B59FED4E1AD0ED000AF5EEF9
:10509000C00AF1EE10FA01DCF1EE600A90ED010AAF
:1050A000B5EEC00AF1EE10FA01DCB1EE400A70EE86
:1050B000800A90ED020AB5EEC00AF1EE10FA01DCAA
:1050C000B1EE400A70EE800A90ED030AB5EEC00A18
:1050D000F1EE10FA01DCB1EE400A3A4970EE800AB6
:1050E0003A4C098F00EE101A3749B8EE400AA1F188
:1050F000200310EE102A81ED090AA24202DD0020F1
:10510000987051E010EE104A314A944202DA0124BC
:105110009C7002E09B78012B46D12E4CCB68A342B9
:1051200003DC10EE103A93423EDAB5EEC00AF1EE1F
:1051300010FA01D281ED091AD1ED091ADFED272A03
:105140009FED250A21EEA12AC2EE221A61EE801AF5
:10515000B7EE000AC1ED0A1A30EE800A90ED002A7F
:10516000C2EE000A60EEA10AC0ED000AD0ED011AFD
:10517000C1EE800AD1ED0A1A60EEA10AC0ED010A63
:10518000D0ED021AC1EE800AD1ED0A1A60EEA10A32
:10519000C0ED020AD0ED030AC0EE801A91ED0A0AB2
:1051A00021EE800A80ED030A0D4AC868904201DAB8
:1051B00081ED0A1A91ED070A81ED080A10BD000081
:1051C00000000000141000209C00002000005C4241
:1051D0000000F041000020410080BB4500103D452B
:1051E0000000A0422DE9F041184C0F460546E66844
:1051F0002068001D00F055FA38B9206890F82C108E
:1052000001208840216981432161681C07D137B1A1
:105210002168BDE8F0410E48091D00F07ABA206807
:105220003544B5424560216805D2A06BBDE8F04128
:10523000091D00F056BA606B091D00F052FAA06A11
:10524000854200D2A562BDE8F0810000FC0000208C
:10525000344E00202DE9F041054600F077FA2E4C3F
:10526000A068401CA06020682C4F10B1606940B35A
:105270002DE02560A068012829D1002606EB8600D4
:1052800007EB800000F01FFA761C072EF6D32348A8
:105290008C3000F018FA2148A03000F014FA1F48B2
:1052A000B43000F010FA1D48C83000F00CFA1B486A
:1052B000DC3000F008FA19488C3060631430A063C9
:1052C00005E02068E96AC06A884200D82560606A03
:1052D000401C6062E96A0120226988401043206115
:1052E00001EB810007EB8000291D00F012FA00F0AD
:1052F0004DFA606900280CD02068E96AC06A8842CB
:1053000007D207494FF080500860BFF34F8FBFF3BB
:105310006F8FBDE8F0810000FC000020584D002098
:1053200004ED00E070B5114E114C17E000F020FBC9
:105330003068B8B100F0B0FC00F008FAF068C56859
:10534000281D00F0AEF9A068401EA0606068401EF5
:10535000606000F01BFA284600F00CF86068002836
:10536000E4D170BD00F098FCF8E70000204E00206A
:10537000FC00002010B50446006B00F01BFA20462C
:10538000BDE8104000F016BA10484FF470514207C3
:1053900006D0C01D0D4920F00700411AC1F570511B
:1053A0000B4A00230144C2E900030839103A21F0F6
:1053B000070111604B600B600B1AC0E9001393608A
:1053C0004FF000405360D06070470000581100203B
:1053D000E8000020074C4FF08056074DFFF7A2FF72
:1053E00020680128FAD92E60BFF34F8FBFF36F8F6B
:1053F000F4E70000584D002004ED00E02DE9F047EF
:105400009A46DDE9098481466FF00303206B03EBC4
:1054100082021044089D20F00706700707D0502034
:1054200080F31188BFF34F8FBFF36F8FFEE7231810
:105430000A5C83F834200A5C12B1401C1028F6D3B1
:10544000002784F84370072D00D30625E562C4E9E0
:105450001157201D00F042F904F1180000F03EF948
:105460002461C5F107006462A061E76484F85070AC
:1054700052464946304600F0BFF82060B8F1000FB0
:1054800001D0C8F80040BDE8F087000030B51149F0
:1054900000E011460A688242FBD34B685C188442E4
:1054A00003D1406818444860084643681C18944279
:1054B00009D1084C103C2468A24209D052681A4411
:1054C00042600A6812680260814200D0086030BD04
:1054D0000460F9E7E80000200648416B096829B13B
:1054E000416BC968C9684968816270474FF0FF31F4
:1054F000FAE70000FC00002008484068401C4FF01C
:10550000500080F3118804D0BFF34F8FBFF36F8F2B
:10551000FEE7BFF34F8FBFF36F8FFEE7F000002071
:105520002DE9F0410546002700F022FA314E30689F
:1055300008B9FFF729FFF06805424BD1C5B308351C
:1055400068070ED005F00700C0F1080005446807A1
:1055500007D0502080F31188BFF34F8FBFF36F8FB8
:10556000FEE72DB37068854234D8224810300146DA
:105570000C6801E020460C466168A94202D221680D
:105580000029F7D131688C4224D007682168016076
:1055900060680837411B10290FD96019420708D0ED
:1055A000502080F31188BFF34F8FBFF36F8FFEE75A
:1055B00010E041606560FFF769FF61687068401A3C
:1055C0007060B268904200D2B060F0680143002081
:1055D000C4E9000100F060FB780707D0502080F399
:1055E0001188BFF34F8FBFF36F8FFEE73846BDE8DA
:1055F000F0810000D800002010B5031F4FF0807428
:105600001C601B1F21F001011960191F044B0B6066
:1056100014390A60091F6FF0020244380A6010BD95
:10562000F954000870B586B04DF28014DDE90A65C2
:10563000ADF800400124ADF8024040F20114ADF88D
:10564000044010EE104A4001CDF8064010EE904A9A
:1056500040EA0110CDF80A4011EE104A1043CDF88F
:105660000E40184301D106B90DB1012000E0002021
:105670008DF812001322694640F20130FEF7AAFDB0
:1056800006B070BD08B5C820FFF7DCFB00F09AFA41
:1056900000900020FEF75AFC32216846FFF7D9FB44
:1056A000F7E7D0E9013201699A60D0E901235A6035
:1056B0004A68824201D182684A6000220261086819
:1056C000401E0860704700F108014FF0FF32C0E94A
:1056D0000112C16001610021016070470021016178
:1056E000704730B50B685A1C02D000F1080202E086
:1056F000026904E02246546825689D42FAD953683D
:105700004B6099608A60516008610168491C0160C2
:1057100030BD42684A6093688B60936859609160BD
:1057200008610168491C0160704708B500F04AFA39
:1057300000900320FEF70AFCFEF794FFFEF79CFAA8
:1057400014216846FFF785FBF3E70000502080F343
:105750001188BFF34F8FBFF36F8F0A494868401C11
:10576000486001280CD10848006810F0FF0F07D0EE
:10577000502080F31188BFF34F8FBFF36F8FFEE788
:1057800070470000F000002004ED00E00849486880
:1057900028B1401E486001D180F311887047502025
:1057A00080F31188BFF34F8FBFF36F8FFEE70000C8
:1057B000F000002070B5002827D0144DA0F1080497
:1057C0006168E868014207D1502080F31188BFF377
:1057D0004F8FBFF36F8FFEE722683AB1502080F3FE
:1057E0001188BFF34F8FBFF36F8FFEE78143616076
:1057F00000F0BEF860686968084468602046FFF7FA
:1058000045FEBDE8704000F047BA70BDD8000020EA
:1058100006484FF47A710068B0FBF1F14FF0E020D8
:10582000491E41610721016170470000D40000203A
:1058300010B5020014D00F48006B38B1502080F32F
:105840001188BFF34F8FBFF36F8FFEE700F090F822
:1058500000211046FFF7C6FC00F01EFA002807D111
:1058600005494FF080500860BFF34F8FBFF36F8F33
:1058700010BD0000FC00002004ED00E070B50D46F6
:1058800004000BD095B11E4A106BB8B1502080F3C4
:105890001188BFF34F8FBFF36F8FFEE7502080F367
:1058A0001188BFF34F8FBFF36F8FFEE7502080F357
:1058B0001188BFF34F8FBFF36F8FFEE700F058F8EA
:1058C000D26823685919934204D98B420AD991426C
:1058D00002D807E08B42FAD9881A21600021FFF72D
:1058E00081FC00E0216000F0D7F9002807D10549CC
:1058F0004FF080500860BFF34F8FBFF36F8F70BDC4
:10590000FC00002004ED00E01CB515480024CDE9A2
:1059100000402346802213A1144800F019F9012801
:1059200009D0401C1AD1502080F31188BFF34F8F4B
:10593000BFF36F8FFEE7502080F31188BFF34F8FC6
:10594000BFF36F8F06484FF0FF312C388162012181
:105950004161C460BDE81C4000F074B81CBD00008B
:105960002801002049444C4500000000D5530008A0
:105970000248016B491C016370470000FC000020D5
:105980001448016B11B10121C16170470021C1614F
:105990000169B1FA81F1C1F11F0101EB81020E49E8
:1059A00051F822306BB101EB820101F108034A6822
:1059B00052684A609A4201D152684A60D1680160D7
:1059C0007047502080F31188BFF34F8FBFF36F8F64
:1059D000FEE70000FC000020584D002030B50C46CA
:1059E000050014D0022C12D90A48A11E02882846AC
:1059F000FFF79EF92919C2B211F8023C9A4206D16A
:105A000011F8011CB1EB102F01D1012030BD002095
:105A100030BD00007400002030B50C4605000ED0EB
:105A2000022C0CD9601E81B2FF222846FFF796F99E
:105A3000291911F8011C814201D1012030BD00203B
:105A400030BD00001CB532480168324A914207D18E
:105A5000502080F31188BFF34F8FBFF36F8FFEE7A5
:105A600000682C49491E884207D1502080F31188D4
:105A7000BFF34F8FBFF36F8FFEE727490878019080
:105A8000FF20087008788DF800009DF800009DF850
:105A9000002000F0F000904207D0502080F31188E1
:105AA000BFF34F8FBFF36F8FFEE79DF800001B4AD7
:105AB00000F0500010700720906005E09DF8003065
:105AC0005B008DF80030401E9DF800301B06F5D4B9
:105AD000000200F4E0609060019808700C482030EB
