:020000040800F2
:10000000684C002059020008E5350008432E00081E
:100010008D340008310A0008DD3E000800000000B1
:100020000000000000000000000000009D0100082A
:100030007D0E000800000000F10100085D38000896
:1000400073020008730200087302000873020008BC
:100050007302000873020008730200087F0E000894
:10006000850E00087302000873020008730200087E
:10007000730200087302000873020008730200088C
:10008000730200087302000873020008730200087C
:10009000350A000873020008730200088B0E00087E
:1000A0007302000855390008730200087302000843
:1000B0006139000873020008730200087302000827
:1000C000730200087302000873020008730200083C
:1000D00073020008D13E0008730200087302000892
:1000E000730200087302000873020008730200081C
:1000F000730200087302000873020008730200080C
:1001000073020008730200087302000873020008FB
:1001100073020008730200086D39000873020008BA
:10012000F50D00087302000873020008730200084E
:1001300073020008730200087302000873020008CB
:10014000410A0008730200087302000873020008E5
:1001500073020008730200087302000873020008AB
:10016000730200087302000873020008730200089B
:100170007302000873020008730200080000000008
:100180007302000873020008DFF80CD000F0ACFB2B
:1001900000480047B5480008684C00202B4B196800
:1001A0000868B0E8F04F80F30988BFF36F8F4FF015
:1001B000000080F3118870470000000006480068C6
:1001C000006880F3088862B661B6BFF34F8FBFF353
:1001D0006F8F00DF00BF00BF08ED00E0DFF80C000C
:1001E000016841F470010160704700BF88ED00E0D4
:1001F000EFF30980BFF36F8F144B1A681EF0100FD6
:1002000008BF20ED108A20E9F04F106008B44FF0CD
:10021000500080F31188BFF34F8FBFF36F8F05F04D
:10022000ABF94FF0000080F3118808BC196808682A
:10023000B0E8F04F1EF0100F08BFB0EC108A80F34A
:100240000988BFF36F8F704700BF00BF8000002098
:10025000EFF30580704700000648804706480047D6
:10026000FEE7FEE7FEE7FEE7FEE7FEE7FEE7FEE766
:10027000FEE7FEE701390008890100082DE9F05F7B
:100280000546002092469B46884606468146402405
:100290001BE0284641464746224600F0E4F9534613
:1002A0005A46C01A914110D311461846224600F012
:1002B000CBF92D1A67EB01084F4622460120002199
:1002C00000F0C2F917EB00094E41201EA4F1010411
:1002D000DFDC484631462A464346BDE8F09F40EA07
:1002E00001039B0703D009E008C9121F08C0042AB4
:1002F000FAD203E011F8013B00F8013B521EF9D29B
:100300007047D2B201E000F8012B491EFBD27047C2
:100310000022F6E710B513460A4604461946FFF7D1
:10032000F0FF204610BD2DE9FE4F804681EA030014
:10033000C00F0C46009021F0004123F00045B8EBBF
:100340000200A94105D24046214690461C460B4674
:10035000024623F00040104347D0270DC7F30A00A0
:10036000C3F30A510290401A019040286BDAC3F39C
:10037000130040F4801B0098924620B10023D2EB7A
:10038000030A63EB0B0B01985946C0F1400250463B
:1003900000F05AF906460D4650465946019A00F0BB
:1003A00072F910EB08006141002487EA115284EAD7
:1003B000E7731A4340D0009A62B3019A012A4FEAC8
:1003C000075215DC001B61EB02014FF0004202EA0C
:1003D0000752CDE90042001C41F5801132462B4600
:1003E00000F0A9F903B0BDE8F08F40462146F9E7D7
:1003F000001B61EB0201001C41F5801300185B41FA
:100400002018A2F5001747EB030140EAD570B61992
:100410006D4111E06D084FEA360645EAC0754FEAB6
:100420000752001B61EB0201001C41F580114908D5
:100430004FEA30000019514132462B4603B0BDE867
:10044000F04F00F069B90098012240000023D0EB82
:10045000020263EBE073009821464FEAE074B8EBC8
:10046000000061EB0401E9E783F000435BE781F002
:10047000004158E72DE9F04D81EA030404F0004BF8
:1004800021F0004514464FF0000A23F0004150EAE5
:10049000050220D054EA01021DD0C5F30A570246D6
:1004A000C5F31303C1F31300C1F30A5640F48015DA
:1004B00043F48013A7EB0608101BD64608F2FD385C
:1004C00073EB050002D308F1010801E092185B41CB
:1004D000B8F1000F03DA00200146BDE8F08D0020DE
:1004E0004FF48011064684460EE0171B73EB050798
:1004F00005D3121B63EB050306434CEA010C4908C4
:100500004FEA300092185B4150EA0107EDD152EA00
:10051000030012D082EA040083EA0501084305D0F3
:10052000101BAB4106D20122002306E000224FF04F
:10053000004302E06FF0010253101AEB06004CEB8F
:10054000085110EB0A0041EB0B01BDE8F04D00F043
:10055000E3B80EB5C10F80EAE0700844CA07002175
:1005600040F233438DE80E000A460B4600F0E3F8F4
:1005700003B000BD0EB540F2334102910021CDE938
:1005800000110A460B4600F0D6F803B000BD00F09B
:10059000004230F000400AD0C10D01F56071C0F397
:1005A000160042EA0151C20840071143704700207B
:1005B0000146704730B5041E71F1000404DB4FF0B2
:1005C0000044404264EB0101141E73F1000405DB9A
:1005D0001C464FF00043524263EB0403994208BFAC
:1005E000904230BD01F0004330B421F0004150EAA8
:1005F000010206D00A0DA2F56072C1F31301002AB0
:1006000002DC30BC00207047440F44EAC104C10042
:10061000E01830BC00EBC25000F047B830B50B46D4
:10062000014600202022012409E021FA02F59D4222
:1006300005D303FA02F5491B04FA02F52844151EF6
:10064000A2F10102F1DC30BD202A04DB203A00FADD
:1006500002F1002070479140C2F1200320FA03F319
:10066000194390407047202A04DB203A21FA02F017
:100670000021704721FA02F3D040C2F120029140DC
:10068000084319467047202A06DBCB17203A41FA67
:1006900002F043EAE07306E041FA02F3D040C2F10F
:1006A000200291400843194670470029A8BF7047AF
:1006B000401C490008BF20F00100704710B4B0FA98
:1006C00080FC00FA0CF050EA010404BF10BC704733
:1006D00049B1CCF1200421FA04F411FA0CF118BF4D
:1006E000012121430843A3EB0C01CB1D4FEA00611C
:1006F0004FEA102042BF002010BC704700EBC350EF
:1007000010440029A4BF10BC7047401C490008BF1A
:1007100020F0010010BC704710B5141E73F10004E6
:1007200008DA401C41F1000192185B411A4301D1E3
:1007300020F0010010BD2DE9F04D92469B4611B10D
:10074000B1FA81F202E0B0FA80F220329046FFF76F
:100750007BFF04460F4640EA0A0041EA0B0153467C
:100760005A46084313D0114653EA010019D0C8F184
:1007700040025046FFF777FF05460E465046594661
:100780004246FFF761FF084305D0012004E0204600
:100790003946BDE8F08D0020054346EAE0762C435B
:1007A00037430A986305E40AA0EB08000022FD0A1B
:1007B00044EA47540A3002D500200146E9E7010522
:1007C00010196941DDE9084500196941BDE8F04D9E
:1007D000A2E72DE9FE4F81EA030404F0004421F072
:1007E000004100944FF0000B23F0004350EA010455
:1007F0005ED052EA03045BD0C3F30A54C1F30A5536
:100800002C44A4F2F3340194A0FB0254C1F313016D
:1008100041F48011C3F3130343F4801301FB02443A
:1008200000FB034E840A970A44EA815447EA83573F
:10083000A4FB076802958D0A05FB07854FEA932CF8
:1008400004FB0C542705029D4FEA065847EA163769
:10085000B5EB08056EEB070C870E920E47EA811781
:1008600042EA8312A7FB0201B6EB0B0164EB000422
:100870002B0D43EA0C335E1844EB1C50DA4651460C
:10088000E7FB0201C5F313044FEA0B3343EA1453A9
:100890004FEA0432019C43EA0603A4F10C040294DB
:1008A000009CCDE900B4FFF746FF03B0BDE8F08F30
:1008B00000200146F9E7C1F30A52C1F3130140F2E7
:1008C000FF3341F480119A4202DA0020014670475A
:1008D00040F233439A42A2F2334202DC5242FFF723
:1008E000C2BEFFF7B1BE0000064C074D06E0E0684F
:1008F00040F0010394E8070098471034AC42F6D367
:10090000FFF746FC8C590008AC590008454910B562
:100910004A6822F440324A604A6843681A434A608F
:1009200001684A6822F480724A6001684A68036973
:1009300042EA03224A6001684A6822F040724A6033
:1009400001684A6883681A434A6001688A6822F429
:1009500000628A6001688A68C3681A438A60816A93
:100960006FF07062D14201688A6822F070628A601A
:1009700001688A680CD0836A1A438A6001688A68B1
:1009800022F040528A6001688A68C36A1A4301E013
:1009900022F040528A6001688A6822F002028A606E
:1009A00001688A68836942EA43028A60016A002911
:1009B00001684A680FD042F400624A6001684A68E0
:1009C00022F460424A6001684A68174C436A04EBAB
:1009D00043331A4301E022F400624A600168CA6AA4
:1009E00022F47002CA620168CA6A838B0F4C04EB5E
:1009F00003531A43CA6201688A6822F400728A604B
:100A000001688A68036B42EA43228A6001688A6847
:100A100022F480628A6001688A68406942EA802024
:100A2000886010BD0023014000E0FFFF0000F0FFE0
:100A3000FEE70000014800F0C9BD00003C070020AF
:100A4000014800F0C3BD000064070020044801888D
:100A50004ABA04498A80408840BAC880704700007A
:100A6000120000203C000020074801884ABA0749CC
:100A70004A82428852BA0A80828852BA4A8082796F
:100A80000A72C07948727047120000204C4700205B
:100A900009480A4A018849BA09B2516141884ABAEB
:100AA00007494A8002791206120C0A704079000642
:100AB000000C48707047000012000020F009002070
:100AC0003C00002000B58BB000210122CDE90612C8
:100AD00003910892094A0091019102910491904278
:100AE00000D1059105492831884201D10E21059197
:100AF000694600F067FC0BB000BD00003C07002019
:100B00001B4B30B41888184CA0F5806000EB8001B6
:100B100058886578A0F5806000EB8000134A404259
:100B2000012D16D000EE101AB8EEC00A82ED020AAE
:100B300000EE100AB8EEC00A82ED000A20781428F0
:100B40000FD315202070187A01280AD130BC03F089
:100B5000A3BE494200EE101AB8EEC00A82ED010AA7
:100B6000E6E730BC704700001C0000201C0100209C
:100B70004C4700201CB5C82003F009FF04F0EAFD33
:100B8000DFF818810021019088F8001000F0D6F8F5
:100B9000DFF814B1DFF808A1DFF808910BF59076C3
:100BA000424F06F1900500BF9AF8000040B289F864
:100BB000000010B101282BD103E058469BED021A2A
:100BC0001FE03B48DFED3B0A90ED050A3648B8EEE2
:100BD000C00A103003F010FF33481030D0ED140A73
:100BE0003548B0F90000404200EE100A2E48B8EE39
:100BF000C00A903003F000FF2B48903090ED141A9B
:100C000058469BED010AD0ED000A2C4803F0AAFEDD
:100C10005FF0000406EB8400D0ED000AC4EB041082
:100C200037F9200000EE100A05EBC410B8EEC00A38
:100C300003F0E2FE641C042CECDB2048103803F0C7
:100C4000C7FF98F80000012824D095ED740ABDEE86
:100C5000C00A10EE100A00B2009095ED540ABDEEE5
:100C6000C00A10EE100A95ED340A03B2BDEEC00AB8
:100C700010EE100A95ED140A02B2BDEEC00A10EE95
:100C8000100A01B20E4800F01DF8052101A803F07A
:100C900085FE89E70A4800F037F8F6E71A000020D9
:100CA0003C0000201D0000201C010020C408002082
:100CB000F0090020000000003E0000203C0200205F
:100CC00064070020F0B40E4C0826049D266100261F
:100CD000A660E6604FF4007626600A4C0E0A267085
:100CE0006170110AA170E270190A21716371290AF9
:100CF000A171E5712246F0BC0123014900F0FEBA62
:100D00002C0A0020440000200A4A08214FF40073F6
:100D10001161002191601360D160074A01231170B5
:100D200051709170D170117151719171D1710149EE
:100D300000F0E4BA2C0A0020440000202DE9F04124
:100D40004FF47A742DED028B42F210759FED238AD9
:100D5000B3EE041AB7EE080AF0EE480A23462A4614
:100D600003211F4802F050FC1D489FED1E0AB3EE00
:100D7000041A80ED1A0ADFED1C0AB1EE000A2346C0
:100D80002A460321A0F5907002F03EFC1448B0EE14
:100D9000481AF0EE480A9FED150A2346A2000321E7
:100DA000A03802F031FC0E4E00249FED118A8036EF
:100DB0004FF4FA67F0EE480A06EBC410B0EE601A82
:100DC000B7EE080A3B462A46032102F01DFC641CCC
:100DD000042CEFDBBDEC028BBDE8F08100000000CD
:100DE0004C020020000016430AD7233CCDCC4C3FD8
:100DF000CDCCCC3D014800F09FBE0000640800202F
:100E000001681823CAB2103AB2FBF3F2054B6FF334
:100E10000901032A9B5CC36500D9091D8165084649
:100E2000704700003C59000810B5014600208B694E
:100E30008A6A4FF0C07453B1B3F5005F15D072B138
:100E4000012A0CD0022A0AD0032A09D104E01AB1DF
:100E5000012A06D0022A03D1C96AC90100D501209E
:100E600010BDC96AA142FAD010BD002AF7D0012AEC
:100E7000F2D0022AF3D0032AF3D010BD704702202B
:100E800000F096BF042000F093BF10B5202000F0C2
:100E90008FFFBDE81040402000F08ABF10B50F4C16
:100EA0002DED028BA068FFF754FB41EC180BE068B6
:100EB0000068406AFFF75EFB9FED091B53EC112BA6
:100EC000FFF7D8FA53EC182BFFF72DFAFFF78AFB40
:100ED000BDEC028B00EE100A10BD0000004800209F
:100EE000000000000000594000B5284A00210846D3
:100EF00052F82030401CC0B219440A28F8D300EE42
:100F0000101A9FED231A214BB8EEC00A2833181D82
:100F100020EE010A83ED000A83ED0B0A02F0E0FFE8
:100F200060EE010ADFED1B1AB0EE040AC3ED0C0AF5
:100F3000B3F94000B3EE091AC82808DD10EEA10A83
:100F400093ED0E2A10EE012A83ED0D2A00BD10EE5E
:100F5000A10A401C00B2A3F84000322820EE010A8A
:100F600083ED0D0AF2DDD3ED0F0AC82830EE600ADA
:100F7000D3ED0E0A30EE200A83ED0E0AE6DDDFED3A
:100F8000060A80EE201A83ED0E1A00BD604700208D
:100F9000CDCCCC3DED32533A0000164378B5002459
:100FA000009490F83C20012A19D0012280F83C20BE
:100FB0000A6807230568092A13D9EE680A3A02EB82
:100FC000420293409E43EE600B788A680A3B03EB33
:100FD00043039A400368DD682A43DA6010E0022088
:100FE00078BD2E6902EB420293409E432E610B783E
:100FF0008A6803EB43039A4003681D692A431A6118
:101000004A681F23072A13D205686E6B521E02EB33
:10101000820293409E436E630B790A885B1E92B2F4
:1010200003EB83039A4003685D6B2A435A6327E00E
:1010300005680D2A12D22E6BD21F02EB820293405A
:101040009E432E630B790A88DB1F92B203EB830366
:101050009A4003681D6B2A431A6311E0EE6A0D3A49
:1010600002EB820293409E43EE620B790A880D3BAD
:1010700092B203EB83039A400368DD6A2A43DA6283
:10108000164B0568144A9D4206D10D68122D03D1F6
:10109000556845F48005556005689D4218D10B6878
:1010A000102B01D0112B13D1536843F4000353606C
:1010B000096810290CD10A490A4A0968B1FBF2F102
:1010C00001EB8101490000E0491E00910029FBD19C
:1010D00080F83C40002078BD002301400020014002
:1010E0005800002040420F0070B504004FF000058A
:1010F00003D0206C002610B107E0012070BD6664AB
:1011000084F83C60204600F019F8206CC00610D42A
:10111000206C20F4885040F0020020642046FFF745
:10112000F5FB6664206C20F0020040F001002064B2
:1011300000E0012584F83C60284670BD70B5064685
:101140002A4C036800252A4903202A4A86B0A34274
:101150002BD10B6843F480730B600968029501F48E
:10116000807105911E21CDE900106946104600F0FE
:101170002BFE224C2048C4E900050015A560C4E9F7
:101180000350400060618000A0614011C4E9070580
:101190002046656200F0A0FD18B1D02118A002F031
:1011A000B3FEB463A66306B070BD194CA34209D167
:1011B0000B6843F400730B60096801F4007105913A
:1011C00004210BE0134CA342EDD10B6843F4806380
:1011D0000B60096801F4806105910821CDE90010D8
:1011E00002956946104600F0EFFDDCE70020014063
:1011F00044380240000002401064024064080020AD
:101200002E2E2F5372632F6164632E630000000043
:10121000002101400022014018B50021009190F802
:101220003C20012A07D0012280F83C200268936804
:10123000DB0702D011E0022018BD936843F00103E0
:101240009360204A204B1268B2FBF3F202EB420299
:1012500000E0521E0092002AFBD102689368DB076F
:101260002DD0036C40F20164A34343F48073036404
:1012700053685B0505D5036C23F4005343F4805396
:101280000364036CDB0404D5436C23F0060343645E
:1012900000E0416480F83C100C496FF022031360B9
:1012A00049680068C90602D00949884207D18168A7
:1012B00011F0405F03D1816841F0804181600020DE
:1012C00018BD00005800002040420F0000230140DC
:1012D0000020014090F82020012A09D090F8202019
:1012E000022A05D0416A41F4802141620120704701
:1012F000006842690A43426100207047F0B590F8E7
:101300002040012C07D090F82040022C03D0416AE5
:1013100041F4802153E00468A5686D0105D4A568F7
:101320002D0102D4A568ED0046D5A4680125C4F3BB
:101330000164A5401D608D684FF4C0739DB1CE68F7
:1013400035434E6845EAC605066803EB0417F551B8
:101350004FF4C275076805EB04150E697E51097DCF
:10136000012905D009E00E88CD6845EA4655EBE72E
:1013700001684E5946F480764E511179D2F80550E5
:101380004FF4C67641EA0521056806EB0416A9511B
:101390001178D2F801204FF4C47541EA02210268A5
:1013A00005EB04155151006803EB0411425842F05B
:1013B000010242500020F0BD416A41F40011416237
:1013C0000120F0BD10B590F82020012A09D090F836
:1013D0002020022A05D0416A41F480214162012087
:1013E00010BD3A48D0F8002242F00102C0F80022B5
:1013F000D0F8002222F47C52C0F80022D0F800225B
:101400004B6A42EA0322C0F800220B7D01229A4077
:10141000D0F81C329343C0F81C32CB69B3B9D0F872
:101420000C329343C0F80C328C894B6864F31F4331
:101430004C6900EBC404C4F840320C890B6864F3B7
:101440001F434C6900EBC404C4F84432CB69012B40
:1014500016D1D0F80C321343C0F80C320C884B680C
:1014600064F31F434C6900EBC404C4F840320C8998
:10147000CB6864F31F434C6900EBC404C4F84432E6
:101480008B69002BD0F804320ED01343C0F804321D
:101490000B69002BD0F8143208D01343C0F8143273
:1014A000096A012904D008E09343EFE79343F5E785
:1014B000D0F81C121143C0F81C12D0F8001221F011
:1014C0000101C0F80012002010BD000000640040BF
:1014D000704730B590F82040012C07D090F820409C
:1014E000022C03D0416A41F4802109E011B10129A5
:1014F00009D00CE00468E46807E0416A41F4001197
:101500004162012030BD04682469A407F5D04FF47E
:10151000D874056804EB01142D5915F00405956085
:1015200005682D5942D0ED08556005682C59C4F363
:101530004004D4604FF4DA74056804EB01142D59AB
:1015400005F00F05156105682D59C5F3072595614F
:1015500005682C59240C54614FF4DC72046802EBCA
:101560000112A4581C700468A458240A5C70046812
:10157000A458240C9C700468A258120EDA704FF420
:10158000DE72046802EB0112A4581C710468A458AE
:10159000240A5C710468A458240C9C710468A25845
:1015A000120EDA7129B1012909D00DE06D0D156017
:1015B000BBE70068C16841F02001C16004E0006839
:1015C000016941F020010161002030BD2DE9F05F8B
:1015D0000546006800244669D0F804908768D0F872
:1015E0000CB0D0F810A0D0F81880F10748D0F90757
:1015F00014D001218160B80703D5284600F083FA92
:101600000CE0780702D54FF4006407E0380702D5F4
:101610004FF4805402E0284600F074FAF80516D51D
:1016200029684FF480708860B80503D5284600F01B
:101630006CFA0CE0780502D544F4005407E0380554
:1016400002D544F4804402E0284600F05DFAF80335
:1016500016D529684FF480308860B80303D5284632
:1016600000F055FA0CE0780302D544F4004407E09A
:10167000380302D544F4803402E0284600F046FAEC
:10168000300707D55FEACB6004D52968102044F401
:101690000074C86070074FF0080707D55FEA0B7049
:1016A00004D52868C760284600F07CF9B00706D545
:1016B0002868C068800702D0284600F075F97006D7
:1016C00007D55FEACA6004D52968102044F4806415
:1016D0000861B00607D55FEA0A7004D5286807617B
:1016E000284600F0DFF9F00606D528680069800773
:1016F00002D0284600F0D7F9B00308D55FEAC960E8
:1017000005D5296810204860284600F0CDF9F0037F
:1017100007D55FEA097004D528684760284600F0BD
:10172000F7F9300446D55FEA497040D5F00504D595
:101730005FEAC87001D044F00104B00504D55FEA47
:10174000887001D544F00204700504D55FEA487042
:1017500001D544F00404300529D518F0700F26D0C7
:1017600008F07000402815D006DC102809D0202889
:101770000AD0302816D10AE050280ED0602811D1A6
:101780000EE044F008040DE044F010040AE044F0D8
:10179000200407E044F0400404E044F0800401E049
:1017A00044F480742868816921F07001816129689E
:1017B00004204860002C05D0686A204368622846EF
:1017C000FFF786FEBDE8F09F70B5040003D094F8E3
:1017D000200010B104E0012070BD204600F082F826
:1017E0002068016821F00201016000F0CFFB05468E
:1017F000052604E000F0CAFB401B0A2811D8206827
:1018000040688007F6D42068016841F0010101605A
:1018100000F0BCFB05460BE000F0B8FB401B0A28BB
:1018200006D9606A40F40030606284F82060D2E734
:1018300020684068C007EFD0207E0128206801683A
:101840003DD021F080010160607E012820680168A0
:1018500038D021F040010160A07E01282068016895
:1018600033D021F020010160E07E0128206801686A
:101870002ED041F010010160207F0128206801680E
:1018800029D021F008010160607F012820680168EB
:1018900024D021F004010160D4E902010843D4E915
:1018A0000412114308436168491E08432168C86156
:1018B00000206062012084F82000002070BD41F00B
:1018C0008001C0E741F04001C5E741F02001CAE7CF
:1018D00021F01001CFE741F00801D4E741F0040105
:1018E000D9E70000F0B52A4B0768DFF8A0C01868F8
:1018F00003220224092527490026401C87B067459A
:1019000019D11860012807D1086840F000700860FC
:10191000086800F0007005908DE85400CDE90325BB
:1019200069461D4800F050FA00220521142000F0FD
:10193000DDFB142026E0DFF864C0674524D10F6882
:1019400047F080670F600F68012807F080670597F0
:10195000186007D1086840F000700860086800F05F
:10196000007005904FF440508DE85100CDE90325FB
:1019700069460B4800F028FA00220521402000F0BB
:10198000B5FB402000F0A6FB07B0F0BD00640040AE
:101990003800002040380240000C0240006800403F
:1019A000000402407047000070B538493326384DB6
:1019B000384C88422FD1A31C2A460021FFF789FD0D
:1019C0002868B0F5887F17D0A0F58070193819D035
:1019D00007280CD0E92814D10B2001F021FE2E4855
:1019E000C16A4A1CC262322911D8284943E0BDE8C5
:1019F00070402648FFF74CB82448FFF735F801201F
:101A0000207070BDBDE870402048FFF71FB8C66267
:101A10001E49214835E021498842F2D11D4B1C4A1C
:101A20009B1C0021FFF755FD2868A0F500700138C8
:101A300006D0012807D0022808D00328E1D108E009
:101A4000012001F0EDFD022001F0EAFD032001F08C
:101A5000E7FD042001F0E4FD2878401EC0B260706C
:101A6000C0EB00110E4800EB8100C16A4A1CC26243
:101A7000322904D80949BDE8704002F005BF074982
:101A8000C662BDE8704002F0DBBE00003C070020EB
:101A90000001002010000020B4090020640700208D
:101AA000C4080020704770477047000070B50446B6
:101AB00090F82000012804D0606A40F400206062A1
:101AC00018E0022084F820002068016821F001015C
:101AD000016000F05BFA05460EE000BF00F056FA28
:101AE000401B0A2808D9606A40F400306062052073
:101AF00084F82000012070BD20684068C007EDD147
:101B0000606270BD7047704770477047704770479C
:101B1000704790F83510022903D0802141650120DB
:101B20007047052180F835100068016821F0010137
:101B300001600020704700002DE9F84304464FF093
:101B40000009CDF8009063484FF41651A56D006868
:101B5000B0FBF1F72E6894F85C10082000FA01F150
:101B600031420FD021680A6852070BD50A6822F06B
:101B700004020A6094F85C108840A860606D40F030
:101B80000100606594F85C104FF0010808FA01F05C
:101B9000304208D021684969090604D5A860606D03
:101BA00040F00200606594F85C10042088403042E8
:101BB00008D021680968890704D5A860606D40F0E5
:101BC0000400606594F85C1010208840304218D002
:101BD00021680968090714D5A860206801684903CD
:101BE00004D50068000308D5A16C07E00168C905A9
:101BF00003D4016821F008010160216C09B120467D
:101C0000884794F85C1020208840304231D0216809
:101C10000968C9062DD5A86094F835000528206804
:101C2000016806D0490347D5006800031DD4616CE4
:101C30001CE021F0160101602068416921F080015B
:101C40004161206C08B9A06C20B12068016821F0C6
:101C50000801016094F85C103F208840A86084F877
:101C6000349084F83580216D1FE0E16B09B1204686
:101C70008847606D00282BD0606DC00714D0052008
:101C800084F835002068016821F0010101600098A6
:101C9000401C0090B84203D820680068C007F6D105
:101CA00084F8349084F83580E16C002910D001B0BC
:101CB0002046BDE8F04308470168C905D5D401684E
:101CC00021F01001016084F8349084F83580CCE76D
:101CD000BDE8F883580000202DE9F041044600F0EB
:101CE00055F906465CB1002584F83450022084F88A
:101CF00035002068016821F0010101600DE001203C
:101D0000BDE8F08100F042F9801B052805D92020AC
:101D10006065032084F83500F2E720680068C0079A
:101D2000F0D12268116820480140D4E9010318432A
:101D3000D4E903363343184363691843A36918434E
:101D4000E3691843236A18430843616A042903D1ED
:101D5000D4E90B1319430843106020684069666A90
:101D600020F0070130460E43012704280CD1A06A59
:101D70000643E06A40B12046FFF756F820B1402004
:101D8000606584F83570BAE7206846612046FFF741
:101D900037F894F85C203F2191408160656584F8B4
:101DA00035700020ACE700003F8010F07047000065
:101DB000044910B50A68024202D00860FFF7F6FF36
:101DC00010BD0000143C01402DE9F84FDFF87CB154
:101DD00000224FF001084FF0030A4FF00F090BF1FA
:101DE000040E00BF0B6808FA02F42340A3426ED130
:101DF0004D68022D01D0122D0ED1D50800EB850CB7
:101E0000DCF820505607F70E09FA07F6B5430E69BD
:101E1000BE402E43CCF82060066855000F790AFAC0
:101E200005FC07F0030726EA0C06AF4037430760BE
:101E30004E68012E05D0022E03D0112E01D0122E95
:101E40000ED18668CF6826EA0C06AF40374387601C
:101E50004668A6430C79C4F30014944034434460AC
:101E6000C6688C6826EA0C06AC403443C4604C68F3
:101E7000E40065D5364C256845F480452560246826
:101E800022F0030504F480440094324C2E19D6F855
:101E9000084895072F0F09FA07F5AC432E4DA842C5
:101EA00001D1002524E02D4DA84201D101251FE0DC
:101EB0002B4DA84201D102251AE02A4DA84201D19A
:101EC000032515E0284DA84202D1042510E037E093
:101ED000264DA84201D105250AE0254DA84201D191
:101EE000062505E0234DA84201D1072500E008257D
:101EF000BD402543C6F80858DBF800405D464E68F3
:101F00009C43F60300D51C432C60DEF80040754668
:101F10004E689C43B60300D51C432C600B4D08351E
:101F20002C684E689C43F60200D51C432C60074D7C
:101F30000C352C684E689C43B60200D51C432C60BF
:101F4000521C102AFFF44EAFBDE8F88F003C014050
:101F500044380240003001400000024000040240CA
:101F600000080240000C0240001002400014024031
:101F700000180240001C024042694A40426170471A
:101F80000AB1816170470904FBE7000001488068DD
:101F9000704700004C00002002488168027811441C
:101FA000816070474C0000200B4810B5016841F477
:101FB00000710160016841F480610160016841F4D1
:101FC00080710160032000F0B1F8002000F006F8F5
:101FD00000F03EF8002010BD003C024010B5014664
:101FE00088B00022192000F081F8192000F072F862
:101FF00013480024016841F001010160006805A94F
:1020000000F001000690684600F03AF900F06EF921
:102010000C494000B0FBF1F10C480B4A491E02602C
:1020200040F2E732C0E90324C0E9011400F078FB74
:1020300010B1012008B010BD044800F0C9FBF9E759
:102040004438024040420F0000000140CC04002010
:102050001F4808B5016841F480410160006800F440
:10206000804000901A48001F016841F080510160D3
:10207000006800F080500090032000F057F8002224
:1020800011466FF00B0000F031F8002211466FF09E
:102090000A0000F02BF8002211466FF0090000F052
:1020A00025F800221146501F00F020F800221146AA
:1020B000101F00F01BF800220F21901E00F016F8F0
:1020C00000220F21BDE80840501E00F00FB80000AC
:1020D0004438024000F01F02012191404009800075
:1020E00000F1E020C0F8001170470000F0B40E4B82
:1020F0001B680C46C3F30223C3F10705042D00D966
:102100000425191D072901D2002300E0DB1E01264A
:1021100006FA05F1491E214099409E40761E164060
:102120003143F0BC01F05FBA0CED00E0064900F06D
:10213000070208684FF6FF03184040EA0220034AEE
:1021400010430860704700000CED00E00000FA0545
:102150002DE9F0470E46050065D0DFF81481D8F868
:102160000000F7B200F00F00B04207D288F800700C
:10217000D8F8000000F00F00B04254D128683D4C60
:10218000810712D5400703D5206840F4E050206055
:102190002878000703D5206840F46040206020685C
:1021A000A96820F0F000084320602878C0072DD0EF
:1021B000304968680839012812D0022813D0032852
:1021C00011D00968890700292DDA216821F003015F
:1021D00001432160FFF7DAFE814641F2883A0EE0C2
:1021E00009688903EFE709688901ECE7FFF7CEFE8C
:1021F000A0EB0901514502D90320BDE8F087206812
:10220000696800F00C00B0EB810FEFD1D8F8001036
:10221000404601F00F01B14207D90770006800F095
:102220000F00B04201D00120E7E72878400705D52C
:102230002068E96820F4E05008432060287800070F
:1022400006D52068296920F4604040EAC10020607A
:1022500000F05CF82168084AC1F30311515CC840E2
:10226000064908600020FFF7B9FE0020C5E700001E
:10227000003C024008380240445900085800002041
:102280000F2202600C4A136803F0030343601368D3
:1022900003F0F0038360136803F4E053C360126833
:1022A0004FF4E05303EAD20202610448006800F0F0
:1022B0000F0008607047000008380240003C0240F0
:1022C0000148006870470000580000200448054994
:1022D00000680968044AC1F38221515CC840704714
:1022E00058000020083802405459000804480549A5
:1022F00000680968044AC1F34231515CC840704724
:10230000580000200838024054590008154810B5FC
:10231000006810F00C02144813D01449042A0FD09E
:10232000082A0ED10F4C241F2268236802F03F02B6
:102330005B0207D52068C0F38810A0FB010106E00E
:10234000084610BD2168C1F38811A1FB00010023DC
:10235000FDF794FF2168C1F30141491C4900B0FB1E
:10236000F1F010BD083802400024F40000366E0180
:102370002DE9F84F050076D02878DFF8F8B2BE4C8A
:10238000C00749D0DBF800105846C1F3810101298C
:1023900008D00068C0F3810002280AD1201D00681F
:1023A000400206D52068800336D568680028E2D050
:1023B00032E06868B0F5803F10D0B0F5A02F2068FB
:1023C00010D020F480302060206820F4802020602D
:1023D0006868A0B1FFF7DAFD06460CE0206840F41B
:1023E0008030F4E740F480202060F7E7FFF7CEFD6F
:1023F000801B642873D820688003F7D50CE0FFF7B2
:10240000C5FD064605E000BFFFF7C0FD801B642840
:10241000F0D820688003F7D42878DFF8608280073E
:102420004FF000093ED5DBF80010584611F00C0FB4
:1024300009D00068C0F3810002280BD18D48001F2D
:102440000068400206D42068800715D5E868012896
:1024500009D111E0E868B8B10120C8F80000FFF721
:1024600095FD064605E002E1FFF790FD801B02287E
:10247000C0D820688007F7D52068296920F0F800C7
:1024800040EAC10020600DE0C8F80090FFF77EFD33
:10249000064604E0FFF77AFD801B02281FD820685B
:1024A0008007F7D42878000722D5724E74486969EE
:1024B0006C3671B101210160FFF768FD074604E049
:1024C000FFF764FDC01B022809D830688007F7D5E4
:1024D0000EE0C0F80090FFF759FD074605E083E0E5
:1024E000FFF754FDC01B02287ED830688007F7D460
:1024F0002878400768D5DFF87CA100270AF1380A60
:10250000DAF80000C0000BD4DAF8001041F0805176
:10251000CAF80010DAF80000012700F0805000909F
:10252000584E3068C00510D4306840F48070306078
:10253000FFF72CFD009005E0FFF728FD0099401AF9
:10254000022851D83068C005F6D54A4EA8686836CA
:1025500001280FD00528306810D020F0010030602D
:10256000306820F004003060A868B8B1FFF70EFDB5
:1025700000900FE0306840F00100F4E740F0040004
:102580003060F7E7FFF702FD0099411A41F2883009
:10259000814264D830688007F4D50EE0FFF7F6FC7E
:1025A000009007E0FFF7F2FC0099411A41F28830F1
:1025B000814254D830688007F4D42FB1DAF8001083
:1025C00021F08051CAF80010A869C0B3DBF80010F0
:1025D000C1F3810102294AD00228484607D0C8F831
:1025E0006000FFF7D3FC00E039E005463AE04746DB
:1025F000C8F86000FFF7CAFC064604E0FFF7C6FC17
:10260000801B02282BD820688001F7D4D5E9070168
:102610000843A96A1C4A490802EB01416A6A41EA77
:102620008211084395F82C1040EA01611148001FFF
:10263000016001203866FFF7A9FC054605E014E0BB
:10264000FFF7A4FC401B022809D820688001F7D5B9
:102650000BE000BFFFF79AFC401B022802D90320C1
:10266000BDE8F88F20688001F4D40020F8E701204D
:10267000F6E70000083802400038024000004742F8
:10268000800E4742007000400000FFFF4FF0E02145
:102690000428086903D020F004000861704740F066
:1026A0000400FAE710B5401EB0F1807F01D301208D
:1026B00010BD4FF0E02460610F21601700F093FF20
:1026C0000020A06107202061002010BD70477047E6
:1026D00030B590F83820012A20D0012280F8382027
:1026E000022380F8393003685C6824F070045C6071
:1026F00003685C680D682C435C6003689C6824F088
:1027000080049C6003689C6849680C439C6080F866
:102710003920002180F83810084630BD022030BD35
:1027200010B5040003D094F8390010B107E001207F
:1027300010BD002084F83800204600F00DF802207B
:1027400084F83900211D206801F016F9012084F871
:102750003900002010BD000008B501681948B1F12A
:10276000804F14D0184A914220D1016841F01001E5
:1027700001600068002200F0100000900221362065
:10278000FFF7B4FC3620BDE80840FFF7A3BC0168A2
:1027900041F0010101600068002200F0010000909A
:1027A00005211C20FFF7A2FC1C20ECE7074A914200
:1027B00007D1016841F004010160006800F00400E5
:1027C000009008BD40380240001000400008004062
:1027D0000168CA6842F00102CA600068016841F0FD
:1027E000010101600020704770B5044690F8380080
:1027F000012817D0012584F83850022084F83900C8
:102800002068826822F0770222F47F4282600868A2
:10281000502837D00DDC202859D005DC88B310288B
:1028200041D151E0022070BD302853D040283AD128
:102830003FE060282ED070280BD0B0F5805F03D029
:10284000B0F5005F2FD110E02068816821F007010A
:1028500015E0CB68D1E90121206801F0EDF821688D
:10286000886840F0770088601DE0CB68D1E90121DD
:10287000206801F0E1F82068816841F480418160BE
:1028800011E01EE0CA684968206801F0E7F85021AD
:10289000206806E0CA684968206801F0F0F8602105
:1028A000206801F0D3F884F83950002084F838000B
:1028B00070BDCA684968206801F0D0F840212068DE
:1028C000EFE700212068ECE710212068E9E72021EC
:1028D0002068E6E730212068E3E7704770B50446DA
:1028E000006801694FF00005C943890715D4C16824
:1028F000C943890711D4E91E0161012020762068AF
:1029000080698007204602D0FFF7E7FF04E000F06F
:1029100098F8204600F096F8257620680169C943AA
:10292000490717D4C168C943490713D46FF004019C
:102930000161022020762068806910F4407F2046E3
:1029400002D0FFF7CAFF04E000F07BF8204600F059
:1029500079F8257620680169C943090716D4C1684A
:10296000C943090712D46FF00801016104202076E1
:102970002068C0698007204602D0FFF7AEFF04E060
:1029800000F05FF8204600F05DF8257620680169C8
:10299000C943C90617D4C168C943C90613D46FF027
:1029A00010010161082020762068C06910F4407F82
:1029B000204602D0FFF791FF04E000F042F82046E5
:1029C00000F040F8257620680169C943C90708D19D
:1029D000C168C943C90704D1891E0161204600F0BE
:1029E00033F820680169C943090609D4C168C9439D
:1029F000090605D46FF0800101612046FFF766FEED
:102A000020680169C943490609D4C168C943490618
:102A100005D46FF040010161204600F029F82068DC
:102A20000169C94389060BD4C168C943890607D423
:102A30006FF0200101612046BDE87040FFF747BEFE
:102A400070BD70477047000010B504460068064925
:102A5000884201D1FFF7A0FA0448844203D1BDE8BF
:102A6000104000F0E9BD10BD00000140000700204B
:102A70007047704770B5026804461068D1685369A2
:102A800010F00F0F50D003F0010501F4907635439C
:102A90005DD0C20705D0CA0503D5E26B42F0010242
:102AA000E263420705D5DA0703D0E26B42F0020287
:102AB000E263820705D5DA0703D0E26B42F0040235
:102AC000E263020705D5DA0703D0E26B42F00802A1
:102AD000E263E26B002A33D0800604D5880602D573
:102AE000204600F0F4FF20684069E16BC0F38010DD
:102AF000090700D428B3204600F0DBFF20684169B5
:102B000049061AD5416921F040014161606BA0B1CD
:102B10001B490165606BFEF7FCFF002810D0606B5D
:102B2000016DBDE870400847830610D58B060ED5B1
:102B30002046BDE8704000F0CABF2046FFF799FF6D
:102B400070BD2046FFF795FF0020E06370BD0306CF
:102B500006D50B0604D52046BDE8704001F054B9F7
:102B60004006F3D54806F1D5D168204621F0400152
:102B7000D160202184F8391000F062F970BD0000A6
:102B8000A33A000870B5040004D094F83900002579
:102B900010B106E0012070BD84F83850204600F0E6
:102BA00023F8242084F839002068C16821F40051FA
:102BB000C160204600F0D2FF2068016921F49041F5
:102BC00001612068416921F02A0141612068C168E2
:102BD00041F40051C160E563202084F8390084F895
:102BE0003A00002070BD00002DE9F047DFF820C159
:102BF000036848490224012503260827464886B071
:102C00004FF4406263450AD10B6843F400230B6024
:102C1000096801F40021CDE90471694662E0DFF83A
:102C2000FCC0DFF8FCA0634519D10A6842F48012A9
:102C30000A60096801F4801105914FF480518DE814
:102C4000F2006946FFF7C0F804208DE8F1006946FC
:102C500037E000BFFFF7B8F806B0BDE8F0872D48B1
:102C6000DFF8C080001DDFF8C0904FF0070C43452F
:102C700017D1016841F0100101600068694600F059
:102C800010000590C0208DE871104846FFF79CF8B1
:102C9000002205212520FFF729FA2520FFF71AFA3F
:102CA000DAE7DFF8888043450DD1086840F400304A
:102CB00008600868694600F40030059060208DE8DF
:102CC00071105046C6E7DFF8688043450DD10868AB
:102CD00040F4802008600868694600F48020CDE94F
:102CE00004C048468DE87400B4E712498B42B3D162
:102CF000016841F0200101600068694600F0200091
:102D000005904FF484408DE8F1000B48A2E70000E5
:102D1000004C004040380240000802400050004093
:102D2000000C02400010014000040240004400403A
:102D300000480040001401400018024090F83A306A
:102D4000202B1DD1D1B1CAB190F83830012B17D04A
:102D500081628285C2850021C163222280F83A20E7
:102D600080F8381001684A6942F001024A6100683F
:102D7000C16841F49071C160002070470120704724
:102D80000220704770472DE9F843044690F8390057
:102D90001F4616460D46202850D1A5B19EB194F885
:102DA000380001284AD0012084F838004FF000088C
:102DB000C4F83C80212084F83900FFF7E7F8A684A6
:102DC0008146E68426E00120BDE8F883E08C401EC1
:102DD000E084A0684B46B0F5805F4FF000024FF0F2
:102DE00080012046009703D001F03FF8E8B90DE0DC
:102DF00001F03BF8C8B928882168C0F30800486092
:102E0000206908B16D1C05E0AD1C03E0216815F8D0
:102E1000010B4860E08C0028D8D14B4600224021AD
:102E20002046009701F021F808B10320CCE72020CC
:102E300084F8390084F838800020C5E70220C3E711
:102E40007047FEE77FB5154813490125016005610C
:102E50004FF4803100248561C0E9011410490462F7
:102E6000C0E90A14C460C56145610463FEF73CF91A
:102E700018B156210BA001F047F80095CDE9015497
:102E800069460648FEF78AF8002803D0602105A0AD
:102E900001F03AF87FBD0000002001408C070020BF
:102EA0000100000F2E2E2F5372632F6164632E6377
:102EB000000000007FB515481349002401604FF45D
:102EC0008031C0E901140461846111490462C0E9E0
:102ED0000A140125C460C56145610463FEF704F965
:102EE00018B179210BA001F00FF80220CDE90005FF
:102EF000694602940548FEF751F8002803D0832163
:102F000004A001F001F87FBD00210140D40700209A
:102F10000100000F2E2E2F5372632F6164632E6306
:102F2000000000007FB515481349002401604FF4EC
:102F30008031C0E901140461846111490462C0E96F
:102F40000A140125C460C56145610463FEF7CCF82D
:102F500018B19C210BA000F0D7FF0320CDE900059C
:102F6000694602940548FEF719F8002803D0A62107
:102F700004A000F0C9FF7FBD002201401C08002012
:102F80000100000F2E2E2F5372632F6164632E6396
:102F900000000000114810B50F4901600621416092
:102FA00000214FF480328160C0E903124FF44012D7
:102FB00042610176012242768276C17601774177BD
:102FC000FEF702FC002805D0BDE81040502104A007
:102FD00000F09ABF10BD0000006400403C070020D4
:102FE0002E2E2F5372632F63616E2E63000000003C
:102FF000114810B50F4901600621416000214FF4CE
:1030000080328160C0E903124FF4401242610176C0
:10301000012242768276C17601774177FEF7D4FBB2
:10302000002805D0BDE81040662104A000F06CBF68
:1030300010BD000000680040640700202E2E2F53B2
:1030400072632F63616E2E6300000000094808B5AB
:10305000016841F4800101600068002200F48000F2
:10306000009005213820FFF741F8BDE808403820DE
:10307000FFF730B83038024010B594B0142216492A
:103080006846FDF72CF90021684601F09DFC134CC1
:10309000114914222060143105A8FDF720F9002100
:1030A00005A801F091FC0C496060142228310AA89F
:1030B000FDF715F900210AA801F086FC0649A06079
:1030C00014223C310FA8FDF70AF900210FA801F0E6
:1030D0007BFCE06014B010BDEC580008000000203C
:1030E00030B53B4887B00024016841F02001016001
:1030F000016801F020010591016841F08001016043
:10310000016801F080010591016841F0040101604E
:10311000016801F004010591016841F001010160BD
:10312000016801F001010591016841F002010160AF
:10313000016801F002010591016841F00801016098
:10314000016801F008010591016841F0400101604A
:103150000068204D00F04000059000227F212846A5
:10316000FEF70EFF7F2000900120CDE901046946A3
:1031700028460394FEF728FE174D0620CDE90005EA
:10318000694602941548FEF71FFE6020CDE9000550
:10319000694602941248FEF717FE00220521072017
:1031A000FEF7A4FF0720FEF795FF00220521082067
:1031B000FEF79CFF0820FEF78DFF00220521172057
:1031C000FEF794FF1720FEF785FF07B030BD000023
:1031D0003038024000140240000021100008024074
:1031E0000000024010B5164886B04FF080410160E3
:1031F00053210024C0E901140121C0E90314FFF7A1
:103200008FFA18B149210FA000F07EFE4FF48050D4
:10321000009069460A48FFF7E7FA18B14F2109A064
:1032200000F072FE049404A905480594FFF750FAD3
:10323000002803D0562103A000F066FE06B010BDA2
:10324000880600202E2E2F5372632F74696D2E6313
:103250000000000010B5164886B014490024C0E9EB
:1032600000148460C4600461FFF75AFA18B1752134
:1032700010A000F049FE4FF48050009069460C48C1
:10328000FFF7B2FA18B17B210AA000F03DFE0494CA
:1032900004A907480594FFF71BFA002803D08221F0
:1032A00004A000F031FE06B010BD00000008004090
:1032B000C40600202E2E2F5372632F74696D2E6367
:1032C000000000000D4810B50B4901604FF4E131DA
:1032D0004160002181600C22C160C0E9041281615B
:1032E000C161FFF74FFC002805D0BDE810407F21E9
:1032F00003A000F009BE10BD004C004008050020EE
:103300002E2E2F5372632F75736172742E6300001B
:103310000D4810B50B4901604FF4E13141600021C7
:1033200081600C22C160C0E904128161C161FFF7B4
:1033300029FC002805D0BDE81040912103A000F031
:10334000E3BD10BD00500040480500202E2E2F5335
:1033500072632F75736172742E6300000D4810B58F
:103360000B4901604FF4E1314160002181600C2282
:10337000C160C0E904128161C161FFF703FC00284C
:1033800005D0BDE81040A42103A000F0BDBD10BDD4
:1033900000100140880500202E2E2F5372632F75D8
:1033A000736172742E6300000D4810B50B49016003
:1033B0004FF4E1314160002181600C22C160C0E91D
:1033C00004128161C161FFF7DDFB002805D0BDE873
:1033D0001040B72103A000F097BD10BD004400408D
:1033E000C80500202E2E2F5372632F7573617274DF
:1033F0002E6300000D4810B50B4901604FF4E13118
:103400004160002181600C22C160C0E90412816129
:10341000C161FFF7B7FB002805D0BDE81040CA2105
:1034200003A000F071BD10BD004800400806002058
:103430002E2E2F5372632F75736172742E630000EA
:103440000D4810B50B4901604FF4E1314160002196
:1034500081600C22C160C0E904128161C161FFF783
:1034600091FB002805D0BDE81040DD2103A000F04D
:103470004BBD10BD00140140480600202E2E2F53D6
:1034800072632F75736172742E630000FEE7000093
:1034900030B53548418AC80606D5344840F6B832BA
:1034A00042804FF2484282803448314A314BDFED4E
:1034B000321A90ED000A9FED321ACC07F3EE0E0A95
:1034C00002D030EE600A20E08C0702D530EE200AF0
:1034D0001BE010EE104A944205D210EE104A9C42B6
:1034E00001DAC0ED001A90ED000AB5EEC00AF1EE67
:1034F00010FA03DD30EE410A80ED000AB5EEC00A95
:10350000F1EE10FA03D230EE010A80ED000A1B4DF5
:103510000C0795ED010A02D530EE200A03E04907B9
:1035200004D530EE600A80ED010A30BD10EE101AAD
:10353000914205D210EE101A994201DAC0ED011A3B
:1035400090ED010AB5EEC00AF1EE10FA03DD30EE9F
:10355000410A80ED010AB5EEC00AF1EE10FAE4D29C
:1035600030EE010ADFE700004C4700201C0000207D
:10357000000096C300009643000000001C010020DC
:1035800000009643012908D0022905D100219FEDB2
:10359000040BC16080ED040B70471821FCF7B8BE26
:1035A000000000000000000010B50446FEF7EEFC2D
:1035B0002060616801B1411AC4E90101E068DFEDF2
:1035C000080A084400EE100AE060B8EEC00A20EED7
:1035D000200A10EE100AFCF7DAFFC4E9040110BD5E
:1035E0006F12833A70470907090E002806DA00F0C7
:1035F0000F0000F1E02080F8141D704700F1E0207A
:1036000080F800147047000030B4034C8467034C0A
:10361000C46730BC01F0D2BABD4B0008CB4B0008E8
:1036200010B50446FDF73AFC024800EB840080ED3B
:10363000000A10BD1448002002488168491C8160BE
:10364000704700000048002010B50446FDF726FC36
:10365000024800EB840080ED000A10BD14480020F1
:1036600010B527482DED028BFFF79EFF254C26490C
:10367000234894ED020A9FED251A10EE102ADFED83
:10368000240A8A420DDDD0ED021A30EE412AF8EE0E
:10369000E11A22EE212AD4ED041A42EE601AC4ED9A
:1036A000041A10EE102A9FED1B8A8A420DDA30EEC2
:1036B000411A90ED020AB8EEC00A21EE001AB0EEEF
:1036C000480A01EE600A84ED040A02210C48FFF763
:1036D00059FF94ED040AB5EEC00AF1EE10FA06D8CF
:1036E0009FED0D0A84ED040ABDEC028B10BD10EEB7
:1036F000100A0A498842F7DB84ED048AF4E70000E7
:10370000E8470020BC0000200000A0420000A042CA
:103710000AD7233C00007042000000000000704205
:1037200008B502F017F8414E414C424D00903078F8
:10373000012875D1002030704FF480413E48FEF7DB
:103740001BFC3E48407A012804D0022808D00328F8
:1037500008D102E0FDF7D4F904E0FFF799FE01E09B
:1037600000F06EF8B5F9040094ED010A00EE900A3D
:10377000F8EEE00AB4EEE00AF1EE10FA02D800EE3C
:10378000100A0CE0B5F9021000EE901AF8EEE00A0B
:10379000B4EEE00AF1EE10FA05DB00EE101AB8EE16
:1037A000C00A84ED010A00EE100AD4ED000AB8EE5A
:1037B000C00AF4EEC00AF1EE10FA0AD9B5F9020017
:1037C00000EE100AB8EEC00AF4EEC00AF1EE10FAEC
:1037D00005DB00EE100AB8EEC00A84ED000AB5F968
:1037E0000800D4ED020A00EE100AB8EEC00AF4EEAA
:1037F000C00AF1EE10FA0AD9B5F9060000EE100A77
:10380000B8EEC00AF4EEC00AF1EE10FA05DB00EEE5
:10381000100AB8EEC00A84ED020A2878401C28700D
:103820000521684601F0BAF881E700001000002089
:103830001C0100201C000020001402404C47002006
:1038400003480178142901D3152101707047000045
:103850001C000020012001F09AF8FBE701F0AAB853
:1038600030B5254893B00025016841F080510160D2
:10387000006800F0805011902048016841F48041B8
:1038800001600068022400F4804011900120009043
:10389000000401908001CDE90640182008904FF403
:1038A000A870CDE9090404200B906846FEF760FD7E
:1038B00000B1FEE70CA90F2081E831004FF4A050C1
:1038C0000F904FF48050109005210CA8FEF740FC9B
:1038D00000B1FEE7FEF7F4FC4FF47A71B0FBF1F0B3
:1038E000FEF7E0FE0420FEF7D1FE00220F21501E5D
:1038F000FEF7FCFB13B030BD4038024000700040C2
:103900001048016841F4700101600F48016841F0FE
:10391000010101600C4A00210832116002680B4B62
:103920001A400260031D0A4A1A60026822F48022CB
:10393000026005480C300160024958068039086071
:103940007047000088ED00E000380240FFFFF6FEFF
:10395000103000240148FEF7C1BF0000CC04002055
:103960000148FEF7BBBF0000880600200148FEF7B3
:10397000B5BF000000070020F0B50268234B244DBE
:10398000244E254F254C4FF0804C984209D060457D
:1039900007D0A84205D0B04203D0B84201D0A0421F
:1039A00004D122F0700E4A6842EA0E0298421BD0FF
:1039B000604519D0A84217D0B04215D0B84213D0F4
:1039C000A04211D0164DA8420ED0164DA8420BD0E1
:1039D000154DA84208D0154DA84205D0144DA84257
:1039E00002D0144DA84203D122F44075CA682A437C
:1039F00002608A68C2620A688262984201D0A0426C
:103A000001D10969016301214161F0BD000001405C
:103A10000004004000080040000C00400004014089
:103A200000400140004401400048014000180040AF
:103A3000001C00400020004010B5846842EA0322C8
:103A400024F47F440A432243826010BD826822F03E
:103A500070020A4342F007018160704710B5036AA3
:103A6000046A24F001040462846924F0F00444EA46
:103A7000021423F00A020A438461026210BD10B5E9
:103A8000036A23F0100303628369046A23F470431A
:103A900043EA023224F0A00343EA01118261016289
:103AA00010BD10B5806B0021C185C184FEF7E1FF18
:103AB00010BD0168CA6822F49072CA6001684A6940
:103AC00022F001024A61202180F83A10704710B5B7
:103AD00090F83A10222901D0022010BD8168B1F57A
:103AE000805F11D00169002901681FD0496801F089
:103AF0007F03816A4A1C82620B70C18D491E0904D2
:103B0000090CC18518D026E00269816A002A026882
:103B1000526805D0D2B20A80816A491C8162ECE702
:103B2000C2F308020A80816A891CF7E74A68816A41
:103B30004B1C83620A70E0E70168CA6822F4907245
:103B4000CA6001684A6922F001024A61202180F8B6
:103B50003A10FFF717F9002010BD00002DE9F041E1
:103B600004460068016921F44052E1681143016193
:103B70002168C86849F20C6290432369A268E5692C
:103B80001A4363692B431A430243CA602168486998
:103B900020F44072A06910434861E1696425B1F5E1
:103BA000004F9748974A21684FF032083FD0914222
:103BB00001D081427CD1FEF799FB00EBC00101EB03
:103BC000001061688900B0FBF1F6FEF78FFB00EB97
:103BD000C00101EB001061688900B0FBF1F0B0FB9F
:103BE000F5F06FF01801484306EB800108EB011077
:103BF000B0FBF5F000F0F006FEF778FB00EBC0013B
:103C000001EB001061688900B0FBF1F0B0FBF5F04A
:103C100006EB0016FEF76AFB00EBC00101EB00109B
:103C200061688900B0FBF1F7FEF760FBD2E09142DA
:103C300001D081423DD1FEF759FB00EBC00101EB01
:103C4000001061684900B0FBF1F0B0FBF5F006012F
:103C5000FEF74CFB00EBC00101EB0010616849006E
:103C6000B0FBF1F7FEF742FB00EBC00101EB0010E7
:103C700061684900B0FBF1F0B0FBF5F06FF018019E
:103C8000484307EB800108EBC100B0FBF5F000F002
:103C9000F80006EB4006FEF729FB00EBC00101EB44
:103CA000001061684900B0FBF1F7FEF71FFB3CE034
:103CB00055E0FEF70BFB00EBC00101EB0010616863
:103CC0004900B0FBF1F0B0FBF5F00601FEF7FEFA9B
:103CD00000EBC00101EB001061684900B0FBF1F797
:103CE000FEF7F4FA00EBC00101EB00106168490037
:103CF000B0FBF1F0B0FBF5F06FF01801484307EBB3
:103D0000800108EBC100B0FBF5F000F0F80006EB15
:103D10004006FEF7DBFA00EBC00101EB0010616822
:103D20004900B0FBF1F7FEF7D1FA00EBC00101EB5F
:103D3000001061684900B0FBF1F0B0FBF5F06FF0E6
:103D40001801484307EB800108EBC100B0FBF5F018
:103D500000F00700216830448860BDE8F081FEF77C
:103D6000B5FA00EBC00101EB001061688900B0FBFF
:103D7000F1F6FEF7ABFA00EBC00101EB0010616851
:103D80008900B0FBF1F0B0FBF5F06FF0180148438B
:103D900006EB800108EB0110B0FBF5F000F0F00637
:103DA000FEF794FA00EBC00101EB00106168890096
:103DB000B0FBF1F0B0FBF5F006EB0016FEF786FA6B
:103DC00000EBC00101EB001061688900B0FBF1F766
:103DD000FEF77CFA00EBC00101EB0010616889007E
:103DE000B0FBF1F0B0FBF5F06FF01801484307EBC2
:103DF000800108EB0110B0FBF5F000F00F00A9E71F
:103E0000001401400010014090F83910212901D020
:103E1000022070478168B1F5805F016A0BD04A1CAF
:103E20000262026809785160C18C491E0904090CBC
:103E3000C1840ED017E009880268C1F308015160FF
:103E400001690029016A02D0491C0162ECE7891C62
:103E5000FBE70168CA6822F08002CA600068C16896
:103E600041F04001C160002070472DE9F0419846C3
:103E700017460E460446069D1DE0681C1BD02DB15A
:103E8000FEF784F8A0EB0800A84214D92068C168A6
:103E900021F4D071C1602068416921F001014161C4
:103EA000202084F8390084F83A00002084F8380093
:103EB0000320BDE8F0812068006836EA000004D0E5
:103EC0000020B842D9D00020F3E70120F9E7000034
:103ED0000148FEF7CFBD000088050020FEE7000086
:103EE0009FED080A5FF0000100EB8102491CD2ED52
:103EF000010AC9B2C2ED000A30EE800A0A29F3D3E2
:103F00007047000000000000FEE700000FB4054B02
:103F100010B503A9044A029800F0DAF810BC5DF865
:103F200014FB000029480008DC00002002E008C85B
:103F3000121F08C1002AFAD170477047002001E023
:103F400001C1121F002AFBD1704700002DE9FF5F5D
:103F500082B00021DDE90430020DDDF840B00343FA
:103F600018D044F61050A2F2FF32424315141198B3
:103F700001281FD0A5EB0B00401C5FEA000A4FF0A0
:103F800000064E4FDFF83891B046504615D5CAF1BD
:103F9000000413E0119801244AA3012801D16FEA1B
:103FA0000B010298119AC0E90031C0E9024206B043
:103FB000BDE8F09FCBF10000DFE704460021404A56
:103FC000491842EB0450CDE9001012E0E00707D099
:103FD00032463B4640464946FCF7FBFB8046894655
:103FE00032463B4610461946FCF7F3FB06460F46A1
:103FF0006410002CEAD1DDE90401DDE90023BAF107
:10400000000F06DAFCF7E5FB42464B46FCF7E1FB06
:1040100005E0FCF72FFA42464B46FCF72BFA044624
:104020000E460022284BFCF7C5FA03D84FF0FF30AC
:10403000014607E00022254B20463146FCF773F984
:10404000FCF739FC102409E0002C0ADB0A220023CB
:10405000FCF714F9039B30321A55641E50EA010232
:10406000F2D1641C039AC4F111031444119A012A79
:1040700003D0012208430DD10AE0084304D00020F8
:104080004FF0110B119072E7A3EB0B056D1E0DE0C5
:104090005B4504DD4FF0000205F1010504E003DAA1
:1040A0004FF00002A5F10105002AECD00298119909
:1040B000C0E90231C0E9004579E700000000144082
:1040C0000000F03F300000000000F0430000E03F3F
:1040D0002DE9FF4F95B09B468946064600250FE225
:1040E000252877D100242746F84A0121059400E0CD
:1040F000044316F8013F203B01FA03F01042F7D1C8
:1041000030782A2811D06FF02F033078A0F13002D8
:10411000092A16D8059A44F0020402EB820203EB46
:1041200042021044761C0590EFE759F8042B0592E3
:10413000002A03DA504244F40054059044F002048B
:10414000761C30782E2816D116F8010F44F004049E
:104150002A280DD06FF02F023078A0F13003092B00
:1041600009D807EB870302EB4303C718761CF3E774
:1041700059F8047B761C30786C280FD006DC4C286C
:1041800017D068280DD06A2814D104E0742810D004
:104190007A280FD10DE044F400140AE044F48014AE
:1041A00001E044F440147278824202D104F5801494
:1041B000761C761C307866280BD013DC582877D014
:1041C00009DC002875D04528F6D04628F4D04728C9
:1041D0001AD19DE118E0632835D0642879D065288C
:1041E00012D195E1702873D008DC6728F1D06928D6
:1041F0006FD06E280DD06F2806D1B5E073282CD073
:10420000752875D0782874D05A46179990476D1C38
:1042100075E1C4F30250022809D003280DD0D9F863
:10422000001004280DD00D6009F1040967E1D9F8E8
:104230000010EA17C1E90052F6E7D9F800100D8026
:10424000F2E70D70F0E719F8041B8DF8001000205C
:104250008DF80100EA46012003E059F804AB4FF065
:10426000FF3061074FF0000102D40DE008F10101B9
:104270008846B9420FDA8045F8DB1AF808100029A1
:10428000F4D108E008F1010188468142FADB1AF80E
:1042900008100029F6D105985B46A0EB08072146D7
:1042A0003846179A00F094FA284400EB080507E016
:1042B0004DE029E10DE01AF8010B5A461799904795
:1042C000B8F10108F7D25B4621463846179A13E148
:1042D00042E00A220092C4F302524FF0000A022A7E
:1042E00008D059F804CB032A4FEAEC710AD00DE04C
:1042F00029E02AE009F1070121F00702F2E802C1F2
:10430000914609E00FFA8CFC4FEAEC71042A03D1C4
:104310004FFA8CFC4FEAEC71002907DA0A460021BB
:10432000DCF1000C61EB02012D2202E0220504D534
:104330002B228DF80420012203E0E20701D0202285
:10434000F7E7904659E00A2102E010220DE0102123
:104350004FF0000A00910BE010224FF0000A44F0E9
:1043600004040827009203E008224FF0000A00929C
:10437000C4F30252022A05D059F804CB0021032AC3
:1043800008D009E009F1070121F00702F2E802C1B3
:10439000914605E01FFA8CFC042A01D10CF0FF0CB9
:1043A0004FF00008220728D5702806D0009B83F024
:1043B000100353EA0A0305D00EE040228DF80420D2
:1043C000012208E05CEA010206D030228DF80420C8
:1043D0008DF8050002229046009B83F0080353EA03
:1043E0000A030AD15CEA010201D1620705D5302235
:1043F0008DF804204FF001087F1E582804D034A007
:1044000003900EA802900DE036A0F9E753466046EF
:10441000009AFBF733FF84460398825C0298401EA3
:10442000029002705CEA0100F0D1029806A9081A15
:1044300000F1200A600702D524F4803400E001274F
:10444000574502DDA7EB0A0000E0002000EB0A015F
:10445000009005984144401A0590E00306D45B465D
:104460002146179A059800F0B3F90544002706E0A5
:1044700001A85A46C05D179990476D1C7F1C47459F
:10448000F6DBE0030CD55B462146179A059800F051
:104490009FF9054404E030205A46179990476D1C57
:1044A0000099481E00900029F5DC08E00298029966
:1044B0005A460078491C0291179990476D1CBAF131
:1044C0000001AAF1010AF1DC65E100000928010000
:1044D000303132333435363738396162636465667A
:1044E000000000003031323334353637383941423C
:1044F000434445460000000000F058F90544761C8E
:10450000307800287FF4ECAD19B02846BDE8F08F74
:10451000620700D4062709F1070222F0070CFCE825
:104520000223E14603F000485FEA080C02D00FF2D4
:10453000702C0DE05FEA045C02D50FF2682C07E0F6
:104540005FEAC47C02D00FF2602C01E0AFF2700C85
:104550004FF0FF3823F00043CDF850C065280CD051
:1045600006DC452809D046281DD047283DD13DE02E
:10457000662818D067287ED138E00021112F01DB92
:10458000112000E0781CCDE9000106A90EA8FFF774
:10459000DDFCDDE90F010E9A03910021009207F185
:1045A000010A04914DE04FF000400097CDE9011061
:1045B00006A90EA8FFF7CAFCDDE90F0203920E9BC5
:1045C00011990022DDF80CA00093049211B9791C16
:1045D00000EB010AB7EB0A0004D4C0F1FF3007F189
:1045E000010A0490AAEB0700019044E0012F00DAD1
:1045F00001270021112F01DD112000E03846CDE90F
:10460000000106A90EA8FFF7A1FCDDE90F010E9A33
:104610000391002104910092BA4621070CD403991A
:10462000514500DA8A46BAF1010F05DD009AAAF178
:104630000101515C302908D0B84202DA10F1040FB0
:1046400006DA0121CDE9011015E0AAF10101E9E73F
:10465000002805DC049901440491AAEB000102E062
:10466000411C514500DD8A460499401A401C0190C6
:104670004FF000400290200704D40198504501DB20
:10468000CDF8048000208DF84F0002980DF14F07FF
:10469000B0F1004F25D02B200E9002984FF0020869
:1046A00000280CDA404202902D200E9007E00A21EB
:1046B0000298FBF7B3FF3031029007F8011DB8F103
:1046C0000001A8F10108F2DC02980028EFD1791E60
:1046D0000E980870307800F0200040F0450007F890
:1046E000020D12A8C01B00F107081498007800B151
:1046F000012000EB0A01019801EBE07105984144AB
:10470000401A401E0590E00306D45B462146179AE6
:10471000059800F05DF805441498007818B15A46E1
:10472000179990476D1CE00324D55B462146179AE4
:10473000059800F04DF805441CE00498002807DBBC
:10474000DDE90301884203DD0098405C179901E030
:10475000179930205A469047049805F10105401CEE
:1047600004900198401E019004D12E205A461799BA
:1047700090476D1CBAF10001AAF1010ADDDC05E0E9
:1047800017F8010B5A46179990476D1CB8F10001B4
:10479000A8F10108F4DC5B462146179A0598ABE6C0
:1047A0002D0000002B000000200000002DE9F0414A
:1047B000044600251E461746880404D405E0394601
:1047C0002020B0476D1C641EF9D52846BDE8F08155
:1047D0002DE9F041044600251E469046C80301D548
:1047E000302700E02027880404D505E041463846FC
:1047F000B0476D1C641EF9D52846BDE8F081D0EDA8
:10480000000AF4EEC00AF1EE10FA01DD80ED000AB4
:10481000D0ED000AB1EE400AF4EEC00AF1EE10FA53
:1048200001D280ED000A704713B564230122694666
:104830000248FEF7A8FA00981CBD00008805002079
:1048400010B5104A03894381118849BA01815488FF
:10485000CB1A64BA04809488B3F5805F64BA44804C
:1048600092798271026901DD521E03E013F5805FC7
:1048700001DA521C026101EB42318289891A4161DD
:1048800010BD0000120000200249098849BA0181C8
:10489000818170471200002005489FED040A80EDD9
:1048A000010A80ED000A80ED020A70470000000056
:1048B0001C010020FDF778FBFEF7D2FF00F042FD5F
:1048C000FEF70EFCFEF7C2FBFEF792FBFEF762FB63
:1048D000FEF744FDFEF768FDFEF78CFDFEF7F2FCE7
:1048E000FEF716FDFEF7ACFDFEF7ACFAFEF7E2FAB6
:1048F000FEF718FBFEF7AEFCFEF774FC1148FDF75F
:10490000D5F81148FDF7D2F81048FCF785FC0D48A2
:10491000FCF7D8F80C48FCF7D5F802210948FCF759
:10492000D9FC02210848FCF7D5FC0A2208490948AD
:10493000FEF704FAFEF7A0FB00F024FD00F035F8C6
:10494000FEE700003C070020640700208C070020E1
:10495000E00000208805002001460020842900D0C6
:10496000C81C704770EEC01A30EE200A31EE812A62
:1049700071EE400A30EE010A80ED002AC0ED010A16
:1049800071EE610AC0ED020A80ED030A704710B5AE
:1049900000B9012000F048FD002010BD10B501B99C
:1049A000012100F067FD002010BD10B500F0A8FD4A
:1049B000002010BD10B500F0BFFE012803D0BDE8F7
:1049C000104000F077BE10BD3EB504460D46B0F96C
:1049D0000800FFF7C1FF02A9CDE90001208A2B469C
:1049E00082B2D4E9001000F07BFE012801D0002043
:1049F0003EBD02983EBD000000B530EEC01A80ED0D
:104A0000080AC0ED050A80ED0B1AD0ED191A01460F
:104A10009FED692A30EEC00AF5EEC01AB1EE400AE9
:104A2000F1EE10FA0ED0B5EEC01AF1EE10FA02DD7A
:104A3000F0EE410A01E0F0EE400AF4EEE10AF1EE98
:104A400010FA12DCD1ED1A0AF5EEC00AF1EE10FAF6
:104A50000ED0B5EEC01AF1EE10FA01DDB0EE410A4B
:104A6000B4EEE00AF1EE10FA02D2B0EE420A00BD56
:104A7000C86E01F13402032802D0042838D07AE04D
:104A800091ED000A104620EE010A81ED0C0A91ED2D
:104A90000D0AD1ED010A00EE810A81ED0D0A91EDBA
:104AA0000A0AD1ED020A31EE400A20EE200A81ED19
:104AB0000E0A91ED1D0AB8EE400AFFF7A0FE91ED37
:104AC0000C0AD1ED0D0A01F1500030EE200AD1EDB3
:104AD0000E0A30EE200A81ED140A91ED1C0AB8EEA0
:104AE000400AFFF78CFE91ED140A81ED150A42E0B1
:104AF00091ED0A0AD1ED001A104671EE400A60EEFF
:104B0000A10AC1ED0C0AD1ED010A60EE810AC1EDE6
:104B10000D0AF0EE000A00EE601A91ED090AD1EDDF
:104B2000020A31EE000A20EE200A81ED0E0A91ED14
:104B30001D0AB8EE400AFFF762FE91ED0C0AD1EDB6
:104B40000D0A01F15C0030EE200AD1ED0E0A30EEC4
:104B5000200A81ED160AD1ED180A30EE800A81EDA7
:104B6000170A91ED1C0AB8EE400AFFF748FE91EDD6
:104B7000170A81ED180A91ED0A0A81ED090A91EDF3
:104B80000B0A81ED0A0A91ED070A81ED060A91ED03
:104B9000080A81ED070A91ED040A81ED030A91EDFF
:104BA000050A81ED040AC86E032802D091ED170AA8
:104BB00000BD91ED140A00BD0000000000F16C0C76
:104BC0008CE80E0080EC030A704780EC030A704703
:104BD00070B504462DED028B90ED000AB5EEC00ACB
:104BE000F1EE10FA01DCB1EE400AD4ED010AF5EE67
:104BF000C00AF1EE10FA01DCF1EE600A70EE200A54
:104C000094ED020AB5EEC00AF1EE10FA01DCB1EE45
:104C1000400A70EE800A94ED030AB5EEC00AF1EE88
:104C200010FA01DCB1EE400A30EE808AFCF75CF944
:104C30004B4D4C4E95ED000AB5EEC00AF1EE10FA60
:104C400004D0D6ED0D0A20EE800A05E096ED0D0A9F
:104C5000F3EE070A20EE200A85ED020AFEF700FDBA
:104C600095ED040AD5ED020A9FED3F1A3F4900EE8B
:104C7000C10A10EE100A884269DA3A484830FEF755
:104C800093FC96ED0F0A3748D5ED040AB5EEC00A3D
:104C90004830F1EE10FA01D1B3EE080A9FED341A54
:104CA00060EE810A80EE801A9FED320A31EE000A32
:104CB0009FED311B85ED070A90ED040B53EC112B92
:104CC00051EC100BFBF776FC03D8B6EE0E0A85ED1F
:104CD000070AD5ED070AF5EEC00AF1EE10FA33D057
:104CE000B7EE000A94ED001A38EE000AC1EE001A81
:104CF00021EEA01ADFED220A21EE201A84ED001A1F
:104D0000D4ED011A81EE801AD5ED071A21EE211A91
:104D100021EE201A84ED011AD4ED021A81EE801AD8
:104D2000D5ED071A21EE211A21EE201A84ED021A80
:104D300094ED031AC1EE001A95ED070A21EE800AE0
:104D400020EE200A84ED030ABDEC028B70BDBDECA1
:104D5000028B0221BDE8704002484830FEF712BCC9
:104D6000BC00002088470020B81E853E000020417E
:104D70009A99193ECDCCCC3D000000A09999B93F3D
:104D800000803B452DE9F041184C0F460546E6688A
:104D90002068001D00F092FA38B9206890F82C10B5
:104DA00001208840216981432161681C07D137B106
:104DB0002168BDE8F0410E48091D00F0B7BA20682F
:104DC0003544B5424560216805D2A06BBDE8F0418D
:104DD000091D00F093BA606B091D00F08FFAA06AFC
:104DE000854200D2A562BDE8F0810000800000206D
:104DF000384700202DE9F041054600F0A3FA2E4C7B
:104E0000A068401CA06020682C4F10B1606940B3BE
:104E10002DE02560A068012829D1002606EB860038
:104E200007EB800000F05CFA761C072EF6D32348CF
:104E30008C3000F055FA2148A03000F051FA1F489C
:104E4000B43000F04DFA1D48C83000F049FA1B4854
:104E5000DC3000F045FA19488C3060631430A063F0
:104E600005E02068E96AC06A884200D82560606A67
:104E7000401C6062E96A0120226988401043206179
:104E800001EB810007EB8000291D00F04FFA00F0D4
:104E900079FA606900280CD02068E96AC06A884203
:104EA00007D207494FF080500860BFF34F8FBFF320
:104EB0006F8FBDE8F0810000800000205C4600207C
:104EC00004ED00E070B5114E114C17E000F04CFB02
:104ED0003068B8B100F0A8FC00F034FAF068C5689A
:104EE000281D00F0EBF9A068401EA0606068401E1D
:104EF000606000F047FA284600F00CF8606800286F
:104F0000E4D170BD00F090FCF8E7000024470020D9
:104F10008000002010B50446006B00F047FA2046E0
:104F2000BDE8104000F042BA10484FF470514207FB
:104F300006D0C01D0D4920F00700411AC1F570517F
:104F40000B4A00230144C2E900030839103A21F05A
:104F5000070111604B600B600B1AC0E900139360EE
:104F60004FF000405360D060704700005C0A0020A2
:104F70006C000020074C4FF08056074DFFF7A2FF52
:104F800020680128FAD92E60BFF34F8FBFF36F8FCF
:104F9000F4E700005C46002004ED00E02DE9F04756
:104FA0009A46DDE9098481466FF00303206B03EB29
:104FB00082021044089D20F00706700707D0502099
:104FC00080F31188BFF34F8FBFF36F8FFEE7231875
:104FD0000A5C83F834200A5C12B1401C1028F6D316
:104FE000002784F84370072D00D30625E562C4E945
:104FF0001157201D00F07FF904F1180000F07BF933
:105000002461C5F107006462A061E76484F8507010
:1050100052464946304600F0BFF82060B8F1000F14
:1050200001D0C8F80040BDE8F087000030B5114954
:1050300000E011460A688242FBD34B685C18844248
:1050400003D1406818444860084643681C189442DD
:1050500009D1084C103C2468A24209D052681A4475
:1050600042600A6812680260814200D0086030BD68
:105070000460F9E76C0000200648416B096829B11B
:10508000416BC968C9684968816270474FF0FF3158
:10509000FAE700008000002008484068401C4FF0FC
:1050A000500080F3118804D0BFF34F8FBFF36F8F90
:1050B000FEE7BFF34F8FBFF36F8FFEE77400002052
:1050C0002DE9F0410546002700F04EFA314E3068D8
:1050D00008B9FFF729FFF06805424BD1C5B3083581
:1050E00068070ED005F00700C0F108000544680706
:1050F00007D0502080F31188BFF34F8FBFF36F8F1D
:10510000FEE72DB37068854234D82248103001463E
:105110000C6801E020460C466168A94202D2216871
:105120000029F7D131688C4224D0076821680160DA
:1051300060680837411B10290FD96019420708D051
:10514000502080F31188BFF34F8FBFF36F8FFEE7BE
:1051500010E041606560FFF769FF61687068401AA0
:105160007060B268904200D2B060F06801430020E5
:10517000C4E9000100F058FB780707D0502080F305
:105180001188BFF34F8FBFF36F8FFEE73846BDE83E
:10519000F08100005C00002010B5031F4FF0807408
:1051A0001C601B1F21F001011960191F044B0B60CB
:1051B00014390A60091F6FF0020244380A6010BDFA
:1051C000995000082DED028B82B0C820FFF7DFFB5D
:1051D00000F0C0FA2A4D9FED2B8B2C4C2C4E0090EA
:1051E0000020FEF731FA012211462846FCF7C8FEDE
:1051F000012202212846FCF7C3FE01220421284691
:10520000FCF7BEFE012208212846FCF7B9FE012268
:1052100010212846FCF7B4FE012220212846FCF785
:10522000AFFED4E90101401AFBF7A4F941EC100BE1
:1052300051EC180B53EC102BFBF71CF9FBF7D2F9D0
:10524000E06061882288914208D0FBF7A0F941EC28
:10525000100B10A053EC102BFEF758FE2088608036
:10526000706BFBF794F941EC100B0FA053EC102B73
:10527000FEF74CFE64216846FFF790FBB0E70000A4
:1052800000140240000000000088C34028000020F5
:1052900088470020476F6C665F7370656564203DCA
:1052A000202534660A0000004144435F6375727232
:1052B000656E743D202534660A000000D0E9013295
:1052C00001699A60D0E901235A604A68824201D19B
:1052D00082684A60002202610868401E08607047C8
:1052E00000F108014FF0FF32C0E90112C160016115
:1052F00000210160704700210161704730B50B68E3
:105300005A1C02D000F1080202E0026904E02246C1
:10531000546825689D42FAD953684B6099608A6049
:10532000516008610168491C016030BD42684A60F3
:1053300093688B6093685960916008610168491CAB
:1053400001607047502080F31188BFF34F8FBFF387
:105350006F8F0A494868401C486001280CD10848F2
:10536000006810F0FF0F07D0502080F31188BFF3C2
:105370004F8FBFF36F8FFEE770470000740000206F
:1053800004ED00E00849486828B1401E486001D19A
:1053900080F311887047502080F31188BFF34F8F3E
:1053A000BFF36F8FFEE700007400002070B5002887
:1053B00027D0144DA0F108046168E868014207D1C4
:1053C000502080F31188BFF34F8FBFF36F8FFEE73C
:1053D00022683AB1502080F31188BFF34F8FBFF39A
:1053E0006F8FFEE78143616000F0BEF86068696816
:1053F000084468602046FFF719FEBDE8704000F0E1
:1054000013BA70BD5C00002006484FF47A71006842
:10541000B0FBF1F14FF0E020491E4161072101612D
:10542000704700005800002010B5020014D00F484B
:10543000006B38B1502080F31188BFF34F8FBFF35A
:105440006F8FFEE700F090F800211046FFF79AFCFE
:1054500000F0EAF9002807D105494FF080500860B4
:10546000BFF34F8FBFF36F8F10BD0000800000208F
:1054700004ED00E070B50D4604000BD095B11E4A56
:10548000106BB8B1502080F31188BFF34F8FBFF37A
:105490006F8FFEE7502080F31188BFF34F8FBFF36B
:1054A0006F8FFEE7502080F31188BFF34F8FBFF35B
:1054B0006F8FFEE700F058F8D268236859199342BD
:1054C00004D98B420AD9914202D807E08B42FAD91B
:1054D000881A21600021FFF755FC00E0216000F0F0
:1054E000A3F9002807D105494FF080500860BFF3A9
:1054F0004F8FBFF36F8F70BD8000002004ED00E080
:105500001CB515480024CDE900402346802213A194
:10551000144800F0E5F8012809D0401C1AD15020A9
:1055200080F31188BFF34F8FBFF36F8FFEE75020DA
:1055300080F31188BFF34F8FBFF36F8F06484FF092
:10554000FF312C38816201214161C460BDE81C40FB
:1055500000F040B81CBD0000AC00002049444C45A0
:1055600000000000754F00080248016B491C0163F0
:1055700070470000800000201448016B11B1012128
:10558000C16170470021C1610169B1FA81F1C1F1C6
:105590001F0101EB81020E4951F822306BB101EB82
:1055A000820101F108034A6852684A609A4201D1B7
:1055B00052684A60D16801607047502080F31188BA
:1055C000BFF34F8FBFF36F8FFEE700008000002016
:1055D0005C4600201CB532480168324A914207D12E
:1055E000502080F31188BFF34F8FBFF36F8FFEE71A
:1055F00000682C49491E884207D1502080F3118849
:10560000BFF34F8FBFF36F8FFEE7274908780190F4
:10561000FF20087008788DF800009DF800009DF8C4
:10562000002000F0F000904207D0502080F3118855
:10563000BFF34F8FBFF36F8FFEE79DF800001B4A4B
:1056400000F0500010700720906005E09DF80030D9
:105650005B008DF80030401E9DF800301B06F5D42D
:10566000000200F4E0609060019808700C4820305F
:10567000016841F470010160016841F0704101600E
:10568000FFF7C2FE00205060FAF7A8FD0848016845
:1056900041F040410160FAF791FD00201CBD00007F
:1056A00000ED00E071C20F4100E400E07400002052
:1056B00034EF00E010B5502080F31188BFF34F8F16
:1056C000BFF36F8F00F04CF818B104494FF08050D1
:1056D0000860002080F3118810BD000004ED00E098
:1056E0002DE9FF5F8346DDE90E87994616468A4617
:1056F0009000FFF7E5FC05001AD05420FFF7E0FC0E
:10570000040012D025630021CDE90241CDE90087D4
:105710004B46324651465846FFF740FC2046FFF7BD
:1057200069FB012004B0BDE8F09F2846FFF73EFE6C
:105730004FF0FF30F6E700000548416919B1006BF2
:1057400018B1002070470120704702207047000008
:10575000800000200148C0687047000080000020E1
:105760002DE9F0412E4C0027206B40B1A069401C70
:10577000A061E06900B101273846BDE8F081E66824
:10578000761CE66013D1606B006838B1502080F35E
:105790001188BFF34F8FBFF36F8FFEE7606BA16B74
:1057A0006163A063206A401C2062FFF765FCA06A69
:1057B000DFF87080864209D3606B006880B1606B4F
:1057C000C068C568686886420DD2A0622068C06A59
:1057D00000EB800158F821000128CAD90127C8E749
:1057E0004FF0FF30F1E7281DFFF768FDA86A18B1F8
:1057F00005F11800FFF762FDE86A01212269814086
:105800001143216100EB800108EB8100291DFFF7A6
:105810008DFDE86A2168C96A8842CDD30127CBE7AC
:10582000800000205C4600202DE9F0472C4D00242C
:105830002746286B38B1FFF785FD286B401E28638B
:10584000286B40B146E0502080F31188BFF34F8FA2
:10585000BFF36F8FFEE7A968224E0120D1B3A6F1F6
:10586000B40980463068E8B1F068C46804F11800F3
:10587000FFF724FD201DFFF721FDE06A2A6908FAE1
:1058800000F11143296100EB800109EB8100211D2A
:10589000FFF74CFDE06A2968C96A8842E2D3C5F87F
:1058A0001C80DFE70CB1FFF7E7FBAC6944B146466B
:1058B000FFF756FF00B1EE61641EF9D10020A86128
:1058C000E86938B10849012738070860BFF34F8FEE
:1058D000BFF36F8FFFF756FD3846BDE8F087000035
:1058E000800000201047002004ED00E080590008EF
:1058F0005538000800000000000000008000000093
:105900005C590008C55100080000000000000000BC
:105910000001000074590008750B00080000000029
:105920000000000000010000645900082137000851
:105930000200000000000000000100000006101638
:105940000006101600000000000000000102030421
:105950000607080900000000010203045461736B8C
:105960003100000052656D6F74654461746154616B
:10597000736B0000436861737369735461736B00E8
:1059800064656661756C745461736B00AC59000892
:1059900000000020E00000002C3F00088C5A0008A6
:1059A000E0000020884B00003C3F000800000000A1
:1059B00000000000000000000000000000000000E7
:1059C00000000000000000000000701790E8B80B15
:1059D00048F400000000000000000000000000008B
:1059E00000000000000000000000000000000000B7
:1059F0000000000000000000010000001000000096
:105A0000000000000024F40000000000000000007E
:105A10000000000000000000000000000000000086
:105A200000000000AAAAAAAA0000000000000000CE
:105A30000000000000000000000000000000000066
:105A40000000000000000000000000000000000056
:105A50000000000000000000000000000000000046
:105A60000000000000000000000000000000000036
:105A70000000000000000000000070420000000074
:0C5A80000000000000000000000000001A
:040000050800018965
:00000001FF
