:020000040800F2
:10000000E85200205902000879400008D73600085D
:10001000853D0008490C0008B951000800000000A7
:100020000000000000000000000000009D0100082A
:100030008113000800000000F1010008D549000804
:1000400073020008730200087302000873020008BC
:10005000730200087302000873020008AF1300085F
:10006000B513000873020008730200089512000817
:10007000A1120008AD120008730200087302000804
:10008000B912000873020008730200087302000826
:100090004D0C00087302000873020008BB1300082F
:1000A000730200081D4B0008730200087302000869
:1000B000294B00087302000873020008730200084D
:1000C000730200087302000873020008730200083C
:1000D00073020008730200087302000855510008FB
:1000E000730200087302000873020008730200081C
:1000F000730200087302000873020008730200080C
:1001000073020008730200087302000873020008FB
:100110006D4C0008F94C0008354B000873020008CC
:10012000C512000873020008D1120008730200080B
:1001300073020008730200087302000873020008CB
:10014000590C0008730200087302000873020008CB
:1001500073020008730200087302000873020008AB
:10016000730200087302000873020008730200089B
:100170007302000873020008730200080000000008
:100180007302000873020008DFF80CD000F088FB4F
:1001900000480047015C0008E85200202B4B19681A
:1001A0000868B0E8F04F80F30988BFF36F8F4FF015
:1001B000000080F3118870470000000006480068C6
:1001C000006880F3088862B661B6BFF34F8FBFF353
:1001D0006F8F00DF00BF00BF08ED00E0DFF80C000C
:1001E000016841F470010160704700BF88ED00E0D4
:1001F000EFF30980BFF36F8F144B1A681EF0100FD6
:1002000008BF20ED108A20E9F04F106008B44FF0CD
:10021000500080F31188BFF34F8FBFF36F8F06F04C
:1002200057FB4FF0000080F3118808BC196808687C
:10023000B0E8F04F1EF0100F08BFB0EC108A80F34A
:100240000988BFF36F8F704700BF00BF28010020EF
:10025000EFF30580704700000648804706480047D6
:10026000FEE7FEE7FEE7FEE7FEE7FEE7FEE7FEE766
:10027000FEE7FEE7794A0008890100082DE9F05FF2
:100280000546002092469B46884606468146402405
:100290001BE0284641464746224600F086F9534671
:1002A0005A46C01A914110D311461846224600F012
:1002B0006DF92D1A67EB01084F46224601200021F7
:1002C00000F064F917EB00094E41201EA4F101046F
:1002D000DFDC484631462A464346BDE8F09F40EA07
:1002E00001039B0703D009E008C9121F08C0042AB4
:1002F000FAD203E011F8013B00F8013B521EF9D29B
:100300007047D2B201E000F8012B491EFBD27047C2
:100310000022F6E710B513460A4604461946FFF7D1
:10032000F0FF204610BD2DE9FE4F81EA030404F0E2
:10033000004421F0004100944FF0000B23F00043F3
:1003400050EA01045ED052EA03045BD0C3F30A54BE
:10035000C1F30A552C44A4F2F3340194A0FB0254D7
:10036000C1F3130141F48011C3F3130343F4801369
:1003700001FB024400FB034E840A970A44EA8154BD
:1003800047EA8357A4FB076802958D0A05FB07859A
:100390004FEA932C04FB0C542705029D4FEA0658A4
:1003A00047EA1637B5EB08056EEB070C870E920E81
:1003B00047EA811742EA8312A7FB0201B6EB0B0161
:1003C00064EB00042B0D43EA0C335E1844EB1C5025
:1003D000DA465146E7FB0201C5F313044FEA0B333B
:1003E00043EA14534FEA0432019C43EA0603A4F1A2
:1003F0000C040294009CCDE900B400F02CF903B089
:10040000BDE8F08F00200146F9E72DE9F04D81EAC3
:10041000030404F0004B21F0004514464FF0000A9D
:1004200023F0004150EA050220D054EA01021DD019
:10043000C5F30A570246C5F31303C1F31300C1F312
:100440000A5640F4801543F48013A7EB0608101BEE
:10045000D64608F2FD3873EB050002D308F1010817
:1004600001E092185B41B8F1000F03DA0020014669
:10047000BDE8F08D00204FF48011064684460EE062
:10048000171B73EB050705D3121B63EB050306432C
:100490004CEA010C49084FEA300092185B4150EADF
:1004A0000107EDD152EA030012D082EA040083EA88
:1004B0000501084305D0101BAB4106D201220023E1
:1004C00006E000224FF0004302E06FF001025310FB
:1004D0001AEB06004CEB085110EB0A0041EB0B0144
:1004E000BDE8F04D00F0A8B80EB540F233410291DE
:1004F0000021CDE900110A460B4600F0ACF803B02C
:1005000000BD00F0004230F000400AD0C10D01F5FE
:100510006071C0F3160042EA0151C208400711435E
:10052000704700200146704701F0004330B421F0CD
:10053000004150EA010206D00A0DA2F56072C1F333
:100540001301002A02DC30BC00207047440F44EA4B
:10055000C104C100E01830BC00EBC25000F035B857
:1005600030B50B46014600202022012409E021FA83
:1005700002F59D4205D303FA02F5491B04FA02F580
:100580002844151EA2F10102F1DC30BD202A04DB53
:10059000203A00FA02F1002070479140C2F1200396
:1005A00020FA03F3194390407047202A04DB203AD5
:1005B00021FA02F00021704721FA02F3D040C2F183
:1005C000200291400843194670470029A8BF704790
:1005D000401C490008BF20F00100704710B4B0FA79
:1005E00080FC00FA0CF050EA010404BF10BC704714
:1005F00049B1CCF1200421FA04F411FA0CF118BF2E
:10060000012121430843A3EB0C01CB1D4FEA0061FC
:100610004FEA102042BF002010BC704700EBC350CF
:1006200010440029A4BF10BC7047401C490008BFFB
:1006300020F0010010BC704710B5141E73F10004C7
:1006400008DA401C41F1000192185B411A4301D1C4
:1006500020F0010010BD2DE9F04D92469B4611B1EE
:10066000B1FA81F202E0B0FA80F220329046FFF750
:100670008DFF04460F4640EA0A0041EA0B0153464B
:100680005A46084313D0114653EA010019D0C8F165
:1006900040025046FFF789FF05460E465046594630
:1006A0004246FFF773FF084305D0012004E02046CF
:1006B0003946BDE8F08D0020054346EAE0762C433C
:1006C00037430A986305E40AA0EB08000022FD0AFC
:1006D00044EA47540A3002D500200146E9E7010503
:1006E00010196941DDE9084500196941BDE8F04D7F
:1006F000A2E72DE9FE4F804681EA0300C00F0C46B9
:10070000009021F0004123F00045B8EB0200A94120
:1007100005D24046214690461C460B46024623F031
:100720000040104347D0270DC7F30A00C3F30A5116
:100730000290401A019040286BDAC3F3130040F492
:10074000801B0098924620B10023D2EB030A63EB92
:100750000B0B01985946C0F140025046FFF716FFB7
:1007600006460D4650465946019A00F0ABF810EB8C
:1007700008006141002487EA115284EAE7731A43B2
:1007800040D0009A62B3019A012A4FEA075215DC61
:10079000001B61EB02014FF0004202EA0752CDE973
:1007A0000042001C41F5801132462B46FFF753FFF3
:1007B00003B0BDE8F08F40462146F9E7001B61EB2E
:1007C0000201001C41F5801300185B412018A2F5BE
:1007D000001747EB030140EAD570B6196D4111E0EF
:1007E0006D084FEA360645EAC0754FEA0752001B0E
:1007F00061EB0201001C41F5801149084FEA30000D
:100800000019514132462B4603B0BDE8F04FFFF7C7
:1008100013BF0098012240000023D0EB020263EBDB
:10082000E073009821464FEAE074B8EB000061EBFA
:100830000401E9E783F000435BE781F0004158E7FA
:10084000C1F30A52C1F3130140F2FF3341F48011A6
:100850009A4202DA00200146704740F233439A423E
:10086000A2F2334202DC5242FFF79FBEFFF78EBE78
:1008700030B5041E71F1000404DB4FF00044404227
:1008800064EB0101141E73F1000405DB1C464FF0FC
:100890000043524263EB0403994208BF904230BDCB
:1008A000064C074D06E0E06840F0010394E80700BD
:1008B00098471034AC42F6D3FFF76AFC7071000819
:1008C00090710008202A06DBCB17203A41FA02F08B
:1008D00043EAE07306E041FA02F3D040C2F120029D
:1008E000914008431946704770B58C1810F8015BA9
:1008F00015F0070301D110F8013B2A1106D110F8B9
:10090000012B03E010F8016B01F8016B5B1EF9D1BC
:100910002B0705D40023521E0DD401F8013BFAE742
:1009200010F8013BCB1A921C03E013F8015B01F8AD
:10093000015B521EF9D5A142D8D3002070BD10B57D
:100940000146806B026C12F0500F05D0806BC26CB8
:10095000BDE8104008461047016C41F40071016485
:1009600001688A6812F0405F17D18269AAB9CA6A21
:1009700012F4700F02D08A6852050ED44A6822F031
:1009800020024A60016C21F480710164016CC90489
:1009900003D4016C41F00101016400F0ABFE10BD15
:1009A00010B5806B40210164416C41F00401416449
:1009B00000F0A2FE10BD10B5806B00F09CFE10BDD3
:1009C000454910B54A6822F440324A604A68436893
:1009D0001A434A6001684A6822F480724A600168DA
:1009E0004A68036942EA03224A6001684A6822F0C1
:1009F00040724A6001684A6883681A434A60016825
:100A00008A6822F400628A6001688A68C3681A43AF
:100A10008A60816A6FF07062D14201688A6822F050
:100A200070628A6001688A680CD0836A1A438A609F
:100A300001688A6822F040528A6001688A68C36A45
:100A40001A4301E022F040528A6001688A6822F06D
:100A500002028A6001688A68836942EA43028A6006
:100A6000016A002901684A680FD042F400624A60B6
:100A700001684A6822F460424A6001684A68174C7B
:100A8000436A04EB43331A4301E022F400624A60F4
:100A90000168CA6A22F47002CA620168CA6A838B5A
:100AA0000F4C04EB03531A43CA6201688A6822F4AC
:100AB00000728A6001688A68036B42EA43228A6096
:100AC00001688A6822F480628A6001688A684069E5
:100AD00042EA8020886010BD0023014000E0FFFF53
:100AE0000000F0FF10B502F0ADFF02F0F9FE02F0D9
:100AF000C9FE02F099FE03F0F9F803F01DF903F0C6
:100B0000A9F803F0CDF802F0E7FD02F01DFE02F0B7
:100B100053FE03F067F803F02DF8374801F036FB79
:100B2000364801F033FB0A223549364800F0C4FE4E
:100B30000A223549354800F0BFFE0A2234493548BB
:100B400000F0BAFE34480068016821F09E0101609F
:100B500032480068016821F09E0101603048006859
:100B6000016821F09E010160C8222E492E4802F042
:100B700007FD07222D492E4802F002FD07222D49CC
:100B80002D4802F0FDFC28480068C16841F01001C2
:100B9000C16027480068C16841F01001C160264863
:100BA0000068C16841F01001C16024480068016814
:100BB00021F00801016022480068016821F0080165
:100BC000016020480068016821F0080101600A48BE
:100BD00000F0D8F8094800F0D5F80221064800F0E6
:100BE000EBFE0221054800F0E7FEBDE810404FF49F
:100BF0007A7001F075BC0000280B0020500B00201B
:100C000034110020780B00205C110020C00B002064
:100C100084110020080C0020500C0020B00C002093
:100C2000100D0020C50F0020B40700207E0000201A
:100C3000B406002088000020F4060020940800205C
:100C400054090020B4090020FEE70000014801F02B
:100C50002FB80000280B0020014801F029B800003F
:100C6000500B0020044801884ABA04498A80408811
:100C700040BAC88070470000300000204C000020BF
:100C8000074801884ABA07494A82428852BA0A800C
:100C9000828852BA4A8082790A72C0794872704753
:100CA000300000208E10002009480A4A0B4B0188B2
:100CB00049BA09B2516141884ABA07494A80027962
:100CC0001206120C1A7040790006000C087070476A
:100CD00030000020D80E00204C0000203C000020F6
:100CE0000F4930B408220A6100228A6012230B6087
:100CF0000C4BCA600C495C88250A0D704C709C88AE
:100D0000250A8D70CC709B790B71084B5B784B7109
:100D10008A71CA710A4630BC0123014900F060BEE5
:100D2000440F00209200002064000020A410002046
:100D3000104930B408220A6100228A6014230B6033
:100D40000D4BCA600D495C88250A0D704C709C885B
:100D5000250A8D70CC709B790B714A71084A928973
:100D6000130A8B71CA710A4630BC0123014900F095
:100D700037BE0000740F00209A000020740000208D
:100D8000A410002000B58BB000210122CDE906128D
:100D900003910892094A00910191029104919042B5
:100DA00000D1059105492831884201D10E210591D4
:100DB000694600F079FE0BB000BD0000280B002052
:100DC000074800B5F0EE401AB0EE601A90ED040A44
:100DD000F0EE610A00F0D5FA80ED040A00BD0000D3
:100DE000B0110020184B10B419881548A1F5806186
:100DF00001EB810259888478A1F5806101EB8101C2
:100E000010484942012C11D000EE102AB8EEC00A59
:100E100080ED020A00EE101AB8EEC00A80ED000A5A
:100E2000187A01280AD110BC04F0DCBE524200EE50
:100E3000102AB8EEC00A80ED010AEBE710BC70473B
:100E40003A000020840100208E1000201CB5C8202C
:100E500004F000FF05F05EFEDFF8648100210190E0
:100E600088F8001000F008F9DFF85CA1DFF8549171
:100E70000AF59076554F06F19005012003F06AFAC5
:100E800099F9000010B101282BD103E050469AEDEA
:100E9000021A1FE04E4890ED050AB8EEC00ADFEDD9
:100EA0004D0A4948103004F009FF47481030D0ED92
:100EB000140A4948B0F90000404200EE100A4248C6
:100EC000B8EEC00A903004F0F9FE3F48903090ED43
:100ED000141A50469AED010AD0ED000A3F4804F07A
:100EE000A4FE002406EB8400D0ED000AC4EB04103D
:100EF00037F9200000EE100A05EBC410B8EEC00A66
:100F000004F0DCFE641C042CECDB344C286D103C3B
:100F1000206095ED340A84ED010A95ED540A84EDC4
:100F2000020A95ED740A84ED030AFFF7EAFA41EC30
:100F3000100B2BA053EC102B04F040F9204603F0CB
:100F40002FFC2068FFF7DDFA41EC100B28A053ECD2
:100F5000102B04F033F9D4ED001AC5ED141A94EDFA
:100F6000011A85ED341A94ED020A85ED540AD4ED88
:100F7000030AC5ED740A98F8000001281CD0FDEEA4
:100F8000E00ABDEEC00A10EE900A00B2009010EE2A
:100F9000100ABDEEC10A03B210EE100ABDEEE10A5E
:100FA00002B210EE100A01B2144800F029F805212F
:100FB00001A804F056FE60E7104800F043F8F6E799
:100FC000380000203C00002084010020AC0D0020EF
:100FD000D80E0020000000004E000020A4020020D7
:100FE000626566656F723A2566200A20200000005F
:100FF00061667465723A25660A000000500B002095
:10100000F0B40E4C0826049D26610026A660E6601A
:101010004FF4007626600A4C0E0A26706170110AA1
:10102000A170E270190A21716371290AA171E57139
:101030002246F0BC0123014900F0D2BC8C0F0020F5
:10104000540000200A4A08214FF400731161002166
:1010500091601360D160074A012311705170917043
:10106000D170117151719171D171014900F0B8BC09
:101070008C0F0020540000202DE9F04141F2883609
:101080002DED028B75009FED248AB3EE041AB7EEA6
:10109000080AF0EE480A33462A4603211F4803F0A7
:1010A00025F81E489FED1E0A4FF47A7480ED1A0A47
:1010B000B3EE041ADFED1B0AB1EE000A23462A46FE
:1010C0000321A0F5907003F011F81448B0EE481A0F
:1010D000F0EE480A9FED140A2346A2000321A0382F
:1010E00003F004F80D4F00249FED108A803700BFF5
:1010F000F0EE480A07EBC410B0EE601AB7EE080A2B
:1011000033462A46032102F0F1FF641C042CEFDB76
:10111000BDEC028BBDE8F08100000000B4020020AD
:10112000000016430AD7233CCDCC4C3FCDCCCC3D60
:1011300008B5642004F08EFD05F0ECFC534D544CD2
:101140000090688AC10719D000220121204601F0D1
:10115000C3FA6421684604F084FD0122114620464A
:1011600001F0BAFAC821684604F07BFD012211465D
:10117000204601F0B1FA4FF4FA6182E0810712D5FE
:1011800000220121204601F0A7FA6421684604F0FC
:1011900068FD01221146204601F09EFAC8216846EA
:1011A00004F05FFDD0E7410712D50022012120465F
:1011B00001F092FA6421684604F053FD01221146C1
:1011C000204601F089FAC821684604F04AFDD7E7B5
:1011D000010712D500220121204601F07DFA642189
:1011E000684604F03EFD01221146204601F074FAE3
:1011F000C821684604F035FDD7E7C10612D50022A4
:101200000121204601F068FA6421684604F029FDB6
:1012100001221146204601F05FFAC821684604F019
:1012200020FDD7E7810612D500220121204601F0DA
:1012300053FA6421684604F014FD01221146204649
:1012400001F04AFAC821684604F00BFDD7E74006D2
:1012500012D500220121204601F03EFA64216846A1
:1012600004F0FFFC01221146204601F035FAC821A6
:10127000684604F0F6FCD7E70121204601F028FA81
:101280001021684604F0EDFC5BE70000E010002050
:1012900000040240014800F0ADBF0000B409002086
:1012A000014800F0A7BF000094080020014800F0AA
:1012B000A1BF000054090020014800F09BBF0000BE
:1012C000F4080020014800F095BF0000500C0020F9
:1012D000014800F08FBF0000340800200168182387
:1012E000CAB2103AB2FBF3F2054B6FF30901032ABD
:1012F0009B5CC36500D9091D8165084670470000E5
:101300007C70000810B5014600208B698A6A4FF096
:10131000C07453B1B3F5005F15D072B1012A0CD07F
:10132000022A0AD0032A09D104E01AB1012A06D000
:10133000022A03D1C96AC90100D5012010BDC96ABA
:10134000A142FAD010BD002AF7D0012AF2D0022A19
:10135000F3D0032AF3D010BD30B50468256825F416
:1013600080252560046863608368402B036803D090
:1013700099600068C26030BD9A600068C16030BD8D
:10138000704770EE601AF5EEC01AF1EE10FA01DC4B
:10139000F1EE611AF4EEC11AF1EE10FA06D2B4EED3
:1013A000E00AF1EE10FA01DA30EEC10A70470220CD
:1013B00001F0AAB8042001F0A7B810B5202001F070
:1013C000A3F8BDE81040402001F09EB82DE9F0419F
:1013D0002DED028B9FED520A524D0020D5F80810DA
:1013E00051F82020401C00EE902AC0B20A28F8EEE6
:1013F000600A30EE800AF3D3B2EE041A4A4CC0EE13
:10140000010AB4F90C009FED491A2146B0EE040A16
:1014100091ED018AF3EE091AC82806DD10EE810A63
:1014200010EE218A84ED008A28E010EE810A401C2B
:1014300006B2A681322E60EE218AC4ED008A1DDD3F
:101440003B48408EFFF750F89FED3A1B53EC112BB1
:10145000FEF769FFFFF768F800EE100AC82E84ED6A
:10146000020A38EEC00A30EE080A84ED010A05DDF2
:10147000DFED320A80EE201A84ED011AD5E905125B
:10148000D5E90363002000BF56F82070394453F8B3
:101490002070401CC0B23A440A28F5D30A23B1FB9D
:1014A000F3F0B2FBF3F100EE100AC5E905011E48A6
:1014B000F8EE400A00EE101A3030B8EE400A90ED17
:1014C000011A80ED001A30EEC00ADFED1D0AD0EDE2
:1014D000021A20EE200AC0ED011A31EE211ADFEDCA
:1014E000190A90ED032A20EE200A80ED022A31EE3F
:1014F000021AD0ED040AC0ED030A71EE200A80ED55
:10150000040A30EE800AF1EE040A80ED050A80EE4E
:10151000201A84ED041ABDEC028BBDE8F0810000B6
:1015200000000000AC000020B0110020ED32533A62
:10153000A4100020FCA9F1D24D62503F00001643D8
:10154000E72E533A53D6244109480A4903780B70D1
:10155000027ACA71FD2B0AD1FC2A08D130F8012F7A
:1015600052BA4A80428852BA8A800079887170479C
:101570007E0000209200002009480A4903780B7081
:10158000027ACA71FF2B0AD1FE2A08D130F8012F46
:1015900052BA4A80428852BA8A800079887170476C
:1015A000880000209A00002078B50024009490F86C
:1015B0003C20012A19D0012280F83C200A68072328
:1015C0000568092A13D9EE680A3A02EB42029340F1
:1015D0009E43EE600B788A680A3B03EB43039A4014
:1015E0000368DD682A43DA6010E0022078BD2E69C6
:1015F00002EB420293409E432E610B788A6803EB14
:1016000043039A4003681D692A431A614A681F23ED
:10161000072A13D205686E6B521E02EB82029340BA
:101620009E436E630B790A885B1E92B203EB8303C1
:101630009A4003685D6B2A435A6327E005680D2AC8
:1016400012D22E6BD21F02EB820293409E432E6376
:101650000B790A88DB1F92B203EB83039A4003687D
:101660001D6B2A431A6311E0EE6A0D3A02EB820207
:1016700093409E43EE620B790A880D3B92B203EBD6
:1016800083039A400368DD6A2A43DA62164B0568D1
:10169000144A9D4206D10D68122D03D1556845F4B8
:1016A0008005556005689D4218D10B68102B01D04C
:1016B000112B13D1536843F40003536009681029B8
:1016C0000CD10A490A4A0968B1FBF2F101EB810128
:1016D000490000E0491E00910029FBD180F83C4000
:1016E000002078BD002301400020014000010020BF
:1016F00040420F0070477047704770B504004FF0CC
:10170000000503D0206C002610B107E0012070BD59
:10171000666484F83C60204600F01AF8206CC0062D
:1017200010D4206C20F4885040F002002064204641
:10173000FFF746F96664206C20F0020040F00100DB
:10174000206400E0012584F83C60284670BD00005C
:101750002DE9F047054603684D48DFF830C1002405
:1017600003214C4A0615871486B04FF480484FF485
:10177000807963452AD1036843F48073036000686D
:1017800000F48070059002208DE813006946104631
:1017900000F0C6FEDFF804A13F4950460AF10C03F1
:1017A000C0E90014CAF8084083E8D003CAF8204012
:1017B000CAF8244000F0EEFD08B1CF2162E0C5F880
:1017C00038A0CAF8385006B0BDE8F087DFF8D0C0BE
:1017D000634529D1036843F400730360006800F493
:1017E0000070059004208DE813006946104600F053
:1017F00097FEDFF8A8A028490AF1600A3031504668
:10180000CAF800104FF00071C0E901140AF10C038E
:1018100083E8D003CAF82040CAF8244000F0BAFD9B
:101820000028CCD0F6212DE0DFF878C06345CAD17E
:10183000036843F480630360006800F480600590EF
:1018400008208DE813006946104600F069FEDFF8B5
:101850004CA011490AF1C00A18315046CAF80010CC
:101860004FF08061C0E901140AF10C0383E8D00352
:10187000CAF82040CAF8244000F08CFD00289ED011
:1018800040F21D1108A003F098FC98E700200140E9
:10189000443802400000024010640240500C002016
:1018A00000210140002201402E2E2F5372632F6130
:1018B00064632E6300000000F8B50E460021044664
:1018C000009190F83C00012807D0012084F83C00EA
:1018D00020688368DB0702D011E00220F8BD83682E
:1018E00043F0010383602D482D4B0068B0FBF3F0FB
:1018F00000EB400000E0401E00900028FBD1206873
:101900008368DB0748D0236C40F20165AB4343F4A6
:10191000807323644068400505D5206C20F4005096
:1019200040F480502064206CC00404D5606C20F02A
:101930000600606400E0616484F83C10A16B1A4802
:10194000184DC863A16B19480864A16B1848C86496
:1019500021686FF0220008602068416841F08061D2
:1019600041602068816841F480718160216813467C
:1019700032464C31A06B00F077FD6868C0062068E5
:1019800002D00C49884207D1816811F0405F03D131
:10199000816841F0804181600020F8BD0001002095
:1019A00040420F00002301403F090008B70900082A
:1019B000A10900080020014090F82020012A09D048
:1019C00090F82020022A05D0416A41F4802141622A
:1019D00001207047006842690A4342610020704755
:1019E000F0B590F82040012C07D090F82040022C50
:1019F00003D0416A41F4802153E00468A5686D0179
:101A000005D4A5682D0102D4A568ED0046D5A468CB
:101A10000125C4F30164A5401D608D684FF4C073B7
:101A20009DB1CE6835434E6845EAC605066803EBAE
:101A30000417F5514FF4C275076805EB04150E69DC
:101A40007E51097D012905D009E00E88CD6845EA5F
:101A50004655EBE701684E5946F480764E511179B0
:101A6000D2F805504FF4C67641EA0521056806EB29
:101A70000416A9511178D2F801204FF4C47541EA37
:101A80000221026805EB04155151006803EB0411B3
:101A9000425842F0010242500020F0BD416A41F438
:101AA000001141620120F0BD10B590F82020012AFC
:101AB00009D090F82020022A05D0416A41F4802103
:101AC0004162012010BD3A48D0F8002242F00102E4
:101AD000C0F80022D0F8002222F47C52C0F8002284
:101AE000D0F800224B6A42EA0322C0F800220B7DA4
:101AF00001229A40D0F81C329343C0F81C32CB69C3
:101B0000B3B9D0F80C329343C0F80C328C894B68CF
:101B100064F31F434C6900EBC404C4F840320C89E1
:101B20000B6864F31F434C6900EBC404C4F84432EF
:101B3000CB69012B16D1D0F80C321343C0F80C320C
:101B40000C884B6864F31F434C6900EBC404C4F871
:101B500040320C89CB6864F31F434C6900EBC4042A
:101B6000C4F844328B69002BD0F804320ED01343F2
:101B7000C0F804320B69002BD0F8143208D013439C
:101B8000C0F81432096A012904D008E09343EFE752
:101B90009343F5E7D0F81C121143C0F81C12D0F89B
:101BA000001221F00101C0F80012002010BD000059
:101BB00000640040704730B590F82040012C07D0F9
:101BC00090F82040022C03D0416A41F4802109E0C2
:101BD00011B1012909D00CE00468E46807E0416A0A
:101BE00041F400114162012030BD04682469A4075A
:101BF000F5D04FF4D874056804EB01142D5915F095
:101C00000405956005682D5942D0ED0855600568BA
:101C10002C59C4F34004D4604FF4DA74056804EB23
:101C200001142D5905F00F05156105682D59C5F3EF
:101C30000725956105682C59240C54614FF4DC721A
:101C4000046802EB0112A4581C700468A458240A0A
:101C50005C700468A458240C9C700468A258120E8E
:101C6000DA704FF4DE72046802EB0112A4581C71A2
:101C70000468A458240A5C710468A458240C9C715C
:101C80000468A258120EDA7129B1012909D00DE0B9
:101C90006D0D1560BBE70068C16841F02001C160AF
:101CA00004E00068016941F020010161002030BDBD
:101CB0002DE9F05F0546006800244669D0F80490DD
:101CC0008768D0F80CB0D0F810A0D0F81880F107D1
:101CD00048D0F90714D001218160B80703D5284600
:101CE00000F081FA0CE0780702D54FF4006407E0B9
:101CF000380702D54FF4805402E0284600F072FA0B
:101D0000F80516D529684FF480708860B80503D5AA
:101D1000284600F06AFA0CE0780502D544F4005435
:101D200007E0380502D544F4804402E0284600F07C
:101D30005BFAF80316D529684FF480308860B80341
:101D400003D5284600F053FA0CE0780302D544F49A
:101D5000004407E0380302D544F4803402E028460A
:101D600000F044FA300707D55FEACB6004D5296854
:101D7000102044F40074C86070074FF0080707D5BE
:101D80005FEA0B7004D52868C760284600F07CF92C
:101D9000B00706D52868C068800702D0284600F042
:101DA00075F9700607D55FEACA6004D52968102066
:101DB00044F480640861B00607D55FEA0A7004D570
:101DC00028680761284600F0DDF9F00606D5286886
:101DD0000069800702D0284600F0D5F9B00308D585
:101DE0005FEAC96005D5296810204860284600F0E0
:101DF000CBF9F00307D55FEA097004D5286847607E
:101E0000284600F0F5F9300446D55FEA497040D520
:101E1000F00504D55FEAC87001D044F00104B005B4
:101E200004D55FEA887001D544F00204700504D53A
:101E30005FEA487001D544F00404300529D518F054
:101E4000700F26D008F07000402815D006DC10284E
:101E500009D020280AD0302816D10AE050280ED008
:101E6000602811D10EE044F008040DE044F01004A5
:101E70000AE044F0200407E044F0400404E044F0A9
:101E8000800401E044F480742868816921F07001C5
:101E90008161296804204860002C05D0686A2043CD
:101EA00068622846FFF786FEBDE8F09F70B5040023
:101EB00003D094F8200010B104E0012070BD20464A
:101EC00000F082F82068016821F00201016000F052
:101ED00009FC0546052604E000F004FC401B0A2826
:101EE00011D8206840688007F6D42068016841F066
:101EF0000101016000F0F6FB05460BE000F0F2FB8B
:101F0000401B0A2806D9606A40F40030606284F8F9
:101F10002060D2E720684068C007EFD0207E01280B
:101F2000206801683DD021F080010160607E0128B9
:101F30002068016838D021F040010160A07E0128AE
:101F40002068016833D021F020010160E07E012883
:101F5000206801682ED041F010010160207F012827
:101F60002068016829D021F008010160607F012804
:101F70002068016824D021F004010160D4E9020145
:101F80000843D4E90412114308436168491E084319
:101F90002168C86100206062012084F820000020D0
:101FA00070BD41F08001C0E741F04001C5E741F05C
:101FB0002001CAE721F01001CFE741F00801D4E782
:101FC00041F00401D9E70000F0B52A4B0768DFF8BB
:101FD000A0C0186803220224092527490026401CB6
:101FE00087B0674519D11860012807D1086840F00B
:101FF00000700860086800F0007005908DE85400DB
:10200000CDE9032569461D4800F08AFA0022052122
:10201000142000F017FC142026E0DFF864C06745A8
:1020200024D10F6847F080670F600F68012807F020
:1020300080670597186007D1086840F00070086055
:10204000086800F0007005904FF440508DE8510092
:10205000CDE9032569460B4800F062FA002205210C
:10206000402000F0EFFB402000F0E0FB07B0F0BDA7
:10207000006400404800002040380240000C02404C
:1020800000680040000402407047000070B5374906
:102090003326374D374C884239D104F10C032A4698
:1020A0000021FFF788FD2868B0F5887F1AD0A0F5D9
:1020B000807019381FD007280CD0EA281AD10520C3
:1020C00002F030F92C48C16A4A1CC26232291AD87F
:1020D000264941E0042002F025F9BDE8704023487C
:1020E000FEF7E2BD042002F01DF92048FEF7C8FD0E
:1020F0000120207070BD042002F014F9BDE870408A
:102100001A48FEF7AFBDC66218491B482AE01B49B2
:102110008842EFD1174B164A0C330021FFF74BFDD5
:102120002868A0F50070013805D0012803D00228E6
:1021300001D0032801D102F0F5F82878401EC0B282
:102140006070C0EB00110E4800EB8100C16A4A1CB0
:10215000C262322904D80949BDE8704003F03ABD93
:102160000649C662BDE8704003F010BD280B002090
:1021700068010020240000209C0E0020500B00204D
:10218000AC0D0020704770477047000070B50446E2
:1021900090F82000012804D0606A40F400206062BA
:1021A00018E0022084F820002068016821F0010175
:1021B000016000F097FA05460EE000BF00F092FAC9
:1021C000401B0A2808D9606A40F40030606205208C
:1021D00084F82000012070BD20684068C007EDD160
:1021E000606270BD704770477047704770477047B6
:1021F000704700002DE9F84304464FF00009CDF880
:10220000009063484FF41651A56D0068B0FBF1F7DC
:102210002E6894F85C10082000FA01F131420FD0CA
:1022200021680A6852070BD50A6822F004020A6086
:1022300094F85C108840A860606D40F00100606513
:1022400094F85C104FF0010808FA01F0304208D011
:1022500021684969090604D5A860606D40F0020054
:10226000606594F85C1004208840304208D02168F2
:102270000968890704D5A860606D40F004006065B6
:1022800094F85C1010208840304218D0216809680A
:10229000090714D5A86020680168490304D50068BF
:1022A000000308D5A16C07E00168C90503D40168E3
:1022B00021F008010160216C09B12046884794F89B
:1022C0005C1020208840304231D021680968C9065E
:1022D0002DD5A86094F8350005282068016806D03F
:1022E000490347D5006800031DD4616C1CE021F050
:1022F000160101602068416921F080014161206C74
:1023000008B9A06C20B12068016821F008010160C3
:1023100094F85C103F208840A86084F8349084F8DA
:102320003580216D1FE0E16B09B120468847606D63
:1023300000282BD0606DC00714D0052084F835002C
:102340002068016821F0010101600098401C0090A4
:10235000B84203D820680068C007F6D184F83490EA
:1023600084F83580E16C002910D001B02046BDE82A
:10237000F04308470168C905D5D4016821F0100170
:10238000016084F8349084F83580CCE7BDE8F883A8
:10239000000100202DE9F041044600F0A3F90646B3
:1023A0005CB1002584F83450022084F835002068A0
:1023B000016821F0010101600DE00120BDE8F0811C
:1023C00000F090F9801B052805D9202060650320C6
:1023D00084F83500F2E720680068C007F0D1226871
:1023E000116820480140D4E901031843D4E90336B9
:1023F0003343184363691843A3691843E3691843D7
:10240000236A18430843616A042903D1D4E90B13F2
:1024100019430843106020684069666A20F007018C
:1024200030460E43012704280CD1A06A0643E06A17
:1024300040B12046FEF766FF20B14020606584F879
:102440003570BAE7206846612046FEF747FF94F8EA
:102450005C203F2191408160656584F835700020E3
:10246000ACE700003F8010F02DE9F0410446866D96
:1024700090F83400002501280DD0012084F83400A4
:1024800094F835700020012F07D084F8340002251D
:102490002846BDE8F0810220FBE7022784F835706A
:1024A00060652046FEF758FF94F85C103F20884096
:1024B000B0602068016841F0160101602068416940
:1024C00041F080014161206C20B12068016841F039
:1024D000080101602068016841F001010160D7E74F
:1024E00070B5044600F0FEF80546601C02D00448B2
:1024F0000078044400F0F6F8401BA042FAD370BD07
:10250000F400002070470000044910B50A68024238
:1025100002D00860FFF7F6FF10BD0000143C014038
:102520002DE9F84FDFF87CB100224FF001084FF0A1
:10253000030A4FF00F090BF1040E00BF0B6808FAF5
:1025400002F42340A3426ED14D68022D01D0122D1A
:102550000ED1D50800EB850CDCF820505607F70E9D
:1025600009FA07F6B5430E69BE402E43CCF8206049
:10257000066855000F790AFA05FC07F0030726EAFA
:102580000C06AF40374307604E68012E05D0022E7F
:1025900003D0112E01D0122E0ED18668CF6826EA04
:1025A0000C06AF40374387604668A6430C79C4F3F6
:1025B0000014944034434460C6688C6826EA0C06D4
:1025C000AC403443C4604C68E40065D5364C2568A3
:1025D00045F480452560246822F0030504F4804416
:1025E0000094324C2E19D6F8084895072F0F09FA97
:1025F00007F5AC432E4DA84201D1002524E02D4D16
:10260000A84201D101251FE02B4DA84201D102258E
:102610001AE02A4DA84201D1032515E0284DA84211
:1026200002D1042510E037E0264DA84201D105254E
:102630000AE0254DA84201D1062505E0234DA84218
:1026400001D1072500E00825BD402543C6F80858FC
:10265000DBF800405D464E689C43F60300D51C4302
:102660002C60DEF8004075464E689C43B60300D5EA
:102670001C432C600B4D08352C684E689C43F602B9
:1026800000D51C432C60074D0C352C684E689C43CC
:10269000B60200D51C432C60521C102AFFF44EAF2A
:1026A000BDE8F88F003C0140443802400030014052
:1026B000000002400004024000080240000C0240FA
:1026C000001002400014024000180240001C0240AA
:1026D00042694A40426170470AB18161704709040A
:1026E000FBE700000148806870470000F40000200C
:1026F000024881680278114481607047F40000202C
:102700000B4810B5016841F400710160016841F4A3
:1027100080610160016841F480710160032000F074
:10272000B1F8002000F006F800F03EF8002010BDDF
:10273000003C024010B5014688B00022192000F08C
:1027400081F8192000F072F813480024016841F064
:1027500001010160006805A900F0010006906846CB
:1027600000F03AF900F06EF90C494000B0FBF1F1CD
:102770000C480B4A491E026040F2E732C0E90324CC
:10278000C0E9011400F078FB10B1012008B010BDC1
:10279000044800F0C9FBF9E74438024040420F000A
:1027A00000000140700D00201F4808B5016841F489
:1027B00080410160006800F4804000901A48001FCA
:1027C000016841F080510160006800F08050009085
:1027D000032000F057F8002211466FF00B0000F0C4
:1027E00031F8002211466FF00A0000F02BF80022A9
:1027F00011466FF0090000F025F800221146501F25
:1028000000F020F800221146101F00F01BF80022F3
:102810000F21901E00F016F800220F21BDE808409D
:10282000501E00F00FB800004438024000F01F02B4
:10283000012191404009800000F1E020C0F8001122
:1028400070470000F0B40E4B1B680C46C3F3022324
:10285000C3F10705042D00D90425191D072901D24C
:10286000002300E0DB1E012606FA05F1491E214087
:1028700099409E40761E16403143F0BC01F0FDBBEE
:102880000CED00E0064900F0070208684FF6FF0370
:10289000184040EA0220034A1043086070470000D5
:1028A0000CED00E00000FA052DE9F0470E460500AA
:1028B00065D0DFF81481D8F80000F7B200F00F00FF
:1028C000B04207D288F80070D8F8000000F00F007E
:1028D000B04254D128683D4C810712D5400703D53A
:1028E000206840F4E05020602878000703D5206875
:1028F00040F4604020602068A96820F0F0000843A0
:1029000020602878C0072DD0304968680839012830
:1029100012D0022813D0032811D009688907002992
:102920002DDA216821F0030101432160FFF7DAFE6F
:10293000814641F2883A0EE009688903EFE70968A9
:102940008901ECE7FFF7CEFEA0EB0901514502D962
:102950000320BDE8F0872068696800F00C00B0EB48
:10296000810FEFD1D8F80010404601F00F01B142BD
:1029700007D90770006800F00F00B04201D00120B5
:10298000E7E72878400705D52068E96820F4E0509B
:10299000084320602878000706D52068296920F4BC
:1029A000604040EAC100206000F05CF82168084AFD
:1029B000C1F30311515CC840064908600020FFF7CD
:1029C000B9FE0020C5E70000003C02400838024084
:1029D00084700008000100200F2202600C4A136876
:1029E00003F003034360136803F0F003836013688C
:1029F00003F4E053C36012684FF4E05303EAD202D9
:102A000002610448006800F00F0008607047000091
:102A100008380240003C024001480068704700004E
:102A2000000100200448054900680968044AC1F310
:102A30008221515CC84070470001002008380240E4
:102A4000947000080448054900680968044AC1F305
:102A50004231515CC84070470001002008380240F4
:102A600094700008154810B5006810F00C02144866
:102A700013D01449042A0FD0082A0ED10F4C241F5A
:102A80002268236802F03F025B0207D52068C0F38A
:102A90008810A0FB010106E0084610BD2168C1F3C3
:102AA0008811A1FB00010023FDF7E8FB2168C1F3B9
:102AB0000141491C4900B0FBF1F010BD083802404B
:102AC0000024F40000366E012DE9F84F050076D0A1
:102AD0002878DFF8F8B2BE4CC00749D0DBF8001008
:102AE0005846C1F38101012908D00068C0F3810074
:102AF00002280AD1201D0068400206D52068800304
:102B000036D568680028E2D032E06868B0F5803FCA
:102B100010D0B0F5A02F206810D020F480302060B5
:102B2000206820F4802020606868A0B1FFF7DAFDFB
:102B300006460CE0206840F48030F4E740F4802042
:102B40002060F7E7FFF7CEFD801B642873D820686C
:102B50008003F7D50CE0FFF7C5FD064605E000BF92
:102B6000FFF7C0FD801B6428F0D820688003F7D4ED
:102B70002878DFF8608280074FF000093ED5DBF847
:102B80000010584611F00C0F09D00068C0F3810006
:102B900002280BD18D48001F0068400206D420682F
:102BA000800715D5E868012809D111E0E868B8B1B7
:102BB0000120C8F80000FFF795FD064605E002E198
:102BC000FFF790FD801B0228C0D820688007F7D54A
:102BD0002068296920F0F80040EAC10020600DE07B
:102BE000C8F80090FFF77EFD064604E0FFF77AFD87
:102BF000801B02281FD820688007F7D42878000798
:102C000022D5724E744869696C3671B10121016038
:102C1000FFF768FD074604E0FFF764FDC01B0228CC
:102C200009D830688007F7D50EE0C0F80090FFF7AC
:102C300059FD074605E083E0FFF754FDC01B02285D
:102C40007ED830688007F7D42878400768D5DFF849
:102C50007CA100270AF1380ADAF80000C0000BD482
:102C6000DAF8001041F08051CAF80010DAF80000DC
:102C7000012700F080500090584E3068C00510D4F5
:102C8000306840F480703060FFF72CFD009005E064
:102C9000FFF728FD0099401A022851D83068C00576
:102CA000F6D54A4EA868683601280FD00528306846
:102CB00010D020F001003060306820F00400306057
:102CC000A868B8B1FFF70EFD00900FE0306840F043
:102CD0000100F4E740F004003060F7E7FFF702FD81
:102CE0000099411A41F28830814264D830688007E7
:102CF000F4D50EE0FFF7F6FC009007E0FFF7F2FCDA
:102D00000099411A41F28830814254D830688007D6
:102D1000F4D42FB1DAF8001021F08051CAF8001075
:102D2000A869C0B3DBF80010C1F3810102294AD0C1
:102D30000228484607D0C8F86000FFF7D3FC00E03F
:102D400039E005463AE04746C8F86000FFF7CAFC9C
:102D5000064604E0FFF7C6FC801B02282BD820683B
:102D60008001F7D4D5E907010843A96A1C4A49083C
:102D700002EB01416A6A41EA8211084395F82C107E
:102D800040EA01611148001F016001203866FFF729
:102D9000A9FC054605E014E0FFF7A4FC401B02284F
:102DA00009D820688001F7D50BE000BFFFF79AFC37
:102DB000401B022802D90320BDE8F88F206880015B
:102DC000F4D40020F8E70120F6E7000008380240BC
:102DD0000038024000004742800E47420070004029
:102DE0000000FFFF4FF0E0210428086903D020F025
:102DF00004000861704740F00400FAE710B5401E77
:102E0000B0F1807F01D3012010BD4FF0E02460615C
:102E10000F21601701F031F90020A0610720206127
:102E2000002010BD7047704730B590F83820012A57
:102E300020D0012280F83820022380F8393003683E
:102E40005C6824F070045C6003685C680D682C4367
:102E50005C6003689C6824F080049C6003689C6844
:102E600049680C439C6080F83920002180F83810B4
:102E7000084630BD022030BD10B5040003D094F8E0
:102E8000390010B107E0012010BD002084F838009F
:102E9000204600F00DF8022084F83900211D20683A
:102EA00001F04EFE012084F83900002010BD000022
:102EB00008B501681948B1F1804F14D0184A914201
:102EC00020D1016841F0100101600068002200F08B
:102ED0001000009002213620FFF7B4FC3620BDE838
:102EE0000840FFF7A3BC016841F0010101600068E0
:102EF000002200F00100009005211C20FFF7A2FC39
:102F00001C20ECE7074A914207D1016841F0040117
:102F10000160006800F00400009008BD40380240E5
:102F200000100040000800400168CA6842F0010239
:102F3000CA600068016841F001010160002070472B
:102F400070B5044690F83800012817D0012584F8A0
:102F50003850022084F839002068826822F0770215
:102F600022F47F4282600868502837D00DDC202888
:102F700059D005DC88B3102841D151E0022070BD42
:102F8000302853D040283AD13FE060282ED0702816
:102F90000BD0B0F5805F03D0B0F5005F2FD110E00B
:102FA0002068816821F0070115E0CB68D1E9012193
:102FB000206801F025FE2168886840F0770088606D
:102FC0001DE0CB68D1E90121206801F019FE2068DD
:102FD000816841F48041816011E01EE0CA6849685F
:102FE000206801F01FFE5021206806E0CA68496889
:102FF000206801F028FE6021206801F00BFE84F8B3
:103000003950002084F8380070BDCA6849682068CB
:1030100001F008FE40212068EFE700212068ECE77E
:1030200010212068E9E720212068E6E730212068A8
:10303000E3E7704770B50446006801694FF000058A
:10304000C943890715D4C168C943890711D4E91E4A
:10305000016101202076206880698007204602D027
:10306000FFF7E7FF04E000F098F8204600F096F83C
:10307000257620680169C943490717D4C168C94347
:10308000490713D46FF00401016102202076206803
:10309000806910F4407F204602D0FFF7CAFF04E0A9
:1030A00000F07BF8204600F079F825762068016969
:1030B000C943090716D4C168C943090712D46FF080
:1030C00008010161042020762068C069800720463D
:1030D00002D0FFF7AEFF04E000F05FF8204600F0FA
:1030E0005DF8257620680169C943C90617D4C1680F
:1030F000C943C90613D46FF010010161082020767E
:103100002068C06910F4407F204602D0FFF791FF8D
:1031100004E000F042F8204600F040F825762068F0
:103120000169C943C90708D1C168C943C90704D1A6
:10313000891E0161204600F033F820680169C94307
:10314000090609D4C168C943090605D46FF0800196
:1031500001612046FFF766FE20680169C943490600
:1031600009D4C168C943490605D46FF04001016123
:10317000204600F029F820680169C94389060BD46C
:10318000C168C943890607D46FF020010161204658
:10319000BDE87040FFF747BE70BD70477047000044
:1031A00010B5044600680649884201D1FFF7A0FA2D
:1031B0000448844203D1BDE8104001F0C3B810BDFB
:1031C00000000140EC0A00207047704770B5040011
:1031D00004D094F83900002510B106E0012070BD3C
:1031E00084F83850204600F023F8242084F8390071
:1031F0002068C16821F40051C160204601F022FE20
:103200002068016921F4904101612068416921F041
:103210002A0141612068C16841F40051C160E56341
:10322000202084F8390084F83A00002070BD0000A6
:103230002DE9F04F0546D0F800C0DFF8F8820220F3
:103240000024BD4A012603210823DFF8F0E24702EB
:1032500087B04FF0006A4FF48079C44531D1D2F87D
:1032600000C04CF4002CC2F800C01268029602F4B0
:1032700000220592CDE903138A02CDE900206946B8
:103280007046FFF74DF9AF4EAD483060C6E901A476
:10329000C6E903477461C6E9064934623046746280
:1032A000FFF778F820B14FF48671A7A001F085FFF1
:1032B0006E63002206213420B563FFF7C3FA342081
:1032C00046E0DFF89482C44547D1D2F800C04CF400
:1032D000801CC2F800C01268804602F48012059279
:1032E0004FF480520092CDE901000320CDE90303A1
:1032F0009B4669467046FFF713F90420CDE90008A4
:103300000320CDE902606946CDF810B09348FFF77D
:1033100007F98C4E8A48603630383060C6E901A41F
:10332000C6E903477461C6E90649346230467462EF
:10333000FFF730F820B14FF49E7183A001F03DFFFC
:103340006E63002206213520B563FFF77BFA352036
:10335000FFF76CFA07B0BDE8F08FDFF80482DFF802
:10336000D8E14FF0070B0EF1040EC44533D1DEF85F
:10337000003043F01003CEF80030DEF80020CDE935
:10338000026102F010020592C022CDE90020CDF8C2
:1033900010B069467348FFF7C3F8744E7248306046
:1033A000C6E901A4C6E903477461C6E90649346267
:1033B00030467462FEF7EEFF20B14FF4B27162A0A6
:1033C00001F0FBFE6E63002205212520B563FFF7A7
:1033D00039FA2520BCE7DFF89881C44532D113685B
:1033E00043F4003313601268CDE9026102F4003245
:1033F00005926022CDE90020CDF810B0694657480B
:10340000FFF78EF84F4E4E48603E48303060C6E9B8
:1034100001A4C6E903477461C6E90649346230462F
:103420007462FEF7B7FF20B14FF4C87146A001F0F7
:10343000C4FE6E63002205212620B563FFF702FA61
:10344000262085E7DFF82C81C44535D1136843F485
:10345000802313601268CDE9026102F48022059294
:103460004FF44062CDE90020CDF810B069463D48E8
:10347000FFF756F83D4E3248603618383060C6E9DE
:1034800001A4C6E903477461C6E906494FF4003058
:10349000C6E908043046FEF77DFF20B14FF4DC7129
:1034A00029A001F08AFE6E63002205212720B56362
:1034B000FFF7C8F927204BE72F4A94457FF44AAF1E
:1034C000DEF800C04CF0200CCEF800C0DEF8002082
:1034D000029602F020020592CDE903134FF4C06278
:1034E000CDE9002069462548FFF71AF8154E1E4819
:1034F000C036183830608005C6E90104C6E90347C4
:103500007461C6E906494FF40030C6E90804304644
:10351000FEF740FF20B14FF4F0710BA001F04DFE1B
:103520006E63002205214720B563FFF78BF9472022
:103530000EE70000004C0040403802400008024006
:1035400040600240540900202E2E2F5372632F75C5
:10355000736172742E63000000500040000C024042
:103560000010014000040240406402403408002082
:103570000044004000480040001401400018024090
:10358000F8B5044690F83A0020283CD1C1B3BAB34C
:1035900094F83800012836D0012084F83800A16260
:1035A000A2850025E563222084F83A00636B174862
:1035B000D863636B16481864636B1648D864606BF5
:1035C000134605650846666B216802463046091DAC
:1035D000FEF74AFF206801684168009184F838507E
:1035E000C16841F48071C1602068416941F0010106
:1035F00041612068416941F0400141610020F8BD0E
:10360000FFE70120FBE70220F9E70000CF4D0008AB
:103610000B4E0008854D0008704770472DE9F843B0
:10362000044690F839001F4616460D46202850D112
:10363000A5B19EB194F8380001284AD0012084F841
:1036400038004FF00008C4F83C80212084F839008D
:10365000FFF748F8A6848146E68426E00120BDE80D
:10366000F883E08C401EE084A0684B46B0F5805F94
:103670004FF000024FF080012046009703D001F088
:1036800037FDE8B90DE001F033FDC8B9288821689D
:10369000C0F308004860206908B16D1C05E0AD1C4E
:1036A00003E0216815F8010B4860E08C0028D8D1B0
:1036B0004B46002240212046009701F019FD08B139
:1036C0000320CCE7202084F8390084F838800020DB
:1036D000C5E70220C3E7FEE77FB51548134901247B
:1036E000016004614FF4803100258461C0E9011557
:1036F00010490562C0E90A15C4610463C5604461EC
:10370000FDF7FBFF18B158210BA001F056FD009406
:1037100069460748CDE90145FDF746FF002803D07B
:10372000622105A001F049FD7FBD0000002001409D
:10373000780B00200100000F2E2E2F5372632F6193
:1037400064632E63000000007FB51548134901240F
:10375000016004614FF4803100258461C0E90115E6
:1037600010490562C0E90A15C4610463C56044617B
:10377000FDF7C3FF18B17B210BA001F01EFD022055
:103780008DE8310069460648FDF70EFF002803D09A
:10379000852105A001F011FD7FBD00000021014041
:1037A000C00B00200100000F2E2E2F5372632F61DB
:1037B00064632E63000000007FB51548134901249F
:1037C000016004614FF4803100258461C0E9011576
:1037D00010490562C0E90A15C4610463C56044610B
:1037E000FDF78BFF18B19E210BA001F0E6FC032032
:1037F0008DE8310069460648FDF7D6FE002803D063
:10380000A82105A001F0D9FC7FBD000000220140E5
:10381000080C00200100000F2E2E2F5372632F6121
:1038200064632E6300000000114810B50F49016069
:103830000621416000214FF480328160C0E903120B
:103840004FF4401242610176012242768276C176BF
:1038500001774177FEF72AFB002805D0BDE810402C
:10386000502104A001F0A9BC10BD0000006400407C
:10387000280B00202E2E2F5372632F63616E2E6350
:1038800000000000114810B50F4901600621416099
:1038900000214FF480328160C0E903124FF44012DE
:1038A00042610176012242768276C17601774177C4
:1038B000FEF7FCFA002805D0BDE81040662104A000
:1038C00001F07BBC10BD000000680040500B0020E0
:1038D0002E2E2F5372632F63616E2E630000000043
:1038E000214808B5016841F400110160016801F444
:1038F00000110091016841F480010160006800221C
:1039000000F48000009007211020FEF79BFF10209C
:10391000FEF78CFF002206210D20FEF793FF0D20FD
:10392000FEF784FF002207210B20FEF78BFF0B2000
:10393000FEF77CFF002205213820FEF783FF3820A8
:10394000FEF774FF002207213920FEF77BFF3920A4
:10395000FEF76CFF002205213A20FEF773FFBDE859
:1039600008403A20FEF762BF3038024010B5AEB0D2
:10397000142232496846FCF7B2FC0021684602F086
:1039800086F92F4C2D4914222060143105A8FCF72C
:10399000A6FC002105A802F07AF9284960601422EB
:1039A00028310AA8FCF79BFC00210AA802F06FF955
:1039B0002249A06014223C310FA8FCF790FC0021A2
:1039C0000FA802F064F91D49E0601422503114A8D8
:1039D000FCF785FC002114A802F059F91749206171
:1039E0001422643119A8FCF77AFC002119A802F00E
:1039F0004EF912496061142278311EA8FCF76FFC61
:103A000000211EA802F043F90C49A06114228C3158
:103A100023A8FCF764FC002123A802F038F9074929
:103A2000E0611422A03128A8FCF759FC002128A845
:103A300002F02DF920622EB010BD0000AC6C000821
:103A40000000002030B5454887B00025016841F0EE
:103A500020010160016801F020010591016841F039
:103A600080010160016801F080010591016841F069
:103A700004010160016801F004010591016841F051
:103A800001010160016801F001010591016841F047
:103A900002010160016801F002010591016841F035
:103AA00010010160016801F010010591016841F009
:103AB00008010160016801F008010591016841F009
:103AC000400101600068012400F04000059041F6CB
:103AD0007F00CDE9000469462148CDE90245FEF7A3
:103AE0001FFD44F20700CDE9000469461D48029419
:103AF000FEF716FD4FF44040CDE9000469461A4830
:103B00000294FEF70DFD0620CDE9000569460294FA
:103B10001648FEF705FD6020CDE9000569460294D0
:103B20001348FEF7FDFC002205210720FEF78AFE60
:103B30000720FEF77BFE002205210820FEF782FE0B
:103B40000820FEF773FE002205211720FEF77AFEFB
:103B50001720FEF76BFE07B030BD00003038024082
:103B6000001402400004024000100240000802401D
:103B70000000024010B5164886B04FF08041016049
:103B800053210024C0E901140121C0E90314FFF707
:103B900073F918B149210FA001F00FFB4FF48050C9
:103BA000009069460A48FFF7CBF918B14F2109A0E8
:103BB00001F003FB049404A905480594FFF734F9C8
:103BC000002803D0562103A001F0F7FA06B010BD7B
:103BD000740A00202E2E2F5372632F74696D2E638A
:103BE0000000000010B5164886B014490024C0E952
:103BF00000148460C4600461FFF73EF918B17521B8
:103C000010A001F0DAFA4FF48050009069460C4899
:103C1000FFF796F918B17B210AA001F0CEFA0494BF
:103C200004A907480594FFF7FFF8002803D0822174
:103C300004A001F0C2FA06B010BD00000008004068
:103C4000B00A00202E2E2F5372632F74696D2E63DD
:103C5000000000000D4810B50B4901604FF4E13140
:103C60004160002181600C22C160C0E904128161C1
:103C7000C161FFF7ABFA002805D0BDE810408521EF
:103C800003A001F09ABA10BD004C0040B406002019
:103C90002E2E2F5372632F75736172742E63000082
:103CA0000D4810B50B4901604FF4E131416000212E
:103CB00081600C22C160C0E904128161C161FFF71B
:103CC00085FA002805D0BDE81040972103A001F037
:103CD00074BA10BD00500040F40600202E2E2F5361
:103CE00072632F75736172742E6300000D4810B5F6
:103CF0000B4901604FF4E1314160002181600C22E9
:103D0000C160C0E904128161C161FFF75FFA002858
:103D100005D0BDE81040BD2103A001F04EBA10BD92
:103D200000440040740700202E2E2F5372632F751D
:103D3000736172742E6300000D4810B50B49016069
:103D40004FF4E1314160002181600C22C160C0E983
:103D500004128161C161FFF739FA002805D0BDE87E
:103D60001040D02103A001F028BA10BD0048004047
:103D7000B40700202E2E2F5372632F757361727457
:103D80002E630000FEE700000F4908B5002088718F
:103D90008880488000F040F802F0BCFE4FF0FF340D
:103DA0000090052000F0D6FA2146012002F068FBC1
:103DB0000128F6D1FDF7C8FB0448FCF791FF02216A
:103DC000684601F04EFFECE792000020280B00202F
:103DD0000F4908B5002088718880488000F01CF8E1
:103DE00002F098FE4FF0FF340090062000F0B2FA87
:103DF0002146012002F044FB0128F6D1FDF7BCFB6F
:103E00000448FCF795FF0221684601F02AFFECE721
:103E10009A000020280B002070B541F288342DED67
:103E2000028B41F270759FED0F8AB7EE001AB7EE64
:103E3000000AF0EE480A23462A4603210A4800F009
:103E400055F9F0EE480ABDEC028B23462A46BDE840
:103E5000704005480321B7EE001AB7EE000A803023
:103E600000F044B90AD7233C3405002070B56348FC
:103E7000634A418AC80607D54FF4FA7090804342DE
:103E8000D380108153810BE041F2707090804EF628
:103E90009000D0804FF4FA6010814FF630005081CE
:103EA0005848594B594C90ED000ACD07B3EE0E2AF5
:103EB000DFED571ADFED570A02D030EE420A20E05C
:103EC0008D0702D530EE020A1BE010EE105A9D421B
:103ED00005D210EE105AA54201DAC0ED001A90ED9D
:103EE000000AB5EEC00AF1EE10FA03DD30EE600A0A
:103EF00080ED000AB5EEC00AF1EE10FA03D230EE02
:103F0000200A80ED000A3F4EB3EE0E1A957896ED2A
:103F1000010A30EE013A70EE412A25B10D074CD569
:103F2000C0ED012A44E0374E4D0796ED021A02D546
:103F300031EE421A20E00D0702D531EE021A1BE0E5
:103F400011EE105A9D4205D211EE105AA54201DA27
:103F5000C0ED021A90ED021AB5EEC01AF1EE10FA99
:103F600003DD31EE601A80ED021AB5EEC01AF1EEF3
:103F700010FA03D231EE201A80ED021A4D061ED43B
:103F80000D06CDD41EE000BF90ED010AB5EEC00ACB
:103F9000F1EE10FA03DD30EE600A80ED010AB5EEB5
:103FA000C00AF1EE10FA03D230EE200A80ED010AC9
:103FB000080412D50120107016E04D0702D580EDDF
:103FC000013AF5E710EE105A9D42DDD210EE103A9C
:103FD000A342D9DAC0ED011AD6E7480401D5002082
:103FE00009E01078002807D0080505D5880601D516
:103FF000032000E00220107070BD00008E10002031
:104000003A00002084010020000096C3000096437F
:104010000000000000009643012908D0022905D1C4
:1040200000219FED040BC16080ED040B7047182147
:10403000FCF76EB9000000000000000010B5044657
:10404000FEF750FB2060616801B1411AC4E901012B
:10405000E068DFED080A084400EE100AE060B8EE00
:10406000C00A20EE200A10EE100AFCF74AFAC4E952
:10407000040110BD6F12833A70470907090E00282A
:1040800006DA00F00F0000F1E02080F8141D704700
:1040900000F1E02080F800147047000070B50024A3
:1040A000FEF720FB00EE100A0E4B0F4DB8EE400A53
:1040B000A3F114015FF0010003EB8402D2ED000ACA
:1040C00070EE600A10EE902AAA420A8A00FA04F6FC
:1040D00001DD324300E0B243641C24B20A82092CA1
:1040E000EADB70BDF41000200000C84230B4034C7D
:1040F0008467034CC46730BC01F0C2BE815E000817
:104100008F5E000810B52148214C90ED0D0A84ED1A
:10411000010A008EFCF7E8F99FED1E1B53EC112BF2
:10412000FCF701F9FCF700FA20601C48DFED1C0ADF
:10413000DFED1E1A90ED000A20EE200A84ED030A3E
:1041400090ED051AB5EEC00A174861EE200A9FED02
:10415000151AF1EE10FAC4ED040A02D884ED031A20
:1041600005E010EE101A814201DBC4ED031AF5EEF2
:10417000C00AF1EE10FA02D884ED041A10BD10EE58
:10418000901A8142FADBC4ED041A10BDA41000207D
:10419000C8000020FCA9F1D24D62503FB0110020B0
:1041A0006666BA4100000000000096430000964396
:1041B0002DE9F047564E02215648FEF789FA564F30
:1041C0000025DFF85891DFF858817C6893E0705D36
:1041D000A5287DD174190521204602F0C5FB0028D1
:1041E00076D0B4F801102046093102F09FFB002878
:1041F0007FD0B4F80500A0F5007101391DD1E17937
:1042000089F80010217A89F80110B4F80910A9F88A
:104210000210B4F80B10A9F80410B4F80D10A9F8A6
:104220000810B4F80F10A9F80C10B4F81110A9F880
:104230000A10B4F81310A9F80E10B4F80500A0F590
:104240000071023917D1B4F81110A9F81010B4F8A0
:104250001310A9F81210B4F80910A9F83210D4F804
:104260000B10C9F83410B4F80F10A9F83810B4F8CE
:104270000710A9F83010B4F80500A0F50071033953
:104280000FD1D4F80710C9F82010D4F80B10C9F8D2
:104290002410D4F80F10C9F82810D4F81310C9F856
:1042A0002C10B4F80500B0F5017F02D1E17989F84E
:1042B0000610B4F80500A0F50071073915D1E079B2
:1042C000012808D1217A89F81410D4F8091000E0E7
:1042D0000FE0C9F81810E079022806D1217A89F890
:1042E0001510D4F80910C9F81C1060780935284455
:1042F000C5B26D1CEDB2B8F800008542FFF467AF9F
:104300007C60BDE8F047C8210148FCF701B8000017
:10431000C50F002000180240A4000020A4100020B7
:104320007C00002010B50446FEF7DCF900EE100A10
:104330000348B8EE400A00EB840080ED000A10BD8F
:10434000F410002002488168491C81607047000019
:10435000E010002010B50446FEF7C4F900EE100A84
:104360000348B8EE400A00EB840080ED000A10BD5F
:104370001811002070B533482DED028BFFF75EFE5B
:10438000314C324D324A206A2E49DFED320A9FED20
:10439000321AA84202DBE36893420FDD94ED030A70
:1043A00070EE601A91ED020AB8EEC00A61EE801A52
:1043B00094ED070A01EEC10A84ED070A94ED030AA1
:1043C0009FED268A10EE103A93420FDAA8420DD1E3
:1043D00070EE600A91ED020AB8EEC00A60EE800A43
:1043E000B0EE480A00EEC10A84ED070A1C48008FAF
:1043F00000EE100AB8EE400A84ED050AD4ED060A74
:10440000B4EE600AF1EE10FA01D084ED070A84EDF3
:10441000060A02210B48FFF7FFFD94ED070AB5EEEF
:10442000C00AF1EE10FA06D89FED0E0A84ED070AD5
:10443000BDEC028B70BD10EE100AA842F8DB84EDD3
:10444000078AF5E7C8110020C8000020000070426C
:104450000000A0420000A0426F12833A00007042A8
:10446000A4100020000000002DED028B82B002F0AD
:1044700051FBB3EE041ADFED580A0090B1EE000ACA
:104480004FF47A7342F2107203215448FFF72EFE64
:104490009FED538ADFED538A534E544C544FDFF84F
:1044A0003C81544DDFF850910820B0EE481AF0EEF0
:1044B000680AB7EE080A01F0B3FF0220FFF74AFFCF
:1044C000707A012804D0022807D0032805D102E021
:1044D000FCF788FC01E0FFF7C9FCB5F90600D4ED54
:1044E000011A00EE100AB8EEC00AF4EEC01AF1EE9E
:1044F00010FA02D800EE100A0CE0B5F9041000EE34
:10450000101AB8EEC00AF4EEC01AF1EE10FA05DB8C
:1045100000EE101AB8EEC00A84ED010A00EE100A8F
:10452000D4ED001AB8EEC00AF4EEC01AF1EE10FA9B
:104530000AD9B5F9040000EE100AB8EEC00AF4EE8C
:10454000C01AF1EE10FA05DB00EE100AB8EEC00A50
:1045500084ED000AB5F90A0094ED020A01EE900A12
:10456000F8EEE10AB4EEE00AF1EE10FA0AD9B5F974
:10457000080001EE900AF8EEE10AB4EEE00AF1EE6E
:1045800010FA05DB00EE100AB8EEC00A84ED020A4C
:10459000387808B140F6B830B9F9001000EE900A4A
:1045A00000EE101A0D48F8EEE00AB8EEC00A01F06D
:1045B00085FB98ED140ABDEEC00A10EE100A01B298
:1045C0000E4800F0CFF868780521401C68706846F6
:1045D00001F047FB68E700000AD7233C34060020BF
:1045E0009A99D93FCDCCCC3F8E1000208401002079
:1045F0004C0000203A0000209C0E0020280B0020D8
:1046000070B588B014460D4606461C221649684609
:10461000FBF765FE002D24D0132C22D1ADF80560E8
:10462000ADF8014000208DF803000DF1070100BF37
:10463000401C15F8012BC0B201F8012BA042F7D3A2
:104640000521684601F05EFA0934E1B2684601F0DE
:1046500043FAADF81A0064231C2269460348FEF7AA
:10466000DDFF08B070BD000060700008B4070020D6
:10467000012001F0EFFAFBE708B5642001F0EAFA47
:1046800002F048FA4FF40045324FDFF8CC90334C3B
:10469000DFF8CCB06E104FF480584FF4006A0090F1
:1046A000208AC10705D0810703D5410701D500073E
:1046B00004D431465846FEF70BF804E00122314697
:1046C0005846FEF709F8207CC00604D4294638462F
:1046D000FDF7FEFF04E0012229463846FDF7FCFF06
:1046E000207C800604D431463846FDF7F1FF04E013
:1046F000012231463846FDF7EFFF207C400604D406
:1047000041464846FDF7E4FF04E0012241464846A1
:10471000FDF7E2FF207C000604D451464846FDF731
:10472000D7FF04E0012251464846FDF7D5FF208A15
:10473000C00504D404215846FDF7CAFF04E0012255
:1047400004215846FDF7C8FF4FF49671684601F002
:1047500088FAA5E70010024000140240E010002093
:104760000004024030B40C4B08224FF400741A616C
:1047700000229A601C60DA60084B0C0A1A705A70AA
:104780009C70D9701A715A719A71DA7130BC012318
:10479000024A0149FDF724B9A40F0020540000206B
:1047A0002DE9F04F89B08346FCF710FEFFF7AAFC15
:1047B000FFF7E0FDF0EE000AB3EE000AFCF700FBA5
:1047C000DFF8E891B9F90C00C82872DB784C0125B4
:1047D0004FF0020A2078002704F11C0680B17549C9
:1047E000F068884201DA657009E07349884202DCAA
:1047F00084F801A003E0884201DD03206070277087
:104800006078DFF8B881012804D0022823D003287B
:104810004ED12EE0002201214046FDF75DFF01222E
:1048200002214046FDF758FF012204214046FDF7D2
:1048300053FF6349F06888423ADB2570002201216A
:104840004046FDF749FF002202214046FDF744FFA4
:10485000012204216AE0002201214046FDF73CFFCD
:10486000002202214046FDF737FF01220421404685
:104870006EE0D9F81000B0F1834F1BDA002201215D
:104880004046FDF729FF002202214046FDF724FFA4
:10489000012204214046FDF71FFF584601F0FAFAB5
:1048A0004849F069884200DD2570277184F803A02B
:1048B00051E077E020790028F06927D042494FF095
:1048C0000002884211DD01214046FDF705FF00226C
:1048D00002214046FDF700FF012204214046FDF77A
:1048E000FBFE25702771E77035E002214746404600
:1048F000FDF7F2FE002204213846FDF7EDFE01220D
:1049000011463846FDF7E8FEE57024E02F4988425D
:1049100010DA2571002202214046FDF7DDFE00225B
:1049200004214046FDF7D8FE012211464046FDF71E
:10493000D3FE10E00022012147464046FDF7CCFEA1
:10494000002202213846FDF7C7FE01220421384625
:10495000FDF7C2FE2570B346F069FBF7D2FD0746AE
:104960008846D9F81000FBF7CCFD81468A46DBF873
:104970000C00FBF7C6FD05460E46DBF80400FBF70E
:10498000C0FD41EC100B2179E0786278CDE9062179
:1049900008908DE86006CDE9047853EC102B0C48A4
:1049A00000F00CFC09B0BDE8F08F0000B011002051
:1049B000AC00002000000C420000A04200140240A5
:1049C0000000964200005C42000048420000A04106
:1049D0000471000801F051B930B5254893B00025A5
:1049E000016841F080510160006800F08050119032
:1049F0002048016841F4804101600068022400F40D
:104A00008040119001200090000401908001CDE9C8
:104A10000640182008904FF4A870CDE9090404203E
:104A20000B906846FEF750F800B1FEE70CA90F2086
:104A300081E831004FF4A0500F904FF48050109057
:104A400005210CA8FDF730FF00B1FEE7FDF7E4FFFC
:104A50004FF47A71B0FBF1F0FEF7D0F90420FEF7C5
:104A6000C1F900220F21501EFDF7ECFE13B030BD3E
:104A700040380240007000401048016841F4700165
:104A800001600F48016841F0010101600C4A0021FA
:104A90000832116002680B4B1A400260031D0A4A7B
:104AA0001A60026822F48022026005480C3001601E
:104AB00002495806803908607047000088ED00E020
:104AC00000380240FFFFF6FE1030002470B50024CD
:104AD000FDF708FE00EE100A0E4B0F4DB8EE400A2F
:104AE000A3F138015FF0010003EB8402D2ED000A6C
:104AF00070EE600A10EE902AAA424A8A00FA04F682
:104B000001DD324300E0B243641C24B24A82072C28
:104B1000EADB70BD181100200000C8420148FEF712
:104B200089BA0000700D00200148FEF783BA00002A
:104B3000740A00200148FEF77DBA0000EC0A00204C
:104B4000F0B50268234B244D244E254F254C4FF0E1
:104B5000804C984209D0604507D0A84205D0B042A9
:104B600003D0B84201D0A04204D122F0700E4A68AE
:104B700042EA0E0298421BD0604519D0A84217D0D5
:104B8000B04215D0B84213D0A04211D0164DA84261
:104B90000ED0164DA8420BD0154DA84208D0154D89
:104BA000A84205D0144DA84202D0144DA84203D10A
:104BB00022F44075CA682A4302608A68C2620A68A1
:104BC0008262984201D0A04201D1096901630121AA
:104BD0004161F0BD000001400004004000080040B9
:104BE000000C00400004014000400140004401402E
:104BF0000048014000180040001C00400020004018
:104C000010B5846842EA032224F47F440A43224315
:104C1000826010BD826822F070020A4342F00701F0
:104C20008160704710B5036A046A24F001040462CD
:104C3000846924F0F00444EA021423F00A020A43CF
:104C40008461026210BD10B5036A23F01003036291
:104C50008369046A23F4704343EA023224F0A00318
:104C600043EA01118261016210BD000038B51C4C9D
:104C700021680868C968C0F3001001F0100100281D
:104C80002DD000292BD00720FFF74CFB15480168D9
:104C90000A6822F001020A6021680A6849680091E6
:104CA00001684A68104BC2F107021A8007224A6065
:104CB0000068016841F0010101600D480B4900687E
:104CC00001F06EFD0948001F4068002807D009491F
:104CD0004FF080500860BFF34F8FBFF36F8F38BD28
:104CE000B40600205409002086000020280000207F
:104CF0001C00002004ED00E038B51C4C2168086859
:104D0000C968C0F3001001F0100100282DD000295F
:104D10002BD00820FFF706FB154801680A6822F02F
:104D200001020A6021680A684968009101684A68BE
:104D3000104BC2F107021A8007224A60006801681E
:104D400041F0010101600D480B49006801F028FDA8
:104D5000094808388068002807D009494FF080507A
:104D60000860BFF34F8FBFF36F8F38BDF40600208C
:104D7000B4090020900000202C000020200000201A
:104D800004ED00E070B5846B2068406994F8391038
:104D9000C0F3C0100025212904D118B1E5842046B4
:104DA00000F046F82068406994F83A10C0F380108B
:104DB000222904D118B1E585204600F02BF8E06BDC
:104DC00040F01000E0632046FEF7FFF970BD10B51B
:104DD0000146806B09680968C90513D40021C185A3
:104DE0000168CA6822F48072CA6001684A6922F0C8
:104DF00001024A6101684A6922F040024A612021A9
:104E000080F83A10FEF708FC10BD10B5806BFEF775
:104E100004FC10BD0168CA6822F49072CA6001687F
:104E20004A6922F001024A61202180F83A10704755
:104E30000168CA6822F0C002CA60202180F83910D7
:104E4000704700002DE9F04104460068016921F433
:104E50004052E168114301612168C86849F20C625F
:104E600090432369A268E5691A4363692B431A4397
:104E70000243CA602168486920F44072A069104367
:104E80004861E1696425B1F5004F9748974A216868
:104E90004FF032083FD0914201D081427CD1FDF7E2
:104EA000D1FD00EBC00101EB001061688900B0FB8F
:104EB000F1F6FDF7C7FD00EBC00101EB00106168E2
:104EC0008900B0FBF1F0B0FBF5F06FF0180148433A
:104ED00006EB800108EB0110B0FBF5F000F0F006E6
:104EE000FDF7B0FD00EBC00101EB00106168890027
:104EF000B0FBF1F0B0FBF5F006EB0016FDF7A2FDFC
:104F000000EBC00101EB001061688900B0FBF1F714
:104F1000FDF798FDD2E0914201D081423DD1FDF7ED
:104F200091FD00EBC00101EB001061684900B0FB8E
:104F3000F1F0B0FBF5F00601FDF784FD00EBC001D8
:104F400001EB001061684900B0FBF1F7FDF77AFD55
:104F500000EBC00101EB001061684900B0FBF1F00B
:104F6000B0FBF5F06FF01801484307EB800108EB48
:104F7000C100B0FBF5F000F0F80006EB4006FDF7CD
:104F800061FD00EBC00101EB001061684900B0FB5E
:104F9000F1F7FDF757FD3CE055E0FDF743FD00EB71
:104FA000C00101EB001061684900B0FBF1F0B0FBFB
:104FB000F5F00601FDF736FD00EBC00101EB001036
:104FC00061684900B0FBF1F7FDF72CFD00EBC00173
:104FD00001EB001061684900B0FBF1F0B0FBF5F0A7
:104FE0006FF01801484307EB800108EBC100B0FBEC
:104FF000F5F000F0F80006EB4006FDF713FD00EBBE
:10500000C00101EB001061684900B0FBF1F7FDF74A
:1050100009FD00EBC00101EB001061684900B0FB25
:10502000F1F0B0FBF5F06FF01801484307EB800199
:1050300008EBC100B0FBF5F000F007002168304438
:105040008860BDE8F081FDF7EDFC00EBC00101EBED
:10505000001061688900B0FBF1F6FDF7E3FC00EB9E
:10506000C00101EB001061688900B0FBF1F0B0FBFA
:10507000F5F06FF01801484306EB800108EB0110D2
:10508000B0FBF5F000F0F006FDF7CCFC00EBC00142
:1050900001EB001061688900B0FBF1F0B0FBF5F0A6
:1050A00006EB0016FDF7BEFC00EBC00101EB0010A3
:1050B00061688900B0FBF1F7FDF7B4FC00EBC001BB
:1050C00001EB001061688900B0FBF1F0B0FBF5F076
:1050D0006FF01801484307EB800108EB0110B0FBAB
:1050E000F5F000F00F00A9E70014014000100140A6
:1050F0002DE9F041984617460E460446069D1DE0F0
:10510000681C1BD02DB1FDF7EDFAA0EB0800A842FA
:1051100014D92068C16821F4D071C1602068416948
:1051200021F001014161202084F8390084F83A001F
:10513000002084F838000320BDE8F0812068006872
:1051400036EA000004D00020B842D9D00020F3E7AE
:105150000120F9E738B5154C21680868C968C0F323
:10516000001001F0100100281ED000291CD00620DC
:10517000FFF7D8F80E4D2868016821F001010160A1
:105180002068016840680090286840680949C0F1BB
:10519000C8000880FFF70CF82968C8204860286814
:1051A000016841F00101016038BD0000B407002032
:1051B000940800207C000020FEE7FEE70FB4054BBA
:1051C00010B503A9044A029800F0DAF810BC5DF8A3
:1051D00014FB0000295B00086401002002E008C8FD
:1051E000121F08C1002AFAD170477047002001E061
:1051F00001C1121F002AFBD1704700002DE9FF5F9B
:1052000082B00021DDE90430020DDDF840B0034337
:1052100018D044F61050A2F2FF32424315141198F0
:1052200001281FD0A5EB0B00401C5FEA000A4FF0DD
:1052300000064E4FDFF83891B046504615D5CAF1FA
:10524000000413E0119801244AA3012801D16FEA58
:105250000B010298119AC0E90031C0E9024206B080
:10526000BDE8F09FCBF10000DFE704460021404A93
:10527000491842EB0450CDE9001012E0E00707D0D6
:1052800032463B4640464946FBF74DF88046894644
:1052900032463B4610461946FBF745F806460F4690
:1052A0006410002CEAD1DDE90401DDE90023BAF144
:1052B000000F06DAFBF737F842464B46FBF733F8A8
:1052C00005E0FBF7A2F842464B46FBF79EF8044682
:1052D0000E460022284BFBF7CBFA03D84FF0FF30E5
:1052E000014607E00022254B20463146FBF701FA34
:1052F000FBF7A6FA102409E0002C0ADB0A2200239F
:10530000FAF7BCFF039B30321A55641E50EA0102C3
:10531000F2D1641C039AC4F111031444119A012AB6
:1053200003D0012208430DD10AE0084304D0002035
:105330004FF0110B119072E7A3EB0B056D1E0DE002
:105340005B4504DD4FF0000205F1010504E003DADE
:105350004FF00002A5F10105002AECD00298119946
:10536000C0E90231C0E9004579E7000000001440BF
:105370000000F03F300000000000F0430000E03F7C
:105380002DE9FF4F95B09B468946064600250FE262
:10539000252877D100242746F84A0121059400E00A
:1053A000044316F8013F203B01FA03F01042F7D105
:1053B00030782A2811D06FF02F033078A0F1300216
:1053C000092A16D8059A44F0020402EB820203EB84
:1053D00042021044761C0590EFE759F8042B059221
:1053E000002A03DA504244F40054059044F00204C9
:1053F000761C30782E2816D116F8010F44F00404DC
:105400002A280DD06FF02F023078A0F13003092B3D
:1054100009D807EB870302EB4303C718761CF3E7B1
:1054200059F8047B761C30786C280FD006DC4C28A9
:1054300017D068280DD06A2814D104E0742810D041
:105440007A280FD10DE044F400140AE044F48014EB
:1054500001E044F440147278824202D104F58014D1
:10546000761C761C307866280BD013DC582877D051
:1054700009DC002875D04528F6D04628F4D0472806
:105480001AD19DE118E0632835D0642879D06528C9
:1054900012D195E1702873D008DC6728F1D0692813
:1054A0006FD06E280DD06F2806D1B5E073282CD0B0
:1054B000752875D0782874D05A46179990476D1C76
:1054C00075E1C4F30250022809D003280DD0D9F8A1
:1054D000001004280DD00D6009F1040967E1D9F826
:1054E0000010EA17C1E90052F6E7D9F800100D8064
:1054F000F2E70D70F0E719F8041B8DF8001000209A
:105500008DF80100EA46012003E059F804AB4FF0A2
:10551000FF3061074FF0000102D40DE008F10101F6
:105520008846B9420FDA8045F8DB1AF808100029DE
:10553000F4D108E008F1010188468142FADB1AF84B
:1055400008100029F6D105985B46A0EB0807214614
:105550003846179A00F094FA284400EB080507E053
:105560004DE029E10DE01AF8010B5A4617999047D2
:10557000B8F10108F7D25B4621463846179A13E185
:1055800042E00A220092C4F302524FF0000A022ABB
:1055900008D059F804CB032A4FEAEC710AD00DE089
:1055A00029E02AE009F1070121F00702F2E802C12F
:1055B000914609E00FFA8CFC4FEAEC71042A03D102
:1055C0004FFA8CFC4FEAEC71002907DA0A460021F9
:1055D000DCF1000C61EB02012D2202E0220504D572
:1055E0002B228DF80420012203E0E20701D02022C3
:1055F000F7E7904659E00A2102E010220DE0102161
:105600004FF0000A00910BE010224FF0000A44F026
:1056100004040827009203E008224FF0000A0092D9
:10562000C4F30252022A05D059F804CB0021032A00
:1056300008D009E009F1070121F00702F2E802C1F0
:10564000914605E01FFA8CFC042A01D10CF0FF0CF6
:105650004FF00008220728D5702806D0009B83F061
:10566000100353EA0A0305D00EE040228DF804200F
:10567000012208E05CEA010206D030228DF8042005
:105680008DF8050002229046009B83F0080353EA40
:105690000A030AD15CEA010201D1620705D5302272
:1056A0008DF804204FF001087F1E582804D034A044
:1056B00003900EA802900DE036A0F9E7534660462D
:1056C000009AFAF7DBFD84460398825C0298401E3C
:1056D000029002705CEA0100F0D1029806A9081A53
:1056E00000F1200A600702D524F4803400E001278D
:1056F000574502DDA7EB0A0000E0002000EB0A019D
:10570000009005984144401A0590E00306D45B469A
:105710002146179A059800F0B3F90544002706E0E2
:1057200001A85A46C05D179990476D1C7F1C4745DC
:10573000F6DBE0030CD55B462146179A059800F08E
:105740009FF9054404E030205A46179990476D1C94
:105750000099481E00900029F5DC08E002980299A3
:105760005A460078491C0291179990476D1CBAF16E
:105770000001AAF1010AF1DC65E10000092801003D
:1057800030313233343536373839616263646566B7
:105790000000000030313233343536373839414279
:1057A000434445460000000000F058F90544761CCB
:1057B000307800287FF4ECAD19B02846BDE8F08FB2
:1057C000620700D4062709F1070222F0070CFCE863
:1057D0000223E14603F000485FEA080C02D00FF212
:1057E000702C0DE05FEA045C02D50FF2682C07E034
:1057F0005FEAC47C02D00FF2602C01E0AFF2700CC3
:105800004FF0FF3823F00043CDF850C065280CD08E
:1058100006DC452809D046281DD047283DD13DE06B
:10582000662818D067287ED138E00021112F01DBCF
:10583000112000E0781CCDE9000106A90EA8FFF7B1
:10584000DDFCDDE90F010E9A03910021009207F1C2
:10585000010A04914DE04FF000400097CDE901109E
:1058600006A90EA8FFF7CAFCDDE90F0203920E9B02
:1058700011990022DDF80CA00093049211B9791C53
:1058800000EB010AB7EB0A0004D4C0F1FF3007F1C6
:10589000010A0490AAEB0700019044E0012F00DA0E
:1058A00001270021112F01DD112000E03846CDE94C
:1058B000000106A90EA8FFF7A1FCDDE90F010E9A71
:1058C0000391002104910092BA4621070CD4039958
:1058D000514500DA8A46BAF1010F05DD009AAAF1B6
:1058E0000101515C302908D0B84202DA10F1040FEE
:1058F00006DA0121CDE9011015E0AAF10101E9E77D
:10590000002805DC049901440491AAEB000102E09F
:10591000411C514500DD8A460499401A401C019003
:105920004FF000400290200704D40198504501DB5D
:10593000CDF8048000208DF84F0002980DF14F073C
:10594000B0F1004F25D02B200E9002984FF00208A6
:1059500000280CDA404202902D200E9007E00A2128
:105960000298FAF7FDFD3031029007F8011DB8F1F9
:105970000001A8F10108F2DC02980028EFD1791E9D
:105980000E980870307800F0200040F0450007F8CD
:10599000020D12A8C01B00F107081498007800B18E
:1059A000012000EB0A01019801EBE07105984144E8
:1059B000401A401E0590E00306D45B462146179A24
:1059C000059800F05DF805441498007818B15A461F
:1059D000179990476D1CE00324D55B462146179A22
:1059E000059800F04DF805441CE00498002807DBFA
:1059F000DDE90301884203DD0098405C179901E06E
:105A0000179930205A469047049805F10105401C2B
:105A100004900198401E019004D12E205A461799F7
:105A200090476D1CBAF10001AAF1010ADDDC05E026
:105A300017F8010B5A46179990476D1CB8F10001F1
:105A4000A8F10108F4DC5B462146179A0598ABE6FD
:105A50002D0000002B000000200000002DE9F04187
:105A6000044600251E461746880404D405E039463E
:105A70002020B0476D1C641EF9D52846BDE8F08192
:105A80002DE9F041044600251E469046C80301D585
:105A9000302700E02027880404D505E04146384639
:105AA000B0476D1C641EF9D52846BDE8F081D0EDE5
:105AB000000AF4EEC00AF1EE10FA01DD80ED000AF2
:105AC000D0ED000AB1EE400AF4EEC00AF1EE10FA91
:105AD00001D280ED000A704730B50C46050001D0B8
